{
  "_format": "hh-sol-artifact-1",
  "contractName": "AuthenticityNFT",
  "sourceName": "contracts/AuthenticityNFT.sol",
  "abi": [
    {
      "inputs": [
        {
          "internalType": "string",
          "name": "_name",
          "type": "string"
        },
        {
          "internalType": "string",
          "name": "_symbol",
          "type": "string"
        },
        {
          "internalType": "string",
          "name": "_baseURI",
          "type": "string"
        },
        {
          "internalType": "address",
          "name": "_initialOwner",
          "type": "address"
        }
      ],
      "stateMutability": "nonpayable",
      "type": "constructor"
    },
    {
      "inputs": [],
      "name": "ApprovalCallerNotOwnerNorApproved",
      "type": "error"
    },
    {
      "inputs": [],
      "name": "ApprovalQueryForNonexistentToken",
      "type": "error"
    },
    {
      "inputs": [],
      "name": "BalanceQueryForZeroAddress",
      "type": "error"
    },
    {
      "inputs": [],
      "name": "MintERC2309QuantityExceedsLimit",
      "type": "error"
    },
    {
      "inputs": [],
      "name": "MintToZeroAddress",
      "type": "error"
    },
    {
      "inputs": [],
      "name": "MintZeroQuantity",
      "type": "error"
    },
    {
      "inputs": [],
      "name": "NotCompatibleWithSpotMints",
      "type": "error"
    },
    {
      "inputs": [
        {
          "internalType": "address",
          "name": "owner",
          "type": "address"
        }
      ],
      "name": "OwnableInvalidOwner",
      "type": "error"
    },
    {
      "inputs": [
        {
          "internalType": "address",
          "name": "account",
          "type": "address"
        }
      ],
      "name": "OwnableUnauthorizedAccount",
      "type": "error"
    },
    {
      "inputs": [],
      "name": "OwnerQueryForNonexistentToken",
      "type": "error"
    },
    {
      "inputs": [],
      "name": "OwnershipNotInitializedForExtraData",
      "type": "error"
    },
    {
      "inputs": [],
      "name": "ReentrancyGuardReentrantCall",
      "type": "error"
    },
    {
      "inputs": [],
      "name": "SequentialMintExceedsLimit",
      "type": "error"
    },
    {
      "inputs": [],
      "name": "SequentialUpToTooSmall",
      "type": "error"
    },
    {
      "inputs": [],
      "name": "SpotMintTokenIdTooSmall",
      "type": "error"
    },
    {
      "inputs": [],
      "name": "TokenAlreadyExists",
      "type": "error"
    },
    {
      "inputs": [],
      "name": "TransferCallerNotOwnerNorApproved",
      "type": "error"
    },
    {
      "inputs": [],
      "name": "TransferFromIncorrectOwner",
      "type": "error"
    },
    {
      "inputs": [],
      "name": "TransferToNonERC721ReceiverImplementer",
      "type": "error"
    },
    {
      "inputs": [],
      "name": "TransferToZeroAddress",
      "type": "error"
    },
    {
      "inputs": [],
      "name": "URIQueryForNonexistentToken",
      "type": "error"
    },
    {
      "anonymous": false,
      "inputs": [
        {
          "indexed": true,
          "internalType": "address",
          "name": "owner",
          "type": "address"
        },
        {
          "indexed": true,
          "internalType": "address",
          "name": "approved",
          "type": "address"
        },
        {
          "indexed": true,
          "internalType": "uint256",
          "name": "tokenId",
          "type": "uint256"
        }
      ],
      "name": "Approval",
      "type": "event"
    },
    {
      "anonymous": false,
      "inputs": [
        {
          "indexed": true,
          "internalType": "address",
          "name": "owner",
          "type": "address"
        },
        {
          "indexed": true,
          "internalType": "address",
          "name": "operator",
          "type": "address"
        },
        {
          "indexed": false,
          "internalType": "bool",
          "name": "approved",
          "type": "bool"
        }
      ],
      "name": "ApprovalForAll",
      "type": "event"
    },
    {
      "anonymous": false,
      "inputs": [
        {
          "indexed": true,
          "internalType": "address",
          "name": "to",
          "type": "address"
        },
        {
          "indexed": true,
          "internalType": "uint256",
          "name": "tokenId",
          "type": "uint256"
        },
        {
          "indexed": false,
          "internalType": "string",
          "name": "ipfsHash",
          "type": "string"
        },
        {
          "indexed": false,
          "internalType": "uint256",
          "name": "confidenceScore",
          "type": "uint256"
        },
        {
          "indexed": false,
          "internalType": "string",
          "name": "aiModel",
          "type": "string"
        },
        {
          "indexed": false,
          "internalType": "uint256",
          "name": "timestamp",
          "type": "uint256"
        }
      ],
      "name": "AuthenticityNFTMinted",
      "type": "event"
    },
    {
      "anonymous": false,
      "inputs": [
        {
          "indexed": false,
          "internalType": "string",
          "name": "oldBaseURI",
          "type": "string"
        },
        {
          "indexed": false,
          "internalType": "string",
          "name": "newBaseURI",
          "type": "string"
        },
        {
          "indexed": false,
          "internalType": "uint256",
          "name": "timestamp",
          "type": "uint256"
        }
      ],
      "name": "BaseURIUpdated",
      "type": "event"
    },
    {
      "anonymous": false,
      "inputs": [
        {
          "indexed": true,
          "internalType": "uint256",
          "name": "fromTokenId",
          "type": "uint256"
        },
        {
          "indexed": false,
          "internalType": "uint256",
          "name": "toTokenId",
          "type": "uint256"
        },
        {
          "indexed": true,
          "internalType": "address",
          "name": "from",
          "type": "address"
        },
        {
          "indexed": true,
          "internalType": "address",
          "name": "to",
          "type": "address"
        }
      ],
      "name": "ConsecutiveTransfer",
      "type": "event"
    },
    {
      "anonymous": false,
      "inputs": [
        {
          "indexed": true,
          "internalType": "address",
          "name": "minter",
          "type": "address"
        },
        {
          "indexed": false,
          "internalType": "bool",
          "name": "authorized",
          "type": "bool"
        },
        {
          "indexed": false,
          "internalType": "uint256",
          "name": "timestamp",
          "type": "uint256"
        }
      ],
      "name": "MinterAuthorized",
      "type": "event"
    },
    {
      "anonymous": false,
      "inputs": [
        {
          "indexed": true,
          "internalType": "uint256",
          "name": "tokenId",
          "type": "uint256"
        },
        {
          "indexed": false,
          "internalType": "string",
          "name": "reason",
          "type": "string"
        },
        {
          "indexed": false,
          "internalType": "uint256",
          "name": "timestamp",
          "type": "uint256"
        }
      ],
      "name": "NFTRevoked",
      "type": "event"
    },
    {
      "anonymous": false,
      "inputs": [
        {
          "indexed": true,
          "internalType": "address",
          "name": "previousOwner",
          "type": "address"
        },
        {
          "indexed": true,
          "internalType": "address",
          "name": "newOwner",
          "type": "address"
        }
      ],
      "name": "OwnershipTransferred",
      "type": "event"
    },
    {
      "anonymous": false,
      "inputs": [
        {
          "indexed": true,
          "internalType": "address",
          "name": "from",
          "type": "address"
        },
        {
          "indexed": true,
          "internalType": "address",
          "name": "to",
          "type": "address"
        },
        {
          "indexed": true,
          "internalType": "uint256",
          "name": "tokenId",
          "type": "uint256"
        }
      ],
      "name": "Transfer",
      "type": "event"
    },
    {
      "inputs": [
        {
          "internalType": "address",
          "name": "to",
          "type": "address"
        },
        {
          "internalType": "uint256",
          "name": "tokenId",
          "type": "uint256"
        }
      ],
      "name": "approve",
      "outputs": [],
      "stateMutability": "payable",
      "type": "function"
    },
    {
      "inputs": [
        {
          "internalType": "address",
          "name": "",
          "type": "address"
        }
      ],
      "name": "authorizedMinters",
      "outputs": [
        {
          "internalType": "bool",
          "name": "",
          "type": "bool"
        }
      ],
      "stateMutability": "view",
      "type": "function"
    },
    {
      "inputs": [
        {
          "internalType": "address",
          "name": "owner",
          "type": "address"
        }
      ],
      "name": "balanceOf",
      "outputs": [
        {
          "internalType": "uint256",
          "name": "",
          "type": "uint256"
        }
      ],
      "stateMutability": "view",
      "type": "function"
    },
    {
      "inputs": [],
      "name": "baseURI",
      "outputs": [
        {
          "internalType": "string",
          "name": "",
          "type": "string"
        }
      ],
      "stateMutability": "view",
      "type": "function"
    },
    {
      "inputs": [
        {
          "internalType": "uint256",
          "name": "tokenId",
          "type": "uint256"
        }
      ],
      "name": "getApproved",
      "outputs": [
        {
          "internalType": "address",
          "name": "",
          "type": "address"
        }
      ],
      "stateMutability": "view",
      "type": "function"
    },
    {
      "inputs": [],
      "name": "getStatistics",
      "outputs": [
        {
          "internalType": "uint256",
          "name": "totalMinted_",
          "type": "uint256"
        },
        {
          "internalType": "uint256",
          "name": "totalRevoked_",
          "type": "uint256"
        },
        {
          "internalType": "uint256",
          "name": "totalActive",
          "type": "uint256"
        }
      ],
      "stateMutability": "view",
      "type": "function"
    },
    {
      "inputs": [
        {
          "internalType": "string",
          "name": "_ipfsHash",
          "type": "string"
        }
      ],
      "name": "getTokenIdByIPFS",
      "outputs": [
        {
          "internalType": "uint256",
          "name": "",
          "type": "uint256"
        }
      ],
      "stateMutability": "view",
      "type": "function"
    },
    {
      "inputs": [
        {
          "internalType": "uint256",
          "name": "_tokenId",
          "type": "uint256"
        }
      ],
      "name": "getTokenMetadata",
      "outputs": [
        {
          "components": [
            {
              "internalType": "string",
              "name": "ipfsHash",
              "type": "string"
            },
            {
              "internalType": "uint256",
              "name": "confidenceScore",
              "type": "uint256"
            },
            {
              "internalType": "string",
              "name": "aiModel",
              "type": "string"
            },
            {
              "internalType": "uint256",
              "name": "verificationTimestamp",
              "type": "uint256"
            },
            {
              "internalType": "address",
              "name": "originalRequester",
              "type": "address"
            },
            {
              "internalType": "bool",
              "name": "isRevoked",
              "type": "bool"
            }
          ],
          "internalType": "struct AuthenticityNFT.AuthenticityMetadata",
          "name": "",
          "type": "tuple"
        }
      ],
      "stateMutability": "view",
      "type": "function"
    },
    {
      "inputs": [
        {
          "internalType": "address",
          "name": "_owner",
          "type": "address"
        }
      ],
      "name": "getTokensByOwner",
      "outputs": [
        {
          "internalType": "uint256[]",
          "name": "",
          "type": "uint256[]"
        }
      ],
      "stateMutability": "view",
      "type": "function"
    },
    {
      "inputs": [
        {
          "internalType": "string",
          "name": "",
          "type": "string"
        }
      ],
      "name": "ipfsToTokenId",
      "outputs": [
        {
          "internalType": "uint256",
          "name": "",
          "type": "uint256"
        }
      ],
      "stateMutability": "view",
      "type": "function"
    },
    {
      "inputs": [
        {
          "internalType": "address",
          "name": "owner",
          "type": "address"
        },
        {
          "internalType": "address",
          "name": "operator",
          "type": "address"
        }
      ],
      "name": "isApprovedForAll",
      "outputs": [
        {
          "internalType": "bool",
          "name": "",
          "type": "bool"
        }
      ],
      "stateMutability": "view",
      "type": "function"
    },
    {
      "inputs": [
        {
          "internalType": "uint256",
          "name": "_tokenId",
          "type": "uint256"
        }
      ],
      "name": "isValidNFT",
      "outputs": [
        {
          "internalType": "bool",
          "name": "",
          "type": "bool"
        }
      ],
      "stateMutability": "view",
      "type": "function"
    },
    {
      "inputs": [
        {
          "internalType": "address",
          "name": "_to",
          "type": "address"
        },
        {
          "internalType": "string",
          "name": "_ipfsHash",
          "type": "string"
        },
        {
          "internalType": "uint256",
          "name": "_confidenceScore",
          "type": "uint256"
        },
        {
          "internalType": "string",
          "name": "_aiModel",
          "type": "string"
        }
      ],
      "name": "mintAuthenticityNFT",
      "outputs": [
        {
          "internalType": "uint256",
          "name": "",
          "type": "uint256"
        }
      ],
      "stateMutability": "nonpayable",
      "type": "function"
    },
    {
      "inputs": [],
      "name": "name",
      "outputs": [
        {
          "internalType": "string",
          "name": "",
          "type": "string"
        }
      ],
      "stateMutability": "view",
      "type": "function"
    },
    {
      "inputs": [],
      "name": "owner",
      "outputs": [
        {
          "internalType": "address",
          "name": "",
          "type": "address"
        }
      ],
      "stateMutability": "view",
      "type": "function"
    },
    {
      "inputs": [
        {
          "internalType": "uint256",
          "name": "tokenId",
          "type": "uint256"
        }
      ],
      "name": "ownerOf",
      "outputs": [
        {
          "internalType": "address",
          "name": "",
          "type": "address"
        }
      ],
      "stateMutability": "view",
      "type": "function"
    },
    {
      "inputs": [],
      "name": "renounceOwnership",
      "outputs": [],
      "stateMutability": "nonpayable",
      "type": "function"
    },
    {
      "inputs": [
        {
          "internalType": "uint256",
          "name": "_tokenId",
          "type": "uint256"
        },
        {
          "internalType": "string",
          "name": "_reason",
          "type": "string"
        }
      ],
      "name": "revokeNFT",
      "outputs": [],
      "stateMutability": "nonpayable",
      "type": "function"
    },
    {
      "inputs": [
        {
          "internalType": "address",
          "name": "from",
          "type": "address"
        },
        {
          "internalType": "address",
          "name": "to",
          "type": "address"
        },
        {
          "internalType": "uint256",
          "name": "tokenId",
          "type": "uint256"
        }
      ],
      "name": "safeTransferFrom",
      "outputs": [],
      "stateMutability": "payable",
      "type": "function"
    },
    {
      "inputs": [
        {
          "internalType": "address",
          "name": "from",
          "type": "address"
        },
        {
          "internalType": "address",
          "name": "to",
          "type": "address"
        },
        {
          "internalType": "uint256",
          "name": "tokenId",
          "type": "uint256"
        },
        {
          "internalType": "bytes",
          "name": "_data",
          "type": "bytes"
        }
      ],
      "name": "safeTransferFrom",
      "outputs": [],
      "stateMutability": "payable",
      "type": "function"
    },
    {
      "inputs": [
        {
          "internalType": "address",
          "name": "operator",
          "type": "address"
        },
        {
          "internalType": "bool",
          "name": "approved",
          "type": "bool"
        }
      ],
      "name": "setApprovalForAll",
      "outputs": [],
      "stateMutability": "nonpayable",
      "type": "function"
    },
    {
      "inputs": [
        {
          "internalType": "address",
          "name": "_minter",
          "type": "address"
        },
        {
          "internalType": "bool",
          "name": "_authorized",
          "type": "bool"
        }
      ],
      "name": "setAuthorizedMinter",
      "outputs": [],
      "stateMutability": "nonpayable",
      "type": "function"
    },
    {
      "inputs": [
        {
          "internalType": "string",
          "name": "_baseURI",
          "type": "string"
        }
      ],
      "name": "setBaseURI",
      "outputs": [],
      "stateMutability": "nonpayable",
      "type": "function"
    },
    {
      "inputs": [
        {
          "internalType": "bytes4",
          "name": "interfaceId",
          "type": "bytes4"
        }
      ],
      "name": "supportsInterface",
      "outputs": [
        {
          "internalType": "bool",
          "name": "",
          "type": "bool"
        }
      ],
      "stateMutability": "view",
      "type": "function"
    },
    {
      "inputs": [],
      "name": "symbol",
      "outputs": [
        {
          "internalType": "string",
          "name": "",
          "type": "string"
        }
      ],
      "stateMutability": "view",
      "type": "function"
    },
    {
      "inputs": [
        {
          "internalType": "uint256",
          "name": "",
          "type": "uint256"
        }
      ],
      "name": "tokenMetadata",
      "outputs": [
        {
          "internalType": "string",
          "name": "ipfsHash",
          "type": "string"
        },
        {
          "internalType": "uint256",
          "name": "confidenceScore",
          "type": "uint256"
        },
        {
          "internalType": "string",
          "name": "aiModel",
          "type": "string"
        },
        {
          "internalType": "uint256",
          "name": "verificationTimestamp",
          "type": "uint256"
        },
        {
          "internalType": "address",
          "name": "originalRequester",
          "type": "address"
        },
        {
          "internalType": "bool",
          "name": "isRevoked",
          "type": "bool"
        }
      ],
      "stateMutability": "view",
      "type": "function"
    },
    {
      "inputs": [
        {
          "internalType": "uint256",
          "name": "_tokenId",
          "type": "uint256"
        }
      ],
      "name": "tokenURI",
      "outputs": [
        {
          "internalType": "string",
          "name": "",
          "type": "string"
        }
      ],
      "stateMutability": "view",
      "type": "function"
    },
    {
      "inputs": [],
      "name": "totalMinted",
      "outputs": [
        {
          "internalType": "uint256",
          "name": "",
          "type": "uint256"
        }
      ],
      "stateMutability": "view",
      "type": "function"
    },
    {
      "inputs": [],
      "name": "totalRevoked",
      "outputs": [
        {
          "internalType": "uint256",
          "name": "",
          "type": "uint256"
        }
      ],
      "stateMutability": "view",
      "type": "function"
    },
    {
      "inputs": [],
      "name": "totalSupply",
      "outputs": [
        {
          "internalType": "uint256",
          "name": "result",
          "type": "uint256"
        }
      ],
      "stateMutability": "view",
      "type": "function"
    },
    {
      "inputs": [
        {
          "internalType": "address",
          "name": "from",
          "type": "address"
        },
        {
          "internalType": "address",
          "name": "to",
          "type": "address"
        },
        {
          "internalType": "uint256",
          "name": "tokenId",
          "type": "uint256"
        }
      ],
      "name": "transferFrom",
      "outputs": [],
      "stateMutability": "payable",
      "type": "function"
    },
    {
      "inputs": [
        {
          "internalType": "address",
          "name": "newOwner",
          "type": "address"
        }
      ],
      "name": "transferOwnership",
      "outputs": [],
      "stateMutability": "nonpayable",
      "type": "function"
    },
    {
      "inputs": [],
      "name": "version",
      "outputs": [
        {
          "internalType": "string",
          "name": "",
          "type": "string"
        }
      ],
      "stateMutability": "pure",
      "type": "function"
    }
  ],
  "bytecode": "0x6080604052346100a85761314b80380380610019816100c3565b9283398101906080818303126100a85780516001600160401b0391908281116100a857836100489183016100ed565b9260208201518381116100a857816100619184016100ed565b9260408301519081116100a85760609161007c9184016100ed565b910151916001600160a01b03831683036100a85761009993610464565b604051612b5e90816105ed8239f35b600080fd5b634e487b7160e01b600052604160045260246000fd5b6040519190601f01601f191682016001600160401b038111838210176100e857604052565b6100ad565b919080601f840112156100a85782516001600160401b0381116100e85760209061011f601f8201601f191683016100c3565b928184528282870101116100a85760005b81811061014557508260009394955001015290565b8581018301518482018401528201610130565b90600182811c92168015610188575b602083101461017257565b634e487b7160e01b600052602260045260246000fd5b91607f1691610167565b601f811161019e575050565b60009060026000526020600020906020601f850160051c830194106101de575b601f0160051c01915b8281106101d357505050565b8181556001016101c7565b90925082906101be565b601f81116101f4575050565b60009060036000526020600020906020601f850160051c83019410610234575b601f0160051c01915b82811061022957505050565b81815560010161021d565b9092508290610214565b601f811161024a575050565b600090600b6000526020600020906020601f850160051c8301941061028a575b601f0160051c01915b82811061027f57505050565b818155600101610273565b909250829061026a565b80519091906001600160401b0381116100e8576102bb816102b6600354610158565b6101e8565b602080601f83116001146102fe575081906102ee93946000926102f3575b50508160011b916000199060031b1c19161790565b600355565b0151905038806102d9565b6003600052601f198316949091907fc2575a0e9e593c00f959f8c92f12db2869c3395a3b0502d05e2516446f71f85b926000905b87821061036a575050836001959610610351575b505050811b01600355565b015160001960f88460031b161c19169055388080610346565b80600185968294968601518155019501930190610332565b80519091906001600160401b0381116100e8576103a9816103a4600b54610158565b61023e565b602080601f83116001146103e0575081906103db93946000926102f35750508160011b916000199060031b1c19161790565b600b55565b600b600052601f198316949091907f0175b7a638427703f0dbe7bb9bbf987a2551717b34e79f33b5b1008d1fa01db9926000905b87821061044c575050836001959610610433575b505050811b01600b55565b015160001960f88460031b161c19169055388080610428565b80600185968294968601518155019501930190610414565b8051906001600160401b0382116100e85761048982610484600254610158565b610192565b602090816001601f851114610517575091806104c0926104c895946000926102f35750508160011b916000199060031b1c19161790565b600255610294565b6104d26001600055565b6001600160a01b038216156104fe576104ed6104fc926105a3565b6104f76001600a55565b610382565b565b604051631e4fbdf760e01b815260006004820152602490fd5b60026000529190601f1984167f405787fa12a823e0f2b7631cc41b3ba8828b3321ca811111fa75cd3aa3bb5ace936000905b82821061058b5750509160019391856104c897969410610572575b505050811b01600255610294565b015160001960f88460031b161c19169055388080610564565b80600186978294978701518155019601940190610549565b600980546001600160a01b039283166001600160a01b0319821681179092559091167f8be0079c531659141344cd1fd0a4f28419497f9722a3daafe3b4186f6b6457e0600080a356fe6080604052600436101561001257600080fd5b60003560e01c806301ffc9a71461022257806306fdde031461021d578063081812fc14610218578063095ea7b31461021357806318160ddd1461020e57806323b872dd14610209578063372d6b271461020457806340398d67146101ff57806342842e0e146101fa57806354fd4d50146101f5578063558381e7146101f057806355f804b3146101eb57806360316801146101e65780636352211e146101e15780636914db60146101dc5780636c0360eb146101d757806370a08231146101d2578063715018a6146101cd5780638da5cb5b146101c85780639450b3d6146101c357806395d89b41146101be578063a22cb465146101b9578063a2309ff8146101b4578063a2f1c87b146101af578063aa2fe91b146101aa578063b04458ca14610187578063b88d4fde146101a5578063c87b56dd146101a0578063e62ce7ac1461019b578063e985e9c514610196578063ed58bad814610191578063f2fde38b1461018c5763feb449881461018757600080fd5b61134c565b61151c565b611461565b611404565b6113e6565b6113c7565b61136d565b61130d565b6112e5565b6112c7565b61123e565b611167565b610f9a565b610f71565b610f13565b610ee8565b610eb8565b610e1e565b610c60565b610b9b565b6109e8565b6108a1565b610760565b61073d565b61060e565b610596565b610582565b610526565b610470565b6103f1565b610308565b61023e565b6001600160e01b031981160361023957565b600080fd5b3461023957602036600319011261023957602060043561025d81610227565b63ffffffff60e01b166301ffc9a760e01b811490811561029b575b811561028a575b506040519015158152f35b635b5e139f60e01b1490503861027f565b6380ac58cd60e01b81149150610278565b60005b8381106102bf5750506000910152565b81810151838201526020016102af565b906020916102e8815180928185528580860191016102ac565b601f01601f1916010190565b9060206103059281815201906102cf565b90565b34610239576000806003193601126103ee5760405190806002549061032c82610c8f565b808552916020916001918281169081156103c15750600114610369575b6103658661035981880382610804565b604051918291826102f4565b0390f35b9350600284527f405787fa12a823e0f2b7631cc41b3ba8828b3321ca811111fa75cd3aa3bb5ace5b8385106103ae575050505081016020016103598261036538610349565b8054868601840152938201938101610391565b90508695506103659693506020925061035994915060ff191682840152151560051b820101929338610349565b80fd5b346102395760203660031901126102395760043561040e81611e96565b15610433576000526006602052602060018060a01b0360406000205416604051908152f35b6333d1c03960e21b60005260046000fd5b600435906001600160a01b038216820361023957565b602435906001600160a01b038216820361023957565b604036600319011261023957610484610444565b6024356001600160a01b038061049983611f46565b16908133036104f4575b600083815260066020526040812080546001600160a01b0319166001600160a01b0387161790559316907f8c5be1e5ebec7d5bd14f71427d1e84f3dd0314c0f7b2291e5b200ac8c7c3b9258480a480f35b600082815260076020908152604080832033845290915290205460ff166104a3576367d9dca160e11b60005260046000fd5b34610239576000366003190112610239576000546001546040519103600019018152602090f35b6060906003190112610239576001600160a01b0390600435828116810361023957916024359081168103610239579060443590565b61059461058e3661054d565b916115e7565b005b3461023957600036600319011261023957600f54601054908181038181116105cd5760609260405192835260208301526040820152f35b611797565b602090602060408183019282815285518094520193019160005b8281106105fa575050505090565b8351855293810193928101926001016105ec565b3461023957602036600319011261023957610627610444565b6001600160a01b0381169081156107005761064190611a80565b61064a816117d3565b9060006106586000546117ad565b6001929083805b610672575b6040518061036588826105d2565b61067b82611814565b8110806106f7575b156106f25761069181611e96565b806106cc575b6106ab575b6106a590611805565b8461065f565b926106c481856106be6106a5948a611830565b52611805565b93905061069c565b50866106ec6106e06106e06106e085611f46565b6001600160a01b031690565b14610697565b610664565b50828410610683565b60405162461bcd60e51b8152602060048201526015602482015274496e76616c6964206f776e6572206164647265737360581b6044820152606490fd5b6105946107493661054d565b9060405192610757846107e9565b60008452611dc5565b346102395760003660031901126102395760405160408101908082106001600160401b038311176107b8576103659160405260058152640312e302e360dc1b60208201526040519182916020835260208301906102cf565b634e487b7160e01b600052604160045260246000fd5b60c081019081106001600160401b038211176107b857604052565b602081019081106001600160401b038211176107b857604052565b90601f801991011681019081106001600160401b038211176107b857604052565b60405190610832826107ce565b565b6001600160401b0381116107b857601f01601f191660200190565b92919261085b82610834565b916108696040519384610804565b829481845281830111610239578281602093846000960137010152565b9080601f83011215610239578160206103059335910161084f565b34610239576040366003190112610239576004356024356001600160401b038111610239576108d4903690600401610886565b6108dc612063565b6108ed6108e883611e96565b61186d565b81600052600c60205260ff60046040600020015460a01c166109815761097c7fd0571d484577e1a5e8a246e15dccfc8d2acb13e80e0320b06dae36de6d79ed719161095b600461094786600052600c602052604060002090565b01805460ff60a01b1916600160a01b179055565b61096e610969601054611805565b601055565b6040519182914290836118b0565b0390a2005b60405162461bcd60e51b8152602060048201526015602482015274151bdad95b88185b1c9958591e481c995d9bdad959605a1b6044820152606490fd5b602060031982011261023957600435906001600160401b0382116102395761030591600401610886565b34610239576109f6366109be565b6109fe612063565b610a06610cc9565b8151916001600160401b0383116107b857610a2b83610a26600b54610c8f565b6118cc565b602080601f8511600114610aa25750837fbf854ac1b3492efdc6a78402a969f9b4aa9315253853a9fe2ab02ff8f2d5563994610a7d92600091610a97575b508160011b916000199060031b1c19161790565b600b555b610a92604051928392429184611a57565b0390a1005b905083015138610a69565b600b60005290601f198516600080516020612b09833981519152926000905b828210610b1e5750509185917fbf854ac1b3492efdc6a78402a969f9b4aa9315253853a9fe2ab02ff8f2d556399660019410610b05575b5050811b01600b55610a81565b84015160001960f88460031b161c191690553880610af8565b80600185968294968901518155019501930190610ac1565b6020815260c060a0610b76610b56855184602087015260e08601906102cf565b602086015160408601526040860151601f198683030160608701526102cf565b9360608101516080850152600180831b03608082015116828501520151151591015290565b346102395760203660031901126102395761036560a060043560409182918251610bc4816107ce565b6060815260009281846020819401526060868201528260608201528260808201520152610bf36108e882611e96565b8152600c602052209060ff6004825193610c0c856107ce565b610c1581610d7b565b855260018101546020860152610c2d60028201610d7b565b8486015260038101546060860152015460018060a01b038116608085015260a01c16151560a08301525191829182610b36565b346102395760203660031901126102395760206001600160a01b03610c86600435611f46565b16604051908152f35b90600182811c92168015610cbf575b6020831014610ca957565b634e487b7160e01b600052602260045260246000fd5b91607f1691610c9e565b60405190600082600b5491610cdd83610c8f565b80835292602090600190818116908115610d575750600114610d08575b505061083292500383610804565b915092600b600052600080516020612b09833981519152936000925b828410610d3f57506108329450505081016020013880610cfa565b85548885018301529485019487945092810192610d24565b9150506020925061083294915060ff191682840152151560051b8201013880610cfa565b90604051918260008254610d8e81610c8f565b90818452602094600191600181169081600014610dfc5750600114610dbd575b50505061083292500383610804565b600090815285812095935091905b818310610de45750506108329350820101388080610dae565b85548884018501529485019487945091830191610dcb565b9250505061083294925060ff191682840152151560051b820101388080610dae565b3461023957602036600319011261023957600435600052600c602052610e826040600020610e4b81610d7b565b9060ff6001820154610e95610e6260028501610d7b565b91600460038601549501549260405197889760c0895260c08901906102cf565b91602088015286820360408801526102cf565b92606085015260018060a01b038116608085015260a01c16151560a08301520390f35b3461023957600036600319011261023957610365610ed4610cc9565b6040519182916020835260208301906102cf565b34610239576020366003190112610239576020610f0b610f06610444565b611a80565b604051908152f35b34610239576000806003193601126103ee57610f2d612063565b600980546001600160a01b0319811690915581906001600160a01b03167f8be0079c531659141344cd1fd0a4f28419497f9722a3daafe3b4186f6b6457e08280a380f35b34610239576000366003190112610239576009546040516001600160a01b039091168152602090f35b3461023957608036600319011261023957610fb3610444565b6001600160401b039060243582811161023957610fd4903690600401610886565b906044359260643590811161023957610ff1903690600401610886565b916002600a5414611155577f635ec4f27e96d361299e978a3dc7b7a7fd0b1293b1787b48d0b2b52c72b8b8d561111f93610365956002600a5561105861105361104c3360018060a01b0316600052600e602052604060002090565b5460ff1690565b611aba565b6001600160a01b0385169361112d90611072861515611aff565b61107e81511515611b4b565b60328310158061114a575b61109290611b8b565b6110a561109e826115c1565b5415611bd7565b6000549788976110fc6110b6610825565b84815260208101879052604081018890524260608201526001600160a01b0383166080820152600060a08201526110f78b600052600c602052604060002090565b611c2f565b88611106846115c1565b5561111a611115600f54611805565b600f55565b61208f565b604051938493429285611d7a565b0390a361113a6001600a55565b6040519081529081906020820190565b506064831115611089565b604051633ee5aeb560e01b8152600490fd5b34610239576000806003193601126103ee5760405190806003549061118b82610c8f565b808552916020916001918281169081156103c157506001146111b7576103658661035981880382610804565b9350600384527fc2575a0e9e593c00f959f8c92f12db2869c3395a3b0502d05e2516446f71f85b5b8385106111fc575050505081016020016103598261036538610349565b80548686018401529382019381016111df565b6040906003190112610239576004356001600160a01b0381168103610239579060243580151581036102395790565b346102395761124c3661120f565b9033600052600760205261128b8261127a8360406000209060018060a01b0316600052602052604060002090565b9060ff801983541691151516179055565b60405191151582526001600160a01b03169033907f17307eab39ab6107e8899845ad3d59bd9653f200f220920489ca2b5937696c3190602090a3005b34610239576000366003190112610239576020600f54604051908152f35b34610239576020366003190112610239576020611303600435611d96565b6040519015158152f35b34610239576020366003190112610239576001600160a01b0361132e610444565b16600052600e602052602060ff604060002054166040519015158152f35b3461023957602061136461135f366109be565b6115c1565b54604051908152f35b608036600319011261023957611381610444565b61138961045a565b606435916001600160401b0383116102395736602384011215610239576113bd61059493369060248160040135910161084f565b9160443591611dc5565b3461023957602036600319011261023957610365610ed4600435611e08565b34610239576000366003190112610239576020601054604051908152f35b3461023957604036600319011261023957602060ff611455611424610444565b61142c61045a565b6001600160a01b0391821660009081526007865260408082209290931681526020919091522090565b54166040519015158152f35b346102395761146f3661120f565b90611478612063565b6001600160a01b03169081156114de5760407f0aa0c2b5ea5c9f3fcc4c06f9e39f6afdbadc432e7617f393e5f17f31412d3ca59183600052600e6020526114ce81836000209060ff801983541691151516179055565b81519015158152426020820152a2005b60405162461bcd60e51b8152602060048201526016602482015275496e76616c6964206d696e746572206164647265737360501b6044820152606490fd5b3461023957602036600319011261023957611535610444565b61153d612063565b6001600160a01b0390811690811561159157600954826bffffffffffffffffffffffff60a01b821617600955167f8be0079c531659141344cd1fd0a4f28419497f9722a3daafe3b4186f6b6457e0600080a3005b604051631e4fbdf760e01b815260006004820152602490fd5b906115bd602092828151948592016102ac565b0190565b60206115da9181604051938285809451938492016102ac565b8101600d81520301902090565b9190916115f382611f46565b6001600160a01b03918216939082811685900361179257600084815260066020526040902080546116376001600160a01b03881633908114908314171590565b1590565b61174b575b6116468688611fce565b611741575b506001600160a01b038516600090815260056020526040902080546000190190556001600160a01b0382166000908152600560205260409020805460010190556001600160a01b0382164260a01b17600160e11b176116b4856000526004602052604060002090565b55600160e11b8116156116f7575b501680927fddf252ad1be2c89b69c2b068fc378daa952ba7f163c4a11628f55a4df523b3ef600080a4156116f257565b611f24565b6001840161170f816000526004602052604060002090565b541561171c575b506116c2565b600054811461171657611739906000526004602052604060002090565b553880611716565b600090553861164b565b61178861163361104c336117718b60018060a01b03166000526007602052604060002090565b9060018060a01b0316600052602052604060002090565b1561163c57611f13565b611f03565b634e487b7160e01b600052601160045260246000fd5b6000198101919082116105cd57565b6001600160401b0381116107b85760051b60200190565b906117dd826117bc565b6117ea6040519182610804565b82815280926117fb601f19916117bc565b0190602036910137565b60001981146105cd5760010190565b60010190816001116105cd57565b90600282018092116105cd57565b80518210156118445760209160051b010190565b634e487b7160e01b600052603260045260246000fd5b60405190611867826107e9565b60008252565b1561187457565b60405162461bcd60e51b8152602060048201526014602482015273151bdad95b88191bd95cc81b9bdd08195e1a5cdd60621b6044820152606490fd5b9291906118c76020916040865260408601906102cf565b930152565b601f81116118d8575050565b600090600b600052600080516020612b09833981519152906020601f850160051c83019410611922575b601f0160051c01915b82811061191757505050565b81815560010161190b565b9092508290611902565b90601f811161193a57505050565b6000916000526020600020906020601f850160051c83019410611978575b601f0160051c01915b82811061196d57505050565b818155600101611961565b9092508290611958565b91909182516001600160401b0381116107b8576119a9816119a38454610c8f565b8461192c565b602080601f83116001146119ec575081906119dd9394956000926119e1575b50508160011b916000199060031b1c19161790565b9055565b0151905038806119c8565b90601f19831695611a0285600052602060002090565b926000905b888210611a3f57505083600195969710611a26575b505050811b019055565b015160001960f88460031b161c19169055388080611a1c565b80600185968294968601518155019501930190611a07565b9392916118c790611a726040936060885260608801906102cf565b9086820360208801526102cf565b6001600160a01b03168015611aa95760005260056020526001600160401b036040600020541690565b6323d3ad8160e21b60005260046000fd5b15611ac157565b60405162461bcd60e51b8152602060048201526016602482015275139bdd08185d5d1a1bdc9a5e9959081d1bc81b5a5b9d60521b6044820152606490fd5b15611b0657565b60405162461bcd60e51b815260206004820152601b60248201527f43616e6e6f74206d696e7420746f207a65726f206164647265737300000000006044820152606490fd5b15611b5257565b60405162461bcd60e51b8152602060048201526011602482015270092dcecc2d8d2c84092a08ca640d0c2e6d607b1b6044820152606490fd5b15611b9257565b60405162461bcd60e51b815260206004820152601860248201527f496e76616c696420636f6e666964656e63652073636f726500000000000000006044820152606490fd5b15611bde57565b60405162461bcd60e51b815260206004820152602360248201527f4e465420616c72656164792065786973747320666f72207468697320636f6e74604482015262195b9d60ea1b6064820152608490fd5b919080519283516001600160401b0381116107b857611c52816119a38454610c8f565b602080601f8311600114611cfe5750611ce492611c908360a094600494610832999a6000926119e15750508160011b916000199060031b1c19161790565b81555b60208501516001820155611cae604086015160028301611982565b606085015160038201556080850151910180546001600160a01b0319166001600160a01b03909216919091178155920151151590565b815460ff60a01b191690151560a01b60ff60a01b16179055565b90601f19831696611d1485600052602060002090565b926000905b898210611d6257505083600493611ce4969360019360a0976108329b9c10611d49575b505050811b018155611c93565b015160001960f88460031b161c19169055388080611d3c565b80600185968294968601518155019501930190611d19565b94939291606092610e826118c7936080895260808901906102cf565b611d9f81611e96565b15611dbf57600052600c60205260ff60046040600020015460a01c161590565b50600090565b929190611dd38282866115e7565b803b611de0575b50505050565b611de993612199565b15611df75738808080611dda565b6368d2bf6b60e11b60005260046000fd5b611e146108e882611e96565b80600052600c602052604060002060ff600460405192611e33846107ce565b611e3c81610d7b565b845260018101546020850152611e5460028201610d7b565b604085015260038101546060850152015460018060a01b038116608084015260a01c1615158060a0830152611e8c5761030591612494565b50610305906122cd565b600091906001908381831115611eab57505050565b6000548210611eb957505050565b829394506000929192935b611ed6575b505050600160e01b161590565b828152600460205260408120549350909183611efe5780156105cd5760001901919081611ec4565b611ec9565b62a1148160e81b60005260046000fd5b632ce44b5f60e11b60005260046000fd5b633a954ecd60e21b60005260046000fd5b636f96cda160e11b60005260046000fd5b60019080600111611f3557611f65816000526004602052604060002090565b54918215611f82575b5050600160e01b8116156103055780611f35565b600054821015611f355790815b15611f6e5790915060001901611faf816000526004602052604060002090565b54918215611fc7575050600160e01b8116611f355790565b9081611f8f565b6001600160a01b031615612060576000805b60018110611fed57505050565b8083018084116105cd5782526020600c8152600490604060ff83828720015460a01c1661201f57505050600101611fe0565b5162461bcd60e51b815291820152601b60248201527f43616e6e6f74207472616e73666572207265766f6b6564204e46540000000000604482015260649150fd5b50565b6009546001600160a01b0316330361207757565b60405163118cdaa760e01b8152336004820152602490fd5b60008054916001600160a01b0381164260a01b17600160e11b176120bd846000526004602052604060002090565b556001600160a01b03166000818152600560205260409020805468010000000000000001019055801561214657600183810193919080805b612101575b5050505055565b15612135575b83818484877fddf252ad1be2c89b69c2b068fc378daa952ba7f163c4a11628f55a4df523b3ef8180a46120f5565b8092019184830361210757806120fa565b622e076360e81b8252600482fd5b90816020910312610239575161030581610227565b3d15612194573d9061217a82610834565b916121886040519384610804565b82523d6000602084013e565b606090565b926020916121e293600060018060a01b0360405180978196829584630a85bd0160e11b9c8d865233600487015216602485015260448401526080606484015260848301906102cf565b0393165af16000918161221f575b50612211576121fd612169565b80511561220c57805190602001fd5b611df7565b6001600160e01b0319161490565b61224291925060203d602011612249575b61223a8183610804565b810190612154565b90386121f0565b503d612230565b600b546000929161226082610c8f565b916001908181169081156122ba575060011461227b57505050565b9091929350600b600052600080516020612b09833981519152906000915b8483106122a7575050500190565b8181602092548587015201920191612299565b60ff191683525050811515909102019150565b61030560846124526122e16124889461285c565b6124306124226123e46123c96123af6123aa6040519889977f7b226e616d65223a20225265766f6b656420436572746966696361746520230060208a0152612333815180926020603f8d0191016102ac565b7f222c20226465736372697074696f6e223a2022546869732061757468656e7469603f918a01918201527f6369747920636572746966696361746520686173206265656e207265766f6b65605f82015264032171116160dd1b607f820152691134b6b0b3b2911d101160b11b9101908152600a0190565b612250565b6d03932bb37b5b2b2173837339116160951b8152600e0190565b6e2261747472696275746573223a205b60881b8152600f0190565b7f7b2274726169745f74797065223a2022537461747573222c202276616c75652281526b3a20225265766f6b6564227d60a01b6020820152602c0190565b615d7d60f01b815260020190565b0391612444601f1993848101835282610804565b61244c6129a0565b90612a27565b6040517f646174613a6170706c69636174696f6e2f6a736f6e3b6261736536342c0000006020820152938491603d8301906115aa565b03908101835282610804565b61249d9061285c565b81519160208101516124ae9061285c565b90604081015160608201516124c29061285c565b9151926040519586956020870161250a906024907f7b226e616d65223a202241757468656e746963697479204365727469666963618152637465202360e01b60208201520190565b612513916115aa565b7f222c20226465736372697074696f6e223a202254686973204e4654206365727481527f6966696573207468652061757468656e746963697479206f662064696769746160208201527f6c20636f6e74656e7420766572696669656420627920414920616e616c797369604082015264039971116160dd1b6060820152606501691134b6b0b3b2911d101160b11b8152600a016125af90612250565b71031b2b93a34b334b1b0ba32973837339116160751b81526012017f2265787465726e616c5f75726c223a202268747470733a2f2f676174657761798152722e70696e6174612e636c6f75642f697066732f60681b6020820152603301612615916115aa565b6201116160ed1b81526003016e2261747472696275746573223a205b60881b8152600f017f7b2274726169745f74797065223a2022436f6e666964656e63652053636f726581526b0111610113b30b63ab2911d160a51b6020820152602c0161267d916115aa565b6203e96160ed1b81526003017f7b2274726169745f74797065223a20224149204d6f64656c222c202276616c7581526432911d101160d91b60208201526025016126c6916115aa565b630113e96160e51b81526004017f7b2274726169745f74797065223a2022566572696669636174696f6e2044617481526c032911610113b30b63ab2911d1609d1b6020820152602d01612718916115aa565b6203e96160ed1b81526003017f7b2274726169745f74797065223a2022537461747573222c202276616c75652281527f3a202256657269666965642041757468656e746963227d2c200000000000000060208201526039017f7b2274726169745f74797065223a2022495046532048617368222c202276616c8152653ab2911d101160d11b60208201526026016127ae916115aa565b61227d60f01b8152600201615d7d60f01b81526002010390601f199182810182526127d99082610804565b6127e16129a0565b6127ea91612a27565b6040517f646174613a6170706c69636174696f6e2f6a736f6e3b6261736536342c000000602082015291908290603d8201612824916115aa565b0390810182526103059082610804565b9061283e82610834565b61284b6040519182610804565b82815280926117fb601f1991610834565b806000917a184f03e93ff9f4daa797ed6e38ed64bf6a1f01000000000000000080821015612992575b506d04ee2d6d415b85acef810000000080831015612983575b50662386f26fc1000080831015612974575b506305f5e10080831015612965575b5061271080831015612956575b506064821015612946575b600a8092101561293c575b6001908160216128f460018701612834565b95860101905b612906575b5050505090565b600019019083906f181899199a1a9b1b9c1cb0b131b232b360811b8282061a835304918215612937579190826128fa565b6128ff565b91600101916128e2565b91906064600291049101916128d7565b600491939204910191386128cc565b600891939204910191386128bf565b601091939204910191386128b0565b6020919392049101913861289e565b604093508104915038612885565b60405190606082018281106001600160401b038211176107b857604052604082527f6768696a6b6c6d6e6f707172737475767778797a303132333435363738392b2f6040837f4142434445464748494a4b4c4d4e4f505152535455565758595a61626364656660208201520152565b600281901b91906001600160fe1b038116036105cd57565b90815115612afe57612a53612a4e612a49612a428551611822565b6003900490565b612a0f565b612834565b91602083019181825183016020810191825193600084525b828210612aac5750505052516003900660018114612a9957600214612a8e575090565b603d90600019015390565b50603d9081600019820153600119015390565b9091956004906003809401938451600190603f9082828260121c16880101518553828282600c1c16880101518386015382828260061c1688010151600286015316850101519082015301959190612a6b565b505061030561185a56fe0175b7a638427703f0dbe7bb9bbf987a2551717b34e79f33b5b1008d1fa01db9a264697066735822122030bf898de6116ef59706614863c5c35509e6cc43401ed5d7627e8b3757fddb8a64736f6c63430008190033",
  "linkReferences": {},
  "deployedLinkReferences": {}
}