{"contracts/AuthenticityRegistry.sol":{"AuthenticityRegistry":{"abi":[{"inputs":[{"internalType":"address","name":"_router","type":"address"},{"internalType":"uint64","name":"_subscriptionId","type":"uint64"},{"internalType":"uint32","name":"_gasLimit","type":"uint32"},{"internalType":"bytes32","name":"_donID","type":"bytes32"},{"internalType":"string","name":"_sourceCode","type":"string"},{"internalType":"address","name":"_nftContract","type":"address"},{"internalType":"address","name":"_initialOwner","type":"address"}],"stateMutability":"nonpayable","type":"constructor"},{"inputs":[],"name":"EmptyArgs","type":"error"},{"inputs":[],"name":"EmptySource","type":"error"},{"inputs":[],"name":"EnforcedPause","type":"error"},{"inputs":[],"name":"ExpectedPause","type":"error"},{"inputs":[],"name":"NoInlineSecrets","type":"error"},{"inputs":[],"name":"OnlyRouterCanFulfill","type":"error"},{"inputs":[{"internalType":"address","name":"owner","type":"address"}],"name":"OwnableInvalidOwner","type":"error"},{"inputs":[{"internalType":"address","name":"account","type":"address"}],"name":"OwnableUnauthorizedAccount","type":"error"},{"inputs":[],"name":"ReentrancyGuardReentrantCall","type":"error"},{"anonymous":false,"inputs":[{"indexed":true,"internalType":"string","name":"ipfsHash","type":"string"},{"indexed":true,"internalType":"address","name":"reporter","type":"address"},{"indexed":false,"internalType":"uint256","name":"timestamp","type":"uint256"}],"name":"ContentFlagged","type":"event"},{"anonymous":false,"inputs":[{"indexed":false,"internalType":"uint256","name":"verificationFee","type":"uint256"},{"indexed":false,"internalType":"uint256","name":"nftMintFee","type":"uint256"},{"indexed":false,"internalType":"uint256","name":"timestamp","type":"uint256"}],"name":"FeesUpdated","type":"event"},{"anonymous":false,"inputs":[{"indexed":true,"internalType":"address","name":"owner","type":"address"},{"indexed":false,"internalType":"uint256","name":"amount","type":"uint256"},{"indexed":false,"internalType":"uint256","name":"timestamp","type":"uint256"}],"name":"FundsWithdrawn","type":"event"},{"anonymous":false,"inputs":[{"indexed":true,"internalType":"string","name":"ipfsHash","type":"string"},{"indexed":true,"internalType":"address","name":"owner","type":"address"},{"indexed":false,"internalType":"uint256","name":"tokenId","type":"uint256"},{"indexed":false,"internalType":"uint256","name":"timestamp","type":"uint256"}],"name":"NFTMinted","type":"event"},{"anonymous":false,"inputs":[{"indexed":true,"internalType":"address","name":"previousOwner","type":"address"},{"indexed":true,"internalType":"address","name":"newOwner","type":"address"}],"name":"OwnershipTransferred","type":"event"},{"anonymous":false,"inputs":[{"indexed":false,"internalType":"address","name":"account","type":"address"}],"name":"Paused","type":"event"},{"anonymous":false,"inputs":[{"indexed":true,"internalType":"bytes32","name":"id","type":"bytes32"}],"name":"RequestFulfilled","type":"event"},{"anonymous":false,"inputs":[{"indexed":true,"internalType":"bytes32","name":"id","type":"bytes32"}],"name":"RequestSent","type":"event"},{"anonymous":false,"inputs":[{"indexed":false,"internalType":"address","name":"account","type":"address"}],"name":"Unpaused","type":"event"},{"anonymous":false,"inputs":[{"indexed":true,"internalType":"bytes32","name":"requestId","type":"bytes32"},{"indexed":true,"internalType":"string","name":"ipfsHash","type":"string"},{"indexed":false,"internalType":"bool","name":"isAuthentic","type":"bool"},{"indexed":false,"internalType":"uint256","name":"confidenceScore","type":"uint256"},{"indexed":false,"internalType":"string","name":"aiModel","type":"string"},{"indexed":false,"internalType":"uint256","name":"timestamp","type":"uint256"}],"name":"VerificationCompleted","type":"event"},{"anonymous":false,"inputs":[{"indexed":true,"internalType":"bytes32","name":"requestId","type":"bytes32"},{"indexed":true,"internalType":"address","name":"requester","type":"address"},{"indexed":false,"internalType":"string","name":"ipfsHash","type":"string"},{"indexed":false,"internalType":"string","name":"mediaType","type":"string"},{"indexed":false,"internalType":"uint256","name":"timestamp","type":"uint256"}],"name":"VerificationRequested","type":"event"},{"inputs":[{"internalType":"uint256","name":"","type":"uint256"}],"name":"allFlaggedContent","outputs":[{"internalType":"string","name":"","type":"string"}],"stateMutability":"view","type":"function"},{"inputs":[{"internalType":"uint256","name":"","type":"uint256"}],"name":"allRequestIds","outputs":[{"internalType":"bytes32","name":"","type":"bytes32"}],"stateMutability":"view","type":"function"},{"inputs":[{"internalType":"uint256","name":"","type":"uint256"}],"name":"allVerifiedContent","outputs":[{"internalType":"string","name":"","type":"string"}],"stateMutability":"view","type":"function"},{"inputs":[],"name":"authenticityNFT","outputs":[{"internalType":"contract AuthenticityNFT","name":"","type":"address"}],"stateMutability":"view","type":"function"},{"inputs":[],"name":"donID","outputs":[{"internalType":"bytes32","name":"","type":"bytes32"}],"stateMutability":"view","type":"function"},{"inputs":[{"internalType":"string","name":"_ipfsHash","type":"string"}],"name":"emergencyFlagContent","outputs":[],"stateMutability":"nonpayable","type":"function"},{"inputs":[{"internalType":"string","name":"","type":"string"}],"name":"flaggedContent","outputs":[{"internalType":"bool","name":"","type":"bool"}],"stateMutability":"view","type":"function"},{"inputs":[],"name":"gasLimit","outputs":[{"internalType":"uint32","name":"","type":"uint32"}],"stateMutability":"view","type":"function"},{"inputs":[],"name":"getAllFlaggedContent","outputs":[{"internalType":"string[]","name":"","type":"string[]"}],"stateMutability":"view","type":"function"},{"inputs":[],"name":"getAllVerifiedContent","outputs":[{"internalType":"string[]","name":"","type":"string[]"}],"stateMutability":"view","type":"function"},{"inputs":[],"name":"getStatistics","outputs":[{"internalType":"uint256","name":"totalVerifications_","type":"uint256"},{"internalType":"uint256","name":"totalAuthentic_","type":"uint256"},{"internalType":"uint256","name":"totalFake_","type":"uint256"},{"internalType":"uint256","name":"totalNFTsMinted_","type":"uint256"}],"stateMutability":"view","type":"function"},{"inputs":[{"internalType":"address","name":"_user","type":"address"}],"name":"getUserRequests","outputs":[{"internalType":"bytes32[]","name":"","type":"bytes32[]"}],"stateMutability":"view","type":"function"},{"inputs":[{"internalType":"string","name":"_ipfsHash","type":"string"}],"name":"getVerificationResult","outputs":[{"components":[{"internalType":"bytes32","name":"requestId","type":"bytes32"},{"internalType":"bool","name":"isAuthentic","type":"bool"},{"internalType":"uint256","name":"confidenceScore","type":"uint256"},{"internalType":"string","name":"aiModel","type":"string"},{"internalType":"string","name":"reasoning","type":"string"},{"internalType":"uint256","name":"timestamp","type":"uint256"}],"internalType":"struct AuthenticityRegistry.VerificationResult","name":"","type":"tuple"}],"stateMutability":"view","type":"function"},{"inputs":[{"internalType":"bytes32","name":"requestId","type":"bytes32"},{"internalType":"bytes","name":"response","type":"bytes"},{"internalType":"bytes","name":"err","type":"bytes"}],"name":"handleOracleFulfillment","outputs":[],"stateMutability":"nonpayable","type":"function"},{"inputs":[{"internalType":"string","name":"_ipfsHash","type":"string"}],"name":"mintAuthenticityNFT","outputs":[{"internalType":"uint256","name":"","type":"uint256"}],"stateMutability":"payable","type":"function"},{"inputs":[],"name":"nftMintFee","outputs":[{"internalType":"uint256","name":"","type":"uint256"}],"stateMutability":"view","type":"function"},{"inputs":[],"name":"owner","outputs":[{"internalType":"address","name":"","type":"address"}],"stateMutability":"view","type":"function"},{"inputs":[],"name":"pause","outputs":[],"stateMutability":"nonpayable","type":"function"},{"inputs":[],"name":"paused","outputs":[{"internalType":"bool","name":"","type":"bool"}],"stateMutability":"view","type":"function"},{"inputs":[],"name":"renounceOwnership","outputs":[],"stateMutability":"nonpayable","type":"function"},{"inputs":[{"internalType":"string","name":"_ipfsHash","type":"string"},{"internalType":"string","name":"_mediaType","type":"string"}],"name":"requestVerification","outputs":[{"internalType":"bytes32","name":"","type":"bytes32"}],"stateMutability":"payable","type":"function"},{"inputs":[],"name":"sourceCode","outputs":[{"internalType":"string","name":"","type":"string"}],"stateMutability":"view","type":"function"},{"inputs":[],"name":"subscriptionId","outputs":[{"internalType":"uint64","name":"","type":"uint64"}],"stateMutability":"view","type":"function"},{"inputs":[],"name":"totalAuthentic","outputs":[{"internalType":"uint256","name":"","type":"uint256"}],"stateMutability":"view","type":"function"},{"inputs":[],"name":"totalFake","outputs":[{"internalType":"uint256","name":"","type":"uint256"}],"stateMutability":"view","type":"function"},{"inputs":[],"name":"totalNFTsMinted","outputs":[{"internalType":"uint256","name":"","type":"uint256"}],"stateMutability":"view","type":"function"},{"inputs":[],"name":"totalVerifications","outputs":[{"internalType":"uint256","name":"","type":"uint256"}],"stateMutability":"view","type":"function"},{"inputs":[{"internalType":"address","name":"newOwner","type":"address"}],"name":"transferOwnership","outputs":[],"stateMutability":"nonpayable","type":"function"},{"inputs":[],"name":"unpause","outputs":[],"stateMutability":"nonpayable","type":"function"},{"inputs":[{"internalType":"uint64","name":"_subscriptionId","type":"uint64"},{"internalType":"uint32","name":"_gasLimit","type":"uint32"},{"internalType":"bytes32","name":"_donID","type":"bytes32"},{"internalType":"string","name":"_sourceCode","type":"string"}],"name":"updateChainlinkConfig","outputs":[],"stateMutability":"nonpayable","type":"function"},{"inputs":[{"internalType":"uint256","name":"_verificationFee","type":"uint256"},{"internalType":"uint256","name":"_nftMintFee","type":"uint256"}],"name":"updateFees","outputs":[],"stateMutability":"nonpayable","type":"function"},{"inputs":[{"internalType":"address","name":"","type":"address"},{"internalType":"uint256","name":"","type":"uint256"}],"name":"userRequests","outputs":[{"internalType":"bytes32","name":"","type":"bytes32"}],"stateMutability":"view","type":"function"},{"inputs":[],"name":"verificationFee","outputs":[{"internalType":"uint256","name":"","type":"uint256"}],"stateMutability":"view","type":"function"},{"inputs":[{"internalType":"bytes32","name":"","type":"bytes32"}],"name":"verificationRequests","outputs":[{"internalType":"address","name":"requester","type":"address"},{"internalType":"string","name":"ipfsHash","type":"string"},{"internalType":"string","name":"mediaType","type":"string"},{"internalType":"uint256","name":"timestamp","type":"uint256"},{"internalType":"bool","name":"isProcessed","type":"bool"},{"internalType":"bool","name":"isAuthentic","type":"bool"},{"internalType":"uint256","name":"confidenceScore","type":"uint256"},{"internalType":"string","name":"aiModel","type":"string"},{"internalType":"uint256","name":"nftTokenId","type":"uint256"}],"stateMutability":"view","type":"function"},{"inputs":[{"internalType":"string","name":"","type":"string"}],"name":"verificationResults","outputs":[{"internalType":"bytes32","name":"requestId","type":"bytes32"},{"internalType":"bool","name":"isAuthentic","type":"bool"},{"internalType":"uint256","name":"confidenceScore","type":"uint256"},{"internalType":"string","name":"aiModel","type":"string"},{"internalType":"string","name":"reasoning","type":"string"},{"internalType":"uint256","name":"timestamp","type":"uint256"}],"stateMutability":"view","type":"function"},{"inputs":[],"name":"version","outputs":[{"internalType":"string","name":"","type":"string"}],"stateMutability":"pure","type":"function"},{"inputs":[],"name":"withdrawFunds","outputs":[],"stateMutability":"nonpayable","type":"function"}],"evm":{"bytecode":{"linkReferences":{},"object":"60c06040523461032a576138fe803803806100198161032f565b92833981019060e08183031261032a5761003281610354565b602082810151919390916001600160401b0390818116810361032a5760408501519063ffffffff8216820361032a57606086015193608087015184811161032a57870194601f9282848801121561032a5786518681116102e757601f199761009f8287018a168b0161032f565b948286528a838301011161032a57899060005b838110610316575050600091850101526100da60c06100d360a08c01610354565b9a01610354565b6001600160a01b039a8b166080528a1680156102fd57600080546001600160a01b03198116831782558c16907f8be0079c531659141344cd1fd0a4f28419497f9722a3daafe3b4186f6b6457e09080a3600180805566038d7ea4c68000601055662386f26fc1000060115560028054610100600160681b03191660089390931b68ffffffffffffffff00169290921760489690961b6cffffffff0000000000000000001695909517905560035580519384116102e75760049586548481811c911680156102dd575b828210146102c857838111610282575b508092851160011461021e575083945090839291600094610213575b50501b916000199060031b1c19161790555b1660a0526040516135959081610369823960805181818161042d01526129ad015260a05181818161027d01526110fc0152f35b0151925038806101ce565b9294849081168760005284600020946000905b88838310610268575050501061024f575b505050811b0190556101e0565b015160001960f88460031b161c19169055388080610242565b858701518855909601959485019487935090810190610231565b87600052816000208480880160051c8201928489106102bf575b0160051c019085905b8281106102b35750506101b2565b600081550185906102a5565b9250819261029c565b602288634e487b7160e01b6000525260246000fd5b90607f16906101a2565b634e487b7160e01b600052604160045260246000fd5b604051631e4fbdf760e01b815260006004820152602490fd5b8181018301518782018401528b92016100b2565b600080fd5b6040519190601f01601f191682016001600160401b038111838210176102e757604052565b51906001600160a01b038216820361032a5756fe6080604052600436101561001257600080fd5b60003560e01c806301ff8b7d1461026757806309c1ba2e146102625780630ca761751461025d5780630f3908c81461025857806313c601771461025357806324600fc31461024e578063263cb6b61461024957806335c1260d14610244578063372d6b271461023f57806339ffbe0b1461023a5780633f4ba83a146102355780634de2bfbf146102305780634eb7e95f1461022b57806354fd4d50146102265780635a55977e146102215780635c975abb1461021c5780636bc9d5b3146102175780636db79437146102125780636e74336b1461020d578063715018a61461020857806379cb62b0146102035780638047bc1d146101fe5780638456cb59146101f95780638da5cb5b146101f4578063968e5a0d146101ef578063a8c278a2146101ea578063ac90c140146101e5578063b32eaa0e146101e0578063b337cf74146101db578063b9f83f06146101d6578063bc9df56f146101d1578063c8b22d24146101cc578063cddc911f146101c7578063f16fb433146101c2578063f2fde38b146101bd578063f33b2491146101b85763f68016b7146101b357600080fd5b6117ee565b611770565b6116e8565b6116a9565b611601565b611513565b6113ec565b6113ce565b611347565b6112e5565b6112c7565b6112a9565b611258565b61122f565b6111d5565b61101d565b610e9f565b610e44565b610e26565b610dc8565b610d77565b610d54565b610ccc565b610c0d565b610bef565b6109fa565b610990565b610972565b61093b565b61091d565b6108c5565b6107ab565b61077b565b6106f3565b6103de565b6102b1565b346102ac5760003660031901126102ac576040517f00000000000000000000000000000000000000000000000000000000000000006001600160a01b03168152602090f35b600080fd5b346102ac5760003660031901126102ac5760206001600160401b0360025460081c16604051908152f35b634e487b7160e01b600052604160045260246000fd5b60c081019081106001600160401b0382111761030c57604052565b6102db565b604081019081106001600160401b0382111761030c57604052565b90601f801991011681019081106001600160401b0382111761030c57604052565b6040519061012082018281106001600160401b0382111761030c57604052565b6040519061037a826102f1565b565b6001600160401b03811161030c57601f01601f191660200190565b81601f820112156102ac578035906103ae8261037c565b926103bc604051948561032c565b828452602083830101116102ac57816000926020809301838601378301015290565b346102ac5760603660031901126102ac576004356001600160401b036024358181116102ac57610412903690600401610397565b906044359081116102ac5761042b903690600401610397565b7f00000000000000000000000000000000000000000000000000000000000000006001600160a01b0316330361048c576104659183612448565b7f85e1543bf2f84fe80c6badbce3648c8539ad1df4d2b3d822938ca0538be727e6600080a2005b60405163c6829f8360e01b8152600490fd5b90600182811c921680156104ce575b60208310146104b857565b634e487b7160e01b600052602260045260246000fd5b91607f16916104ad565b60405190600082600454916104ec8361049e565b808352926020906001908181169081156105785750600114610517575b505061037a9250038361032c565b91509260046000527f8a35acfbc15ff81a39ae7d344fd709f28e8600b4aa8c65c6b64bfe7fe36bd19b936000925b828410610560575061037a9450505081016020013880610509565b85548885018301529485019487945092810192610545565b9150506020925061037a94915060ff191682840152151560051b8201013880610509565b906040519182600082546105af8161049e565b9081845260209460019160018116908160001461061d57506001146105de575b50505061037a9250038361032c565b600090815285812095935091905b81831061060557505061037a93508201013880806105cf565b855488840185015294850194879450918301916105ec565b9250505061037a94925060ff191682840152151560051b8201013880806105cf565b60005b8381106106525750506000910152565b8181015183820152602001610642565b9060209161067b8151809281855285808601910161063f565b601f01601f1916010190565b99989793949061010097936106ba6106ee98946106c8938e6101209160018060a01b031681528160208201520190610662565b8c810360408e015290610662565b9460608b0152151560808a0152151560a089015260c088015286820360e0880152610662565b930152565b346102ac5760203660031901126102ac57600435600090815260056020526040902080546001600160a01b031661077761072f6001840161059c565b9161073c6002850161059c565b936003810154916004820154600583015491600761075c6006860161059c565b9401549460405198899860ff808660081c169516938a610687565b0390f35b346102ac5760003660031901126102ac576107776107976104d8565b604051918291602083526020830190610662565b346102ac57600080600319360112610879576107c56125cb565b47801561083d5781547ffbc3a599b784fe88772fc5abcc07223f64ca0b13acc341f4fb1e46bef0510eb490610837906001600160a01b039061081d908690819081908190899087165af1610817611838565b50611868565b845460408051958652426020870152911693918291820190565b0390a280f35b60405162461bcd60e51b81526020600482015260146024820152734e6f2066756e647320746f20776974686472617760601b6044820152606490fd5b80fd5b600435906001600160a01b03821682036102ac57565b634e487b7160e01b600052603260045260246000fd5b80548210156108c05760005260206000200190600090565b610892565b346102ac5760403660031901126102ac576108de61087c565b6001600160a01b03166000908152600760205260409020805460243591908210156102ac5760209161090f916108a8565b90546040519160031b1c8152f35b346102ac5760003660031901126102ac576020600d54604051908152f35b346102ac5760003660031901126102ac576080600c54600d54600e54600f5491604051938452602084015260408301526060820152f35b346102ac5760003660031901126102ac576020600e54604051908152f35b346102ac5760003660031901126102ac576109a96125cb565b60025460ff8116156109e85760ff19166002557f5db9ee0a495bf2e6ff9c91a7834c1ba4fdd244a5e8aa4e537bd38aeae4b073aa6020604051338152a1005b604051638dfc202b60e01b8152600490fd5b60403660031901126102ac576001600160401b036004358181116102ac57610a26903690600401610397565b90602435908082116102ac576020927f94238ad9433a44eacaeae5de7a6bed1a8c4d80b9a77ad9b5856d42646aa4a3b7610b30610a6a610bdb953690600401610397565b93610a736125f7565b610a7b61261a565b610a896010543410156118a8565b610a95845115156118e7565b610aa185511515611927565b610ab76005610aaf86610c80565b015415611968565b610b13610ac26119b4565b610ad3610acd6104d8565b82612a2f565b610b0e610ade611a14565b87610ae882611a5a565b52610af281611a5a565b5088610afd82611a67565b52610b0781611a67565b5082612638565b612787565b600254906003549263ffffffff8360481c169260081c1690612955565b938492610b95610b3e61034d565b338152828982015286604082015242606082015260006080820152600060a0820152600060c0820152610b6f611815565b60e08201526000610100820152610b90866000526005602052604060002090565b611c1c565b336000908152600760205260409020610baf908590611d1c565b610bb884611cd4565b610bcb610bc6600c54611d67565b600c55565b6040519182913396429184611d7b565b0390a3610be760018055565b604051908152f35b346102ac5760003660031901126102ac576020600f54604051908152f35b346102ac5760003660031901126102ac57610777604051610c2d81610311565b60058152640312e302e360dc1b6020820152604051918291602083526020830190610662565b60206003198201126102ac57600435906001600160401b0382116102ac57610c7d91600401610397565b90565b6020610c9991816040519382858094519384920161063f565b8101600681520301902090565b6020610cbf91816040519382858094519384920161063f565b8101600881520301902090565b346102ac57610ce2610cdd36610c53565b610c80565b805460ff60018301541691610d4a600282015491610d3c610d056003830161059c565b6005610d136004850161059c565b93015494604051978897885215156020880152604087015260c0606087015260c0860190610662565b908482036080860152610662565b9060a08301520390f35b346102ac5760003660031901126102ac57602060ff600254166040519015158152f35b346102ac5760203660031901126102ac57600435600a548110156102ac5761079761077791600a6000527fc65a7bb8d6351c1cf70c95a316cc6a92839c986682d98bc35f958f4883f9d2a80161059c565b346102ac5760403660031901126102ac577fcf8a1e1d5f09cf3c97dbb653cd9a4d7aace9292fbc1bb8211febf2d400febbdd6060600435602435610e0a6125cb565b81601055806011556040519182526020820152426040820152a1005b346102ac5760003660031901126102ac576020600354604051908152f35b346102ac5760008060031936011261087957610e5e6125cb565b80546001600160a01b03198116825581906001600160a01b03167f8be0079c531659141344cd1fd0a4f28419497f9722a3daafe3b4186f6b6457e08280a380f35b346102ac5760803660031901126102ac576004356001600160401b0380821682036102ac576024359163ffffffff831683036102ac576064358281116102ac57610eed903690600401610397565b92610ef66125cb565b68ffffffffffffffff006cffffffff0000000000000000006002549260481b169260081b16906cffffffffffffffffffffffff0019161717600255604435600355815190811161030c57610f5481610f4f60045461049e565b611a8b565b602080601f8311600114610f9657508190610f8693600092610f8b575b50508160011b916000199060031b1c19161790565b600455005b015190503880610f71565b90601f19831693610fc960046000527f8a35acfbc15ff81a39ae7d344fd709f28e8600b4aa8c65c6b64bfe7fe36bd19b90565b926000905b8682106110055750508360019510610fec575b505050811b01600455005b015160001960f88460031b161c19169055388080610fe1565b80600185968294968601518155019501930190610fce565b6110f861102936610c53565b6110316125f7565b61103961261a565b611047601154341015611da4565b61105861105382610c80565b611df0565b9061106860a08301511515611e49565b61107d6110786020840151151590565b611e8c565b60206040830192611092605085511015611ed8565b6110a781516000526005602052604060002090565b80546001600160a01b0391606091600791906110c69085163314611f24565b01956110d3875415611f70565b51920151916000604051809881958294634a2859eb60e11b8452893360048601611fc0565b03927f0000000000000000000000000000000000000000000000000000000000000000165af19081156111d0576107779360009261119d575b508161115192935561114c611147600f54611d67565b600f55565b612006565b604080518381524260208201523392917f6d17924bd76c5e1fe0e46264cf6f9d66b1a75b860335729e9d45f1d0ab4446ab91a361118d60018055565b6040519081529081906020820190565b61115192506111c39060203d6020116111c9575b6111bb818361032c565b810190611fb1565b91611131565b503d6111b1565b611ffa565b346102ac5760003660031901126102ac576111ee6125cb565b6111f661261a565b600160ff1960025416176002557f62e78cea01bee320cd4e420270b5ea74000d11b0c9f74754ebdbfc544b05a2586020604051338152a1005b346102ac5760003660031901126102ac576000546040516001600160a01b039091168152602090f35b346102ac5760203660031901126102ac576004356009548110156102ac5760209060096000527f6e1540171b6c0c960b71a7020d9f60077f6af931a8bbf590da0223dacf75c7af0154604051908152f35b346102ac5760003660031901126102ac576020601054604051908152f35b346102ac5760003660031901126102ac576020600c54604051908152f35b346102ac57602060ff6112ff6112fa36610c53565b610ca6565b54166040519015158152f35b602090602060408183019282815285518094520193019160005b828110611333575050505090565b835185529381019392810192600101611325565b346102ac576020806003193601126102ac576001600160a01b0361136961087c565b1660005260076020526040600020906040519081602084549182815201936000526020600020916000905b8282106113b757610777856113ab8189038261032c565b6040519182918261130b565b835486529485019460019384019390910190611394565b346102ac5760003660031901126102ac576020601154604051908152f35b346102ac576113fa36610c53565b6114026125cb565b60ff61140d82610ca6565b541661146a578061143061142361143993610ca6565b805460ff19166001179055565b61114c81612026565b6040514281523391907fab9e11a26bcf11da1acec616512e75c224c85dbe525ebed13e7c583a299bbc5a90602090a3005b60405162461bcd60e51b815260206004820152601760248201527f436f6e74656e7420616c726561647920666c61676765640000000000000000006044820152606490fd5b6020808201906020835283518092526040830192602060408460051b8301019501936000915b8483106114e55750505050505090565b9091929394958480611503600193603f198682030187528a51610662565b98019301930191949392906114d5565b346102ac5760003660031901126102ac57600a54611530816119fd565b61153d604051918261032c565b81815260209160208201600a6000527fc65a7bb8d6351c1cf70c95a316cc6a92839c986682d98bc35f958f4883f9d2a8936000915b838310611587576040518061077787826114af565b60018281926115958961059c565b815201960192019194611572565b60208152815160208201526020820151151560408201526040820151606082015260c060a06115f86115e3606086015184608087015260e0860190610662565b6080860151858203601f190184870152610662565b93015191015290565b346102ac5761077761164861161536610c53565b600060a0604051611625816102f1565b828152826020820152826040820152606080820152606060808201520152610c80565b600560405191611657836102f1565b8054835260ff60018201541615156020840152600281015460408401526116806003820161059c565b60608401526116916004820161059c565b6080840152015460a0820152604051918291826115a3565b346102ac5760203660031901126102ac57600435600b548110156102ac5761079761077791600b6000526000805160206135408339815191520161059c565b346102ac5760203660031901126102ac5761170161087c565b6117096125cb565b6001600160a01b03908116801561175757600080546001600160a01b03198116831782559092167f8be0079c531659141344cd1fd0a4f28419497f9722a3daafe3b4186f6b6457e08380a380f35b604051631e4fbdf760e01b815260006004820152602490fd5b346102ac5760003660031901126102ac57600b5461178d816119fd565b61179a604051918261032c565b81815260209160208201600b600052600080516020613540833981519152936000915b8383106117d2576040518061077787826114af565b60018281926117e08961059c565b8152019601920191946117bd565b346102ac5760003660031901126102ac57602063ffffffff60025460481c16604051908152f35b60405190602082018281106001600160401b0382111761030c5760405260008252565b3d15611863573d906118498261037c565b91611857604051938461032c565b82523d6000602084013e565b606090565b1561186f57565b60405162461bcd60e51b815260206004820152601160248201527015da5d1a191c985dd85b0819985a5b1959607a1b6044820152606490fd5b156118af57565b60405162461bcd60e51b815260206004820152601060248201526f496e73756666696369656e742066656560801b6044820152606490fd5b156118ee57565b60405162461bcd60e51b8152602060048201526011602482015270092dcecc2d8d2c84092a08ca640d0c2e6d607b1b6044820152606490fd5b1561192e57565b60405162461bcd60e51b8152602060048201526012602482015271496e76616c6964206d65646961207479706560701b6044820152606490fd5b1561196f57565b60405162461bcd60e51b815260206004820152601860248201527f436f6e74656e7420616c726561647920766572696669656400000000000000006044820152606490fd5b6040519060e082018281106001600160401b0382111761030c57604052606060c08360008152600060208201526000604082015282808201528260808201528260a08201520152565b6001600160401b03811161030c5760051b60200190565b6040906040519160608084018481106001600160401b0382111761030c57604052600284528360005b838110611a4a5750505050565b8083602080938501015201611a3d565b8051156108c05760200190565b8051600110156108c05760400190565b80518210156108c05760209160051b010190565b601f8111611a97575050565b60009060046000527f8a35acfbc15ff81a39ae7d344fd709f28e8600b4aa8c65c6b64bfe7fe36bd19b906020601f850160051c83019410611af3575b601f0160051c01915b828110611ae857505050565b818155600101611adc565b9092508290611ad3565b90601f8111611b0b57505050565b6000916000526020600020906020601f850160051c83019410611b49575b601f0160051c01915b828110611b3e57505050565b818155600101611b32565b9092508290611b29565b91909182516001600160401b03811161030c57611b7a81611b74845461049e565b84611afd565b602080601f8311600114611bb157508190611bad939495600092610f8b5750508160011b916000199060031b1c19161790565b9055565b90601f19831695611bc785600052602060002090565b926000905b888210611c0457505083600195969710611beb575b505050811b019055565b015160001960f88460031b161c19169055388080611be1565b80600185968294968601518155019501930190611bcc565b815181546001600160a01b0319166001600160a01b039091161781559060079061010090611c51602082015160018601611b53565b611c62604082015160028601611b53565b60608101516003850155611cb260048501611c95611c836080850151151590565b829060ff801983541691151516179055565b60a08301511515815461ff00191690151560081b61ff0016179055565b60c08101516005850155611ccd60e082015160068601611b53565b0151910155565b600954600160401b81101561030c5760018101806009558110156108c05760096000527f6e1540171b6c0c960b71a7020d9f60077f6af931a8bbf590da0223dacf75c7af0155565b8054600160401b81101561030c57611d39916001820181556108a8565b819291549060031b91821b91600019901b1916179055565b634e487b7160e01b600052601160045260246000fd5b6000198114611d765760010190565b611d51565b9392916106ee90611d96604093606088526060880190610662565b908682036020880152610662565b15611dab57565b60405162461bcd60e51b815260206004820152601960248201527f496e73756666696369656e74204e4654206d696e7420666565000000000000006044820152606490fd5b90604051611dfd816102f1565b60a0600582948054845260ff6001820154161515602085015260028101546040850152611e2c6003820161059c565b6060850152611e3d6004820161059c565b60808501520154910152565b15611e5057565b60405162461bcd60e51b815260206004820152601460248201527310dbdb9d195b9d081b9bdd081d995c9a599a595960621b6044820152606490fd5b15611e9357565b60405162461bcd60e51b815260206004820152601860248201527f436f6e74656e74206973206e6f742061757468656e74696300000000000000006044820152606490fd5b15611edf57565b60405162461bcd60e51b815260206004820152601860248201527f436f6e666964656e63652073636f726520746f6f206c6f7700000000000000006044820152606490fd5b15611f2b57565b60405162461bcd60e51b815260206004820152601b60248201527f4f6e6c79207265717565737465722063616e206d696e74204e465400000000006044820152606490fd5b15611f7757565b60405162461bcd60e51b815260206004820152601260248201527113919508185b1c9958591e481b5a5b9d195960721b6044820152606490fd5b908160209103126102ac575190565b6001600160a01b039091168152608060208201819052610c7d9492611fe791830190610662565b9260408201526060818403910152610662565b6040513d6000823e3d90fd5b61201e9060206040519282848094519384920161063f565b810103902090565b600b5490600160401b82101561030c576001820180600b558210156108c05761037a91600b60005260008051602061354083398151915201611b53565b1561206a57565b60405162461bcd60e51b815260206004820152601160248201527014995c5d595cdd081b9bdd08199bdd5b99607a1b6044820152606490fd5b156120aa57565b60405162461bcd60e51b815260206004820152601960248201527f5265717565737420616c72656164792070726f636573736564000000000000006044820152606490fd5b81601f820112156102ac5780516121058161037c565b92612113604051948561032c565b818452602082840101116102ac57610c7d916020808501910161063f565b906080828203126102ac57815180151581036102ac57926020830151926040810151926001600160401b03938481116102ac57816121709184016120ef565b9360608301519081116102ac57610c7d92016120ef565b6000929181546121968161049e565b926001918083169081156121f057506001146121b3575b50505050565b9091929394506000526020906020600020906000915b8583106121df57505050500190388080806121ad565b8054858401529183019181016121c9565b60ff19168452505050811515909102019150388080806121ad565b602061221d9160405192838092612187565b600681520301902090565b602061223a9160405192838092612187565b600881520301902090565b9060a06005918051845561226e60208201511515600186019060ff801983541691151516179055565b60408101516002850155612289606082015160038601611b53565b611ccd608082015160048601611b53565b91909182811461237d576122ae835461049e565b6001600160401b03811161030c576122ca81611b74845461049e565b600093601f821160011461230757611bad92939482916000926122fc5750508160011b916000199060031b1c19161790565b015490503880610f71565b61231b601f19831691600052602060002090565b9461232b84600052602060002090565b91815b8181106123655750958360019596971061234c57505050811b019055565b015460001960f88460031b161c19169055388080611be1565b8783015484556001938401939092019160200161232e565b509050565b600b5490600160401b82101561030c576001820180600b558210156108c05761037a91600b6000526000805160206135408339815191520161229a565b600a5490600160401b82101561030c576001820180600a558210156108c05761037a91600a6000527fc65a7bb8d6351c1cf70c95a316cc6a92839c986682d98bc35f958f4883f9d2a80161229a565b61241e9060405191828092612187565b03902090565b9493926060926106ee92151587526020870152608060408701526080860190610662565b909161245e826000526005602052604060002090565b9261246e60038501541515612063565b600484019161248d612488612484855460ff1690565b1590565b6120a3565b516125b7579061250661258a61257b60016125546124d5876020807fa200e87a2f5086e32a1c23aced4fbe4be33197f26728243a2f4e04c31dc319579a518301019101612131565b9492896124ee829e949a939b600160ff19825416179055565b9061ff00825491151560081b169061ff001916179055565b8660058201556125198860068301611b53565b61252161036d565b8a81528b151560208201529387604086015288606086015260808501524260a0850152019161254f8361220b565b612245565b871561258f5761256d612568600d54611d67565b600d55565b612576816123bf565b61240e565b95604051938493429285612424565b0390a3565b6125a261259d600e54611d67565b600e55565b6125ae61142382612228565b61257681612382565b50805460ff191660011790555061037a9050565b6000546001600160a01b031633036125df57565b60405163118cdaa760e01b8152336004820152602490fd5b600260015414612608576002600155565b604051633ee5aeb560e01b8152600490fd5b60ff6002541661262657565b60405163d93c066560e01b8152600490fd5b8151156126455760a00152565b60405163fe936cb760e01b8152600490fd5b6040519061266482610311565b600c82526b31b7b232a637b1b0ba34b7b760a11b6020830152565b634e487b7160e01b600052602160045260246000fd5b6003111561269f57565b61267f565b604051906126b182610311565b60088252676c616e677561676560c01b6020830152565b6001111561269f57565b604051906126df82610311565b6006825265736f7572636560d01b6020830152565b6040519061270182610311565b60048252636172677360e01b6020830152565b6040519061272182610311565b600f82526e39b2b1b932ba39a637b1b0ba34b7b760891b6020830152565b6040519061274c82610311565b60078252667365637265747360c81b6020830152565b6040519061276f82610311565b600982526862797465734172677360b81b6020830152565b61278f612a72565b906127a161279b612657565b83612ac2565b6127be81516127af81612695565b6127b881612695565b83612b84565b6127c961279b6126a4565b6127e360408201516127da816126c8565b6127b8816126c8565b6127ee61279b6126d2565b6127fc606082015183612ac2565b60a081018051516128fc575b50608081019081515161287c575b60c0915001805151612829575b50515190565b9161283561279b612762565b61283e82612c40565b60005b83518051821015612869579061286361285c82600194611a77565b5185612d68565b01612841565b5050915061287681612cdb565b38612823565b60208101805161288b81612695565b61289481612695565b156128ea5760c0926128cd6128e5926128b46128ae612714565b88612ac2565b516128be81612695565b6128c781612695565b86612b84565b6128de6128d861273f565b86612ac2565b5184612d68565b612816565b60405163a80d31f760e01b8152600490fd5b9261290e6129086126f4565b84612ac2565b61291783612c40565b60005b84518051821015612942579061293c61293582600194611a77565b5186612ac2565b0161291a565b5050925061294f82612cdb565b38612808565b92906020926001600160401b039263ffffffff612994604051978896879663230e93b160e11b885216600487015260a0602487015260a4860190610662565b60016044860152921660648401526084830152038160007f00000000000000000000000000000000000000000000000000000000000000006001600160a01b03165af19081156111d057600091612a10575b50807f1131472297a800fee664d1d89cfa8f7676ff07189ecc53f80bbb5f4969099db8600080a290565b612a29915060203d6020116111c9576111bb818361032c565b386129e6565b815115612a46576000808252604082015260600152565b6040516322ce3edd60e01b8152600490fd5b60405190612a6582610311565b6000602083606081520152565b604051612a7e81610311565b612a86612a58565b8082526020820160008152612a99612a58565b5061010060208301526040518092526000825261012082019182106102ac576000916040525290565b8151612b069291906001600160401b0381169060178211612b0957612af19150606060ff84519216179061324c565b505b5190612afd612a58565b5080519161347c565b50565b5060ff8111612b2e57612b2890612b208351613053565b508251613408565b50612af3565b61ffff8111612b4d57612b2890612b458351612fee565b50825161339a565b63ffffffff8111612b6e57612b2890612b668351612f89565b50825161332a565b612b2890612b7c8351612f19565b5082516132b7565b90815191612b90612a58565b508251516001810190818111611d76576020850151811015612be9575b60c2602061037a9651928301015380518211612be1575b505060405191602083015260208252612bdc82610311565b612d68565b523880612bc4565b8160011b9482860460021483151715611d7657602081612c1b61037a98612c1460c295519184612dec565b5082612e3e565b5096505050612bad565b9060208201809211611d7657565b91908201809211611d7657565b805190612c4b612a58565b508151516001810190818111611d76576020840151811015612c99575b609f6020809551928301015380518211612c91575b50500180519060018201809211611d765752565b523880612c7d565b8160011b9382850460021483151715611d7657602081612cc28297612c14609f95519184612dec565b5095505050612c68565b601f19810191908211611d7657565b805190612ce6612a58565b508151516001810190818111611d76576020840151811015612d35575b60ff6020809551928301015380518211612d2d575b5050018051600019810191908211611d765752565b523880612d18565b8160011b9382850460021483151715611d7657602081612d5e8297612c1460ff95519184612dec565b5095505050612d03565b8151612b069291906001600160401b0381169060178211612d9757612af19150604060ff84519216179061324c565b5060ff8111612dae57612b2890612b2083516131e7565b61ffff8111612dc557612b2890612b458351613182565b63ffffffff8111612dde57612b2890612b66835161311d565b612b2890612b7c83516130b8565b90612df5612a58565b50601f811680612e24575b50806020830152604051908183526000825281016020019081106102ac5760405290565b60200360208111611d76578101809111611d765738612e00565b90612e47612a58565b50805190612e53612a58565b50612e618151831115613475565b82515191612e6f8184612c33565b60209260208601518211612eec575b602091865183815197820101968211612ee4575b505001915b80821015612ebc5750600019906020036101000a019081199051169082511617905290565b909192612ed8612ed2612ede9286518152612c25565b94612c25565b92612ccc565b90612e97565b523880612e92565b612efe612ef883612f03565b87613528565b612e7e565b908160011b9180830460021490151715611d7657565b612f21612a58565b508051516001810190818111611d76576020830151811015612f5a575b607b60208451928301015380518211612f5657505090565b5290565b8160011b82810460021483151715611d7657612f8390612f7c85519186612dec565b5084612e3e565b50612f3e565b612f91612a58565b508051516001810190818111611d76576020830151811015612fc6575b607a60208451928301015380518211612f5657505090565b8160011b82810460021483151715611d7657612fe890612f7c85519186612dec565b50612fae565b612ff6612a58565b508051516001810190818111611d7657602083015181101561302b575b607960208451928301015380518211612f5657505090565b8160011b82810460021483151715611d765761304d90612f7c85519186612dec565b50613013565b61305b612a58565b508051516001810190818111611d76576020830151811015613090575b607860208451928301015380518211612f5657505090565b8160011b82810460021483151715611d76576130b290612f7c85519186612dec565b50613078565b6130c0612a58565b508051516001810190818111611d765760208301518110156130f5575b605b60208451928301015380518211612f5657505090565b8160011b82810460021483151715611d765761311790612f7c85519186612dec565b506130dd565b613125612a58565b508051516001810190818111611d7657602083015181101561315a575b605a60208451928301015380518211612f5657505090565b8160011b82810460021483151715611d765761317c90612f7c85519186612dec565b50613142565b61318a612a58565b508051516001810190818111611d765760208301518110156131bf575b605960208451928301015380518211612f5657505090565b8160011b82810460021483151715611d76576131e190612f7c85519186612dec565b506131a7565b6131ef612a58565b508051516001810190818111611d76576020830151811015613224575b605860208451928301015380518211612f5657505090565b8160011b82810460021483151715611d765761324690612f7c85519186612dec565b5061320c565b90613255612a58565b508151516001810191828211611d76576020840151821015613288575b60208451928301015380518211612f5657505090565b8260011b83810460021484151715611d76576132b1906132aa86519187612dec565b5085612e3e565b50613272565b906132c0612a58565b50815151806008019182600811611d765760208401518311613302575b6008845192830101906001600160401b031982511617905280518211612f5657505090565b8260011b83810460021484151715611d7657613324906132aa86519187612dec565b506132dd565b90613333612a58565b50815151806004019182600411611d765760208401518311613372575b60048451928301019063ffffffff1982511617905280518211612f5657505090565b8260011b83810460021484151715611d7657613394906132aa86519187612dec565b50613350565b906133a3612a58565b50815151806002019182600211611d7657602084015183116133e0575b60028451928301019061ffff1982511617905280518211612f5657505090565b8260011b83810460021484151715611d7657613402906132aa86519187612dec565b506133c0565b90613411612a58565b50815151806001019182600111611d76576020840151831161344d575b60018451928301019060ff1982511617905280518211612f5657505090565b8260011b83810460021484151715611d765761346f906132aa86519187612dec565b5061342e565b156102ac57565b9190613486612a58565b506134948151831115613475565b8251519160206134a48285612c33565b928193828701518111613511575b865183815197820101968211613509575b505001915b808210156134ed5750600019906020036101000a019081199051169082511617905290565b909192612ed8612ed26135039286518152612c25565b906134c8565b5238806134c3565b61352361351d82612f03565b88613528565b6134b2565b90612b069161353981519282612dec565b50612e3e56fe0175b7a638427703f0dbe7bb9bbf987a2551717b34e79f33b5b1008d1fa01db9a26469706673582212203c7793dd1030ae7d0b7d42f3d243c95b66a529f013fac8ce271a26a6c205f92a64736f6c63430008190033","opcodes":"PUSH1 0xC0 PUSH1 0x40 MSTORE CALLVALUE PUSH2 0x32A JUMPI PUSH2 0x38FE DUP1 CODESIZE SUB DUP1 PUSH2 0x19 DUP2 PUSH2 0x32F JUMP JUMPDEST SWAP3 DUP4 CODECOPY DUP2 ADD SWAP1 PUSH1 0xE0 DUP2 DUP4 SUB SLT PUSH2 0x32A JUMPI PUSH2 0x32 DUP2 PUSH2 0x354 JUMP JUMPDEST PUSH1 0x20 DUP3 DUP2 ADD MLOAD SWAP2 SWAP4 SWAP1 SWAP2 PUSH1 0x1 PUSH1 0x1 PUSH1 0x40 SHL SUB SWAP1 DUP2 DUP2 AND DUP2 SUB PUSH2 0x32A JUMPI PUSH1 0x40 DUP6 ADD MLOAD SWAP1 PUSH4 0xFFFFFFFF DUP3 AND DUP3 SUB PUSH2 0x32A JUMPI PUSH1 0x60 DUP7 ADD MLOAD SWAP4 PUSH1 0x80 DUP8 ADD MLOAD DUP5 DUP2 GT PUSH2 0x32A JUMPI DUP8 ADD SWAP5 PUSH1 0x1F SWAP3 DUP3 DUP5 DUP9 ADD SLT ISZERO PUSH2 0x32A JUMPI DUP7 MLOAD DUP7 DUP2 GT PUSH2 0x2E7 JUMPI PUSH1 0x1F NOT SWAP8 PUSH2 0x9F DUP3 DUP8 ADD DUP11 AND DUP12 ADD PUSH2 0x32F JUMP JUMPDEST SWAP5 DUP3 DUP7 MSTORE DUP11 DUP4 DUP4 ADD ADD GT PUSH2 0x32A JUMPI DUP10 SWAP1 PUSH1 0x0 JUMPDEST DUP4 DUP2 LT PUSH2 0x316 JUMPI POP POP PUSH1 0x0 SWAP2 DUP6 ADD ADD MSTORE PUSH2 0xDA PUSH1 0xC0 PUSH2 0xD3 PUSH1 0xA0 DUP13 ADD PUSH2 0x354 JUMP JUMPDEST SWAP11 ADD PUSH2 0x354 JUMP JUMPDEST PUSH1 0x1 PUSH1 0x1 PUSH1 0xA0 SHL SUB SWAP11 DUP12 AND PUSH1 0x80 MSTORE DUP11 AND DUP1 ISZERO PUSH2 0x2FD JUMPI PUSH1 0x0 DUP1 SLOAD PUSH1 0x1 PUSH1 0x1 PUSH1 0xA0 SHL SUB NOT DUP2 AND DUP4 OR DUP3 SSTORE DUP13 AND SWAP1 PUSH32 0x8BE0079C531659141344CD1FD0A4F28419497F9722A3DAAFE3B4186F6B6457E0 SWAP1 DUP1 LOG3 PUSH1 0x1 DUP1 DUP1 SSTORE PUSH7 0x38D7EA4C68000 PUSH1 0x10 SSTORE PUSH7 0x2386F26FC10000 PUSH1 0x11 SSTORE PUSH1 0x2 DUP1 SLOAD PUSH2 0x100 PUSH1 0x1 PUSH1 0x68 SHL SUB NOT AND PUSH1 0x8 SWAP4 SWAP1 SWAP4 SHL PUSH9 0xFFFFFFFFFFFFFFFF00 AND SWAP3 SWAP1 SWAP3 OR PUSH1 0x48 SWAP7 SWAP1 SWAP7 SHL PUSH13 0xFFFFFFFF000000000000000000 AND SWAP6 SWAP1 SWAP6 OR SWAP1 SSTORE PUSH1 0x3 SSTORE DUP1 MLOAD SWAP4 DUP5 GT PUSH2 0x2E7 JUMPI PUSH1 0x4 SWAP6 DUP7 SLOAD DUP5 DUP2 DUP2 SHR SWAP2 AND DUP1 ISZERO PUSH2 0x2DD JUMPI JUMPDEST DUP3 DUP3 LT EQ PUSH2 0x2C8 JUMPI DUP4 DUP2 GT PUSH2 0x282 JUMPI JUMPDEST POP DUP1 SWAP3 DUP6 GT PUSH1 0x1 EQ PUSH2 0x21E JUMPI POP DUP4 SWAP5 POP SWAP1 DUP4 SWAP3 SWAP2 PUSH1 0x0 SWAP5 PUSH2 0x213 JUMPI JUMPDEST POP POP SHL SWAP2 PUSH1 0x0 NOT SWAP1 PUSH1 0x3 SHL SHR NOT AND OR SWAP1 SSTORE JUMPDEST AND PUSH1 0xA0 MSTORE PUSH1 0x40 MLOAD PUSH2 0x3595 SWAP1 DUP2 PUSH2 0x369 DUP3 CODECOPY PUSH1 0x80 MLOAD DUP2 DUP2 DUP2 PUSH2 0x42D ADD MSTORE PUSH2 0x29AD ADD MSTORE PUSH1 0xA0 MLOAD DUP2 DUP2 DUP2 PUSH2 0x27D ADD MSTORE PUSH2 0x10FC ADD MSTORE RETURN JUMPDEST ADD MLOAD SWAP3 POP CODESIZE DUP1 PUSH2 0x1CE JUMP JUMPDEST SWAP3 SWAP5 DUP5 SWAP1 DUP2 AND DUP8 PUSH1 0x0 MSTORE DUP5 PUSH1 0x0 KECCAK256 SWAP5 PUSH1 0x0 SWAP1 JUMPDEST DUP9 DUP4 DUP4 LT PUSH2 0x268 JUMPI POP POP POP LT PUSH2 0x24F JUMPI JUMPDEST POP POP POP DUP2 SHL ADD SWAP1 SSTORE PUSH2 0x1E0 JUMP JUMPDEST ADD MLOAD PUSH1 0x0 NOT PUSH1 0xF8 DUP5 PUSH1 0x3 SHL AND SHR NOT AND SWAP1 SSTORE CODESIZE DUP1 DUP1 PUSH2 0x242 JUMP JUMPDEST DUP6 DUP8 ADD MLOAD DUP9 SSTORE SWAP1 SWAP7 ADD SWAP6 SWAP5 DUP6 ADD SWAP5 DUP8 SWAP4 POP SWAP1 DUP2 ADD SWAP1 PUSH2 0x231 JUMP JUMPDEST DUP8 PUSH1 0x0 MSTORE DUP2 PUSH1 0x0 KECCAK256 DUP5 DUP1 DUP9 ADD PUSH1 0x5 SHR DUP3 ADD SWAP3 DUP5 DUP10 LT PUSH2 0x2BF JUMPI JUMPDEST ADD PUSH1 0x5 SHR ADD SWAP1 DUP6 SWAP1 JUMPDEST DUP3 DUP2 LT PUSH2 0x2B3 JUMPI POP POP PUSH2 0x1B2 JUMP JUMPDEST PUSH1 0x0 DUP2 SSTORE ADD DUP6 SWAP1 PUSH2 0x2A5 JUMP JUMPDEST SWAP3 POP DUP2 SWAP3 PUSH2 0x29C JUMP JUMPDEST PUSH1 0x22 DUP9 PUSH4 0x4E487B71 PUSH1 0xE0 SHL PUSH1 0x0 MSTORE MSTORE PUSH1 0x24 PUSH1 0x0 REVERT JUMPDEST SWAP1 PUSH1 0x7F AND SWAP1 PUSH2 0x1A2 JUMP JUMPDEST PUSH4 0x4E487B71 PUSH1 0xE0 SHL PUSH1 0x0 MSTORE PUSH1 0x41 PUSH1 0x4 MSTORE PUSH1 0x24 PUSH1 0x0 REVERT JUMPDEST PUSH1 0x40 MLOAD PUSH4 0x1E4FBDF7 PUSH1 0xE0 SHL DUP2 MSTORE PUSH1 0x0 PUSH1 0x4 DUP3 ADD MSTORE PUSH1 0x24 SWAP1 REVERT JUMPDEST DUP2 DUP2 ADD DUP4 ADD MLOAD DUP8 DUP3 ADD DUP5 ADD MSTORE DUP12 SWAP3 ADD PUSH2 0xB2 JUMP JUMPDEST PUSH1 0x0 DUP1 REVERT JUMPDEST PUSH1 0x40 MLOAD SWAP2 SWAP1 PUSH1 0x1F ADD PUSH1 0x1F NOT AND DUP3 ADD PUSH1 0x1 PUSH1 0x1 PUSH1 0x40 SHL SUB DUP2 GT DUP4 DUP3 LT OR PUSH2 0x2E7 JUMPI PUSH1 0x40 MSTORE JUMP JUMPDEST MLOAD SWAP1 PUSH1 0x1 PUSH1 0x1 PUSH1 0xA0 SHL SUB DUP3 AND DUP3 SUB PUSH2 0x32A JUMPI JUMP INVALID PUSH1 0x80 PUSH1 0x40 MSTORE PUSH1 0x4 CALLDATASIZE LT ISZERO PUSH2 0x12 JUMPI PUSH1 0x0 DUP1 REVERT JUMPDEST PUSH1 0x0 CALLDATALOAD PUSH1 0xE0 SHR DUP1 PUSH4 0x1FF8B7D EQ PUSH2 0x267 JUMPI DUP1 PUSH4 0x9C1BA2E EQ PUSH2 0x262 JUMPI DUP1 PUSH4 0xCA76175 EQ PUSH2 0x25D JUMPI DUP1 PUSH4 0xF3908C8 EQ PUSH2 0x258 JUMPI DUP1 PUSH4 0x13C60177 EQ PUSH2 0x253 JUMPI DUP1 PUSH4 0x24600FC3 EQ PUSH2 0x24E JUMPI DUP1 PUSH4 0x263CB6B6 EQ PUSH2 0x249 JUMPI DUP1 PUSH4 0x35C1260D EQ PUSH2 0x244 JUMPI DUP1 PUSH4 0x372D6B27 EQ PUSH2 0x23F JUMPI DUP1 PUSH4 0x39FFBE0B EQ PUSH2 0x23A JUMPI DUP1 PUSH4 0x3F4BA83A EQ PUSH2 0x235 JUMPI DUP1 PUSH4 0x4DE2BFBF EQ PUSH2 0x230 JUMPI DUP1 PUSH4 0x4EB7E95F EQ PUSH2 0x22B JUMPI DUP1 PUSH4 0x54FD4D50 EQ PUSH2 0x226 JUMPI DUP1 PUSH4 0x5A55977E EQ PUSH2 0x221 JUMPI DUP1 PUSH4 0x5C975ABB EQ PUSH2 0x21C JUMPI DUP1 PUSH4 0x6BC9D5B3 EQ PUSH2 0x217 JUMPI DUP1 PUSH4 0x6DB79437 EQ PUSH2 0x212 JUMPI DUP1 PUSH4 0x6E74336B EQ PUSH2 0x20D JUMPI DUP1 PUSH4 0x715018A6 EQ PUSH2 0x208 JUMPI DUP1 PUSH4 0x79CB62B0 EQ PUSH2 0x203 JUMPI DUP1 PUSH4 0x8047BC1D EQ PUSH2 0x1FE JUMPI DUP1 PUSH4 0x8456CB59 EQ PUSH2 0x1F9 JUMPI DUP1 PUSH4 0x8DA5CB5B EQ PUSH2 0x1F4 JUMPI DUP1 PUSH4 0x968E5A0D EQ PUSH2 0x1EF JUMPI DUP1 PUSH4 0xA8C278A2 EQ PUSH2 0x1EA JUMPI DUP1 PUSH4 0xAC90C140 EQ PUSH2 0x1E5 JUMPI DUP1 PUSH4 0xB32EAA0E EQ PUSH2 0x1E0 JUMPI DUP1 PUSH4 0xB337CF74 EQ PUSH2 0x1DB JUMPI DUP1 PUSH4 0xB9F83F06 EQ PUSH2 0x1D6 JUMPI DUP1 PUSH4 0xBC9DF56F EQ PUSH2 0x1D1 JUMPI DUP1 PUSH4 0xC8B22D24 EQ PUSH2 0x1CC JUMPI DUP1 PUSH4 0xCDDC911F EQ PUSH2 0x1C7 JUMPI DUP1 PUSH4 0xF16FB433 EQ PUSH2 0x1C2 JUMPI DUP1 PUSH4 0xF2FDE38B EQ PUSH2 0x1BD JUMPI DUP1 PUSH4 0xF33B2491 EQ PUSH2 0x1B8 JUMPI PUSH4 0xF68016B7 EQ PUSH2 0x1B3 JUMPI PUSH1 0x0 DUP1 REVERT JUMPDEST PUSH2 0x17EE JUMP JUMPDEST PUSH2 0x1770 JUMP JUMPDEST PUSH2 0x16E8 JUMP JUMPDEST PUSH2 0x16A9 JUMP JUMPDEST PUSH2 0x1601 JUMP JUMPDEST PUSH2 0x1513 JUMP JUMPDEST PUSH2 0x13EC JUMP JUMPDEST PUSH2 0x13CE JUMP JUMPDEST PUSH2 0x1347 JUMP JUMPDEST PUSH2 0x12E5 JUMP JUMPDEST PUSH2 0x12C7 JUMP JUMPDEST PUSH2 0x12A9 JUMP JUMPDEST PUSH2 0x1258 JUMP JUMPDEST PUSH2 0x122F JUMP JUMPDEST PUSH2 0x11D5 JUMP JUMPDEST PUSH2 0x101D JUMP JUMPDEST PUSH2 0xE9F JUMP JUMPDEST PUSH2 0xE44 JUMP JUMPDEST PUSH2 0xE26 JUMP JUMPDEST PUSH2 0xDC8 JUMP JUMPDEST PUSH2 0xD77 JUMP JUMPDEST PUSH2 0xD54 JUMP JUMPDEST PUSH2 0xCCC JUMP JUMPDEST PUSH2 0xC0D JUMP JUMPDEST PUSH2 0xBEF JUMP JUMPDEST PUSH2 0x9FA JUMP JUMPDEST PUSH2 0x990 JUMP JUMPDEST PUSH2 0x972 JUMP JUMPDEST PUSH2 0x93B JUMP JUMPDEST PUSH2 0x91D JUMP JUMPDEST PUSH2 0x8C5 JUMP JUMPDEST PUSH2 0x7AB JUMP JUMPDEST PUSH2 0x77B JUMP JUMPDEST PUSH2 0x6F3 JUMP JUMPDEST PUSH2 0x3DE JUMP JUMPDEST PUSH2 0x2B1 JUMP JUMPDEST CALLVALUE PUSH2 0x2AC JUMPI PUSH1 0x0 CALLDATASIZE PUSH1 0x3 NOT ADD SLT PUSH2 0x2AC JUMPI PUSH1 0x40 MLOAD PUSH32 0x0 PUSH1 0x1 PUSH1 0x1 PUSH1 0xA0 SHL SUB AND DUP2 MSTORE PUSH1 0x20 SWAP1 RETURN JUMPDEST PUSH1 0x0 DUP1 REVERT JUMPDEST CALLVALUE PUSH2 0x2AC JUMPI PUSH1 0x0 CALLDATASIZE PUSH1 0x3 NOT ADD SLT PUSH2 0x2AC JUMPI PUSH1 0x20 PUSH1 0x1 PUSH1 0x1 PUSH1 0x40 SHL SUB PUSH1 0x2 SLOAD PUSH1 0x8 SHR AND PUSH1 0x40 MLOAD SWAP1 DUP2 MSTORE RETURN JUMPDEST PUSH4 0x4E487B71 PUSH1 0xE0 SHL PUSH1 0x0 MSTORE PUSH1 0x41 PUSH1 0x4 MSTORE PUSH1 0x24 PUSH1 0x0 REVERT JUMPDEST PUSH1 0xC0 DUP2 ADD SWAP1 DUP2 LT PUSH1 0x1 PUSH1 0x1 PUSH1 0x40 SHL SUB DUP3 GT OR PUSH2 0x30C JUMPI PUSH1 0x40 MSTORE JUMP JUMPDEST PUSH2 0x2DB JUMP JUMPDEST PUSH1 0x40 DUP2 ADD SWAP1 DUP2 LT PUSH1 0x1 PUSH1 0x1 PUSH1 0x40 SHL SUB DUP3 GT OR PUSH2 0x30C JUMPI PUSH1 0x40 MSTORE JUMP JUMPDEST SWAP1 PUSH1 0x1F DUP1 NOT SWAP2 ADD AND DUP2 ADD SWAP1 DUP2 LT PUSH1 0x1 PUSH1 0x1 PUSH1 0x40 SHL SUB DUP3 GT OR PUSH2 0x30C JUMPI PUSH1 0x40 MSTORE JUMP JUMPDEST PUSH1 0x40 MLOAD SWAP1 PUSH2 0x120 DUP3 ADD DUP3 DUP2 LT PUSH1 0x1 PUSH1 0x1 PUSH1 0x40 SHL SUB DUP3 GT OR PUSH2 0x30C JUMPI PUSH1 0x40 MSTORE JUMP JUMPDEST PUSH1 0x40 MLOAD SWAP1 PUSH2 0x37A DUP3 PUSH2 0x2F1 JUMP JUMPDEST JUMP JUMPDEST PUSH1 0x1 PUSH1 0x1 PUSH1 0x40 SHL SUB DUP2 GT PUSH2 0x30C JUMPI PUSH1 0x1F ADD PUSH1 0x1F NOT AND PUSH1 0x20 ADD SWAP1 JUMP JUMPDEST DUP2 PUSH1 0x1F DUP3 ADD SLT ISZERO PUSH2 0x2AC JUMPI DUP1 CALLDATALOAD SWAP1 PUSH2 0x3AE DUP3 PUSH2 0x37C JUMP JUMPDEST SWAP3 PUSH2 0x3BC PUSH1 0x40 MLOAD SWAP5 DUP6 PUSH2 0x32C JUMP JUMPDEST DUP3 DUP5 MSTORE PUSH1 0x20 DUP4 DUP4 ADD ADD GT PUSH2 0x2AC JUMPI DUP2 PUSH1 0x0 SWAP3 PUSH1 0x20 DUP1 SWAP4 ADD DUP4 DUP7 ADD CALLDATACOPY DUP4 ADD ADD MSTORE SWAP1 JUMP JUMPDEST CALLVALUE PUSH2 0x2AC JUMPI PUSH1 0x60 CALLDATASIZE PUSH1 0x3 NOT ADD SLT PUSH2 0x2AC JUMPI PUSH1 0x4 CALLDATALOAD PUSH1 0x1 PUSH1 0x1 PUSH1 0x40 SHL SUB PUSH1 0x24 CALLDATALOAD DUP2 DUP2 GT PUSH2 0x2AC JUMPI PUSH2 0x412 SWAP1 CALLDATASIZE SWAP1 PUSH1 0x4 ADD PUSH2 0x397 JUMP JUMPDEST SWAP1 PUSH1 0x44 CALLDATALOAD SWAP1 DUP2 GT PUSH2 0x2AC JUMPI PUSH2 0x42B SWAP1 CALLDATASIZE SWAP1 PUSH1 0x4 ADD PUSH2 0x397 JUMP JUMPDEST PUSH32 0x0 PUSH1 0x1 PUSH1 0x1 PUSH1 0xA0 SHL SUB AND CALLER SUB PUSH2 0x48C JUMPI PUSH2 0x465 SWAP2 DUP4 PUSH2 0x2448 JUMP JUMPDEST PUSH32 0x85E1543BF2F84FE80C6BADBCE3648C8539AD1DF4D2B3D822938CA0538BE727E6 PUSH1 0x0 DUP1 LOG2 STOP JUMPDEST PUSH1 0x40 MLOAD PUSH4 0xC6829F83 PUSH1 0xE0 SHL DUP2 MSTORE PUSH1 0x4 SWAP1 REVERT JUMPDEST SWAP1 PUSH1 0x1 DUP3 DUP2 SHR SWAP3 AND DUP1 ISZERO PUSH2 0x4CE JUMPI JUMPDEST PUSH1 0x20 DUP4 LT EQ PUSH2 0x4B8 JUMPI JUMP JUMPDEST PUSH4 0x4E487B71 PUSH1 0xE0 SHL PUSH1 0x0 MSTORE PUSH1 0x22 PUSH1 0x4 MSTORE PUSH1 0x24 PUSH1 0x0 REVERT JUMPDEST SWAP2 PUSH1 0x7F AND SWAP2 PUSH2 0x4AD JUMP JUMPDEST PUSH1 0x40 MLOAD SWAP1 PUSH1 0x0 DUP3 PUSH1 0x4 SLOAD SWAP2 PUSH2 0x4EC DUP4 PUSH2 0x49E JUMP JUMPDEST DUP1 DUP4 MSTORE SWAP3 PUSH1 0x20 SWAP1 PUSH1 0x1 SWAP1 DUP2 DUP2 AND SWAP1 DUP2 ISZERO PUSH2 0x578 JUMPI POP PUSH1 0x1 EQ PUSH2 0x517 JUMPI JUMPDEST POP POP PUSH2 0x37A SWAP3 POP SUB DUP4 PUSH2 0x32C JUMP JUMPDEST SWAP2 POP SWAP3 PUSH1 0x4 PUSH1 0x0 MSTORE PUSH32 0x8A35ACFBC15FF81A39AE7D344FD709F28E8600B4AA8C65C6B64BFE7FE36BD19B SWAP4 PUSH1 0x0 SWAP3 JUMPDEST DUP3 DUP5 LT PUSH2 0x560 JUMPI POP PUSH2 0x37A SWAP5 POP POP POP DUP2 ADD PUSH1 0x20 ADD CODESIZE DUP1 PUSH2 0x509 JUMP JUMPDEST DUP6 SLOAD DUP9 DUP6 ADD DUP4 ADD MSTORE SWAP5 DUP6 ADD SWAP5 DUP8 SWAP5 POP SWAP3 DUP2 ADD SWAP3 PUSH2 0x545 JUMP JUMPDEST SWAP2 POP POP PUSH1 0x20 SWAP3 POP PUSH2 0x37A SWAP5 SWAP2 POP PUSH1 0xFF NOT AND DUP3 DUP5 ADD MSTORE ISZERO ISZERO PUSH1 0x5 SHL DUP3 ADD ADD CODESIZE DUP1 PUSH2 0x509 JUMP JUMPDEST SWAP1 PUSH1 0x40 MLOAD SWAP2 DUP3 PUSH1 0x0 DUP3 SLOAD PUSH2 0x5AF DUP2 PUSH2 0x49E JUMP JUMPDEST SWAP1 DUP2 DUP5 MSTORE PUSH1 0x20 SWAP5 PUSH1 0x1 SWAP2 PUSH1 0x1 DUP2 AND SWAP1 DUP2 PUSH1 0x0 EQ PUSH2 0x61D JUMPI POP PUSH1 0x1 EQ PUSH2 0x5DE JUMPI JUMPDEST POP POP POP PUSH2 0x37A SWAP3 POP SUB DUP4 PUSH2 0x32C JUMP JUMPDEST PUSH1 0x0 SWAP1 DUP2 MSTORE DUP6 DUP2 KECCAK256 SWAP6 SWAP4 POP SWAP2 SWAP1 JUMPDEST DUP2 DUP4 LT PUSH2 0x605 JUMPI POP POP PUSH2 0x37A SWAP4 POP DUP3 ADD ADD CODESIZE DUP1 DUP1 PUSH2 0x5CF JUMP JUMPDEST DUP6 SLOAD DUP9 DUP5 ADD DUP6 ADD MSTORE SWAP5 DUP6 ADD SWAP5 DUP8 SWAP5 POP SWAP2 DUP4 ADD SWAP2 PUSH2 0x5EC JUMP JUMPDEST SWAP3 POP POP POP PUSH2 0x37A SWAP5 SWAP3 POP PUSH1 0xFF NOT AND DUP3 DUP5 ADD MSTORE ISZERO ISZERO PUSH1 0x5 SHL DUP3 ADD ADD CODESIZE DUP1 DUP1 PUSH2 0x5CF JUMP JUMPDEST PUSH1 0x0 JUMPDEST DUP4 DUP2 LT PUSH2 0x652 JUMPI POP POP PUSH1 0x0 SWAP2 ADD MSTORE JUMP JUMPDEST DUP2 DUP2 ADD MLOAD DUP4 DUP3 ADD MSTORE PUSH1 0x20 ADD PUSH2 0x642 JUMP JUMPDEST SWAP1 PUSH1 0x20 SWAP2 PUSH2 0x67B DUP2 MLOAD DUP1 SWAP3 DUP2 DUP6 MSTORE DUP6 DUP1 DUP7 ADD SWAP2 ADD PUSH2 0x63F JUMP JUMPDEST PUSH1 0x1F ADD PUSH1 0x1F NOT AND ADD ADD SWAP1 JUMP JUMPDEST SWAP10 SWAP9 SWAP8 SWAP4 SWAP5 SWAP1 PUSH2 0x100 SWAP8 SWAP4 PUSH2 0x6BA PUSH2 0x6EE SWAP9 SWAP5 PUSH2 0x6C8 SWAP4 DUP15 PUSH2 0x120 SWAP2 PUSH1 0x1 DUP1 PUSH1 0xA0 SHL SUB AND DUP2 MSTORE DUP2 PUSH1 0x20 DUP3 ADD MSTORE ADD SWAP1 PUSH2 0x662 JUMP JUMPDEST DUP13 DUP2 SUB PUSH1 0x40 DUP15 ADD MSTORE SWAP1 PUSH2 0x662 JUMP JUMPDEST SWAP5 PUSH1 0x60 DUP12 ADD MSTORE ISZERO ISZERO PUSH1 0x80 DUP11 ADD MSTORE ISZERO ISZERO PUSH1 0xA0 DUP10 ADD MSTORE PUSH1 0xC0 DUP9 ADD MSTORE DUP7 DUP3 SUB PUSH1 0xE0 DUP9 ADD MSTORE PUSH2 0x662 JUMP JUMPDEST SWAP4 ADD MSTORE JUMP JUMPDEST CALLVALUE PUSH2 0x2AC JUMPI PUSH1 0x20 CALLDATASIZE PUSH1 0x3 NOT ADD SLT PUSH2 0x2AC JUMPI PUSH1 0x4 CALLDATALOAD PUSH1 0x0 SWAP1 DUP2 MSTORE PUSH1 0x5 PUSH1 0x20 MSTORE PUSH1 0x40 SWAP1 KECCAK256 DUP1 SLOAD PUSH1 0x1 PUSH1 0x1 PUSH1 0xA0 SHL SUB AND PUSH2 0x777 PUSH2 0x72F PUSH1 0x1 DUP5 ADD PUSH2 0x59C JUMP JUMPDEST SWAP2 PUSH2 0x73C PUSH1 0x2 DUP6 ADD PUSH2 0x59C JUMP JUMPDEST SWAP4 PUSH1 0x3 DUP2 ADD SLOAD SWAP2 PUSH1 0x4 DUP3 ADD SLOAD PUSH1 0x5 DUP4 ADD SLOAD SWAP2 PUSH1 0x7 PUSH2 0x75C PUSH1 0x6 DUP7 ADD PUSH2 0x59C JUMP JUMPDEST SWAP5 ADD SLOAD SWAP5 PUSH1 0x40 MLOAD SWAP9 DUP10 SWAP9 PUSH1 0xFF DUP1 DUP7 PUSH1 0x8 SHR AND SWAP6 AND SWAP4 DUP11 PUSH2 0x687 JUMP JUMPDEST SUB SWAP1 RETURN JUMPDEST CALLVALUE PUSH2 0x2AC JUMPI PUSH1 0x0 CALLDATASIZE PUSH1 0x3 NOT ADD SLT PUSH2 0x2AC JUMPI PUSH2 0x777 PUSH2 0x797 PUSH2 0x4D8 JUMP JUMPDEST PUSH1 0x40 MLOAD SWAP2 DUP3 SWAP2 PUSH1 0x20 DUP4 MSTORE PUSH1 0x20 DUP4 ADD SWAP1 PUSH2 0x662 JUMP JUMPDEST CALLVALUE PUSH2 0x2AC JUMPI PUSH1 0x0 DUP1 PUSH1 0x3 NOT CALLDATASIZE ADD SLT PUSH2 0x879 JUMPI PUSH2 0x7C5 PUSH2 0x25CB JUMP JUMPDEST SELFBALANCE DUP1 ISZERO PUSH2 0x83D JUMPI DUP2 SLOAD PUSH32 0xFBC3A599B784FE88772FC5ABCC07223F64CA0B13ACC341F4FB1E46BEF0510EB4 SWAP1 PUSH2 0x837 SWAP1 PUSH1 0x1 PUSH1 0x1 PUSH1 0xA0 SHL SUB SWAP1 PUSH2 0x81D SWAP1 DUP7 SWAP1 DUP2 SWAP1 DUP2 SWAP1 DUP2 SWAP1 DUP10 SWAP1 DUP8 AND GAS CALL PUSH2 0x817 PUSH2 0x1838 JUMP JUMPDEST POP PUSH2 0x1868 JUMP JUMPDEST DUP5 SLOAD PUSH1 0x40 DUP1 MLOAD SWAP6 DUP7 MSTORE TIMESTAMP PUSH1 0x20 DUP8 ADD MSTORE SWAP2 AND SWAP4 SWAP2 DUP3 SWAP2 DUP3 ADD SWAP1 JUMP JUMPDEST SUB SWAP1 LOG2 DUP1 RETURN JUMPDEST PUSH1 0x40 MLOAD PUSH3 0x461BCD PUSH1 0xE5 SHL DUP2 MSTORE PUSH1 0x20 PUSH1 0x4 DUP3 ADD MSTORE PUSH1 0x14 PUSH1 0x24 DUP3 ADD MSTORE PUSH20 0x4E6F2066756E647320746F207769746864726177 PUSH1 0x60 SHL PUSH1 0x44 DUP3 ADD MSTORE PUSH1 0x64 SWAP1 REVERT JUMPDEST DUP1 REVERT JUMPDEST PUSH1 0x4 CALLDATALOAD SWAP1 PUSH1 0x1 PUSH1 0x1 PUSH1 0xA0 SHL SUB DUP3 AND DUP3 SUB PUSH2 0x2AC JUMPI JUMP JUMPDEST PUSH4 0x4E487B71 PUSH1 0xE0 SHL PUSH1 0x0 MSTORE PUSH1 0x32 PUSH1 0x4 MSTORE PUSH1 0x24 PUSH1 0x0 REVERT JUMPDEST DUP1 SLOAD DUP3 LT ISZERO PUSH2 0x8C0 JUMPI PUSH1 0x0 MSTORE PUSH1 0x20 PUSH1 0x0 KECCAK256 ADD SWAP1 PUSH1 0x0 SWAP1 JUMP JUMPDEST PUSH2 0x892 JUMP JUMPDEST CALLVALUE PUSH2 0x2AC JUMPI PUSH1 0x40 CALLDATASIZE PUSH1 0x3 NOT ADD SLT PUSH2 0x2AC JUMPI PUSH2 0x8DE PUSH2 0x87C JUMP JUMPDEST PUSH1 0x1 PUSH1 0x1 PUSH1 0xA0 SHL SUB AND PUSH1 0x0 SWAP1 DUP2 MSTORE PUSH1 0x7 PUSH1 0x20 MSTORE PUSH1 0x40 SWAP1 KECCAK256 DUP1 SLOAD PUSH1 0x24 CALLDATALOAD SWAP2 SWAP1 DUP3 LT ISZERO PUSH2 0x2AC JUMPI PUSH1 0x20 SWAP2 PUSH2 0x90F SWAP2 PUSH2 0x8A8 JUMP JUMPDEST SWAP1 SLOAD PUSH1 0x40 MLOAD SWAP2 PUSH1 0x3 SHL SHR DUP2 MSTORE RETURN JUMPDEST CALLVALUE PUSH2 0x2AC JUMPI PUSH1 0x0 CALLDATASIZE PUSH1 0x3 NOT ADD SLT PUSH2 0x2AC JUMPI PUSH1 0x20 PUSH1 0xD SLOAD PUSH1 0x40 MLOAD SWAP1 DUP2 MSTORE RETURN JUMPDEST CALLVALUE PUSH2 0x2AC JUMPI PUSH1 0x0 CALLDATASIZE PUSH1 0x3 NOT ADD SLT PUSH2 0x2AC JUMPI PUSH1 0x80 PUSH1 0xC SLOAD PUSH1 0xD SLOAD PUSH1 0xE SLOAD PUSH1 0xF SLOAD SWAP2 PUSH1 0x40 MLOAD SWAP4 DUP5 MSTORE PUSH1 0x20 DUP5 ADD MSTORE PUSH1 0x40 DUP4 ADD MSTORE PUSH1 0x60 DUP3 ADD MSTORE RETURN JUMPDEST CALLVALUE PUSH2 0x2AC JUMPI PUSH1 0x0 CALLDATASIZE PUSH1 0x3 NOT ADD SLT PUSH2 0x2AC JUMPI PUSH1 0x20 PUSH1 0xE SLOAD PUSH1 0x40 MLOAD SWAP1 DUP2 MSTORE RETURN JUMPDEST CALLVALUE PUSH2 0x2AC JUMPI PUSH1 0x0 CALLDATASIZE PUSH1 0x3 NOT ADD SLT PUSH2 0x2AC JUMPI PUSH2 0x9A9 PUSH2 0x25CB JUMP JUMPDEST PUSH1 0x2 SLOAD PUSH1 0xFF DUP2 AND ISZERO PUSH2 0x9E8 JUMPI PUSH1 0xFF NOT AND PUSH1 0x2 SSTORE PUSH32 0x5DB9EE0A495BF2E6FF9C91A7834C1BA4FDD244A5E8AA4E537BD38AEAE4B073AA PUSH1 0x20 PUSH1 0x40 MLOAD CALLER DUP2 MSTORE LOG1 STOP JUMPDEST PUSH1 0x40 MLOAD PUSH4 0x8DFC202B PUSH1 0xE0 SHL DUP2 MSTORE PUSH1 0x4 SWAP1 REVERT JUMPDEST PUSH1 0x40 CALLDATASIZE PUSH1 0x3 NOT ADD SLT PUSH2 0x2AC JUMPI PUSH1 0x1 PUSH1 0x1 PUSH1 0x40 SHL SUB PUSH1 0x4 CALLDATALOAD DUP2 DUP2 GT PUSH2 0x2AC JUMPI PUSH2 0xA26 SWAP1 CALLDATASIZE SWAP1 PUSH1 0x4 ADD PUSH2 0x397 JUMP JUMPDEST SWAP1 PUSH1 0x24 CALLDATALOAD SWAP1 DUP1 DUP3 GT PUSH2 0x2AC JUMPI PUSH1 0x20 SWAP3 PUSH32 0x94238AD9433A44EACAEAE5DE7A6BED1A8C4D80B9A77AD9B5856D42646AA4A3B7 PUSH2 0xB30 PUSH2 0xA6A PUSH2 0xBDB SWAP6 CALLDATASIZE SWAP1 PUSH1 0x4 ADD PUSH2 0x397 JUMP JUMPDEST SWAP4 PUSH2 0xA73 PUSH2 0x25F7 JUMP JUMPDEST PUSH2 0xA7B PUSH2 0x261A JUMP JUMPDEST PUSH2 0xA89 PUSH1 0x10 SLOAD CALLVALUE LT ISZERO PUSH2 0x18A8 JUMP JUMPDEST PUSH2 0xA95 DUP5 MLOAD ISZERO ISZERO PUSH2 0x18E7 JUMP JUMPDEST PUSH2 0xAA1 DUP6 MLOAD ISZERO ISZERO PUSH2 0x1927 JUMP JUMPDEST PUSH2 0xAB7 PUSH1 0x5 PUSH2 0xAAF DUP7 PUSH2 0xC80 JUMP JUMPDEST ADD SLOAD ISZERO PUSH2 0x1968 JUMP JUMPDEST PUSH2 0xB13 PUSH2 0xAC2 PUSH2 0x19B4 JUMP JUMPDEST PUSH2 0xAD3 PUSH2 0xACD PUSH2 0x4D8 JUMP JUMPDEST DUP3 PUSH2 0x2A2F JUMP JUMPDEST PUSH2 0xB0E PUSH2 0xADE PUSH2 0x1A14 JUMP JUMPDEST DUP8 PUSH2 0xAE8 DUP3 PUSH2 0x1A5A JUMP JUMPDEST MSTORE PUSH2 0xAF2 DUP2 PUSH2 0x1A5A JUMP JUMPDEST POP DUP9 PUSH2 0xAFD DUP3 PUSH2 0x1A67 JUMP JUMPDEST MSTORE PUSH2 0xB07 DUP2 PUSH2 0x1A67 JUMP JUMPDEST POP DUP3 PUSH2 0x2638 JUMP JUMPDEST PUSH2 0x2787 JUMP JUMPDEST PUSH1 0x2 SLOAD SWAP1 PUSH1 0x3 SLOAD SWAP3 PUSH4 0xFFFFFFFF DUP4 PUSH1 0x48 SHR AND SWAP3 PUSH1 0x8 SHR AND SWAP1 PUSH2 0x2955 JUMP JUMPDEST SWAP4 DUP5 SWAP3 PUSH2 0xB95 PUSH2 0xB3E PUSH2 0x34D JUMP JUMPDEST CALLER DUP2 MSTORE DUP3 DUP10 DUP3 ADD MSTORE DUP7 PUSH1 0x40 DUP3 ADD MSTORE TIMESTAMP PUSH1 0x60 DUP3 ADD MSTORE PUSH1 0x0 PUSH1 0x80 DUP3 ADD MSTORE PUSH1 0x0 PUSH1 0xA0 DUP3 ADD MSTORE PUSH1 0x0 PUSH1 0xC0 DUP3 ADD MSTORE PUSH2 0xB6F PUSH2 0x1815 JUMP JUMPDEST PUSH1 0xE0 DUP3 ADD MSTORE PUSH1 0x0 PUSH2 0x100 DUP3 ADD MSTORE PUSH2 0xB90 DUP7 PUSH1 0x0 MSTORE PUSH1 0x5 PUSH1 0x20 MSTORE PUSH1 0x40 PUSH1 0x0 KECCAK256 SWAP1 JUMP JUMPDEST PUSH2 0x1C1C JUMP JUMPDEST CALLER PUSH1 0x0 SWAP1 DUP2 MSTORE PUSH1 0x7 PUSH1 0x20 MSTORE PUSH1 0x40 SWAP1 KECCAK256 PUSH2 0xBAF SWAP1 DUP6 SWAP1 PUSH2 0x1D1C JUMP JUMPDEST PUSH2 0xBB8 DUP5 PUSH2 0x1CD4 JUMP JUMPDEST PUSH2 0xBCB PUSH2 0xBC6 PUSH1 0xC SLOAD PUSH2 0x1D67 JUMP JUMPDEST PUSH1 0xC SSTORE JUMP JUMPDEST PUSH1 0x40 MLOAD SWAP2 DUP3 SWAP2 CALLER SWAP7 TIMESTAMP SWAP2 DUP5 PUSH2 0x1D7B JUMP JUMPDEST SUB SWAP1 LOG3 PUSH2 0xBE7 PUSH1 0x1 DUP1 SSTORE JUMP JUMPDEST PUSH1 0x40 MLOAD SWAP1 DUP2 MSTORE RETURN JUMPDEST CALLVALUE PUSH2 0x2AC JUMPI PUSH1 0x0 CALLDATASIZE PUSH1 0x3 NOT ADD SLT PUSH2 0x2AC JUMPI PUSH1 0x20 PUSH1 0xF SLOAD PUSH1 0x40 MLOAD SWAP1 DUP2 MSTORE RETURN JUMPDEST CALLVALUE PUSH2 0x2AC JUMPI PUSH1 0x0 CALLDATASIZE PUSH1 0x3 NOT ADD SLT PUSH2 0x2AC JUMPI PUSH2 0x777 PUSH1 0x40 MLOAD PUSH2 0xC2D DUP2 PUSH2 0x311 JUMP JUMPDEST PUSH1 0x5 DUP2 MSTORE PUSH5 0x312E302E3 PUSH1 0xDC SHL PUSH1 0x20 DUP3 ADD MSTORE PUSH1 0x40 MLOAD SWAP2 DUP3 SWAP2 PUSH1 0x20 DUP4 MSTORE PUSH1 0x20 DUP4 ADD SWAP1 PUSH2 0x662 JUMP JUMPDEST PUSH1 0x20 PUSH1 0x3 NOT DUP3 ADD SLT PUSH2 0x2AC JUMPI PUSH1 0x4 CALLDATALOAD SWAP1 PUSH1 0x1 PUSH1 0x1 PUSH1 0x40 SHL SUB DUP3 GT PUSH2 0x2AC JUMPI PUSH2 0xC7D SWAP2 PUSH1 0x4 ADD PUSH2 0x397 JUMP JUMPDEST SWAP1 JUMP JUMPDEST PUSH1 0x20 PUSH2 0xC99 SWAP2 DUP2 PUSH1 0x40 MLOAD SWAP4 DUP3 DUP6 DUP1 SWAP5 MLOAD SWAP4 DUP5 SWAP3 ADD PUSH2 0x63F JUMP JUMPDEST DUP2 ADD PUSH1 0x6 DUP2 MSTORE SUB ADD SWAP1 KECCAK256 SWAP1 JUMP JUMPDEST PUSH1 0x20 PUSH2 0xCBF SWAP2 DUP2 PUSH1 0x40 MLOAD SWAP4 DUP3 DUP6 DUP1 SWAP5 MLOAD SWAP4 DUP5 SWAP3 ADD PUSH2 0x63F JUMP JUMPDEST DUP2 ADD PUSH1 0x8 DUP2 MSTORE SUB ADD SWAP1 KECCAK256 SWAP1 JUMP JUMPDEST CALLVALUE PUSH2 0x2AC JUMPI PUSH2 0xCE2 PUSH2 0xCDD CALLDATASIZE PUSH2 0xC53 JUMP JUMPDEST PUSH2 0xC80 JUMP JUMPDEST DUP1 SLOAD PUSH1 0xFF PUSH1 0x1 DUP4 ADD SLOAD AND SWAP2 PUSH2 0xD4A PUSH1 0x2 DUP3 ADD SLOAD SWAP2 PUSH2 0xD3C PUSH2 0xD05 PUSH1 0x3 DUP4 ADD PUSH2 0x59C JUMP JUMPDEST PUSH1 0x5 PUSH2 0xD13 PUSH1 0x4 DUP6 ADD PUSH2 0x59C JUMP JUMPDEST SWAP4 ADD SLOAD SWAP5 PUSH1 0x40 MLOAD SWAP8 DUP9 SWAP8 DUP9 MSTORE ISZERO ISZERO PUSH1 0x20 DUP9 ADD MSTORE PUSH1 0x40 DUP8 ADD MSTORE PUSH1 0xC0 PUSH1 0x60 DUP8 ADD MSTORE PUSH1 0xC0 DUP7 ADD SWAP1 PUSH2 0x662 JUMP JUMPDEST SWAP1 DUP5 DUP3 SUB PUSH1 0x80 DUP7 ADD MSTORE PUSH2 0x662 JUMP JUMPDEST SWAP1 PUSH1 0xA0 DUP4 ADD MSTORE SUB SWAP1 RETURN JUMPDEST CALLVALUE PUSH2 0x2AC JUMPI PUSH1 0x0 CALLDATASIZE PUSH1 0x3 NOT ADD SLT PUSH2 0x2AC JUMPI PUSH1 0x20 PUSH1 0xFF PUSH1 0x2 SLOAD AND PUSH1 0x40 MLOAD SWAP1 ISZERO ISZERO DUP2 MSTORE RETURN JUMPDEST CALLVALUE PUSH2 0x2AC JUMPI PUSH1 0x20 CALLDATASIZE PUSH1 0x3 NOT ADD SLT PUSH2 0x2AC JUMPI PUSH1 0x4 CALLDATALOAD PUSH1 0xA SLOAD DUP2 LT ISZERO PUSH2 0x2AC JUMPI PUSH2 0x797 PUSH2 0x777 SWAP2 PUSH1 0xA PUSH1 0x0 MSTORE PUSH32 0xC65A7BB8D6351C1CF70C95A316CC6A92839C986682D98BC35F958F4883F9D2A8 ADD PUSH2 0x59C JUMP JUMPDEST CALLVALUE PUSH2 0x2AC JUMPI PUSH1 0x40 CALLDATASIZE PUSH1 0x3 NOT ADD SLT PUSH2 0x2AC JUMPI PUSH32 0xCF8A1E1D5F09CF3C97DBB653CD9A4D7AACE9292FBC1BB8211FEBF2D400FEBBDD PUSH1 0x60 PUSH1 0x4 CALLDATALOAD PUSH1 0x24 CALLDATALOAD PUSH2 0xE0A PUSH2 0x25CB JUMP JUMPDEST DUP2 PUSH1 0x10 SSTORE DUP1 PUSH1 0x11 SSTORE PUSH1 0x40 MLOAD SWAP2 DUP3 MSTORE PUSH1 0x20 DUP3 ADD MSTORE TIMESTAMP PUSH1 0x40 DUP3 ADD MSTORE LOG1 STOP JUMPDEST CALLVALUE PUSH2 0x2AC JUMPI PUSH1 0x0 CALLDATASIZE PUSH1 0x3 NOT ADD SLT PUSH2 0x2AC JUMPI PUSH1 0x20 PUSH1 0x3 SLOAD PUSH1 0x40 MLOAD SWAP1 DUP2 MSTORE RETURN JUMPDEST CALLVALUE PUSH2 0x2AC JUMPI PUSH1 0x0 DUP1 PUSH1 0x3 NOT CALLDATASIZE ADD SLT PUSH2 0x879 JUMPI PUSH2 0xE5E PUSH2 0x25CB JUMP JUMPDEST DUP1 SLOAD PUSH1 0x1 PUSH1 0x1 PUSH1 0xA0 SHL SUB NOT DUP2 AND DUP3 SSTORE DUP2 SWAP1 PUSH1 0x1 PUSH1 0x1 PUSH1 0xA0 SHL SUB AND PUSH32 0x8BE0079C531659141344CD1FD0A4F28419497F9722A3DAAFE3B4186F6B6457E0 DUP3 DUP1 LOG3 DUP1 RETURN JUMPDEST CALLVALUE PUSH2 0x2AC JUMPI PUSH1 0x80 CALLDATASIZE PUSH1 0x3 NOT ADD SLT PUSH2 0x2AC JUMPI PUSH1 0x4 CALLDATALOAD PUSH1 0x1 PUSH1 0x1 PUSH1 0x40 SHL SUB DUP1 DUP3 AND DUP3 SUB PUSH2 0x2AC JUMPI PUSH1 0x24 CALLDATALOAD SWAP2 PUSH4 0xFFFFFFFF DUP4 AND DUP4 SUB PUSH2 0x2AC JUMPI PUSH1 0x64 CALLDATALOAD DUP3 DUP2 GT PUSH2 0x2AC JUMPI PUSH2 0xEED SWAP1 CALLDATASIZE SWAP1 PUSH1 0x4 ADD PUSH2 0x397 JUMP JUMPDEST SWAP3 PUSH2 0xEF6 PUSH2 0x25CB JUMP JUMPDEST PUSH9 0xFFFFFFFFFFFFFFFF00 PUSH13 0xFFFFFFFF000000000000000000 PUSH1 0x2 SLOAD SWAP3 PUSH1 0x48 SHL AND SWAP3 PUSH1 0x8 SHL AND SWAP1 PUSH13 0xFFFFFFFFFFFFFFFFFFFFFFFF00 NOT AND OR OR PUSH1 0x2 SSTORE PUSH1 0x44 CALLDATALOAD PUSH1 0x3 SSTORE DUP2 MLOAD SWAP1 DUP2 GT PUSH2 0x30C JUMPI PUSH2 0xF54 DUP2 PUSH2 0xF4F PUSH1 0x4 SLOAD PUSH2 0x49E JUMP JUMPDEST PUSH2 0x1A8B JUMP JUMPDEST PUSH1 0x20 DUP1 PUSH1 0x1F DUP4 GT PUSH1 0x1 EQ PUSH2 0xF96 JUMPI POP DUP2 SWAP1 PUSH2 0xF86 SWAP4 PUSH1 0x0 SWAP3 PUSH2 0xF8B JUMPI JUMPDEST POP POP DUP2 PUSH1 0x1 SHL SWAP2 PUSH1 0x0 NOT SWAP1 PUSH1 0x3 SHL SHR NOT AND OR SWAP1 JUMP JUMPDEST PUSH1 0x4 SSTORE STOP JUMPDEST ADD MLOAD SWAP1 POP CODESIZE DUP1 PUSH2 0xF71 JUMP JUMPDEST SWAP1 PUSH1 0x1F NOT DUP4 AND SWAP4 PUSH2 0xFC9 PUSH1 0x4 PUSH1 0x0 MSTORE PUSH32 0x8A35ACFBC15FF81A39AE7D344FD709F28E8600B4AA8C65C6B64BFE7FE36BD19B SWAP1 JUMP JUMPDEST SWAP3 PUSH1 0x0 SWAP1 JUMPDEST DUP7 DUP3 LT PUSH2 0x1005 JUMPI POP POP DUP4 PUSH1 0x1 SWAP6 LT PUSH2 0xFEC JUMPI JUMPDEST POP POP POP DUP2 SHL ADD PUSH1 0x4 SSTORE STOP JUMPDEST ADD MLOAD PUSH1 0x0 NOT PUSH1 0xF8 DUP5 PUSH1 0x3 SHL AND SHR NOT AND SWAP1 SSTORE CODESIZE DUP1 DUP1 PUSH2 0xFE1 JUMP JUMPDEST DUP1 PUSH1 0x1 DUP6 SWAP7 DUP3 SWAP5 SWAP7 DUP7 ADD MLOAD DUP2 SSTORE ADD SWAP6 ADD SWAP4 ADD SWAP1 PUSH2 0xFCE JUMP JUMPDEST PUSH2 0x10F8 PUSH2 0x1029 CALLDATASIZE PUSH2 0xC53 JUMP JUMPDEST PUSH2 0x1031 PUSH2 0x25F7 JUMP JUMPDEST PUSH2 0x1039 PUSH2 0x261A JUMP JUMPDEST PUSH2 0x1047 PUSH1 0x11 SLOAD CALLVALUE LT ISZERO PUSH2 0x1DA4 JUMP JUMPDEST PUSH2 0x1058 PUSH2 0x1053 DUP3 PUSH2 0xC80 JUMP JUMPDEST PUSH2 0x1DF0 JUMP JUMPDEST SWAP1 PUSH2 0x1068 PUSH1 0xA0 DUP4 ADD MLOAD ISZERO ISZERO PUSH2 0x1E49 JUMP JUMPDEST PUSH2 0x107D PUSH2 0x1078 PUSH1 0x20 DUP5 ADD MLOAD ISZERO ISZERO SWAP1 JUMP JUMPDEST PUSH2 0x1E8C JUMP JUMPDEST PUSH1 0x20 PUSH1 0x40 DUP4 ADD SWAP3 PUSH2 0x1092 PUSH1 0x50 DUP6 MLOAD LT ISZERO PUSH2 0x1ED8 JUMP JUMPDEST PUSH2 0x10A7 DUP2 MLOAD PUSH1 0x0 MSTORE PUSH1 0x5 PUSH1 0x20 MSTORE PUSH1 0x40 PUSH1 0x0 KECCAK256 SWAP1 JUMP JUMPDEST DUP1 SLOAD PUSH1 0x1 PUSH1 0x1 PUSH1 0xA0 SHL SUB SWAP2 PUSH1 0x60 SWAP2 PUSH1 0x7 SWAP2 SWAP1 PUSH2 0x10C6 SWAP1 DUP6 AND CALLER EQ PUSH2 0x1F24 JUMP JUMPDEST ADD SWAP6 PUSH2 0x10D3 DUP8 SLOAD ISZERO PUSH2 0x1F70 JUMP JUMPDEST MLOAD SWAP3 ADD MLOAD SWAP2 PUSH1 0x0 PUSH1 0x40 MLOAD DUP1 SWAP9 DUP2 SWAP6 DUP3 SWAP5 PUSH4 0x4A2859EB PUSH1 0xE1 SHL DUP5 MSTORE DUP10 CALLER PUSH1 0x4 DUP7 ADD PUSH2 0x1FC0 JUMP JUMPDEST SUB SWAP3 PUSH32 0x0 AND GAS CALL SWAP1 DUP2 ISZERO PUSH2 0x11D0 JUMPI PUSH2 0x777 SWAP4 PUSH1 0x0 SWAP3 PUSH2 0x119D JUMPI JUMPDEST POP DUP2 PUSH2 0x1151 SWAP3 SWAP4 SSTORE PUSH2 0x114C PUSH2 0x1147 PUSH1 0xF SLOAD PUSH2 0x1D67 JUMP JUMPDEST PUSH1 0xF SSTORE JUMP JUMPDEST PUSH2 0x2006 JUMP JUMPDEST PUSH1 0x40 DUP1 MLOAD DUP4 DUP2 MSTORE TIMESTAMP PUSH1 0x20 DUP3 ADD MSTORE CALLER SWAP3 SWAP2 PUSH32 0x6D17924BD76C5E1FE0E46264CF6F9D66B1A75B860335729E9D45F1D0AB4446AB SWAP2 LOG3 PUSH2 0x118D PUSH1 0x1 DUP1 SSTORE JUMP JUMPDEST PUSH1 0x40 MLOAD SWAP1 DUP2 MSTORE SWAP1 DUP2 SWAP1 PUSH1 0x20 DUP3 ADD SWAP1 JUMP JUMPDEST PUSH2 0x1151 SWAP3 POP PUSH2 0x11C3 SWAP1 PUSH1 0x20 RETURNDATASIZE PUSH1 0x20 GT PUSH2 0x11C9 JUMPI JUMPDEST PUSH2 0x11BB DUP2 DUP4 PUSH2 0x32C JUMP JUMPDEST DUP2 ADD SWAP1 PUSH2 0x1FB1 JUMP JUMPDEST SWAP2 PUSH2 0x1131 JUMP JUMPDEST POP RETURNDATASIZE PUSH2 0x11B1 JUMP JUMPDEST PUSH2 0x1FFA JUMP JUMPDEST CALLVALUE PUSH2 0x2AC JUMPI PUSH1 0x0 CALLDATASIZE PUSH1 0x3 NOT ADD SLT PUSH2 0x2AC JUMPI PUSH2 0x11EE PUSH2 0x25CB JUMP JUMPDEST PUSH2 0x11F6 PUSH2 0x261A JUMP JUMPDEST PUSH1 0x1 PUSH1 0xFF NOT PUSH1 0x2 SLOAD AND OR PUSH1 0x2 SSTORE PUSH32 0x62E78CEA01BEE320CD4E420270B5EA74000D11B0C9F74754EBDBFC544B05A258 PUSH1 0x20 PUSH1 0x40 MLOAD CALLER DUP2 MSTORE LOG1 STOP JUMPDEST CALLVALUE PUSH2 0x2AC JUMPI PUSH1 0x0 CALLDATASIZE PUSH1 0x3 NOT ADD SLT PUSH2 0x2AC JUMPI PUSH1 0x0 SLOAD PUSH1 0x40 MLOAD PUSH1 0x1 PUSH1 0x1 PUSH1 0xA0 SHL SUB SWAP1 SWAP2 AND DUP2 MSTORE PUSH1 0x20 SWAP1 RETURN JUMPDEST CALLVALUE PUSH2 0x2AC JUMPI PUSH1 0x20 CALLDATASIZE PUSH1 0x3 NOT ADD SLT PUSH2 0x2AC JUMPI PUSH1 0x4 CALLDATALOAD PUSH1 0x9 SLOAD DUP2 LT ISZERO PUSH2 0x2AC JUMPI PUSH1 0x20 SWAP1 PUSH1 0x9 PUSH1 0x0 MSTORE PUSH32 0x6E1540171B6C0C960B71A7020D9F60077F6AF931A8BBF590DA0223DACF75C7AF ADD SLOAD PUSH1 0x40 MLOAD SWAP1 DUP2 MSTORE RETURN JUMPDEST CALLVALUE PUSH2 0x2AC JUMPI PUSH1 0x0 CALLDATASIZE PUSH1 0x3 NOT ADD SLT PUSH2 0x2AC JUMPI PUSH1 0x20 PUSH1 0x10 SLOAD PUSH1 0x40 MLOAD SWAP1 DUP2 MSTORE RETURN JUMPDEST CALLVALUE PUSH2 0x2AC JUMPI PUSH1 0x0 CALLDATASIZE PUSH1 0x3 NOT ADD SLT PUSH2 0x2AC JUMPI PUSH1 0x20 PUSH1 0xC SLOAD PUSH1 0x40 MLOAD SWAP1 DUP2 MSTORE RETURN JUMPDEST CALLVALUE PUSH2 0x2AC JUMPI PUSH1 0x20 PUSH1 0xFF PUSH2 0x12FF PUSH2 0x12FA CALLDATASIZE PUSH2 0xC53 JUMP JUMPDEST PUSH2 0xCA6 JUMP JUMPDEST SLOAD AND PUSH1 0x40 MLOAD SWAP1 ISZERO ISZERO DUP2 MSTORE RETURN JUMPDEST PUSH1 0x20 SWAP1 PUSH1 0x20 PUSH1 0x40 DUP2 DUP4 ADD SWAP3 DUP3 DUP2 MSTORE DUP6 MLOAD DUP1 SWAP5 MSTORE ADD SWAP4 ADD SWAP2 PUSH1 0x0 JUMPDEST DUP3 DUP2 LT PUSH2 0x1333 JUMPI POP POP POP POP SWAP1 JUMP JUMPDEST DUP4 MLOAD DUP6 MSTORE SWAP4 DUP2 ADD SWAP4 SWAP3 DUP2 ADD SWAP3 PUSH1 0x1 ADD PUSH2 0x1325 JUMP JUMPDEST CALLVALUE PUSH2 0x2AC JUMPI PUSH1 0x20 DUP1 PUSH1 0x3 NOT CALLDATASIZE ADD SLT PUSH2 0x2AC JUMPI PUSH1 0x1 PUSH1 0x1 PUSH1 0xA0 SHL SUB PUSH2 0x1369 PUSH2 0x87C JUMP JUMPDEST AND PUSH1 0x0 MSTORE PUSH1 0x7 PUSH1 0x20 MSTORE PUSH1 0x40 PUSH1 0x0 KECCAK256 SWAP1 PUSH1 0x40 MLOAD SWAP1 DUP2 PUSH1 0x20 DUP5 SLOAD SWAP2 DUP3 DUP2 MSTORE ADD SWAP4 PUSH1 0x0 MSTORE PUSH1 0x20 PUSH1 0x0 KECCAK256 SWAP2 PUSH1 0x0 SWAP1 JUMPDEST DUP3 DUP3 LT PUSH2 0x13B7 JUMPI PUSH2 0x777 DUP6 PUSH2 0x13AB DUP2 DUP10 SUB DUP3 PUSH2 0x32C JUMP JUMPDEST PUSH1 0x40 MLOAD SWAP2 DUP3 SWAP2 DUP3 PUSH2 0x130B JUMP JUMPDEST DUP4 SLOAD DUP7 MSTORE SWAP5 DUP6 ADD SWAP5 PUSH1 0x1 SWAP4 DUP5 ADD SWAP4 SWAP1 SWAP2 ADD SWAP1 PUSH2 0x1394 JUMP JUMPDEST CALLVALUE PUSH2 0x2AC JUMPI PUSH1 0x0 CALLDATASIZE PUSH1 0x3 NOT ADD SLT PUSH2 0x2AC JUMPI PUSH1 0x20 PUSH1 0x11 SLOAD PUSH1 0x40 MLOAD SWAP1 DUP2 MSTORE RETURN JUMPDEST CALLVALUE PUSH2 0x2AC JUMPI PUSH2 0x13FA CALLDATASIZE PUSH2 0xC53 JUMP JUMPDEST PUSH2 0x1402 PUSH2 0x25CB JUMP JUMPDEST PUSH1 0xFF PUSH2 0x140D DUP3 PUSH2 0xCA6 JUMP JUMPDEST SLOAD AND PUSH2 0x146A JUMPI DUP1 PUSH2 0x1430 PUSH2 0x1423 PUSH2 0x1439 SWAP4 PUSH2 0xCA6 JUMP JUMPDEST DUP1 SLOAD PUSH1 0xFF NOT AND PUSH1 0x1 OR SWAP1 SSTORE JUMP JUMPDEST PUSH2 0x114C DUP2 PUSH2 0x2026 JUMP JUMPDEST PUSH1 0x40 MLOAD TIMESTAMP DUP2 MSTORE CALLER SWAP2 SWAP1 PUSH32 0xAB9E11A26BCF11DA1ACEC616512E75C224C85DBE525EBED13E7C583A299BBC5A SWAP1 PUSH1 0x20 SWAP1 LOG3 STOP JUMPDEST PUSH1 0x40 MLOAD PUSH3 0x461BCD PUSH1 0xE5 SHL DUP2 MSTORE PUSH1 0x20 PUSH1 0x4 DUP3 ADD MSTORE PUSH1 0x17 PUSH1 0x24 DUP3 ADD MSTORE PUSH32 0x436F6E74656E7420616C726561647920666C6167676564000000000000000000 PUSH1 0x44 DUP3 ADD MSTORE PUSH1 0x64 SWAP1 REVERT JUMPDEST PUSH1 0x20 DUP1 DUP3 ADD SWAP1 PUSH1 0x20 DUP4 MSTORE DUP4 MLOAD DUP1 SWAP3 MSTORE PUSH1 0x40 DUP4 ADD SWAP3 PUSH1 0x20 PUSH1 0x40 DUP5 PUSH1 0x5 SHL DUP4 ADD ADD SWAP6 ADD SWAP4 PUSH1 0x0 SWAP2 JUMPDEST DUP5 DUP4 LT PUSH2 0x14E5 JUMPI POP POP POP POP POP POP SWAP1 JUMP JUMPDEST SWAP1 SWAP2 SWAP3 SWAP4 SWAP5 SWAP6 DUP5 DUP1 PUSH2 0x1503 PUSH1 0x1 SWAP4 PUSH1 0x3F NOT DUP7 DUP3 SUB ADD DUP8 MSTORE DUP11 MLOAD PUSH2 0x662 JUMP JUMPDEST SWAP9 ADD SWAP4 ADD SWAP4 ADD SWAP2 SWAP5 SWAP4 SWAP3 SWAP1 PUSH2 0x14D5 JUMP JUMPDEST CALLVALUE PUSH2 0x2AC JUMPI PUSH1 0x0 CALLDATASIZE PUSH1 0x3 NOT ADD SLT PUSH2 0x2AC JUMPI PUSH1 0xA SLOAD PUSH2 0x1530 DUP2 PUSH2 0x19FD JUMP JUMPDEST PUSH2 0x153D PUSH1 0x40 MLOAD SWAP2 DUP3 PUSH2 0x32C JUMP JUMPDEST DUP2 DUP2 MSTORE PUSH1 0x20 SWAP2 PUSH1 0x20 DUP3 ADD PUSH1 0xA PUSH1 0x0 MSTORE PUSH32 0xC65A7BB8D6351C1CF70C95A316CC6A92839C986682D98BC35F958F4883F9D2A8 SWAP4 PUSH1 0x0 SWAP2 JUMPDEST DUP4 DUP4 LT PUSH2 0x1587 JUMPI PUSH1 0x40 MLOAD DUP1 PUSH2 0x777 DUP8 DUP3 PUSH2 0x14AF JUMP JUMPDEST PUSH1 0x1 DUP3 DUP2 SWAP3 PUSH2 0x1595 DUP10 PUSH2 0x59C JUMP JUMPDEST DUP2 MSTORE ADD SWAP7 ADD SWAP3 ADD SWAP2 SWAP5 PUSH2 0x1572 JUMP JUMPDEST PUSH1 0x20 DUP2 MSTORE DUP2 MLOAD PUSH1 0x20 DUP3 ADD MSTORE PUSH1 0x20 DUP3 ADD MLOAD ISZERO ISZERO PUSH1 0x40 DUP3 ADD MSTORE PUSH1 0x40 DUP3 ADD MLOAD PUSH1 0x60 DUP3 ADD MSTORE PUSH1 0xC0 PUSH1 0xA0 PUSH2 0x15F8 PUSH2 0x15E3 PUSH1 0x60 DUP7 ADD MLOAD DUP5 PUSH1 0x80 DUP8 ADD MSTORE PUSH1 0xE0 DUP7 ADD SWAP1 PUSH2 0x662 JUMP JUMPDEST PUSH1 0x80 DUP7 ADD MLOAD DUP6 DUP3 SUB PUSH1 0x1F NOT ADD DUP5 DUP8 ADD MSTORE PUSH2 0x662 JUMP JUMPDEST SWAP4 ADD MLOAD SWAP2 ADD MSTORE SWAP1 JUMP JUMPDEST CALLVALUE PUSH2 0x2AC JUMPI PUSH2 0x777 PUSH2 0x1648 PUSH2 0x1615 CALLDATASIZE PUSH2 0xC53 JUMP JUMPDEST PUSH1 0x0 PUSH1 0xA0 PUSH1 0x40 MLOAD PUSH2 0x1625 DUP2 PUSH2 0x2F1 JUMP JUMPDEST DUP3 DUP2 MSTORE DUP3 PUSH1 0x20 DUP3 ADD MSTORE DUP3 PUSH1 0x40 DUP3 ADD MSTORE PUSH1 0x60 DUP1 DUP3 ADD MSTORE PUSH1 0x60 PUSH1 0x80 DUP3 ADD MSTORE ADD MSTORE PUSH2 0xC80 JUMP JUMPDEST PUSH1 0x5 PUSH1 0x40 MLOAD SWAP2 PUSH2 0x1657 DUP4 PUSH2 0x2F1 JUMP JUMPDEST DUP1 SLOAD DUP4 MSTORE PUSH1 0xFF PUSH1 0x1 DUP3 ADD SLOAD AND ISZERO ISZERO PUSH1 0x20 DUP5 ADD MSTORE PUSH1 0x2 DUP2 ADD SLOAD PUSH1 0x40 DUP5 ADD MSTORE PUSH2 0x1680 PUSH1 0x3 DUP3 ADD PUSH2 0x59C JUMP JUMPDEST PUSH1 0x60 DUP5 ADD MSTORE PUSH2 0x1691 PUSH1 0x4 DUP3 ADD PUSH2 0x59C JUMP JUMPDEST PUSH1 0x80 DUP5 ADD MSTORE ADD SLOAD PUSH1 0xA0 DUP3 ADD MSTORE PUSH1 0x40 MLOAD SWAP2 DUP3 SWAP2 DUP3 PUSH2 0x15A3 JUMP JUMPDEST CALLVALUE PUSH2 0x2AC JUMPI PUSH1 0x20 CALLDATASIZE PUSH1 0x3 NOT ADD SLT PUSH2 0x2AC JUMPI PUSH1 0x4 CALLDATALOAD PUSH1 0xB SLOAD DUP2 LT ISZERO PUSH2 0x2AC JUMPI PUSH2 0x797 PUSH2 0x777 SWAP2 PUSH1 0xB PUSH1 0x0 MSTORE PUSH1 0x0 DUP1 MLOAD PUSH1 0x20 PUSH2 0x3540 DUP4 CODECOPY DUP2 MLOAD SWAP2 MSTORE ADD PUSH2 0x59C JUMP JUMPDEST CALLVALUE PUSH2 0x2AC JUMPI PUSH1 0x20 CALLDATASIZE PUSH1 0x3 NOT ADD SLT PUSH2 0x2AC JUMPI PUSH2 0x1701 PUSH2 0x87C JUMP JUMPDEST PUSH2 0x1709 PUSH2 0x25CB JUMP JUMPDEST PUSH1 0x1 PUSH1 0x1 PUSH1 0xA0 SHL SUB SWAP1 DUP2 AND DUP1 ISZERO PUSH2 0x1757 JUMPI PUSH1 0x0 DUP1 SLOAD PUSH1 0x1 PUSH1 0x1 PUSH1 0xA0 SHL SUB NOT DUP2 AND DUP4 OR DUP3 SSTORE SWAP1 SWAP3 AND PUSH32 0x8BE0079C531659141344CD1FD0A4F28419497F9722A3DAAFE3B4186F6B6457E0 DUP4 DUP1 LOG3 DUP1 RETURN JUMPDEST PUSH1 0x40 MLOAD PUSH4 0x1E4FBDF7 PUSH1 0xE0 SHL DUP2 MSTORE PUSH1 0x0 PUSH1 0x4 DUP3 ADD MSTORE PUSH1 0x24 SWAP1 REVERT JUMPDEST CALLVALUE PUSH2 0x2AC JUMPI PUSH1 0x0 CALLDATASIZE PUSH1 0x3 NOT ADD SLT PUSH2 0x2AC JUMPI PUSH1 0xB SLOAD PUSH2 0x178D DUP2 PUSH2 0x19FD JUMP JUMPDEST PUSH2 0x179A PUSH1 0x40 MLOAD SWAP2 DUP3 PUSH2 0x32C JUMP JUMPDEST DUP2 DUP2 MSTORE PUSH1 0x20 SWAP2 PUSH1 0x20 DUP3 ADD PUSH1 0xB PUSH1 0x0 MSTORE PUSH1 0x0 DUP1 MLOAD PUSH1 0x20 PUSH2 0x3540 DUP4 CODECOPY DUP2 MLOAD SWAP2 MSTORE SWAP4 PUSH1 0x0 SWAP2 JUMPDEST DUP4 DUP4 LT PUSH2 0x17D2 JUMPI PUSH1 0x40 MLOAD DUP1 PUSH2 0x777 DUP8 DUP3 PUSH2 0x14AF JUMP JUMPDEST PUSH1 0x1 DUP3 DUP2 SWAP3 PUSH2 0x17E0 DUP10 PUSH2 0x59C JUMP JUMPDEST DUP2 MSTORE ADD SWAP7 ADD SWAP3 ADD SWAP2 SWAP5 PUSH2 0x17BD JUMP JUMPDEST CALLVALUE PUSH2 0x2AC JUMPI PUSH1 0x0 CALLDATASIZE PUSH1 0x3 NOT ADD SLT PUSH2 0x2AC JUMPI PUSH1 0x20 PUSH4 0xFFFFFFFF PUSH1 0x2 SLOAD PUSH1 0x48 SHR AND PUSH1 0x40 MLOAD SWAP1 DUP2 MSTORE RETURN JUMPDEST PUSH1 0x40 MLOAD SWAP1 PUSH1 0x20 DUP3 ADD DUP3 DUP2 LT PUSH1 0x1 PUSH1 0x1 PUSH1 0x40 SHL SUB DUP3 GT OR PUSH2 0x30C JUMPI PUSH1 0x40 MSTORE PUSH1 0x0 DUP3 MSTORE JUMP JUMPDEST RETURNDATASIZE ISZERO PUSH2 0x1863 JUMPI RETURNDATASIZE SWAP1 PUSH2 0x1849 DUP3 PUSH2 0x37C JUMP JUMPDEST SWAP2 PUSH2 0x1857 PUSH1 0x40 MLOAD SWAP4 DUP5 PUSH2 0x32C JUMP JUMPDEST DUP3 MSTORE RETURNDATASIZE PUSH1 0x0 PUSH1 0x20 DUP5 ADD RETURNDATACOPY JUMP JUMPDEST PUSH1 0x60 SWAP1 JUMP JUMPDEST ISZERO PUSH2 0x186F JUMPI JUMP JUMPDEST PUSH1 0x40 MLOAD PUSH3 0x461BCD PUSH1 0xE5 SHL DUP2 MSTORE PUSH1 0x20 PUSH1 0x4 DUP3 ADD MSTORE PUSH1 0x11 PUSH1 0x24 DUP3 ADD MSTORE PUSH17 0x15DA5D1A191C985DD85B0819985A5B1959 PUSH1 0x7A SHL PUSH1 0x44 DUP3 ADD MSTORE PUSH1 0x64 SWAP1 REVERT JUMPDEST ISZERO PUSH2 0x18AF JUMPI JUMP JUMPDEST PUSH1 0x40 MLOAD PUSH3 0x461BCD PUSH1 0xE5 SHL DUP2 MSTORE PUSH1 0x20 PUSH1 0x4 DUP3 ADD MSTORE PUSH1 0x10 PUSH1 0x24 DUP3 ADD MSTORE PUSH16 0x496E73756666696369656E7420666565 PUSH1 0x80 SHL PUSH1 0x44 DUP3 ADD MSTORE PUSH1 0x64 SWAP1 REVERT JUMPDEST ISZERO PUSH2 0x18EE JUMPI JUMP JUMPDEST PUSH1 0x40 MLOAD PUSH3 0x461BCD PUSH1 0xE5 SHL DUP2 MSTORE PUSH1 0x20 PUSH1 0x4 DUP3 ADD MSTORE PUSH1 0x11 PUSH1 0x24 DUP3 ADD MSTORE PUSH17 0x92DCECC2D8D2C84092A08CA640D0C2E6D PUSH1 0x7B SHL PUSH1 0x44 DUP3 ADD MSTORE PUSH1 0x64 SWAP1 REVERT JUMPDEST ISZERO PUSH2 0x192E JUMPI JUMP JUMPDEST PUSH1 0x40 MLOAD PUSH3 0x461BCD PUSH1 0xE5 SHL DUP2 MSTORE PUSH1 0x20 PUSH1 0x4 DUP3 ADD MSTORE PUSH1 0x12 PUSH1 0x24 DUP3 ADD MSTORE PUSH18 0x496E76616C6964206D656469612074797065 PUSH1 0x70 SHL PUSH1 0x44 DUP3 ADD MSTORE PUSH1 0x64 SWAP1 REVERT JUMPDEST ISZERO PUSH2 0x196F JUMPI JUMP JUMPDEST PUSH1 0x40 MLOAD PUSH3 0x461BCD PUSH1 0xE5 SHL DUP2 MSTORE PUSH1 0x20 PUSH1 0x4 DUP3 ADD MSTORE PUSH1 0x18 PUSH1 0x24 DUP3 ADD MSTORE PUSH32 0x436F6E74656E7420616C72656164792076657269666965640000000000000000 PUSH1 0x44 DUP3 ADD MSTORE PUSH1 0x64 SWAP1 REVERT JUMPDEST PUSH1 0x40 MLOAD SWAP1 PUSH1 0xE0 DUP3 ADD DUP3 DUP2 LT PUSH1 0x1 PUSH1 0x1 PUSH1 0x40 SHL SUB DUP3 GT OR PUSH2 0x30C JUMPI PUSH1 0x40 MSTORE PUSH1 0x60 PUSH1 0xC0 DUP4 PUSH1 0x0 DUP2 MSTORE PUSH1 0x0 PUSH1 0x20 DUP3 ADD MSTORE PUSH1 0x0 PUSH1 0x40 DUP3 ADD MSTORE DUP3 DUP1 DUP3 ADD MSTORE DUP3 PUSH1 0x80 DUP3 ADD MSTORE DUP3 PUSH1 0xA0 DUP3 ADD MSTORE ADD MSTORE JUMP JUMPDEST PUSH1 0x1 PUSH1 0x1 PUSH1 0x40 SHL SUB DUP2 GT PUSH2 0x30C JUMPI PUSH1 0x5 SHL PUSH1 0x20 ADD SWAP1 JUMP JUMPDEST PUSH1 0x40 SWAP1 PUSH1 0x40 MLOAD SWAP2 PUSH1 0x60 DUP1 DUP5 ADD DUP5 DUP2 LT PUSH1 0x1 PUSH1 0x1 PUSH1 0x40 SHL SUB DUP3 GT OR PUSH2 0x30C JUMPI PUSH1 0x40 MSTORE PUSH1 0x2 DUP5 MSTORE DUP4 PUSH1 0x0 JUMPDEST DUP4 DUP2 LT PUSH2 0x1A4A JUMPI POP POP POP POP JUMP JUMPDEST DUP1 DUP4 PUSH1 0x20 DUP1 SWAP4 DUP6 ADD ADD MSTORE ADD PUSH2 0x1A3D JUMP JUMPDEST DUP1 MLOAD ISZERO PUSH2 0x8C0 JUMPI PUSH1 0x20 ADD SWAP1 JUMP JUMPDEST DUP1 MLOAD PUSH1 0x1 LT ISZERO PUSH2 0x8C0 JUMPI PUSH1 0x40 ADD SWAP1 JUMP JUMPDEST DUP1 MLOAD DUP3 LT ISZERO PUSH2 0x8C0 JUMPI PUSH1 0x20 SWAP2 PUSH1 0x5 SHL ADD ADD SWAP1 JUMP JUMPDEST PUSH1 0x1F DUP2 GT PUSH2 0x1A97 JUMPI POP POP JUMP JUMPDEST PUSH1 0x0 SWAP1 PUSH1 0x4 PUSH1 0x0 MSTORE PUSH32 0x8A35ACFBC15FF81A39AE7D344FD709F28E8600B4AA8C65C6B64BFE7FE36BD19B SWAP1 PUSH1 0x20 PUSH1 0x1F DUP6 ADD PUSH1 0x5 SHR DUP4 ADD SWAP5 LT PUSH2 0x1AF3 JUMPI JUMPDEST PUSH1 0x1F ADD PUSH1 0x5 SHR ADD SWAP2 JUMPDEST DUP3 DUP2 LT PUSH2 0x1AE8 JUMPI POP POP POP JUMP JUMPDEST DUP2 DUP2 SSTORE PUSH1 0x1 ADD PUSH2 0x1ADC JUMP JUMPDEST SWAP1 SWAP3 POP DUP3 SWAP1 PUSH2 0x1AD3 JUMP JUMPDEST SWAP1 PUSH1 0x1F DUP2 GT PUSH2 0x1B0B JUMPI POP POP POP JUMP JUMPDEST PUSH1 0x0 SWAP2 PUSH1 0x0 MSTORE PUSH1 0x20 PUSH1 0x0 KECCAK256 SWAP1 PUSH1 0x20 PUSH1 0x1F DUP6 ADD PUSH1 0x5 SHR DUP4 ADD SWAP5 LT PUSH2 0x1B49 JUMPI JUMPDEST PUSH1 0x1F ADD PUSH1 0x5 SHR ADD SWAP2 JUMPDEST DUP3 DUP2 LT PUSH2 0x1B3E JUMPI POP POP POP JUMP JUMPDEST DUP2 DUP2 SSTORE PUSH1 0x1 ADD PUSH2 0x1B32 JUMP JUMPDEST SWAP1 SWAP3 POP DUP3 SWAP1 PUSH2 0x1B29 JUMP JUMPDEST SWAP2 SWAP1 SWAP2 DUP3 MLOAD PUSH1 0x1 PUSH1 0x1 PUSH1 0x40 SHL SUB DUP2 GT PUSH2 0x30C JUMPI PUSH2 0x1B7A DUP2 PUSH2 0x1B74 DUP5 SLOAD PUSH2 0x49E JUMP JUMPDEST DUP5 PUSH2 0x1AFD JUMP JUMPDEST PUSH1 0x20 DUP1 PUSH1 0x1F DUP4 GT PUSH1 0x1 EQ PUSH2 0x1BB1 JUMPI POP DUP2 SWAP1 PUSH2 0x1BAD SWAP4 SWAP5 SWAP6 PUSH1 0x0 SWAP3 PUSH2 0xF8B JUMPI POP POP DUP2 PUSH1 0x1 SHL SWAP2 PUSH1 0x0 NOT SWAP1 PUSH1 0x3 SHL SHR NOT AND OR SWAP1 JUMP JUMPDEST SWAP1 SSTORE JUMP JUMPDEST SWAP1 PUSH1 0x1F NOT DUP4 AND SWAP6 PUSH2 0x1BC7 DUP6 PUSH1 0x0 MSTORE PUSH1 0x20 PUSH1 0x0 KECCAK256 SWAP1 JUMP JUMPDEST SWAP3 PUSH1 0x0 SWAP1 JUMPDEST DUP9 DUP3 LT PUSH2 0x1C04 JUMPI POP POP DUP4 PUSH1 0x1 SWAP6 SWAP7 SWAP8 LT PUSH2 0x1BEB JUMPI JUMPDEST POP POP POP DUP2 SHL ADD SWAP1 SSTORE JUMP JUMPDEST ADD MLOAD PUSH1 0x0 NOT PUSH1 0xF8 DUP5 PUSH1 0x3 SHL AND SHR NOT AND SWAP1 SSTORE CODESIZE DUP1 DUP1 PUSH2 0x1BE1 JUMP JUMPDEST DUP1 PUSH1 0x1 DUP6 SWAP7 DUP3 SWAP5 SWAP7 DUP7 ADD MLOAD DUP2 SSTORE ADD SWAP6 ADD SWAP4 ADD SWAP1 PUSH2 0x1BCC JUMP JUMPDEST DUP2 MLOAD DUP2 SLOAD PUSH1 0x1 PUSH1 0x1 PUSH1 0xA0 SHL SUB NOT AND PUSH1 0x1 PUSH1 0x1 PUSH1 0xA0 SHL SUB SWAP1 SWAP2 AND OR DUP2 SSTORE SWAP1 PUSH1 0x7 SWAP1 PUSH2 0x100 SWAP1 PUSH2 0x1C51 PUSH1 0x20 DUP3 ADD MLOAD PUSH1 0x1 DUP7 ADD PUSH2 0x1B53 JUMP JUMPDEST PUSH2 0x1C62 PUSH1 0x40 DUP3 ADD MLOAD PUSH1 0x2 DUP7 ADD PUSH2 0x1B53 JUMP JUMPDEST PUSH1 0x60 DUP2 ADD MLOAD PUSH1 0x3 DUP6 ADD SSTORE PUSH2 0x1CB2 PUSH1 0x4 DUP6 ADD PUSH2 0x1C95 PUSH2 0x1C83 PUSH1 0x80 DUP6 ADD MLOAD ISZERO ISZERO SWAP1 JUMP JUMPDEST DUP3 SWAP1 PUSH1 0xFF DUP1 NOT DUP4 SLOAD AND SWAP2 ISZERO ISZERO AND OR SWAP1 SSTORE JUMP JUMPDEST PUSH1 0xA0 DUP4 ADD MLOAD ISZERO ISZERO DUP2 SLOAD PUSH2 0xFF00 NOT AND SWAP1 ISZERO ISZERO PUSH1 0x8 SHL PUSH2 0xFF00 AND OR SWAP1 SSTORE JUMP JUMPDEST PUSH1 0xC0 DUP2 ADD MLOAD PUSH1 0x5 DUP6 ADD SSTORE PUSH2 0x1CCD PUSH1 0xE0 DUP3 ADD MLOAD PUSH1 0x6 DUP7 ADD PUSH2 0x1B53 JUMP JUMPDEST ADD MLOAD SWAP2 ADD SSTORE JUMP JUMPDEST PUSH1 0x9 SLOAD PUSH1 0x1 PUSH1 0x40 SHL DUP2 LT ISZERO PUSH2 0x30C JUMPI PUSH1 0x1 DUP2 ADD DUP1 PUSH1 0x9 SSTORE DUP2 LT ISZERO PUSH2 0x8C0 JUMPI PUSH1 0x9 PUSH1 0x0 MSTORE PUSH32 0x6E1540171B6C0C960B71A7020D9F60077F6AF931A8BBF590DA0223DACF75C7AF ADD SSTORE JUMP JUMPDEST DUP1 SLOAD PUSH1 0x1 PUSH1 0x40 SHL DUP2 LT ISZERO PUSH2 0x30C JUMPI PUSH2 0x1D39 SWAP2 PUSH1 0x1 DUP3 ADD DUP2 SSTORE PUSH2 0x8A8 JUMP JUMPDEST DUP2 SWAP3 SWAP2 SLOAD SWAP1 PUSH1 0x3 SHL SWAP2 DUP3 SHL SWAP2 PUSH1 0x0 NOT SWAP1 SHL NOT AND OR SWAP1 SSTORE JUMP JUMPDEST PUSH4 0x4E487B71 PUSH1 0xE0 SHL PUSH1 0x0 MSTORE PUSH1 0x11 PUSH1 0x4 MSTORE PUSH1 0x24 PUSH1 0x0 REVERT JUMPDEST PUSH1 0x0 NOT DUP2 EQ PUSH2 0x1D76 JUMPI PUSH1 0x1 ADD SWAP1 JUMP JUMPDEST PUSH2 0x1D51 JUMP JUMPDEST SWAP4 SWAP3 SWAP2 PUSH2 0x6EE SWAP1 PUSH2 0x1D96 PUSH1 0x40 SWAP4 PUSH1 0x60 DUP9 MSTORE PUSH1 0x60 DUP9 ADD SWAP1 PUSH2 0x662 JUMP JUMPDEST SWAP1 DUP7 DUP3 SUB PUSH1 0x20 DUP9 ADD MSTORE PUSH2 0x662 JUMP JUMPDEST ISZERO PUSH2 0x1DAB JUMPI JUMP JUMPDEST PUSH1 0x40 MLOAD PUSH3 0x461BCD PUSH1 0xE5 SHL DUP2 MSTORE PUSH1 0x20 PUSH1 0x4 DUP3 ADD MSTORE PUSH1 0x19 PUSH1 0x24 DUP3 ADD MSTORE PUSH32 0x496E73756666696369656E74204E4654206D696E742066656500000000000000 PUSH1 0x44 DUP3 ADD MSTORE PUSH1 0x64 SWAP1 REVERT JUMPDEST SWAP1 PUSH1 0x40 MLOAD PUSH2 0x1DFD DUP2 PUSH2 0x2F1 JUMP JUMPDEST PUSH1 0xA0 PUSH1 0x5 DUP3 SWAP5 DUP1 SLOAD DUP5 MSTORE PUSH1 0xFF PUSH1 0x1 DUP3 ADD SLOAD AND ISZERO ISZERO PUSH1 0x20 DUP6 ADD MSTORE PUSH1 0x2 DUP2 ADD SLOAD PUSH1 0x40 DUP6 ADD MSTORE PUSH2 0x1E2C PUSH1 0x3 DUP3 ADD PUSH2 0x59C JUMP JUMPDEST PUSH1 0x60 DUP6 ADD MSTORE PUSH2 0x1E3D PUSH1 0x4 DUP3 ADD PUSH2 0x59C JUMP JUMPDEST PUSH1 0x80 DUP6 ADD MSTORE ADD SLOAD SWAP2 ADD MSTORE JUMP JUMPDEST ISZERO PUSH2 0x1E50 JUMPI JUMP JUMPDEST PUSH1 0x40 MLOAD PUSH3 0x461BCD PUSH1 0xE5 SHL DUP2 MSTORE PUSH1 0x20 PUSH1 0x4 DUP3 ADD MSTORE PUSH1 0x14 PUSH1 0x24 DUP3 ADD MSTORE PUSH20 0x10DBDB9D195B9D081B9BDD081D995C9A599A5959 PUSH1 0x62 SHL PUSH1 0x44 DUP3 ADD MSTORE PUSH1 0x64 SWAP1 REVERT JUMPDEST ISZERO PUSH2 0x1E93 JUMPI JUMP JUMPDEST PUSH1 0x40 MLOAD PUSH3 0x461BCD PUSH1 0xE5 SHL DUP2 MSTORE PUSH1 0x20 PUSH1 0x4 DUP3 ADD MSTORE PUSH1 0x18 PUSH1 0x24 DUP3 ADD MSTORE PUSH32 0x436F6E74656E74206973206E6F742061757468656E7469630000000000000000 PUSH1 0x44 DUP3 ADD MSTORE PUSH1 0x64 SWAP1 REVERT JUMPDEST ISZERO PUSH2 0x1EDF JUMPI JUMP JUMPDEST PUSH1 0x40 MLOAD PUSH3 0x461BCD PUSH1 0xE5 SHL DUP2 MSTORE PUSH1 0x20 PUSH1 0x4 DUP3 ADD MSTORE PUSH1 0x18 PUSH1 0x24 DUP3 ADD MSTORE PUSH32 0x436F6E666964656E63652073636F726520746F6F206C6F770000000000000000 PUSH1 0x44 DUP3 ADD MSTORE PUSH1 0x64 SWAP1 REVERT JUMPDEST ISZERO PUSH2 0x1F2B JUMPI JUMP JUMPDEST PUSH1 0x40 MLOAD PUSH3 0x461BCD PUSH1 0xE5 SHL DUP2 MSTORE PUSH1 0x20 PUSH1 0x4 DUP3 ADD MSTORE PUSH1 0x1B PUSH1 0x24 DUP3 ADD MSTORE PUSH32 0x4F6E6C79207265717565737465722063616E206D696E74204E46540000000000 PUSH1 0x44 DUP3 ADD MSTORE PUSH1 0x64 SWAP1 REVERT JUMPDEST ISZERO PUSH2 0x1F77 JUMPI JUMP JUMPDEST PUSH1 0x40 MLOAD PUSH3 0x461BCD PUSH1 0xE5 SHL DUP2 MSTORE PUSH1 0x20 PUSH1 0x4 DUP3 ADD MSTORE PUSH1 0x12 PUSH1 0x24 DUP3 ADD MSTORE PUSH18 0x13919508185B1C9958591E481B5A5B9D1959 PUSH1 0x72 SHL PUSH1 0x44 DUP3 ADD MSTORE PUSH1 0x64 SWAP1 REVERT JUMPDEST SWAP1 DUP2 PUSH1 0x20 SWAP2 SUB SLT PUSH2 0x2AC JUMPI MLOAD SWAP1 JUMP JUMPDEST PUSH1 0x1 PUSH1 0x1 PUSH1 0xA0 SHL SUB SWAP1 SWAP2 AND DUP2 MSTORE PUSH1 0x80 PUSH1 0x20 DUP3 ADD DUP2 SWAP1 MSTORE PUSH2 0xC7D SWAP5 SWAP3 PUSH2 0x1FE7 SWAP2 DUP4 ADD SWAP1 PUSH2 0x662 JUMP JUMPDEST SWAP3 PUSH1 0x40 DUP3 ADD MSTORE PUSH1 0x60 DUP2 DUP5 SUB SWAP2 ADD MSTORE PUSH2 0x662 JUMP JUMPDEST PUSH1 0x40 MLOAD RETURNDATASIZE PUSH1 0x0 DUP3 RETURNDATACOPY RETURNDATASIZE SWAP1 REVERT JUMPDEST PUSH2 0x201E SWAP1 PUSH1 0x20 PUSH1 0x40 MLOAD SWAP3 DUP3 DUP5 DUP1 SWAP5 MLOAD SWAP4 DUP5 SWAP3 ADD PUSH2 0x63F JUMP JUMPDEST DUP2 ADD SUB SWAP1 KECCAK256 SWAP1 JUMP JUMPDEST PUSH1 0xB SLOAD SWAP1 PUSH1 0x1 PUSH1 0x40 SHL DUP3 LT ISZERO PUSH2 0x30C JUMPI PUSH1 0x1 DUP3 ADD DUP1 PUSH1 0xB SSTORE DUP3 LT ISZERO PUSH2 0x8C0 JUMPI PUSH2 0x37A SWAP2 PUSH1 0xB PUSH1 0x0 MSTORE PUSH1 0x0 DUP1 MLOAD PUSH1 0x20 PUSH2 0x3540 DUP4 CODECOPY DUP2 MLOAD SWAP2 MSTORE ADD PUSH2 0x1B53 JUMP JUMPDEST ISZERO PUSH2 0x206A JUMPI JUMP JUMPDEST PUSH1 0x40 MLOAD PUSH3 0x461BCD PUSH1 0xE5 SHL DUP2 MSTORE PUSH1 0x20 PUSH1 0x4 DUP3 ADD MSTORE PUSH1 0x11 PUSH1 0x24 DUP3 ADD MSTORE PUSH17 0x14995C5D595CDD081B9BDD08199BDD5B99 PUSH1 0x7A SHL PUSH1 0x44 DUP3 ADD MSTORE PUSH1 0x64 SWAP1 REVERT JUMPDEST ISZERO PUSH2 0x20AA JUMPI JUMP JUMPDEST PUSH1 0x40 MLOAD PUSH3 0x461BCD PUSH1 0xE5 SHL DUP2 MSTORE PUSH1 0x20 PUSH1 0x4 DUP3 ADD MSTORE PUSH1 0x19 PUSH1 0x24 DUP3 ADD MSTORE PUSH32 0x5265717565737420616C72656164792070726F63657373656400000000000000 PUSH1 0x44 DUP3 ADD MSTORE PUSH1 0x64 SWAP1 REVERT JUMPDEST DUP2 PUSH1 0x1F DUP3 ADD SLT ISZERO PUSH2 0x2AC JUMPI DUP1 MLOAD PUSH2 0x2105 DUP2 PUSH2 0x37C JUMP JUMPDEST SWAP3 PUSH2 0x2113 PUSH1 0x40 MLOAD SWAP5 DUP6 PUSH2 0x32C JUMP JUMPDEST DUP2 DUP5 MSTORE PUSH1 0x20 DUP3 DUP5 ADD ADD GT PUSH2 0x2AC JUMPI PUSH2 0xC7D SWAP2 PUSH1 0x20 DUP1 DUP6 ADD SWAP2 ADD PUSH2 0x63F JUMP JUMPDEST SWAP1 PUSH1 0x80 DUP3 DUP3 SUB SLT PUSH2 0x2AC JUMPI DUP2 MLOAD DUP1 ISZERO ISZERO DUP2 SUB PUSH2 0x2AC JUMPI SWAP3 PUSH1 0x20 DUP4 ADD MLOAD SWAP3 PUSH1 0x40 DUP2 ADD MLOAD SWAP3 PUSH1 0x1 PUSH1 0x1 PUSH1 0x40 SHL SUB SWAP4 DUP5 DUP2 GT PUSH2 0x2AC JUMPI DUP2 PUSH2 0x2170 SWAP2 DUP5 ADD PUSH2 0x20EF JUMP JUMPDEST SWAP4 PUSH1 0x60 DUP4 ADD MLOAD SWAP1 DUP2 GT PUSH2 0x2AC JUMPI PUSH2 0xC7D SWAP3 ADD PUSH2 0x20EF JUMP JUMPDEST PUSH1 0x0 SWAP3 SWAP2 DUP2 SLOAD PUSH2 0x2196 DUP2 PUSH2 0x49E JUMP JUMPDEST SWAP3 PUSH1 0x1 SWAP2 DUP1 DUP4 AND SWAP1 DUP2 ISZERO PUSH2 0x21F0 JUMPI POP PUSH1 0x1 EQ PUSH2 0x21B3 JUMPI JUMPDEST POP POP POP POP JUMP JUMPDEST SWAP1 SWAP2 SWAP3 SWAP4 SWAP5 POP PUSH1 0x0 MSTORE PUSH1 0x20 SWAP1 PUSH1 0x20 PUSH1 0x0 KECCAK256 SWAP1 PUSH1 0x0 SWAP2 JUMPDEST DUP6 DUP4 LT PUSH2 0x21DF JUMPI POP POP POP POP ADD SWAP1 CODESIZE DUP1 DUP1 DUP1 PUSH2 0x21AD JUMP JUMPDEST DUP1 SLOAD DUP6 DUP5 ADD MSTORE SWAP2 DUP4 ADD SWAP2 DUP2 ADD PUSH2 0x21C9 JUMP JUMPDEST PUSH1 0xFF NOT AND DUP5 MSTORE POP POP POP DUP2 ISZERO ISZERO SWAP1 SWAP2 MUL ADD SWAP2 POP CODESIZE DUP1 DUP1 DUP1 PUSH2 0x21AD JUMP JUMPDEST PUSH1 0x20 PUSH2 0x221D SWAP2 PUSH1 0x40 MLOAD SWAP3 DUP4 DUP1 SWAP3 PUSH2 0x2187 JUMP JUMPDEST PUSH1 0x6 DUP2 MSTORE SUB ADD SWAP1 KECCAK256 SWAP1 JUMP JUMPDEST PUSH1 0x20 PUSH2 0x223A SWAP2 PUSH1 0x40 MLOAD SWAP3 DUP4 DUP1 SWAP3 PUSH2 0x2187 JUMP JUMPDEST PUSH1 0x8 DUP2 MSTORE SUB ADD SWAP1 KECCAK256 SWAP1 JUMP JUMPDEST SWAP1 PUSH1 0xA0 PUSH1 0x5 SWAP2 DUP1 MLOAD DUP5 SSTORE PUSH2 0x226E PUSH1 0x20 DUP3 ADD MLOAD ISZERO ISZERO PUSH1 0x1 DUP7 ADD SWAP1 PUSH1 0xFF DUP1 NOT DUP4 SLOAD AND SWAP2 ISZERO ISZERO AND OR SWAP1 SSTORE JUMP JUMPDEST PUSH1 0x40 DUP2 ADD MLOAD PUSH1 0x2 DUP6 ADD SSTORE PUSH2 0x2289 PUSH1 0x60 DUP3 ADD MLOAD PUSH1 0x3 DUP7 ADD PUSH2 0x1B53 JUMP JUMPDEST PUSH2 0x1CCD PUSH1 0x80 DUP3 ADD MLOAD PUSH1 0x4 DUP7 ADD PUSH2 0x1B53 JUMP JUMPDEST SWAP2 SWAP1 SWAP2 DUP3 DUP2 EQ PUSH2 0x237D JUMPI PUSH2 0x22AE DUP4 SLOAD PUSH2 0x49E JUMP JUMPDEST PUSH1 0x1 PUSH1 0x1 PUSH1 0x40 SHL SUB DUP2 GT PUSH2 0x30C JUMPI PUSH2 0x22CA DUP2 PUSH2 0x1B74 DUP5 SLOAD PUSH2 0x49E JUMP JUMPDEST PUSH1 0x0 SWAP4 PUSH1 0x1F DUP3 GT PUSH1 0x1 EQ PUSH2 0x2307 JUMPI PUSH2 0x1BAD SWAP3 SWAP4 SWAP5 DUP3 SWAP2 PUSH1 0x0 SWAP3 PUSH2 0x22FC JUMPI POP POP DUP2 PUSH1 0x1 SHL SWAP2 PUSH1 0x0 NOT SWAP1 PUSH1 0x3 SHL SHR NOT AND OR SWAP1 JUMP JUMPDEST ADD SLOAD SWAP1 POP CODESIZE DUP1 PUSH2 0xF71 JUMP JUMPDEST PUSH2 0x231B PUSH1 0x1F NOT DUP4 AND SWAP2 PUSH1 0x0 MSTORE PUSH1 0x20 PUSH1 0x0 KECCAK256 SWAP1 JUMP JUMPDEST SWAP5 PUSH2 0x232B DUP5 PUSH1 0x0 MSTORE PUSH1 0x20 PUSH1 0x0 KECCAK256 SWAP1 JUMP JUMPDEST SWAP2 DUP2 JUMPDEST DUP2 DUP2 LT PUSH2 0x2365 JUMPI POP SWAP6 DUP4 PUSH1 0x1 SWAP6 SWAP7 SWAP8 LT PUSH2 0x234C JUMPI POP POP POP DUP2 SHL ADD SWAP1 SSTORE JUMP JUMPDEST ADD SLOAD PUSH1 0x0 NOT PUSH1 0xF8 DUP5 PUSH1 0x3 SHL AND SHR NOT AND SWAP1 SSTORE CODESIZE DUP1 DUP1 PUSH2 0x1BE1 JUMP JUMPDEST DUP8 DUP4 ADD SLOAD DUP5 SSTORE PUSH1 0x1 SWAP4 DUP5 ADD SWAP4 SWAP1 SWAP3 ADD SWAP2 PUSH1 0x20 ADD PUSH2 0x232E JUMP JUMPDEST POP SWAP1 POP JUMP JUMPDEST PUSH1 0xB SLOAD SWAP1 PUSH1 0x1 PUSH1 0x40 SHL DUP3 LT ISZERO PUSH2 0x30C JUMPI PUSH1 0x1 DUP3 ADD DUP1 PUSH1 0xB SSTORE DUP3 LT ISZERO PUSH2 0x8C0 JUMPI PUSH2 0x37A SWAP2 PUSH1 0xB PUSH1 0x0 MSTORE PUSH1 0x0 DUP1 MLOAD PUSH1 0x20 PUSH2 0x3540 DUP4 CODECOPY DUP2 MLOAD SWAP2 MSTORE ADD PUSH2 0x229A JUMP JUMPDEST PUSH1 0xA SLOAD SWAP1 PUSH1 0x1 PUSH1 0x40 SHL DUP3 LT ISZERO PUSH2 0x30C JUMPI PUSH1 0x1 DUP3 ADD DUP1 PUSH1 0xA SSTORE DUP3 LT ISZERO PUSH2 0x8C0 JUMPI PUSH2 0x37A SWAP2 PUSH1 0xA PUSH1 0x0 MSTORE PUSH32 0xC65A7BB8D6351C1CF70C95A316CC6A92839C986682D98BC35F958F4883F9D2A8 ADD PUSH2 0x229A JUMP JUMPDEST PUSH2 0x241E SWAP1 PUSH1 0x40 MLOAD SWAP2 DUP3 DUP1 SWAP3 PUSH2 0x2187 JUMP JUMPDEST SUB SWAP1 KECCAK256 SWAP1 JUMP JUMPDEST SWAP5 SWAP4 SWAP3 PUSH1 0x60 SWAP3 PUSH2 0x6EE SWAP3 ISZERO ISZERO DUP8 MSTORE PUSH1 0x20 DUP8 ADD MSTORE PUSH1 0x80 PUSH1 0x40 DUP8 ADD MSTORE PUSH1 0x80 DUP7 ADD SWAP1 PUSH2 0x662 JUMP JUMPDEST SWAP1 SWAP2 PUSH2 0x245E DUP3 PUSH1 0x0 MSTORE PUSH1 0x5 PUSH1 0x20 MSTORE PUSH1 0x40 PUSH1 0x0 KECCAK256 SWAP1 JUMP JUMPDEST SWAP3 PUSH2 0x246E PUSH1 0x3 DUP6 ADD SLOAD ISZERO ISZERO PUSH2 0x2063 JUMP JUMPDEST PUSH1 0x4 DUP5 ADD SWAP2 PUSH2 0x248D PUSH2 0x2488 PUSH2 0x2484 DUP6 SLOAD PUSH1 0xFF AND SWAP1 JUMP JUMPDEST ISZERO SWAP1 JUMP JUMPDEST PUSH2 0x20A3 JUMP JUMPDEST MLOAD PUSH2 0x25B7 JUMPI SWAP1 PUSH2 0x2506 PUSH2 0x258A PUSH2 0x257B PUSH1 0x1 PUSH2 0x2554 PUSH2 0x24D5 DUP8 PUSH1 0x20 DUP1 PUSH32 0xA200E87A2F5086E32A1C23ACED4FBE4BE33197F26728243A2F4E04C31DC31957 SWAP11 MLOAD DUP4 ADD ADD SWAP2 ADD PUSH2 0x2131 JUMP JUMPDEST SWAP5 SWAP3 DUP10 PUSH2 0x24EE DUP3 SWAP15 SWAP5 SWAP11 SWAP4 SWAP12 PUSH1 0x1 PUSH1 0xFF NOT DUP3 SLOAD AND OR SWAP1 SSTORE JUMP JUMPDEST SWAP1 PUSH2 0xFF00 DUP3 SLOAD SWAP2 ISZERO ISZERO PUSH1 0x8 SHL AND SWAP1 PUSH2 0xFF00 NOT AND OR SWAP1 SSTORE JUMP JUMPDEST DUP7 PUSH1 0x5 DUP3 ADD SSTORE PUSH2 0x2519 DUP9 PUSH1 0x6 DUP4 ADD PUSH2 0x1B53 JUMP JUMPDEST PUSH2 0x2521 PUSH2 0x36D JUMP JUMPDEST DUP11 DUP2 MSTORE DUP12 ISZERO ISZERO PUSH1 0x20 DUP3 ADD MSTORE SWAP4 DUP8 PUSH1 0x40 DUP7 ADD MSTORE DUP9 PUSH1 0x60 DUP7 ADD MSTORE PUSH1 0x80 DUP6 ADD MSTORE TIMESTAMP PUSH1 0xA0 DUP6 ADD MSTORE ADD SWAP2 PUSH2 0x254F DUP4 PUSH2 0x220B JUMP JUMPDEST PUSH2 0x2245 JUMP JUMPDEST DUP8 ISZERO PUSH2 0x258F JUMPI PUSH2 0x256D PUSH2 0x2568 PUSH1 0xD SLOAD PUSH2 0x1D67 JUMP JUMPDEST PUSH1 0xD SSTORE JUMP JUMPDEST PUSH2 0x2576 DUP2 PUSH2 0x23BF JUMP JUMPDEST PUSH2 0x240E JUMP JUMPDEST SWAP6 PUSH1 0x40 MLOAD SWAP4 DUP5 SWAP4 TIMESTAMP SWAP3 DUP6 PUSH2 0x2424 JUMP JUMPDEST SUB SWAP1 LOG3 JUMP JUMPDEST PUSH2 0x25A2 PUSH2 0x259D PUSH1 0xE SLOAD PUSH2 0x1D67 JUMP JUMPDEST PUSH1 0xE SSTORE JUMP JUMPDEST PUSH2 0x25AE PUSH2 0x1423 DUP3 PUSH2 0x2228 JUMP JUMPDEST PUSH2 0x2576 DUP2 PUSH2 0x2382 JUMP JUMPDEST POP DUP1 SLOAD PUSH1 0xFF NOT AND PUSH1 0x1 OR SWAP1 SSTORE POP PUSH2 0x37A SWAP1 POP JUMP JUMPDEST PUSH1 0x0 SLOAD PUSH1 0x1 PUSH1 0x1 PUSH1 0xA0 SHL SUB AND CALLER SUB PUSH2 0x25DF JUMPI JUMP JUMPDEST PUSH1 0x40 MLOAD PUSH4 0x118CDAA7 PUSH1 0xE0 SHL DUP2 MSTORE CALLER PUSH1 0x4 DUP3 ADD MSTORE PUSH1 0x24 SWAP1 REVERT JUMPDEST PUSH1 0x2 PUSH1 0x1 SLOAD EQ PUSH2 0x2608 JUMPI PUSH1 0x2 PUSH1 0x1 SSTORE JUMP JUMPDEST PUSH1 0x40 MLOAD PUSH4 0x3EE5AEB5 PUSH1 0xE0 SHL DUP2 MSTORE PUSH1 0x4 SWAP1 REVERT JUMPDEST PUSH1 0xFF PUSH1 0x2 SLOAD AND PUSH2 0x2626 JUMPI JUMP JUMPDEST PUSH1 0x40 MLOAD PUSH4 0xD93C0665 PUSH1 0xE0 SHL DUP2 MSTORE PUSH1 0x4 SWAP1 REVERT JUMPDEST DUP2 MLOAD ISZERO PUSH2 0x2645 JUMPI PUSH1 0xA0 ADD MSTORE JUMP JUMPDEST PUSH1 0x40 MLOAD PUSH4 0xFE936CB7 PUSH1 0xE0 SHL DUP2 MSTORE PUSH1 0x4 SWAP1 REVERT JUMPDEST PUSH1 0x40 MLOAD SWAP1 PUSH2 0x2664 DUP3 PUSH2 0x311 JUMP JUMPDEST PUSH1 0xC DUP3 MSTORE PUSH12 0x31B7B232A637B1B0BA34B7B7 PUSH1 0xA1 SHL PUSH1 0x20 DUP4 ADD MSTORE JUMP JUMPDEST PUSH4 0x4E487B71 PUSH1 0xE0 SHL PUSH1 0x0 MSTORE PUSH1 0x21 PUSH1 0x4 MSTORE PUSH1 0x24 PUSH1 0x0 REVERT JUMPDEST PUSH1 0x3 GT ISZERO PUSH2 0x269F JUMPI JUMP JUMPDEST PUSH2 0x267F JUMP JUMPDEST PUSH1 0x40 MLOAD SWAP1 PUSH2 0x26B1 DUP3 PUSH2 0x311 JUMP JUMPDEST PUSH1 0x8 DUP3 MSTORE PUSH8 0x6C616E6775616765 PUSH1 0xC0 SHL PUSH1 0x20 DUP4 ADD MSTORE JUMP JUMPDEST PUSH1 0x1 GT ISZERO PUSH2 0x269F JUMPI JUMP JUMPDEST PUSH1 0x40 MLOAD SWAP1 PUSH2 0x26DF DUP3 PUSH2 0x311 JUMP JUMPDEST PUSH1 0x6 DUP3 MSTORE PUSH6 0x736F75726365 PUSH1 0xD0 SHL PUSH1 0x20 DUP4 ADD MSTORE JUMP JUMPDEST PUSH1 0x40 MLOAD SWAP1 PUSH2 0x2701 DUP3 PUSH2 0x311 JUMP JUMPDEST PUSH1 0x4 DUP3 MSTORE PUSH4 0x61726773 PUSH1 0xE0 SHL PUSH1 0x20 DUP4 ADD MSTORE JUMP JUMPDEST PUSH1 0x40 MLOAD SWAP1 PUSH2 0x2721 DUP3 PUSH2 0x311 JUMP JUMPDEST PUSH1 0xF DUP3 MSTORE PUSH15 0x39B2B1B932BA39A637B1B0BA34B7B7 PUSH1 0x89 SHL PUSH1 0x20 DUP4 ADD MSTORE JUMP JUMPDEST PUSH1 0x40 MLOAD SWAP1 PUSH2 0x274C DUP3 PUSH2 0x311 JUMP JUMPDEST PUSH1 0x7 DUP3 MSTORE PUSH7 0x73656372657473 PUSH1 0xC8 SHL PUSH1 0x20 DUP4 ADD MSTORE JUMP JUMPDEST PUSH1 0x40 MLOAD SWAP1 PUSH2 0x276F DUP3 PUSH2 0x311 JUMP JUMPDEST PUSH1 0x9 DUP3 MSTORE PUSH9 0x627974657341726773 PUSH1 0xB8 SHL PUSH1 0x20 DUP4 ADD MSTORE JUMP JUMPDEST PUSH2 0x278F PUSH2 0x2A72 JUMP JUMPDEST SWAP1 PUSH2 0x27A1 PUSH2 0x279B PUSH2 0x2657 JUMP JUMPDEST DUP4 PUSH2 0x2AC2 JUMP JUMPDEST PUSH2 0x27BE DUP2 MLOAD PUSH2 0x27AF DUP2 PUSH2 0x2695 JUMP JUMPDEST PUSH2 0x27B8 DUP2 PUSH2 0x2695 JUMP JUMPDEST DUP4 PUSH2 0x2B84 JUMP JUMPDEST PUSH2 0x27C9 PUSH2 0x279B PUSH2 0x26A4 JUMP JUMPDEST PUSH2 0x27E3 PUSH1 0x40 DUP3 ADD MLOAD PUSH2 0x27DA DUP2 PUSH2 0x26C8 JUMP JUMPDEST PUSH2 0x27B8 DUP2 PUSH2 0x26C8 JUMP JUMPDEST PUSH2 0x27EE PUSH2 0x279B PUSH2 0x26D2 JUMP JUMPDEST PUSH2 0x27FC PUSH1 0x60 DUP3 ADD MLOAD DUP4 PUSH2 0x2AC2 JUMP JUMPDEST PUSH1 0xA0 DUP2 ADD DUP1 MLOAD MLOAD PUSH2 0x28FC JUMPI JUMPDEST POP PUSH1 0x80 DUP2 ADD SWAP1 DUP2 MLOAD MLOAD PUSH2 0x287C JUMPI JUMPDEST PUSH1 0xC0 SWAP2 POP ADD DUP1 MLOAD MLOAD PUSH2 0x2829 JUMPI JUMPDEST POP MLOAD MLOAD SWAP1 JUMP JUMPDEST SWAP2 PUSH2 0x2835 PUSH2 0x279B PUSH2 0x2762 JUMP JUMPDEST PUSH2 0x283E DUP3 PUSH2 0x2C40 JUMP JUMPDEST PUSH1 0x0 JUMPDEST DUP4 MLOAD DUP1 MLOAD DUP3 LT ISZERO PUSH2 0x2869 JUMPI SWAP1 PUSH2 0x2863 PUSH2 0x285C DUP3 PUSH1 0x1 SWAP5 PUSH2 0x1A77 JUMP JUMPDEST MLOAD DUP6 PUSH2 0x2D68 JUMP JUMPDEST ADD PUSH2 0x2841 JUMP JUMPDEST POP POP SWAP2 POP PUSH2 0x2876 DUP2 PUSH2 0x2CDB JUMP JUMPDEST CODESIZE PUSH2 0x2823 JUMP JUMPDEST PUSH1 0x20 DUP2 ADD DUP1 MLOAD PUSH2 0x288B DUP2 PUSH2 0x2695 JUMP JUMPDEST PUSH2 0x2894 DUP2 PUSH2 0x2695 JUMP JUMPDEST ISZERO PUSH2 0x28EA JUMPI PUSH1 0xC0 SWAP3 PUSH2 0x28CD PUSH2 0x28E5 SWAP3 PUSH2 0x28B4 PUSH2 0x28AE PUSH2 0x2714 JUMP JUMPDEST DUP9 PUSH2 0x2AC2 JUMP JUMPDEST MLOAD PUSH2 0x28BE DUP2 PUSH2 0x2695 JUMP JUMPDEST PUSH2 0x28C7 DUP2 PUSH2 0x2695 JUMP JUMPDEST DUP7 PUSH2 0x2B84 JUMP JUMPDEST PUSH2 0x28DE PUSH2 0x28D8 PUSH2 0x273F JUMP JUMPDEST DUP7 PUSH2 0x2AC2 JUMP JUMPDEST MLOAD DUP5 PUSH2 0x2D68 JUMP JUMPDEST PUSH2 0x2816 JUMP JUMPDEST PUSH1 0x40 MLOAD PUSH4 0xA80D31F7 PUSH1 0xE0 SHL DUP2 MSTORE PUSH1 0x4 SWAP1 REVERT JUMPDEST SWAP3 PUSH2 0x290E PUSH2 0x2908 PUSH2 0x26F4 JUMP JUMPDEST DUP5 PUSH2 0x2AC2 JUMP JUMPDEST PUSH2 0x2917 DUP4 PUSH2 0x2C40 JUMP JUMPDEST PUSH1 0x0 JUMPDEST DUP5 MLOAD DUP1 MLOAD DUP3 LT ISZERO PUSH2 0x2942 JUMPI SWAP1 PUSH2 0x293C PUSH2 0x2935 DUP3 PUSH1 0x1 SWAP5 PUSH2 0x1A77 JUMP JUMPDEST MLOAD DUP7 PUSH2 0x2AC2 JUMP JUMPDEST ADD PUSH2 0x291A JUMP JUMPDEST POP POP SWAP3 POP PUSH2 0x294F DUP3 PUSH2 0x2CDB JUMP JUMPDEST CODESIZE PUSH2 0x2808 JUMP JUMPDEST SWAP3 SWAP1 PUSH1 0x20 SWAP3 PUSH1 0x1 PUSH1 0x1 PUSH1 0x40 SHL SUB SWAP3 PUSH4 0xFFFFFFFF PUSH2 0x2994 PUSH1 0x40 MLOAD SWAP8 DUP9 SWAP7 DUP8 SWAP7 PUSH4 0x230E93B1 PUSH1 0xE1 SHL DUP9 MSTORE AND PUSH1 0x4 DUP8 ADD MSTORE PUSH1 0xA0 PUSH1 0x24 DUP8 ADD MSTORE PUSH1 0xA4 DUP7 ADD SWAP1 PUSH2 0x662 JUMP JUMPDEST PUSH1 0x1 PUSH1 0x44 DUP7 ADD MSTORE SWAP3 AND PUSH1 0x64 DUP5 ADD MSTORE PUSH1 0x84 DUP4 ADD MSTORE SUB DUP2 PUSH1 0x0 PUSH32 0x0 PUSH1 0x1 PUSH1 0x1 PUSH1 0xA0 SHL SUB AND GAS CALL SWAP1 DUP2 ISZERO PUSH2 0x11D0 JUMPI PUSH1 0x0 SWAP2 PUSH2 0x2A10 JUMPI JUMPDEST POP DUP1 PUSH32 0x1131472297A800FEE664D1D89CFA8F7676FF07189ECC53F80BBB5F4969099DB8 PUSH1 0x0 DUP1 LOG2 SWAP1 JUMP JUMPDEST PUSH2 0x2A29 SWAP2 POP PUSH1 0x20 RETURNDATASIZE PUSH1 0x20 GT PUSH2 0x11C9 JUMPI PUSH2 0x11BB DUP2 DUP4 PUSH2 0x32C JUMP JUMPDEST CODESIZE PUSH2 0x29E6 JUMP JUMPDEST DUP2 MLOAD ISZERO PUSH2 0x2A46 JUMPI PUSH1 0x0 DUP1 DUP3 MSTORE PUSH1 0x40 DUP3 ADD MSTORE PUSH1 0x60 ADD MSTORE JUMP JUMPDEST PUSH1 0x40 MLOAD PUSH4 0x22CE3EDD PUSH1 0xE0 SHL DUP2 MSTORE PUSH1 0x4 SWAP1 REVERT JUMPDEST PUSH1 0x40 MLOAD SWAP1 PUSH2 0x2A65 DUP3 PUSH2 0x311 JUMP JUMPDEST PUSH1 0x0 PUSH1 0x20 DUP4 PUSH1 0x60 DUP2 MSTORE ADD MSTORE JUMP JUMPDEST PUSH1 0x40 MLOAD PUSH2 0x2A7E DUP2 PUSH2 0x311 JUMP JUMPDEST PUSH2 0x2A86 PUSH2 0x2A58 JUMP JUMPDEST DUP1 DUP3 MSTORE PUSH1 0x20 DUP3 ADD PUSH1 0x0 DUP2 MSTORE PUSH2 0x2A99 PUSH2 0x2A58 JUMP JUMPDEST POP PUSH2 0x100 PUSH1 0x20 DUP4 ADD MSTORE PUSH1 0x40 MLOAD DUP1 SWAP3 MSTORE PUSH1 0x0 DUP3 MSTORE PUSH2 0x120 DUP3 ADD SWAP2 DUP3 LT PUSH2 0x2AC JUMPI PUSH1 0x0 SWAP2 PUSH1 0x40 MSTORE MSTORE SWAP1 JUMP JUMPDEST DUP2 MLOAD PUSH2 0x2B06 SWAP3 SWAP2 SWAP1 PUSH1 0x1 PUSH1 0x1 PUSH1 0x40 SHL SUB DUP2 AND SWAP1 PUSH1 0x17 DUP3 GT PUSH2 0x2B09 JUMPI PUSH2 0x2AF1 SWAP2 POP PUSH1 0x60 PUSH1 0xFF DUP5 MLOAD SWAP3 AND OR SWAP1 PUSH2 0x324C JUMP JUMPDEST POP JUMPDEST MLOAD SWAP1 PUSH2 0x2AFD PUSH2 0x2A58 JUMP JUMPDEST POP DUP1 MLOAD SWAP2 PUSH2 0x347C JUMP JUMPDEST POP JUMP JUMPDEST POP PUSH1 0xFF DUP2 GT PUSH2 0x2B2E JUMPI PUSH2 0x2B28 SWAP1 PUSH2 0x2B20 DUP4 MLOAD PUSH2 0x3053 JUMP JUMPDEST POP DUP3 MLOAD PUSH2 0x3408 JUMP JUMPDEST POP PUSH2 0x2AF3 JUMP JUMPDEST PUSH2 0xFFFF DUP2 GT PUSH2 0x2B4D JUMPI PUSH2 0x2B28 SWAP1 PUSH2 0x2B45 DUP4 MLOAD PUSH2 0x2FEE JUMP JUMPDEST POP DUP3 MLOAD PUSH2 0x339A JUMP JUMPDEST PUSH4 0xFFFFFFFF DUP2 GT PUSH2 0x2B6E JUMPI PUSH2 0x2B28 SWAP1 PUSH2 0x2B66 DUP4 MLOAD PUSH2 0x2F89 JUMP JUMPDEST POP DUP3 MLOAD PUSH2 0x332A JUMP JUMPDEST PUSH2 0x2B28 SWAP1 PUSH2 0x2B7C DUP4 MLOAD PUSH2 0x2F19 JUMP JUMPDEST POP DUP3 MLOAD PUSH2 0x32B7 JUMP JUMPDEST SWAP1 DUP2 MLOAD SWAP2 PUSH2 0x2B90 PUSH2 0x2A58 JUMP JUMPDEST POP DUP3 MLOAD MLOAD PUSH1 0x1 DUP2 ADD SWAP1 DUP2 DUP2 GT PUSH2 0x1D76 JUMPI PUSH1 0x20 DUP6 ADD MLOAD DUP2 LT ISZERO PUSH2 0x2BE9 JUMPI JUMPDEST PUSH1 0xC2 PUSH1 0x20 PUSH2 0x37A SWAP7 MLOAD SWAP3 DUP4 ADD ADD MSTORE8 DUP1 MLOAD DUP3 GT PUSH2 0x2BE1 JUMPI JUMPDEST POP POP PUSH1 0x40 MLOAD SWAP2 PUSH1 0x20 DUP4 ADD MSTORE PUSH1 0x20 DUP3 MSTORE PUSH2 0x2BDC DUP3 PUSH2 0x311 JUMP JUMPDEST PUSH2 0x2D68 JUMP JUMPDEST MSTORE CODESIZE DUP1 PUSH2 0x2BC4 JUMP JUMPDEST DUP2 PUSH1 0x1 SHL SWAP5 DUP3 DUP7 DIV PUSH1 0x2 EQ DUP4 ISZERO OR ISZERO PUSH2 0x1D76 JUMPI PUSH1 0x20 DUP2 PUSH2 0x2C1B PUSH2 0x37A SWAP9 PUSH2 0x2C14 PUSH1 0xC2 SWAP6 MLOAD SWAP2 DUP5 PUSH2 0x2DEC JUMP JUMPDEST POP DUP3 PUSH2 0x2E3E JUMP JUMPDEST POP SWAP7 POP POP POP PUSH2 0x2BAD JUMP JUMPDEST SWAP1 PUSH1 0x20 DUP3 ADD DUP1 SWAP3 GT PUSH2 0x1D76 JUMPI JUMP JUMPDEST SWAP2 SWAP1 DUP3 ADD DUP1 SWAP3 GT PUSH2 0x1D76 JUMPI JUMP JUMPDEST DUP1 MLOAD SWAP1 PUSH2 0x2C4B PUSH2 0x2A58 JUMP JUMPDEST POP DUP2 MLOAD MLOAD PUSH1 0x1 DUP2 ADD SWAP1 DUP2 DUP2 GT PUSH2 0x1D76 JUMPI PUSH1 0x20 DUP5 ADD MLOAD DUP2 LT ISZERO PUSH2 0x2C99 JUMPI JUMPDEST PUSH1 0x9F PUSH1 0x20 DUP1 SWAP6 MLOAD SWAP3 DUP4 ADD ADD MSTORE8 DUP1 MLOAD DUP3 GT PUSH2 0x2C91 JUMPI JUMPDEST POP POP ADD DUP1 MLOAD SWAP1 PUSH1 0x1 DUP3 ADD DUP1 SWAP3 GT PUSH2 0x1D76 JUMPI MSTORE JUMP JUMPDEST MSTORE CODESIZE DUP1 PUSH2 0x2C7D JUMP JUMPDEST DUP2 PUSH1 0x1 SHL SWAP4 DUP3 DUP6 DIV PUSH1 0x2 EQ DUP4 ISZERO OR ISZERO PUSH2 0x1D76 JUMPI PUSH1 0x20 DUP2 PUSH2 0x2CC2 DUP3 SWAP8 PUSH2 0x2C14 PUSH1 0x9F SWAP6 MLOAD SWAP2 DUP5 PUSH2 0x2DEC JUMP JUMPDEST POP SWAP6 POP POP POP PUSH2 0x2C68 JUMP JUMPDEST PUSH1 0x1F NOT DUP2 ADD SWAP2 SWAP1 DUP3 GT PUSH2 0x1D76 JUMPI JUMP JUMPDEST DUP1 MLOAD SWAP1 PUSH2 0x2CE6 PUSH2 0x2A58 JUMP JUMPDEST POP DUP2 MLOAD MLOAD PUSH1 0x1 DUP2 ADD SWAP1 DUP2 DUP2 GT PUSH2 0x1D76 JUMPI PUSH1 0x20 DUP5 ADD MLOAD DUP2 LT ISZERO PUSH2 0x2D35 JUMPI JUMPDEST PUSH1 0xFF PUSH1 0x20 DUP1 SWAP6 MLOAD SWAP3 DUP4 ADD ADD MSTORE8 DUP1 MLOAD DUP3 GT PUSH2 0x2D2D JUMPI JUMPDEST POP POP ADD DUP1 MLOAD PUSH1 0x0 NOT DUP2 ADD SWAP2 SWAP1 DUP3 GT PUSH2 0x1D76 JUMPI MSTORE JUMP JUMPDEST MSTORE CODESIZE DUP1 PUSH2 0x2D18 JUMP JUMPDEST DUP2 PUSH1 0x1 SHL SWAP4 DUP3 DUP6 DIV PUSH1 0x2 EQ DUP4 ISZERO OR ISZERO PUSH2 0x1D76 JUMPI PUSH1 0x20 DUP2 PUSH2 0x2D5E DUP3 SWAP8 PUSH2 0x2C14 PUSH1 0xFF SWAP6 MLOAD SWAP2 DUP5 PUSH2 0x2DEC JUMP JUMPDEST POP SWAP6 POP POP POP PUSH2 0x2D03 JUMP JUMPDEST DUP2 MLOAD PUSH2 0x2B06 SWAP3 SWAP2 SWAP1 PUSH1 0x1 PUSH1 0x1 PUSH1 0x40 SHL SUB DUP2 AND SWAP1 PUSH1 0x17 DUP3 GT PUSH2 0x2D97 JUMPI PUSH2 0x2AF1 SWAP2 POP PUSH1 0x40 PUSH1 0xFF DUP5 MLOAD SWAP3 AND OR SWAP1 PUSH2 0x324C JUMP JUMPDEST POP PUSH1 0xFF DUP2 GT PUSH2 0x2DAE JUMPI PUSH2 0x2B28 SWAP1 PUSH2 0x2B20 DUP4 MLOAD PUSH2 0x31E7 JUMP JUMPDEST PUSH2 0xFFFF DUP2 GT PUSH2 0x2DC5 JUMPI PUSH2 0x2B28 SWAP1 PUSH2 0x2B45 DUP4 MLOAD PUSH2 0x3182 JUMP JUMPDEST PUSH4 0xFFFFFFFF DUP2 GT PUSH2 0x2DDE JUMPI PUSH2 0x2B28 SWAP1 PUSH2 0x2B66 DUP4 MLOAD PUSH2 0x311D JUMP JUMPDEST PUSH2 0x2B28 SWAP1 PUSH2 0x2B7C DUP4 MLOAD PUSH2 0x30B8 JUMP JUMPDEST SWAP1 PUSH2 0x2DF5 PUSH2 0x2A58 JUMP JUMPDEST POP PUSH1 0x1F DUP2 AND DUP1 PUSH2 0x2E24 JUMPI JUMPDEST POP DUP1 PUSH1 0x20 DUP4 ADD MSTORE PUSH1 0x40 MLOAD SWAP1 DUP2 DUP4 MSTORE PUSH1 0x0 DUP3 MSTORE DUP2 ADD PUSH1 0x20 ADD SWAP1 DUP2 LT PUSH2 0x2AC JUMPI PUSH1 0x40 MSTORE SWAP1 JUMP JUMPDEST PUSH1 0x20 SUB PUSH1 0x20 DUP2 GT PUSH2 0x1D76 JUMPI DUP2 ADD DUP1 SWAP2 GT PUSH2 0x1D76 JUMPI CODESIZE PUSH2 0x2E00 JUMP JUMPDEST SWAP1 PUSH2 0x2E47 PUSH2 0x2A58 JUMP JUMPDEST POP DUP1 MLOAD SWAP1 PUSH2 0x2E53 PUSH2 0x2A58 JUMP JUMPDEST POP PUSH2 0x2E61 DUP2 MLOAD DUP4 GT ISZERO PUSH2 0x3475 JUMP JUMPDEST DUP3 MLOAD MLOAD SWAP2 PUSH2 0x2E6F DUP2 DUP5 PUSH2 0x2C33 JUMP JUMPDEST PUSH1 0x20 SWAP3 PUSH1 0x20 DUP7 ADD MLOAD DUP3 GT PUSH2 0x2EEC JUMPI JUMPDEST PUSH1 0x20 SWAP2 DUP7 MLOAD DUP4 DUP2 MLOAD SWAP8 DUP3 ADD ADD SWAP7 DUP3 GT PUSH2 0x2EE4 JUMPI JUMPDEST POP POP ADD SWAP2 JUMPDEST DUP1 DUP3 LT ISZERO PUSH2 0x2EBC JUMPI POP PUSH1 0x0 NOT SWAP1 PUSH1 0x20 SUB PUSH2 0x100 EXP ADD SWAP1 DUP2 NOT SWAP1 MLOAD AND SWAP1 DUP3 MLOAD AND OR SWAP1 MSTORE SWAP1 JUMP JUMPDEST SWAP1 SWAP2 SWAP3 PUSH2 0x2ED8 PUSH2 0x2ED2 PUSH2 0x2EDE SWAP3 DUP7 MLOAD DUP2 MSTORE PUSH2 0x2C25 JUMP JUMPDEST SWAP5 PUSH2 0x2C25 JUMP JUMPDEST SWAP3 PUSH2 0x2CCC JUMP JUMPDEST SWAP1 PUSH2 0x2E97 JUMP JUMPDEST MSTORE CODESIZE DUP1 PUSH2 0x2E92 JUMP JUMPDEST PUSH2 0x2EFE PUSH2 0x2EF8 DUP4 PUSH2 0x2F03 JUMP JUMPDEST DUP8 PUSH2 0x3528 JUMP JUMPDEST PUSH2 0x2E7E JUMP JUMPDEST SWAP1 DUP2 PUSH1 0x1 SHL SWAP2 DUP1 DUP4 DIV PUSH1 0x2 EQ SWAP1 ISZERO OR ISZERO PUSH2 0x1D76 JUMPI JUMP JUMPDEST PUSH2 0x2F21 PUSH2 0x2A58 JUMP JUMPDEST POP DUP1 MLOAD MLOAD PUSH1 0x1 DUP2 ADD SWAP1 DUP2 DUP2 GT PUSH2 0x1D76 JUMPI PUSH1 0x20 DUP4 ADD MLOAD DUP2 LT ISZERO PUSH2 0x2F5A JUMPI JUMPDEST PUSH1 0x7B PUSH1 0x20 DUP5 MLOAD SWAP3 DUP4 ADD ADD MSTORE8 DUP1 MLOAD DUP3 GT PUSH2 0x2F56 JUMPI POP POP SWAP1 JUMP JUMPDEST MSTORE SWAP1 JUMP JUMPDEST DUP2 PUSH1 0x1 SHL DUP3 DUP2 DIV PUSH1 0x2 EQ DUP4 ISZERO OR ISZERO PUSH2 0x1D76 JUMPI PUSH2 0x2F83 SWAP1 PUSH2 0x2F7C DUP6 MLOAD SWAP2 DUP7 PUSH2 0x2DEC JUMP JUMPDEST POP DUP5 PUSH2 0x2E3E JUMP JUMPDEST POP PUSH2 0x2F3E JUMP JUMPDEST PUSH2 0x2F91 PUSH2 0x2A58 JUMP JUMPDEST POP DUP1 MLOAD MLOAD PUSH1 0x1 DUP2 ADD SWAP1 DUP2 DUP2 GT PUSH2 0x1D76 JUMPI PUSH1 0x20 DUP4 ADD MLOAD DUP2 LT ISZERO PUSH2 0x2FC6 JUMPI JUMPDEST PUSH1 0x7A PUSH1 0x20 DUP5 MLOAD SWAP3 DUP4 ADD ADD MSTORE8 DUP1 MLOAD DUP3 GT PUSH2 0x2F56 JUMPI POP POP SWAP1 JUMP JUMPDEST DUP2 PUSH1 0x1 SHL DUP3 DUP2 DIV PUSH1 0x2 EQ DUP4 ISZERO OR ISZERO PUSH2 0x1D76 JUMPI PUSH2 0x2FE8 SWAP1 PUSH2 0x2F7C DUP6 MLOAD SWAP2 DUP7 PUSH2 0x2DEC JUMP JUMPDEST POP PUSH2 0x2FAE JUMP JUMPDEST PUSH2 0x2FF6 PUSH2 0x2A58 JUMP JUMPDEST POP DUP1 MLOAD MLOAD PUSH1 0x1 DUP2 ADD SWAP1 DUP2 DUP2 GT PUSH2 0x1D76 JUMPI PUSH1 0x20 DUP4 ADD MLOAD DUP2 LT ISZERO PUSH2 0x302B JUMPI JUMPDEST PUSH1 0x79 PUSH1 0x20 DUP5 MLOAD SWAP3 DUP4 ADD ADD MSTORE8 DUP1 MLOAD DUP3 GT PUSH2 0x2F56 JUMPI POP POP SWAP1 JUMP JUMPDEST DUP2 PUSH1 0x1 SHL DUP3 DUP2 DIV PUSH1 0x2 EQ DUP4 ISZERO OR ISZERO PUSH2 0x1D76 JUMPI PUSH2 0x304D SWAP1 PUSH2 0x2F7C DUP6 MLOAD SWAP2 DUP7 PUSH2 0x2DEC JUMP JUMPDEST POP PUSH2 0x3013 JUMP JUMPDEST PUSH2 0x305B PUSH2 0x2A58 JUMP JUMPDEST POP DUP1 MLOAD MLOAD PUSH1 0x1 DUP2 ADD SWAP1 DUP2 DUP2 GT PUSH2 0x1D76 JUMPI PUSH1 0x20 DUP4 ADD MLOAD DUP2 LT ISZERO PUSH2 0x3090 JUMPI JUMPDEST PUSH1 0x78 PUSH1 0x20 DUP5 MLOAD SWAP3 DUP4 ADD ADD MSTORE8 DUP1 MLOAD DUP3 GT PUSH2 0x2F56 JUMPI POP POP SWAP1 JUMP JUMPDEST DUP2 PUSH1 0x1 SHL DUP3 DUP2 DIV PUSH1 0x2 EQ DUP4 ISZERO OR ISZERO PUSH2 0x1D76 JUMPI PUSH2 0x30B2 SWAP1 PUSH2 0x2F7C DUP6 MLOAD SWAP2 DUP7 PUSH2 0x2DEC JUMP JUMPDEST POP PUSH2 0x3078 JUMP JUMPDEST PUSH2 0x30C0 PUSH2 0x2A58 JUMP JUMPDEST POP DUP1 MLOAD MLOAD PUSH1 0x1 DUP2 ADD SWAP1 DUP2 DUP2 GT PUSH2 0x1D76 JUMPI PUSH1 0x20 DUP4 ADD MLOAD DUP2 LT ISZERO PUSH2 0x30F5 JUMPI JUMPDEST PUSH1 0x5B PUSH1 0x20 DUP5 MLOAD SWAP3 DUP4 ADD ADD MSTORE8 DUP1 MLOAD DUP3 GT PUSH2 0x2F56 JUMPI POP POP SWAP1 JUMP JUMPDEST DUP2 PUSH1 0x1 SHL DUP3 DUP2 DIV PUSH1 0x2 EQ DUP4 ISZERO OR ISZERO PUSH2 0x1D76 JUMPI PUSH2 0x3117 SWAP1 PUSH2 0x2F7C DUP6 MLOAD SWAP2 DUP7 PUSH2 0x2DEC JUMP JUMPDEST POP PUSH2 0x30DD JUMP JUMPDEST PUSH2 0x3125 PUSH2 0x2A58 JUMP JUMPDEST POP DUP1 MLOAD MLOAD PUSH1 0x1 DUP2 ADD SWAP1 DUP2 DUP2 GT PUSH2 0x1D76 JUMPI PUSH1 0x20 DUP4 ADD MLOAD DUP2 LT ISZERO PUSH2 0x315A JUMPI JUMPDEST PUSH1 0x5A PUSH1 0x20 DUP5 MLOAD SWAP3 DUP4 ADD ADD MSTORE8 DUP1 MLOAD DUP3 GT PUSH2 0x2F56 JUMPI POP POP SWAP1 JUMP JUMPDEST DUP2 PUSH1 0x1 SHL DUP3 DUP2 DIV PUSH1 0x2 EQ DUP4 ISZERO OR ISZERO PUSH2 0x1D76 JUMPI PUSH2 0x317C SWAP1 PUSH2 0x2F7C DUP6 MLOAD SWAP2 DUP7 PUSH2 0x2DEC JUMP JUMPDEST POP PUSH2 0x3142 JUMP JUMPDEST PUSH2 0x318A PUSH2 0x2A58 JUMP JUMPDEST POP DUP1 MLOAD MLOAD PUSH1 0x1 DUP2 ADD SWAP1 DUP2 DUP2 GT PUSH2 0x1D76 JUMPI PUSH1 0x20 DUP4 ADD MLOAD DUP2 LT ISZERO PUSH2 0x31BF JUMPI JUMPDEST PUSH1 0x59 PUSH1 0x20 DUP5 MLOAD SWAP3 DUP4 ADD ADD MSTORE8 DUP1 MLOAD DUP3 GT PUSH2 0x2F56 JUMPI POP POP SWAP1 JUMP JUMPDEST DUP2 PUSH1 0x1 SHL DUP3 DUP2 DIV PUSH1 0x2 EQ DUP4 ISZERO OR ISZERO PUSH2 0x1D76 JUMPI PUSH2 0x31E1 SWAP1 PUSH2 0x2F7C DUP6 MLOAD SWAP2 DUP7 PUSH2 0x2DEC JUMP JUMPDEST POP PUSH2 0x31A7 JUMP JUMPDEST PUSH2 0x31EF PUSH2 0x2A58 JUMP JUMPDEST POP DUP1 MLOAD MLOAD PUSH1 0x1 DUP2 ADD SWAP1 DUP2 DUP2 GT PUSH2 0x1D76 JUMPI PUSH1 0x20 DUP4 ADD MLOAD DUP2 LT ISZERO PUSH2 0x3224 JUMPI JUMPDEST PUSH1 0x58 PUSH1 0x20 DUP5 MLOAD SWAP3 DUP4 ADD ADD MSTORE8 DUP1 MLOAD DUP3 GT PUSH2 0x2F56 JUMPI POP POP SWAP1 JUMP JUMPDEST DUP2 PUSH1 0x1 SHL DUP3 DUP2 DIV PUSH1 0x2 EQ DUP4 ISZERO OR ISZERO PUSH2 0x1D76 JUMPI PUSH2 0x3246 SWAP1 PUSH2 0x2F7C DUP6 MLOAD SWAP2 DUP7 PUSH2 0x2DEC JUMP JUMPDEST POP PUSH2 0x320C JUMP JUMPDEST SWAP1 PUSH2 0x3255 PUSH2 0x2A58 JUMP JUMPDEST POP DUP2 MLOAD MLOAD PUSH1 0x1 DUP2 ADD SWAP2 DUP3 DUP3 GT PUSH2 0x1D76 JUMPI PUSH1 0x20 DUP5 ADD MLOAD DUP3 LT ISZERO PUSH2 0x3288 JUMPI JUMPDEST PUSH1 0x20 DUP5 MLOAD SWAP3 DUP4 ADD ADD MSTORE8 DUP1 MLOAD DUP3 GT PUSH2 0x2F56 JUMPI POP POP SWAP1 JUMP JUMPDEST DUP3 PUSH1 0x1 SHL DUP4 DUP2 DIV PUSH1 0x2 EQ DUP5 ISZERO OR ISZERO PUSH2 0x1D76 JUMPI PUSH2 0x32B1 SWAP1 PUSH2 0x32AA DUP7 MLOAD SWAP2 DUP8 PUSH2 0x2DEC JUMP JUMPDEST POP DUP6 PUSH2 0x2E3E JUMP JUMPDEST POP PUSH2 0x3272 JUMP JUMPDEST SWAP1 PUSH2 0x32C0 PUSH2 0x2A58 JUMP JUMPDEST POP DUP2 MLOAD MLOAD DUP1 PUSH1 0x8 ADD SWAP2 DUP3 PUSH1 0x8 GT PUSH2 0x1D76 JUMPI PUSH1 0x20 DUP5 ADD MLOAD DUP4 GT PUSH2 0x3302 JUMPI JUMPDEST PUSH1 0x8 DUP5 MLOAD SWAP3 DUP4 ADD ADD SWAP1 PUSH1 0x1 PUSH1 0x1 PUSH1 0x40 SHL SUB NOT DUP3 MLOAD AND OR SWAP1 MSTORE DUP1 MLOAD DUP3 GT PUSH2 0x2F56 JUMPI POP POP SWAP1 JUMP JUMPDEST DUP3 PUSH1 0x1 SHL DUP4 DUP2 DIV PUSH1 0x2 EQ DUP5 ISZERO OR ISZERO PUSH2 0x1D76 JUMPI PUSH2 0x3324 SWAP1 PUSH2 0x32AA DUP7 MLOAD SWAP2 DUP8 PUSH2 0x2DEC JUMP JUMPDEST POP PUSH2 0x32DD JUMP JUMPDEST SWAP1 PUSH2 0x3333 PUSH2 0x2A58 JUMP JUMPDEST POP DUP2 MLOAD MLOAD DUP1 PUSH1 0x4 ADD SWAP2 DUP3 PUSH1 0x4 GT PUSH2 0x1D76 JUMPI PUSH1 0x20 DUP5 ADD MLOAD DUP4 GT PUSH2 0x3372 JUMPI JUMPDEST PUSH1 0x4 DUP5 MLOAD SWAP3 DUP4 ADD ADD SWAP1 PUSH4 0xFFFFFFFF NOT DUP3 MLOAD AND OR SWAP1 MSTORE DUP1 MLOAD DUP3 GT PUSH2 0x2F56 JUMPI POP POP SWAP1 JUMP JUMPDEST DUP3 PUSH1 0x1 SHL DUP4 DUP2 DIV PUSH1 0x2 EQ DUP5 ISZERO OR ISZERO PUSH2 0x1D76 JUMPI PUSH2 0x3394 SWAP1 PUSH2 0x32AA DUP7 MLOAD SWAP2 DUP8 PUSH2 0x2DEC JUMP JUMPDEST POP PUSH2 0x3350 JUMP JUMPDEST SWAP1 PUSH2 0x33A3 PUSH2 0x2A58 JUMP JUMPDEST POP DUP2 MLOAD MLOAD DUP1 PUSH1 0x2 ADD SWAP2 DUP3 PUSH1 0x2 GT PUSH2 0x1D76 JUMPI PUSH1 0x20 DUP5 ADD MLOAD DUP4 GT PUSH2 0x33E0 JUMPI JUMPDEST PUSH1 0x2 DUP5 MLOAD SWAP3 DUP4 ADD ADD SWAP1 PUSH2 0xFFFF NOT DUP3 MLOAD AND OR SWAP1 MSTORE DUP1 MLOAD DUP3 GT PUSH2 0x2F56 JUMPI POP POP SWAP1 JUMP JUMPDEST DUP3 PUSH1 0x1 SHL DUP4 DUP2 DIV PUSH1 0x2 EQ DUP5 ISZERO OR ISZERO PUSH2 0x1D76 JUMPI PUSH2 0x3402 SWAP1 PUSH2 0x32AA DUP7 MLOAD SWAP2 DUP8 PUSH2 0x2DEC JUMP JUMPDEST POP PUSH2 0x33C0 JUMP JUMPDEST SWAP1 PUSH2 0x3411 PUSH2 0x2A58 JUMP JUMPDEST POP DUP2 MLOAD MLOAD DUP1 PUSH1 0x1 ADD SWAP2 DUP3 PUSH1 0x1 GT PUSH2 0x1D76 JUMPI PUSH1 0x20 DUP5 ADD MLOAD DUP4 GT PUSH2 0x344D JUMPI JUMPDEST PUSH1 0x1 DUP5 MLOAD SWAP3 DUP4 ADD ADD SWAP1 PUSH1 0xFF NOT DUP3 MLOAD AND OR SWAP1 MSTORE DUP1 MLOAD DUP3 GT PUSH2 0x2F56 JUMPI POP POP SWAP1 JUMP JUMPDEST DUP3 PUSH1 0x1 SHL DUP4 DUP2 DIV PUSH1 0x2 EQ DUP5 ISZERO OR ISZERO PUSH2 0x1D76 JUMPI PUSH2 0x346F SWAP1 PUSH2 0x32AA DUP7 MLOAD SWAP2 DUP8 PUSH2 0x2DEC JUMP JUMPDEST POP PUSH2 0x342E JUMP JUMPDEST ISZERO PUSH2 0x2AC JUMPI JUMP JUMPDEST SWAP2 SWAP1 PUSH2 0x3486 PUSH2 0x2A58 JUMP JUMPDEST POP PUSH2 0x3494 DUP2 MLOAD DUP4 GT ISZERO PUSH2 0x3475 JUMP JUMPDEST DUP3 MLOAD MLOAD SWAP2 PUSH1 0x20 PUSH2 0x34A4 DUP3 DUP6 PUSH2 0x2C33 JUMP JUMPDEST SWAP3 DUP2 SWAP4 DUP3 DUP8 ADD MLOAD DUP2 GT PUSH2 0x3511 JUMPI JUMPDEST DUP7 MLOAD DUP4 DUP2 MLOAD SWAP8 DUP3 ADD ADD SWAP7 DUP3 GT PUSH2 0x3509 JUMPI JUMPDEST POP POP ADD SWAP2 JUMPDEST DUP1 DUP3 LT ISZERO PUSH2 0x34ED JUMPI POP PUSH1 0x0 NOT SWAP1 PUSH1 0x20 SUB PUSH2 0x100 EXP ADD SWAP1 DUP2 NOT SWAP1 MLOAD AND SWAP1 DUP3 MLOAD AND OR SWAP1 MSTORE SWAP1 JUMP JUMPDEST SWAP1 SWAP2 SWAP3 PUSH2 0x2ED8 PUSH2 0x2ED2 PUSH2 0x3503 SWAP3 DUP7 MLOAD DUP2 MSTORE PUSH2 0x2C25 JUMP JUMPDEST SWAP1 PUSH2 0x34C8 JUMP JUMPDEST MSTORE CODESIZE DUP1 PUSH2 0x34C3 JUMP JUMPDEST PUSH2 0x3523 PUSH2 0x351D DUP3 PUSH2 0x2F03 JUMP JUMPDEST DUP9 PUSH2 0x3528 JUMP JUMPDEST PUSH2 0x34B2 JUMP JUMPDEST SWAP1 PUSH2 0x2B06 SWAP2 PUSH2 0x3539 DUP2 MLOAD SWAP3 DUP3 PUSH2 0x2DEC JUMP JUMPDEST POP PUSH2 0x2E3E JUMP INVALID ADD PUSH22 0xB7A638427703F0DBE7BB9BBF987A2551717B34E79F33 0xB5 0xB1 STOP DUP14 0x1F LOG0 SAR 0xB9 LOG2 PUSH5 0x6970667358 0x22 SLT KECCAK256 EXTCODECOPY PUSH24 0x93DD1030AE7D0B7D42F3D243C95B66A529F013FAC8CE271A 0x26 0xA6 0xC2 SDIV 0xF9 0x2A PUSH5 0x736F6C6343 STOP ADDMOD NOT STOP CALLER "},"methodIdentifiers":{"allFlaggedContent(uint256)":"f16fb433","allRequestIds(uint256)":"968e5a0d","allVerifiedContent(uint256)":"6bc9d5b3","authenticityNFT()":"01ff8b7d","donID()":"6e74336b","emergencyFlagContent(string)":"bc9df56f","flaggedContent(string)":"b32eaa0e","gasLimit()":"f68016b7","getAllFlaggedContent()":"f33b2491","getAllVerifiedContent()":"c8b22d24","getStatistics()":"372d6b27","getUserRequests(address)":"b337cf74","getVerificationResult(string)":"cddc911f","handleOracleFulfillment(bytes32,bytes,bytes)":"0ca76175","mintAuthenticityNFT(string)":"8047bc1d","nftMintFee()":"b9f83f06","owner()":"8da5cb5b","pause()":"8456cb59","paused()":"5c975abb","renounceOwnership()":"715018a6","requestVerification(string,string)":"4de2bfbf","sourceCode()":"13c60177","subscriptionId()":"09c1ba2e","totalAuthentic()":"35c1260d","totalFake()":"39ffbe0b","totalNFTsMinted()":"4eb7e95f","totalVerifications()":"ac90c140","transferOwnership(address)":"f2fde38b","unpause()":"3f4ba83a","updateChainlinkConfig(uint64,uint32,bytes32,string)":"79cb62b0","updateFees(uint256,uint256)":"6db79437","userRequests(address,uint256)":"263cb6b6","verificationFee()":"a8c278a2","verificationRequests(bytes32)":"0f3908c8","verificationResults(string)":"5a55977e","version()":"54fd4d50","withdrawFunds()":"24600fc3"}}}}}