{"contracts/TestContract.sol":{"TestContract":{"abi":[{"inputs":[],"name":"getName","outputs":[{"internalType":"string","name":"","type":"string"}],"stateMutability":"view","type":"function"},{"inputs":[],"name":"name","outputs":[{"internalType":"string","name":"","type":"string"}],"stateMutability":"view","type":"function"}],"evm":{"bytecode":{"linkReferences":{},"object":"60808060405234608b5760008054600190600181811c911680156082575b6020821014606e57601f81116048575b505060086315195cdd60e21b0190556101fe90816100918239f35b828052601f60208420910160051c8101905b81811060655750602d565b8381558201605a565b634e487b7160e01b83526022600452602483fd5b90607f1690601d565b600080fdfe6080604052600436101561001257600080fd5b6000803560e01c806306fdde0314610061576317d7de7c1461003357600080fd5b3461005e578060031936011261005e5761005a61004e610079565b6040519182918261017f565b0390f35b80fd5b503461005e578060031936011261005e5761005a61004e5b604051906000805460018160011c9060018316928315610175575b60209384841081146101615783885290811561014557506001146100f0575b505050829003601f01601f1916820167ffffffffffffffff8111838210176100da57604052565b634e487b7160e01b600052604160045260246000fd5b6000808052929350837f290decd9548b62a8d60345a988386fc84ba6bc95484008f6362f93160ef3e5635b83851061013157505050508301013880806100b3565b80548886018301529301928490820161011b565b60ff1916878501525050151560051b84010190503880806100b3565b634e487b7160e01b86526022600452602486fd5b91607f1691610094565b6020808252825181830181905290939260005b8281106101b457505060409293506000838284010152601f8019910116010190565b81810186015184820160400152850161019256fea2646970667358221220a049e387e5ec551d0989dbb1facfb609227da3dedef079b15fe31f746212d96164736f6c63430008190033","opcodes":"PUSH1 0x80 DUP1 PUSH1 0x40 MSTORE CALLVALUE PUSH1 0x8B JUMPI PUSH1 0x0 DUP1 SLOAD PUSH1 0x1 SWAP1 PUSH1 0x1 DUP2 DUP2 SHR SWAP2 AND DUP1 ISZERO PUSH1 0x82 JUMPI JUMPDEST PUSH1 0x20 DUP3 LT EQ PUSH1 0x6E JUMPI PUSH1 0x1F DUP2 GT PUSH1 0x48 JUMPI JUMPDEST POP POP PUSH1 0x8 PUSH4 0x15195CDD PUSH1 0xE2 SHL ADD SWAP1 SSTORE PUSH2 0x1FE SWAP1 DUP2 PUSH2 0x91 DUP3 CODECOPY RETURN JUMPDEST DUP3 DUP1 MSTORE PUSH1 0x1F PUSH1 0x20 DUP5 KECCAK256 SWAP2 ADD PUSH1 0x5 SHR DUP2 ADD SWAP1 JUMPDEST DUP2 DUP2 LT PUSH1 0x65 JUMPI POP PUSH1 0x2D JUMP JUMPDEST DUP4 DUP2 SSTORE DUP3 ADD PUSH1 0x5A JUMP JUMPDEST PUSH4 0x4E487B71 PUSH1 0xE0 SHL DUP4 MSTORE PUSH1 0x22 PUSH1 0x4 MSTORE PUSH1 0x24 DUP4 REVERT JUMPDEST SWAP1 PUSH1 0x7F AND SWAP1 PUSH1 0x1D JUMP JUMPDEST PUSH1 0x0 DUP1 REVERT INVALID PUSH1 0x80 PUSH1 0x40 MSTORE PUSH1 0x4 CALLDATASIZE LT ISZERO PUSH2 0x12 JUMPI PUSH1 0x0 DUP1 REVERT JUMPDEST PUSH1 0x0 DUP1 CALLDATALOAD PUSH1 0xE0 SHR DUP1 PUSH4 0x6FDDE03 EQ PUSH2 0x61 JUMPI PUSH4 0x17D7DE7C EQ PUSH2 0x33 JUMPI PUSH1 0x0 DUP1 REVERT JUMPDEST CALLVALUE PUSH2 0x5E JUMPI DUP1 PUSH1 0x3 NOT CALLDATASIZE ADD SLT PUSH2 0x5E JUMPI PUSH2 0x5A PUSH2 0x4E PUSH2 0x79 JUMP JUMPDEST PUSH1 0x40 MLOAD SWAP2 DUP3 SWAP2 DUP3 PUSH2 0x17F JUMP JUMPDEST SUB SWAP1 RETURN JUMPDEST DUP1 REVERT JUMPDEST POP CALLVALUE PUSH2 0x5E JUMPI DUP1 PUSH1 0x3 NOT CALLDATASIZE ADD SLT PUSH2 0x5E JUMPI PUSH2 0x5A PUSH2 0x4E JUMPDEST PUSH1 0x40 MLOAD SWAP1 PUSH1 0x0 DUP1 SLOAD PUSH1 0x1 DUP2 PUSH1 0x1 SHR SWAP1 PUSH1 0x1 DUP4 AND SWAP3 DUP4 ISZERO PUSH2 0x175 JUMPI JUMPDEST PUSH1 0x20 SWAP4 DUP5 DUP5 LT DUP2 EQ PUSH2 0x161 JUMPI DUP4 DUP9 MSTORE SWAP1 DUP2 ISZERO PUSH2 0x145 JUMPI POP PUSH1 0x1 EQ PUSH2 0xF0 JUMPI JUMPDEST POP POP POP DUP3 SWAP1 SUB PUSH1 0x1F ADD PUSH1 0x1F NOT AND DUP3 ADD PUSH8 0xFFFFFFFFFFFFFFFF DUP2 GT DUP4 DUP3 LT OR PUSH2 0xDA JUMPI PUSH1 0x40 MSTORE JUMP JUMPDEST PUSH4 0x4E487B71 PUSH1 0xE0 SHL PUSH1 0x0 MSTORE PUSH1 0x41 PUSH1 0x4 MSTORE PUSH1 0x24 PUSH1 0x0 REVERT JUMPDEST PUSH1 0x0 DUP1 DUP1 MSTORE SWAP3 SWAP4 POP DUP4 PUSH32 0x290DECD9548B62A8D60345A988386FC84BA6BC95484008F6362F93160EF3E563 JUMPDEST DUP4 DUP6 LT PUSH2 0x131 JUMPI POP POP POP POP DUP4 ADD ADD CODESIZE DUP1 DUP1 PUSH2 0xB3 JUMP JUMPDEST DUP1 SLOAD DUP9 DUP7 ADD DUP4 ADD MSTORE SWAP4 ADD SWAP3 DUP5 SWAP1 DUP3 ADD PUSH2 0x11B JUMP JUMPDEST PUSH1 0xFF NOT AND DUP8 DUP6 ADD MSTORE POP POP ISZERO ISZERO PUSH1 0x5 SHL DUP5 ADD ADD SWAP1 POP CODESIZE DUP1 DUP1 PUSH2 0xB3 JUMP JUMPDEST PUSH4 0x4E487B71 PUSH1 0xE0 SHL DUP7 MSTORE PUSH1 0x22 PUSH1 0x4 MSTORE PUSH1 0x24 DUP7 REVERT JUMPDEST SWAP2 PUSH1 0x7F AND SWAP2 PUSH2 0x94 JUMP JUMPDEST PUSH1 0x20 DUP1 DUP3 MSTORE DUP3 MLOAD DUP2 DUP4 ADD DUP2 SWAP1 MSTORE SWAP1 SWAP4 SWAP3 PUSH1 0x0 JUMPDEST DUP3 DUP2 LT PUSH2 0x1B4 JUMPI POP POP PUSH1 0x40 SWAP3 SWAP4 POP PUSH1 0x0 DUP4 DUP3 DUP5 ADD ADD MSTORE PUSH1 0x1F DUP1 NOT SWAP2 ADD AND ADD ADD SWAP1 JUMP JUMPDEST DUP2 DUP2 ADD DUP7 ADD MLOAD DUP5 DUP3 ADD PUSH1 0x40 ADD MSTORE DUP6 ADD PUSH2 0x192 JUMP INVALID LOG2 PUSH5 0x6970667358 0x22 SLT KECCAK256 LOG0 BLOBHASH 0xE3 DUP8 0xE5 0xEC SSTORE SAR MULMOD DUP10 0xDB 0xB1 STATICCALL 0xCF 0xB6 MULMOD 0x22 PUSH30 0xA3DEDEF079B15FE31F746212D96164736F6C634300081900330000000000 "},"methodIdentifiers":{"getName()":"17d7de7c","name()":"06fdde03"}}}}}