{"contracts/AuthenticityNFT.sol":{"AuthenticityNFT":{"abi":[{"inputs":[{"internalType":"string","name":"_name","type":"string"},{"internalType":"string","name":"_symbol","type":"string"},{"internalType":"string","name":"_baseURI","type":"string"},{"internalType":"address","name":"_initialOwner","type":"address"}],"stateMutability":"nonpayable","type":"constructor"},{"inputs":[],"name":"ApprovalCallerNotOwnerNorApproved","type":"error"},{"inputs":[],"name":"ApprovalQueryForNonexistentToken","type":"error"},{"inputs":[],"name":"BalanceQueryForZeroAddress","type":"error"},{"inputs":[],"name":"MintERC2309QuantityExceedsLimit","type":"error"},{"inputs":[],"name":"MintToZeroAddress","type":"error"},{"inputs":[],"name":"MintZeroQuantity","type":"error"},{"inputs":[],"name":"NotCompatibleWithSpotMints","type":"error"},{"inputs":[{"internalType":"address","name":"owner","type":"address"}],"name":"OwnableInvalidOwner","type":"error"},{"inputs":[{"internalType":"address","name":"account","type":"address"}],"name":"OwnableUnauthorizedAccount","type":"error"},{"inputs":[],"name":"OwnerQueryForNonexistentToken","type":"error"},{"inputs":[],"name":"OwnershipNotInitializedForExtraData","type":"error"},{"inputs":[],"name":"ReentrancyGuardReentrantCall","type":"error"},{"inputs":[],"name":"SequentialMintExceedsLimit","type":"error"},{"inputs":[],"name":"SequentialUpToTooSmall","type":"error"},{"inputs":[],"name":"SpotMintTokenIdTooSmall","type":"error"},{"inputs":[],"name":"TokenAlreadyExists","type":"error"},{"inputs":[],"name":"TransferCallerNotOwnerNorApproved","type":"error"},{"inputs":[],"name":"TransferFromIncorrectOwner","type":"error"},{"inputs":[],"name":"TransferToNonERC721ReceiverImplementer","type":"error"},{"inputs":[],"name":"TransferToZeroAddress","type":"error"},{"inputs":[],"name":"URIQueryForNonexistentToken","type":"error"},{"anonymous":false,"inputs":[{"indexed":true,"internalType":"address","name":"owner","type":"address"},{"indexed":true,"internalType":"address","name":"approved","type":"address"},{"indexed":true,"internalType":"uint256","name":"tokenId","type":"uint256"}],"name":"Approval","type":"event"},{"anonymous":false,"inputs":[{"indexed":true,"internalType":"address","name":"owner","type":"address"},{"indexed":true,"internalType":"address","name":"operator","type":"address"},{"indexed":false,"internalType":"bool","name":"approved","type":"bool"}],"name":"ApprovalForAll","type":"event"},{"anonymous":false,"inputs":[{"indexed":true,"internalType":"address","name":"to","type":"address"},{"indexed":true,"internalType":"uint256","name":"tokenId","type":"uint256"},{"indexed":false,"internalType":"string","name":"ipfsHash","type":"string"},{"indexed":false,"internalType":"uint256","name":"confidenceScore","type":"uint256"},{"indexed":false,"internalType":"string","name":"aiModel","type":"string"},{"indexed":false,"internalType":"uint256","name":"timestamp","type":"uint256"}],"name":"AuthenticityNFTMinted","type":"event"},{"anonymous":false,"inputs":[{"indexed":false,"internalType":"string","name":"oldBaseURI","type":"string"},{"indexed":false,"internalType":"string","name":"newBaseURI","type":"string"},{"indexed":false,"internalType":"uint256","name":"timestamp","type":"uint256"}],"name":"BaseURIUpdated","type":"event"},{"anonymous":false,"inputs":[{"indexed":true,"internalType":"uint256","name":"fromTokenId","type":"uint256"},{"indexed":false,"internalType":"uint256","name":"toTokenId","type":"uint256"},{"indexed":true,"internalType":"address","name":"from","type":"address"},{"indexed":true,"internalType":"address","name":"to","type":"address"}],"name":"ConsecutiveTransfer","type":"event"},{"anonymous":false,"inputs":[{"indexed":true,"internalType":"address","name":"minter","type":"address"},{"indexed":false,"internalType":"bool","name":"authorized","type":"bool"},{"indexed":false,"internalType":"uint256","name":"timestamp","type":"uint256"}],"name":"MinterAuthorized","type":"event"},{"anonymous":false,"inputs":[{"indexed":true,"internalType":"uint256","name":"tokenId","type":"uint256"},{"indexed":false,"internalType":"string","name":"reason","type":"string"},{"indexed":false,"internalType":"uint256","name":"timestamp","type":"uint256"}],"name":"NFTRevoked","type":"event"},{"anonymous":false,"inputs":[{"indexed":true,"internalType":"address","name":"previousOwner","type":"address"},{"indexed":true,"internalType":"address","name":"newOwner","type":"address"}],"name":"OwnershipTransferred","type":"event"},{"anonymous":false,"inputs":[{"indexed":true,"internalType":"address","name":"from","type":"address"},{"indexed":true,"internalType":"address","name":"to","type":"address"},{"indexed":true,"internalType":"uint256","name":"tokenId","type":"uint256"}],"name":"Transfer","type":"event"},{"inputs":[{"internalType":"address","name":"to","type":"address"},{"internalType":"uint256","name":"tokenId","type":"uint256"}],"name":"approve","outputs":[],"stateMutability":"payable","type":"function"},{"inputs":[{"internalType":"address","name":"","type":"address"}],"name":"authorizedMinters","outputs":[{"internalType":"bool","name":"","type":"bool"}],"stateMutability":"view","type":"function"},{"inputs":[{"internalType":"address","name":"owner","type":"address"}],"name":"balanceOf","outputs":[{"internalType":"uint256","name":"","type":"uint256"}],"stateMutability":"view","type":"function"},{"inputs":[],"name":"baseURI","outputs":[{"internalType":"string","name":"","type":"string"}],"stateMutability":"view","type":"function"},{"inputs":[{"internalType":"uint256","name":"tokenId","type":"uint256"}],"name":"getApproved","outputs":[{"internalType":"address","name":"","type":"address"}],"stateMutability":"view","type":"function"},{"inputs":[],"name":"getStatistics","outputs":[{"internalType":"uint256","name":"totalMinted_","type":"uint256"},{"internalType":"uint256","name":"totalRevoked_","type":"uint256"},{"internalType":"uint256","name":"totalActive","type":"uint256"}],"stateMutability":"view","type":"function"},{"inputs":[{"internalType":"string","name":"_ipfsHash","type":"string"}],"name":"getTokenIdByIPFS","outputs":[{"internalType":"uint256","name":"","type":"uint256"}],"stateMutability":"view","type":"function"},{"inputs":[{"internalType":"uint256","name":"_tokenId","type":"uint256"}],"name":"getTokenMetadata","outputs":[{"components":[{"internalType":"string","name":"ipfsHash","type":"string"},{"internalType":"uint256","name":"confidenceScore","type":"uint256"},{"internalType":"string","name":"aiModel","type":"string"},{"internalType":"uint256","name":"verificationTimestamp","type":"uint256"},{"internalType":"address","name":"originalRequester","type":"address"},{"internalType":"bool","name":"isRevoked","type":"bool"}],"internalType":"struct AuthenticityNFT.AuthenticityMetadata","name":"","type":"tuple"}],"stateMutability":"view","type":"function"},{"inputs":[{"internalType":"address","name":"_owner","type":"address"}],"name":"getTokensByOwner","outputs":[{"internalType":"uint256[]","name":"","type":"uint256[]"}],"stateMutability":"view","type":"function"},{"inputs":[{"internalType":"string","name":"","type":"string"}],"name":"ipfsToTokenId","outputs":[{"internalType":"uint256","name":"","type":"uint256"}],"stateMutability":"view","type":"function"},{"inputs":[{"internalType":"address","name":"owner","type":"address"},{"internalType":"address","name":"operator","type":"address"}],"name":"isApprovedForAll","outputs":[{"internalType":"bool","name":"","type":"bool"}],"stateMutability":"view","type":"function"},{"inputs":[{"internalType":"uint256","name":"_tokenId","type":"uint256"}],"name":"isValidNFT","outputs":[{"internalType":"bool","name":"","type":"bool"}],"stateMutability":"view","type":"function"},{"inputs":[{"internalType":"address","name":"_to","type":"address"},{"internalType":"string","name":"_ipfsHash","type":"string"},{"internalType":"uint256","name":"_confidenceScore","type":"uint256"},{"internalType":"string","name":"_aiModel","type":"string"}],"name":"mintAuthenticityNFT","outputs":[{"internalType":"uint256","name":"","type":"uint256"}],"stateMutability":"nonpayable","type":"function"},{"inputs":[],"name":"name","outputs":[{"internalType":"string","name":"","type":"string"}],"stateMutability":"view","type":"function"},{"inputs":[],"name":"owner","outputs":[{"internalType":"address","name":"","type":"address"}],"stateMutability":"view","type":"function"},{"inputs":[{"internalType":"uint256","name":"tokenId","type":"uint256"}],"name":"ownerOf","outputs":[{"internalType":"address","name":"","type":"address"}],"stateMutability":"view","type":"function"},{"inputs":[],"name":"renounceOwnership","outputs":[],"stateMutability":"nonpayable","type":"function"},{"inputs":[{"internalType":"uint256","name":"_tokenId","type":"uint256"},{"internalType":"string","name":"_reason","type":"string"}],"name":"revokeNFT","outputs":[],"stateMutability":"nonpayable","type":"function"},{"inputs":[{"internalType":"address","name":"from","type":"address"},{"internalType":"address","name":"to","type":"address"},{"internalType":"uint256","name":"tokenId","type":"uint256"}],"name":"safeTransferFrom","outputs":[],"stateMutability":"payable","type":"function"},{"inputs":[{"internalType":"address","name":"from","type":"address"},{"internalType":"address","name":"to","type":"address"},{"internalType":"uint256","name":"tokenId","type":"uint256"},{"internalType":"bytes","name":"_data","type":"bytes"}],"name":"safeTransferFrom","outputs":[],"stateMutability":"payable","type":"function"},{"inputs":[{"internalType":"address","name":"operator","type":"address"},{"internalType":"bool","name":"approved","type":"bool"}],"name":"setApprovalForAll","outputs":[],"stateMutability":"nonpayable","type":"function"},{"inputs":[{"internalType":"address","name":"_minter","type":"address"},{"internalType":"bool","name":"_authorized","type":"bool"}],"name":"setAuthorizedMinter","outputs":[],"stateMutability":"nonpayable","type":"function"},{"inputs":[{"internalType":"string","name":"_baseURI","type":"string"}],"name":"setBaseURI","outputs":[],"stateMutability":"nonpayable","type":"function"},{"inputs":[{"internalType":"bytes4","name":"interfaceId","type":"bytes4"}],"name":"supportsInterface","outputs":[{"internalType":"bool","name":"","type":"bool"}],"stateMutability":"view","type":"function"},{"inputs":[],"name":"symbol","outputs":[{"internalType":"string","name":"","type":"string"}],"stateMutability":"view","type":"function"},{"inputs":[{"internalType":"uint256","name":"","type":"uint256"}],"name":"tokenMetadata","outputs":[{"internalType":"string","name":"ipfsHash","type":"string"},{"internalType":"uint256","name":"confidenceScore","type":"uint256"},{"internalType":"string","name":"aiModel","type":"string"},{"internalType":"uint256","name":"verificationTimestamp","type":"uint256"},{"internalType":"address","name":"originalRequester","type":"address"},{"internalType":"bool","name":"isRevoked","type":"bool"}],"stateMutability":"view","type":"function"},{"inputs":[{"internalType":"uint256","name":"_tokenId","type":"uint256"}],"name":"tokenURI","outputs":[{"internalType":"string","name":"","type":"string"}],"stateMutability":"view","type":"function"},{"inputs":[],"name":"totalMinted","outputs":[{"internalType":"uint256","name":"","type":"uint256"}],"stateMutability":"view","type":"function"},{"inputs":[],"name":"totalRevoked","outputs":[{"internalType":"uint256","name":"","type":"uint256"}],"stateMutability":"view","type":"function"},{"inputs":[],"name":"totalSupply","outputs":[{"internalType":"uint256","name":"result","type":"uint256"}],"stateMutability":"view","type":"function"},{"inputs":[{"internalType":"address","name":"from","type":"address"},{"internalType":"address","name":"to","type":"address"},{"internalType":"uint256","name":"tokenId","type":"uint256"}],"name":"transferFrom","outputs":[],"stateMutability":"payable","type":"function"},{"inputs":[{"internalType":"address","name":"newOwner","type":"address"}],"name":"transferOwnership","outputs":[],"stateMutability":"nonpayable","type":"function"},{"inputs":[],"name":"version","outputs":[{"internalType":"string","name":"","type":"string"}],"stateMutability":"pure","type":"function"}],"evm":{"bytecode":{"linkReferences":{},"object":"6080604052346100a85761314b80380380610019816100c3565b9283398101906080818303126100a85780516001600160401b0391908281116100a857836100489183016100ed565b9260208201518381116100a857816100619184016100ed565b9260408301519081116100a85760609161007c9184016100ed565b910151916001600160a01b03831683036100a85761009993610464565b604051612b5e90816105ed8239f35b600080fd5b634e487b7160e01b600052604160045260246000fd5b6040519190601f01601f191682016001600160401b038111838210176100e857604052565b6100ad565b919080601f840112156100a85782516001600160401b0381116100e85760209061011f601f8201601f191683016100c3565b928184528282870101116100a85760005b81811061014557508260009394955001015290565b8581018301518482018401528201610130565b90600182811c92168015610188575b602083101461017257565b634e487b7160e01b600052602260045260246000fd5b91607f1691610167565b601f811161019e575050565b60009060026000526020600020906020601f850160051c830194106101de575b601f0160051c01915b8281106101d357505050565b8181556001016101c7565b90925082906101be565b601f81116101f4575050565b60009060036000526020600020906020601f850160051c83019410610234575b601f0160051c01915b82811061022957505050565b81815560010161021d565b9092508290610214565b601f811161024a575050565b600090600b6000526020600020906020601f850160051c8301941061028a575b601f0160051c01915b82811061027f57505050565b818155600101610273565b909250829061026a565b80519091906001600160401b0381116100e8576102bb816102b6600354610158565b6101e8565b602080601f83116001146102fe575081906102ee93946000926102f3575b50508160011b916000199060031b1c19161790565b600355565b0151905038806102d9565b6003600052601f198316949091907fc2575a0e9e593c00f959f8c92f12db2869c3395a3b0502d05e2516446f71f85b926000905b87821061036a575050836001959610610351575b505050811b01600355565b015160001960f88460031b161c19169055388080610346565b80600185968294968601518155019501930190610332565b80519091906001600160401b0381116100e8576103a9816103a4600b54610158565b61023e565b602080601f83116001146103e0575081906103db93946000926102f35750508160011b916000199060031b1c19161790565b600b55565b600b600052601f198316949091907f0175b7a638427703f0dbe7bb9bbf987a2551717b34e79f33b5b1008d1fa01db9926000905b87821061044c575050836001959610610433575b505050811b01600b55565b015160001960f88460031b161c19169055388080610428565b80600185968294968601518155019501930190610414565b8051906001600160401b0382116100e85761048982610484600254610158565b610192565b602090816001601f851114610517575091806104c0926104c895946000926102f35750508160011b916000199060031b1c19161790565b600255610294565b6104d26001600055565b6001600160a01b038216156104fe576104ed6104fc926105a3565b6104f76001600a55565b610382565b565b604051631e4fbdf760e01b815260006004820152602490fd5b60026000529190601f1984167f405787fa12a823e0f2b7631cc41b3ba8828b3321ca811111fa75cd3aa3bb5ace936000905b82821061058b5750509160019391856104c897969410610572575b505050811b01600255610294565b015160001960f88460031b161c19169055388080610564565b80600186978294978701518155019601940190610549565b600980546001600160a01b039283166001600160a01b0319821681179092559091167f8be0079c531659141344cd1fd0a4f28419497f9722a3daafe3b4186f6b6457e0600080a356fe6080604052600436101561001257600080fd5b60003560e01c806301ffc9a71461022257806306fdde031461021d578063081812fc14610218578063095ea7b31461021357806318160ddd1461020e57806323b872dd14610209578063372d6b271461020457806340398d67146101ff57806342842e0e146101fa57806354fd4d50146101f5578063558381e7146101f057806355f804b3146101eb57806360316801146101e65780636352211e146101e15780636914db60146101dc5780636c0360eb146101d757806370a08231146101d2578063715018a6146101cd5780638da5cb5b146101c85780639450b3d6146101c357806395d89b41146101be578063a22cb465146101b9578063a2309ff8146101b4578063a2f1c87b146101af578063aa2fe91b146101aa578063b04458ca14610187578063b88d4fde146101a5578063c87b56dd146101a0578063e62ce7ac1461019b578063e985e9c514610196578063ed58bad814610191578063f2fde38b1461018c5763feb449881461018757600080fd5b61134c565b61151c565b611461565b611404565b6113e6565b6113c7565b61136d565b61130d565b6112e5565b6112c7565b61123e565b611167565b610f9a565b610f71565b610f13565b610ee8565b610eb8565b610e1e565b610c60565b610b9b565b6109e8565b6108a1565b610760565b61073d565b61060e565b610596565b610582565b610526565b610470565b6103f1565b610308565b61023e565b6001600160e01b031981160361023957565b600080fd5b3461023957602036600319011261023957602060043561025d81610227565b63ffffffff60e01b166301ffc9a760e01b811490811561029b575b811561028a575b506040519015158152f35b635b5e139f60e01b1490503861027f565b6380ac58cd60e01b81149150610278565b60005b8381106102bf5750506000910152565b81810151838201526020016102af565b906020916102e8815180928185528580860191016102ac565b601f01601f1916010190565b9060206103059281815201906102cf565b90565b34610239576000806003193601126103ee5760405190806002549061032c82610c8f565b808552916020916001918281169081156103c15750600114610369575b6103658661035981880382610804565b604051918291826102f4565b0390f35b9350600284527f405787fa12a823e0f2b7631cc41b3ba8828b3321ca811111fa75cd3aa3bb5ace5b8385106103ae575050505081016020016103598261036538610349565b8054868601840152938201938101610391565b90508695506103659693506020925061035994915060ff191682840152151560051b820101929338610349565b80fd5b346102395760203660031901126102395760043561040e81611e96565b15610433576000526006602052602060018060a01b0360406000205416604051908152f35b6333d1c03960e21b60005260046000fd5b600435906001600160a01b038216820361023957565b602435906001600160a01b038216820361023957565b604036600319011261023957610484610444565b6024356001600160a01b038061049983611f46565b16908133036104f4575b600083815260066020526040812080546001600160a01b0319166001600160a01b0387161790559316907f8c5be1e5ebec7d5bd14f71427d1e84f3dd0314c0f7b2291e5b200ac8c7c3b9258480a480f35b600082815260076020908152604080832033845290915290205460ff166104a3576367d9dca160e11b60005260046000fd5b34610239576000366003190112610239576000546001546040519103600019018152602090f35b6060906003190112610239576001600160a01b0390600435828116810361023957916024359081168103610239579060443590565b61059461058e3661054d565b916115e7565b005b3461023957600036600319011261023957600f54601054908181038181116105cd5760609260405192835260208301526040820152f35b611797565b602090602060408183019282815285518094520193019160005b8281106105fa575050505090565b8351855293810193928101926001016105ec565b3461023957602036600319011261023957610627610444565b6001600160a01b0381169081156107005761064190611a80565b61064a816117d3565b9060006106586000546117ad565b6001929083805b610672575b6040518061036588826105d2565b61067b82611814565b8110806106f7575b156106f25761069181611e96565b806106cc575b6106ab575b6106a590611805565b8461065f565b926106c481856106be6106a5948a611830565b52611805565b93905061069c565b50866106ec6106e06106e06106e085611f46565b6001600160a01b031690565b14610697565b610664565b50828410610683565b60405162461bcd60e51b8152602060048201526015602482015274496e76616c6964206f776e6572206164647265737360581b6044820152606490fd5b6105946107493661054d565b9060405192610757846107e9565b60008452611dc5565b346102395760003660031901126102395760405160408101908082106001600160401b038311176107b8576103659160405260058152640312e302e360dc1b60208201526040519182916020835260208301906102cf565b634e487b7160e01b600052604160045260246000fd5b60c081019081106001600160401b038211176107b857604052565b602081019081106001600160401b038211176107b857604052565b90601f801991011681019081106001600160401b038211176107b857604052565b60405190610832826107ce565b565b6001600160401b0381116107b857601f01601f191660200190565b92919261085b82610834565b916108696040519384610804565b829481845281830111610239578281602093846000960137010152565b9080601f83011215610239578160206103059335910161084f565b34610239576040366003190112610239576004356024356001600160401b038111610239576108d4903690600401610886565b6108dc612063565b6108ed6108e883611e96565b61186d565b81600052600c60205260ff60046040600020015460a01c166109815761097c7fd0571d484577e1a5e8a246e15dccfc8d2acb13e80e0320b06dae36de6d79ed719161095b600461094786600052600c602052604060002090565b01805460ff60a01b1916600160a01b179055565b61096e610969601054611805565b601055565b6040519182914290836118b0565b0390a2005b60405162461bcd60e51b8152602060048201526015602482015274151bdad95b88185b1c9958591e481c995d9bdad959605a1b6044820152606490fd5b602060031982011261023957600435906001600160401b0382116102395761030591600401610886565b34610239576109f6366109be565b6109fe612063565b610a06610cc9565b8151916001600160401b0383116107b857610a2b83610a26600b54610c8f565b6118cc565b602080601f8511600114610aa25750837fbf854ac1b3492efdc6a78402a969f9b4aa9315253853a9fe2ab02ff8f2d5563994610a7d92600091610a97575b508160011b916000199060031b1c19161790565b600b555b610a92604051928392429184611a57565b0390a1005b905083015138610a69565b600b60005290601f198516600080516020612b09833981519152926000905b828210610b1e5750509185917fbf854ac1b3492efdc6a78402a969f9b4aa9315253853a9fe2ab02ff8f2d556399660019410610b05575b5050811b01600b55610a81565b84015160001960f88460031b161c191690553880610af8565b80600185968294968901518155019501930190610ac1565b6020815260c060a0610b76610b56855184602087015260e08601906102cf565b602086015160408601526040860151601f198683030160608701526102cf565b9360608101516080850152600180831b03608082015116828501520151151591015290565b346102395760203660031901126102395761036560a060043560409182918251610bc4816107ce565b6060815260009281846020819401526060868201528260608201528260808201520152610bf36108e882611e96565b8152600c602052209060ff6004825193610c0c856107ce565b610c1581610d7b565b855260018101546020860152610c2d60028201610d7b565b8486015260038101546060860152015460018060a01b038116608085015260a01c16151560a08301525191829182610b36565b346102395760203660031901126102395760206001600160a01b03610c86600435611f46565b16604051908152f35b90600182811c92168015610cbf575b6020831014610ca957565b634e487b7160e01b600052602260045260246000fd5b91607f1691610c9e565b60405190600082600b5491610cdd83610c8f565b80835292602090600190818116908115610d575750600114610d08575b505061083292500383610804565b915092600b600052600080516020612b09833981519152936000925b828410610d3f57506108329450505081016020013880610cfa565b85548885018301529485019487945092810192610d24565b9150506020925061083294915060ff191682840152151560051b8201013880610cfa565b90604051918260008254610d8e81610c8f565b90818452602094600191600181169081600014610dfc5750600114610dbd575b50505061083292500383610804565b600090815285812095935091905b818310610de45750506108329350820101388080610dae565b85548884018501529485019487945091830191610dcb565b9250505061083294925060ff191682840152151560051b820101388080610dae565b3461023957602036600319011261023957600435600052600c602052610e826040600020610e4b81610d7b565b9060ff6001820154610e95610e6260028501610d7b565b91600460038601549501549260405197889760c0895260c08901906102cf565b91602088015286820360408801526102cf565b92606085015260018060a01b038116608085015260a01c16151560a08301520390f35b3461023957600036600319011261023957610365610ed4610cc9565b6040519182916020835260208301906102cf565b34610239576020366003190112610239576020610f0b610f06610444565b611a80565b604051908152f35b34610239576000806003193601126103ee57610f2d612063565b600980546001600160a01b0319811690915581906001600160a01b03167f8be0079c531659141344cd1fd0a4f28419497f9722a3daafe3b4186f6b6457e08280a380f35b34610239576000366003190112610239576009546040516001600160a01b039091168152602090f35b3461023957608036600319011261023957610fb3610444565b6001600160401b039060243582811161023957610fd4903690600401610886565b906044359260643590811161023957610ff1903690600401610886565b916002600a5414611155577f635ec4f27e96d361299e978a3dc7b7a7fd0b1293b1787b48d0b2b52c72b8b8d561111f93610365956002600a5561105861105361104c3360018060a01b0316600052600e602052604060002090565b5460ff1690565b611aba565b6001600160a01b0385169361112d90611072861515611aff565b61107e81511515611b4b565b60328310158061114a575b61109290611b8b565b6110a561109e826115c1565b5415611bd7565b6000549788976110fc6110b6610825565b84815260208101879052604081018890524260608201526001600160a01b0383166080820152600060a08201526110f78b600052600c602052604060002090565b611c2f565b88611106846115c1565b5561111a611115600f54611805565b600f55565b61208f565b604051938493429285611d7a565b0390a361113a6001600a55565b6040519081529081906020820190565b506064831115611089565b604051633ee5aeb560e01b8152600490fd5b34610239576000806003193601126103ee5760405190806003549061118b82610c8f565b808552916020916001918281169081156103c157506001146111b7576103658661035981880382610804565b9350600384527fc2575a0e9e593c00f959f8c92f12db2869c3395a3b0502d05e2516446f71f85b5b8385106111fc575050505081016020016103598261036538610349565b80548686018401529382019381016111df565b6040906003190112610239576004356001600160a01b0381168103610239579060243580151581036102395790565b346102395761124c3661120f565b9033600052600760205261128b8261127a8360406000209060018060a01b0316600052602052604060002090565b9060ff801983541691151516179055565b60405191151582526001600160a01b03169033907f17307eab39ab6107e8899845ad3d59bd9653f200f220920489ca2b5937696c3190602090a3005b34610239576000366003190112610239576020600f54604051908152f35b34610239576020366003190112610239576020611303600435611d96565b6040519015158152f35b34610239576020366003190112610239576001600160a01b0361132e610444565b16600052600e602052602060ff604060002054166040519015158152f35b3461023957602061136461135f366109be565b6115c1565b54604051908152f35b608036600319011261023957611381610444565b61138961045a565b606435916001600160401b0383116102395736602384011215610239576113bd61059493369060248160040135910161084f565b9160443591611dc5565b3461023957602036600319011261023957610365610ed4600435611e08565b34610239576000366003190112610239576020601054604051908152f35b3461023957604036600319011261023957602060ff611455611424610444565b61142c61045a565b6001600160a01b0391821660009081526007865260408082209290931681526020919091522090565b54166040519015158152f35b346102395761146f3661120f565b90611478612063565b6001600160a01b03169081156114de5760407f0aa0c2b5ea5c9f3fcc4c06f9e39f6afdbadc432e7617f393e5f17f31412d3ca59183600052600e6020526114ce81836000209060ff801983541691151516179055565b81519015158152426020820152a2005b60405162461bcd60e51b8152602060048201526016602482015275496e76616c6964206d696e746572206164647265737360501b6044820152606490fd5b3461023957602036600319011261023957611535610444565b61153d612063565b6001600160a01b0390811690811561159157600954826bffffffffffffffffffffffff60a01b821617600955167f8be0079c531659141344cd1fd0a4f28419497f9722a3daafe3b4186f6b6457e0600080a3005b604051631e4fbdf760e01b815260006004820152602490fd5b906115bd602092828151948592016102ac565b0190565b60206115da9181604051938285809451938492016102ac565b8101600d81520301902090565b9190916115f382611f46565b6001600160a01b03918216939082811685900361179257600084815260066020526040902080546116376001600160a01b03881633908114908314171590565b1590565b61174b575b6116468688611fce565b611741575b506001600160a01b038516600090815260056020526040902080546000190190556001600160a01b0382166000908152600560205260409020805460010190556001600160a01b0382164260a01b17600160e11b176116b4856000526004602052604060002090565b55600160e11b8116156116f7575b501680927fddf252ad1be2c89b69c2b068fc378daa952ba7f163c4a11628f55a4df523b3ef600080a4156116f257565b611f24565b6001840161170f816000526004602052604060002090565b541561171c575b506116c2565b600054811461171657611739906000526004602052604060002090565b553880611716565b600090553861164b565b61178861163361104c336117718b60018060a01b03166000526007602052604060002090565b9060018060a01b0316600052602052604060002090565b1561163c57611f13565b611f03565b634e487b7160e01b600052601160045260246000fd5b6000198101919082116105cd57565b6001600160401b0381116107b85760051b60200190565b906117dd826117bc565b6117ea6040519182610804565b82815280926117fb601f19916117bc565b0190602036910137565b60001981146105cd5760010190565b60010190816001116105cd57565b90600282018092116105cd57565b80518210156118445760209160051b010190565b634e487b7160e01b600052603260045260246000fd5b60405190611867826107e9565b60008252565b1561187457565b60405162461bcd60e51b8152602060048201526014602482015273151bdad95b88191bd95cc81b9bdd08195e1a5cdd60621b6044820152606490fd5b9291906118c76020916040865260408601906102cf565b930152565b601f81116118d8575050565b600090600b600052600080516020612b09833981519152906020601f850160051c83019410611922575b601f0160051c01915b82811061191757505050565b81815560010161190b565b9092508290611902565b90601f811161193a57505050565b6000916000526020600020906020601f850160051c83019410611978575b601f0160051c01915b82811061196d57505050565b818155600101611961565b9092508290611958565b91909182516001600160401b0381116107b8576119a9816119a38454610c8f565b8461192c565b602080601f83116001146119ec575081906119dd9394956000926119e1575b50508160011b916000199060031b1c19161790565b9055565b0151905038806119c8565b90601f19831695611a0285600052602060002090565b926000905b888210611a3f57505083600195969710611a26575b505050811b019055565b015160001960f88460031b161c19169055388080611a1c565b80600185968294968601518155019501930190611a07565b9392916118c790611a726040936060885260608801906102cf565b9086820360208801526102cf565b6001600160a01b03168015611aa95760005260056020526001600160401b036040600020541690565b6323d3ad8160e21b60005260046000fd5b15611ac157565b60405162461bcd60e51b8152602060048201526016602482015275139bdd08185d5d1a1bdc9a5e9959081d1bc81b5a5b9d60521b6044820152606490fd5b15611b0657565b60405162461bcd60e51b815260206004820152601b60248201527f43616e6e6f74206d696e7420746f207a65726f206164647265737300000000006044820152606490fd5b15611b5257565b60405162461bcd60e51b8152602060048201526011602482015270092dcecc2d8d2c84092a08ca640d0c2e6d607b1b6044820152606490fd5b15611b9257565b60405162461bcd60e51b815260206004820152601860248201527f496e76616c696420636f6e666964656e63652073636f726500000000000000006044820152606490fd5b15611bde57565b60405162461bcd60e51b815260206004820152602360248201527f4e465420616c72656164792065786973747320666f72207468697320636f6e74604482015262195b9d60ea1b6064820152608490fd5b919080519283516001600160401b0381116107b857611c52816119a38454610c8f565b602080601f8311600114611cfe5750611ce492611c908360a094600494610832999a6000926119e15750508160011b916000199060031b1c19161790565b81555b60208501516001820155611cae604086015160028301611982565b606085015160038201556080850151910180546001600160a01b0319166001600160a01b03909216919091178155920151151590565b815460ff60a01b191690151560a01b60ff60a01b16179055565b90601f19831696611d1485600052602060002090565b926000905b898210611d6257505083600493611ce4969360019360a0976108329b9c10611d49575b505050811b018155611c93565b015160001960f88460031b161c19169055388080611d3c565b80600185968294968601518155019501930190611d19565b94939291606092610e826118c7936080895260808901906102cf565b611d9f81611e96565b15611dbf57600052600c60205260ff60046040600020015460a01c161590565b50600090565b929190611dd38282866115e7565b803b611de0575b50505050565b611de993612199565b15611df75738808080611dda565b6368d2bf6b60e11b60005260046000fd5b611e146108e882611e96565b80600052600c602052604060002060ff600460405192611e33846107ce565b611e3c81610d7b565b845260018101546020850152611e5460028201610d7b565b604085015260038101546060850152015460018060a01b038116608084015260a01c1615158060a0830152611e8c5761030591612494565b50610305906122cd565b600091906001908381831115611eab57505050565b6000548210611eb957505050565b829394506000929192935b611ed6575b505050600160e01b161590565b828152600460205260408120549350909183611efe5780156105cd5760001901919081611ec4565b611ec9565b62a1148160e81b60005260046000fd5b632ce44b5f60e11b60005260046000fd5b633a954ecd60e21b60005260046000fd5b636f96cda160e11b60005260046000fd5b60019080600111611f3557611f65816000526004602052604060002090565b54918215611f82575b5050600160e01b8116156103055780611f35565b600054821015611f355790815b15611f6e5790915060001901611faf816000526004602052604060002090565b54918215611fc7575050600160e01b8116611f355790565b9081611f8f565b6001600160a01b031615612060576000805b60018110611fed57505050565b8083018084116105cd5782526020600c8152600490604060ff83828720015460a01c1661201f57505050600101611fe0565b5162461bcd60e51b815291820152601b60248201527f43616e6e6f74207472616e73666572207265766f6b6564204e46540000000000604482015260649150fd5b50565b6009546001600160a01b0316330361207757565b60405163118cdaa760e01b8152336004820152602490fd5b60008054916001600160a01b0381164260a01b17600160e11b176120bd846000526004602052604060002090565b556001600160a01b03166000818152600560205260409020805468010000000000000001019055801561214657600183810193919080805b612101575b5050505055565b15612135575b83818484877fddf252ad1be2c89b69c2b068fc378daa952ba7f163c4a11628f55a4df523b3ef8180a46120f5565b8092019184830361210757806120fa565b622e076360e81b8252600482fd5b90816020910312610239575161030581610227565b3d15612194573d9061217a82610834565b916121886040519384610804565b82523d6000602084013e565b606090565b926020916121e293600060018060a01b0360405180978196829584630a85bd0160e11b9c8d865233600487015216602485015260448401526080606484015260848301906102cf565b0393165af16000918161221f575b50612211576121fd612169565b80511561220c57805190602001fd5b611df7565b6001600160e01b0319161490565b61224291925060203d602011612249575b61223a8183610804565b810190612154565b90386121f0565b503d612230565b600b546000929161226082610c8f565b916001908181169081156122ba575060011461227b57505050565b9091929350600b600052600080516020612b09833981519152906000915b8483106122a7575050500190565b8181602092548587015201920191612299565b60ff191683525050811515909102019150565b61030560846124526122e16124889461285c565b6124306124226123e46123c96123af6123aa6040519889977f7b226e616d65223a20225265766f6b656420436572746966696361746520230060208a0152612333815180926020603f8d0191016102ac565b7f222c20226465736372697074696f6e223a2022546869732061757468656e7469603f918a01918201527f6369747920636572746966696361746520686173206265656e207265766f6b65605f82015264032171116160dd1b607f820152691134b6b0b3b2911d101160b11b9101908152600a0190565b612250565b6d03932bb37b5b2b2173837339116160951b8152600e0190565b6e2261747472696275746573223a205b60881b8152600f0190565b7f7b2274726169745f74797065223a2022537461747573222c202276616c75652281526b3a20225265766f6b6564227d60a01b6020820152602c0190565b615d7d60f01b815260020190565b0391612444601f1993848101835282610804565b61244c6129a0565b90612a27565b6040517f646174613a6170706c69636174696f6e2f6a736f6e3b6261736536342c0000006020820152938491603d8301906115aa565b03908101835282610804565b61249d9061285c565b81519160208101516124ae9061285c565b90604081015160608201516124c29061285c565b9151926040519586956020870161250a906024907f7b226e616d65223a202241757468656e746963697479204365727469666963618152637465202360e01b60208201520190565b612513916115aa565b7f222c20226465736372697074696f6e223a202254686973204e4654206365727481527f6966696573207468652061757468656e746963697479206f662064696769746160208201527f6c20636f6e74656e7420766572696669656420627920414920616e616c797369604082015264039971116160dd1b6060820152606501691134b6b0b3b2911d101160b11b8152600a016125af90612250565b71031b2b93a34b334b1b0ba32973837339116160751b81526012017f2265787465726e616c5f75726c223a202268747470733a2f2f676174657761798152722e70696e6174612e636c6f75642f697066732f60681b6020820152603301612615916115aa565b6201116160ed1b81526003016e2261747472696275746573223a205b60881b8152600f017f7b2274726169745f74797065223a2022436f6e666964656e63652053636f726581526b0111610113b30b63ab2911d160a51b6020820152602c0161267d916115aa565b6203e96160ed1b81526003017f7b2274726169745f74797065223a20224149204d6f64656c222c202276616c7581526432911d101160d91b60208201526025016126c6916115aa565b630113e96160e51b81526004017f7b2274726169745f74797065223a2022566572696669636174696f6e2044617481526c032911610113b30b63ab2911d1609d1b6020820152602d01612718916115aa565b6203e96160ed1b81526003017f7b2274726169745f74797065223a2022537461747573222c202276616c75652281527f3a202256657269666965642041757468656e746963227d2c200000000000000060208201526039017f7b2274726169745f74797065223a2022495046532048617368222c202276616c8152653ab2911d101160d11b60208201526026016127ae916115aa565b61227d60f01b8152600201615d7d60f01b81526002010390601f199182810182526127d99082610804565b6127e16129a0565b6127ea91612a27565b6040517f646174613a6170706c69636174696f6e2f6a736f6e3b6261736536342c000000602082015291908290603d8201612824916115aa565b0390810182526103059082610804565b9061283e82610834565b61284b6040519182610804565b82815280926117fb601f1991610834565b806000917a184f03e93ff9f4daa797ed6e38ed64bf6a1f01000000000000000080821015612992575b506d04ee2d6d415b85acef810000000080831015612983575b50662386f26fc1000080831015612974575b506305f5e10080831015612965575b5061271080831015612956575b506064821015612946575b600a8092101561293c575b6001908160216128f460018701612834565b95860101905b612906575b5050505090565b600019019083906f181899199a1a9b1b9c1cb0b131b232b360811b8282061a835304918215612937579190826128fa565b6128ff565b91600101916128e2565b91906064600291049101916128d7565b600491939204910191386128cc565b600891939204910191386128bf565b601091939204910191386128b0565b6020919392049101913861289e565b604093508104915038612885565b60405190606082018281106001600160401b038211176107b857604052604082527f6768696a6b6c6d6e6f707172737475767778797a303132333435363738392b2f6040837f4142434445464748494a4b4c4d4e4f505152535455565758595a61626364656660208201520152565b600281901b91906001600160fe1b038116036105cd57565b90815115612afe57612a53612a4e612a49612a428551611822565b6003900490565b612a0f565b612834565b91602083019181825183016020810191825193600084525b828210612aac5750505052516003900660018114612a9957600214612a8e575090565b603d90600019015390565b50603d9081600019820153600119015390565b9091956004906003809401938451600190603f9082828260121c16880101518553828282600c1c16880101518386015382828260061c1688010151600286015316850101519082015301959190612a6b565b505061030561185a56fe0175b7a638427703f0dbe7bb9bbf987a2551717b34e79f33b5b1008d1fa01db9a264697066735822122030bf898de6116ef59706614863c5c35509e6cc43401ed5d7627e8b3757fddb8a64736f6c63430008190033","opcodes":"PUSH1 0x80 PUSH1 0x40 MSTORE CALLVALUE PUSH2 0xA8 JUMPI PUSH2 0x314B DUP1 CODESIZE SUB DUP1 PUSH2 0x19 DUP2 PUSH2 0xC3 JUMP JUMPDEST SWAP3 DUP4 CODECOPY DUP2 ADD SWAP1 PUSH1 0x80 DUP2 DUP4 SUB SLT PUSH2 0xA8 JUMPI DUP1 MLOAD PUSH1 0x1 PUSH1 0x1 PUSH1 0x40 SHL SUB SWAP2 SWAP1 DUP3 DUP2 GT PUSH2 0xA8 JUMPI DUP4 PUSH2 0x48 SWAP2 DUP4 ADD PUSH2 0xED JUMP JUMPDEST SWAP3 PUSH1 0x20 DUP3 ADD MLOAD DUP4 DUP2 GT PUSH2 0xA8 JUMPI DUP2 PUSH2 0x61 SWAP2 DUP5 ADD PUSH2 0xED JUMP JUMPDEST SWAP3 PUSH1 0x40 DUP4 ADD MLOAD SWAP1 DUP2 GT PUSH2 0xA8 JUMPI PUSH1 0x60 SWAP2 PUSH2 0x7C SWAP2 DUP5 ADD PUSH2 0xED JUMP JUMPDEST SWAP2 ADD MLOAD SWAP2 PUSH1 0x1 PUSH1 0x1 PUSH1 0xA0 SHL SUB DUP4 AND DUP4 SUB PUSH2 0xA8 JUMPI PUSH2 0x99 SWAP4 PUSH2 0x464 JUMP JUMPDEST PUSH1 0x40 MLOAD PUSH2 0x2B5E SWAP1 DUP2 PUSH2 0x5ED DUP3 CODECOPY RETURN JUMPDEST PUSH1 0x0 DUP1 REVERT JUMPDEST PUSH4 0x4E487B71 PUSH1 0xE0 SHL PUSH1 0x0 MSTORE PUSH1 0x41 PUSH1 0x4 MSTORE PUSH1 0x24 PUSH1 0x0 REVERT JUMPDEST PUSH1 0x40 MLOAD SWAP2 SWAP1 PUSH1 0x1F ADD PUSH1 0x1F NOT AND DUP3 ADD PUSH1 0x1 PUSH1 0x1 PUSH1 0x40 SHL SUB DUP2 GT DUP4 DUP3 LT OR PUSH2 0xE8 JUMPI PUSH1 0x40 MSTORE JUMP JUMPDEST PUSH2 0xAD JUMP JUMPDEST SWAP2 SWAP1 DUP1 PUSH1 0x1F DUP5 ADD SLT ISZERO PUSH2 0xA8 JUMPI DUP3 MLOAD PUSH1 0x1 PUSH1 0x1 PUSH1 0x40 SHL SUB DUP2 GT PUSH2 0xE8 JUMPI PUSH1 0x20 SWAP1 PUSH2 0x11F PUSH1 0x1F DUP3 ADD PUSH1 0x1F NOT AND DUP4 ADD PUSH2 0xC3 JUMP JUMPDEST SWAP3 DUP2 DUP5 MSTORE DUP3 DUP3 DUP8 ADD ADD GT PUSH2 0xA8 JUMPI PUSH1 0x0 JUMPDEST DUP2 DUP2 LT PUSH2 0x145 JUMPI POP DUP3 PUSH1 0x0 SWAP4 SWAP5 SWAP6 POP ADD ADD MSTORE SWAP1 JUMP JUMPDEST DUP6 DUP2 ADD DUP4 ADD MLOAD DUP5 DUP3 ADD DUP5 ADD MSTORE DUP3 ADD PUSH2 0x130 JUMP JUMPDEST SWAP1 PUSH1 0x1 DUP3 DUP2 SHR SWAP3 AND DUP1 ISZERO PUSH2 0x188 JUMPI JUMPDEST PUSH1 0x20 DUP4 LT EQ PUSH2 0x172 JUMPI JUMP JUMPDEST PUSH4 0x4E487B71 PUSH1 0xE0 SHL PUSH1 0x0 MSTORE PUSH1 0x22 PUSH1 0x4 MSTORE PUSH1 0x24 PUSH1 0x0 REVERT JUMPDEST SWAP2 PUSH1 0x7F AND SWAP2 PUSH2 0x167 JUMP JUMPDEST PUSH1 0x1F DUP2 GT PUSH2 0x19E JUMPI POP POP JUMP JUMPDEST PUSH1 0x0 SWAP1 PUSH1 0x2 PUSH1 0x0 MSTORE PUSH1 0x20 PUSH1 0x0 KECCAK256 SWAP1 PUSH1 0x20 PUSH1 0x1F DUP6 ADD PUSH1 0x5 SHR DUP4 ADD SWAP5 LT PUSH2 0x1DE JUMPI JUMPDEST PUSH1 0x1F ADD PUSH1 0x5 SHR ADD SWAP2 JUMPDEST DUP3 DUP2 LT PUSH2 0x1D3 JUMPI POP POP POP JUMP JUMPDEST DUP2 DUP2 SSTORE PUSH1 0x1 ADD PUSH2 0x1C7 JUMP JUMPDEST SWAP1 SWAP3 POP DUP3 SWAP1 PUSH2 0x1BE JUMP JUMPDEST PUSH1 0x1F DUP2 GT PUSH2 0x1F4 JUMPI POP POP JUMP JUMPDEST PUSH1 0x0 SWAP1 PUSH1 0x3 PUSH1 0x0 MSTORE PUSH1 0x20 PUSH1 0x0 KECCAK256 SWAP1 PUSH1 0x20 PUSH1 0x1F DUP6 ADD PUSH1 0x5 SHR DUP4 ADD SWAP5 LT PUSH2 0x234 JUMPI JUMPDEST PUSH1 0x1F ADD PUSH1 0x5 SHR ADD SWAP2 JUMPDEST DUP3 DUP2 LT PUSH2 0x229 JUMPI POP POP POP JUMP JUMPDEST DUP2 DUP2 SSTORE PUSH1 0x1 ADD PUSH2 0x21D JUMP JUMPDEST SWAP1 SWAP3 POP DUP3 SWAP1 PUSH2 0x214 JUMP JUMPDEST PUSH1 0x1F DUP2 GT PUSH2 0x24A JUMPI POP POP JUMP JUMPDEST PUSH1 0x0 SWAP1 PUSH1 0xB PUSH1 0x0 MSTORE PUSH1 0x20 PUSH1 0x0 KECCAK256 SWAP1 PUSH1 0x20 PUSH1 0x1F DUP6 ADD PUSH1 0x5 SHR DUP4 ADD SWAP5 LT PUSH2 0x28A JUMPI JUMPDEST PUSH1 0x1F ADD PUSH1 0x5 SHR ADD SWAP2 JUMPDEST DUP3 DUP2 LT PUSH2 0x27F JUMPI POP POP POP JUMP JUMPDEST DUP2 DUP2 SSTORE PUSH1 0x1 ADD PUSH2 0x273 JUMP JUMPDEST SWAP1 SWAP3 POP DUP3 SWAP1 PUSH2 0x26A JUMP JUMPDEST DUP1 MLOAD SWAP1 SWAP2 SWAP1 PUSH1 0x1 PUSH1 0x1 PUSH1 0x40 SHL SUB DUP2 GT PUSH2 0xE8 JUMPI PUSH2 0x2BB DUP2 PUSH2 0x2B6 PUSH1 0x3 SLOAD PUSH2 0x158 JUMP JUMPDEST PUSH2 0x1E8 JUMP JUMPDEST PUSH1 0x20 DUP1 PUSH1 0x1F DUP4 GT PUSH1 0x1 EQ PUSH2 0x2FE JUMPI POP DUP2 SWAP1 PUSH2 0x2EE SWAP4 SWAP5 PUSH1 0x0 SWAP3 PUSH2 0x2F3 JUMPI JUMPDEST POP POP DUP2 PUSH1 0x1 SHL SWAP2 PUSH1 0x0 NOT SWAP1 PUSH1 0x3 SHL SHR NOT AND OR SWAP1 JUMP JUMPDEST PUSH1 0x3 SSTORE JUMP JUMPDEST ADD MLOAD SWAP1 POP CODESIZE DUP1 PUSH2 0x2D9 JUMP JUMPDEST PUSH1 0x3 PUSH1 0x0 MSTORE PUSH1 0x1F NOT DUP4 AND SWAP5 SWAP1 SWAP2 SWAP1 PUSH32 0xC2575A0E9E593C00F959F8C92F12DB2869C3395A3B0502D05E2516446F71F85B SWAP3 PUSH1 0x0 SWAP1 JUMPDEST DUP8 DUP3 LT PUSH2 0x36A JUMPI POP POP DUP4 PUSH1 0x1 SWAP6 SWAP7 LT PUSH2 0x351 JUMPI JUMPDEST POP POP POP DUP2 SHL ADD PUSH1 0x3 SSTORE JUMP JUMPDEST ADD MLOAD PUSH1 0x0 NOT PUSH1 0xF8 DUP5 PUSH1 0x3 SHL AND SHR NOT AND SWAP1 SSTORE CODESIZE DUP1 DUP1 PUSH2 0x346 JUMP JUMPDEST DUP1 PUSH1 0x1 DUP6 SWAP7 DUP3 SWAP5 SWAP7 DUP7 ADD MLOAD DUP2 SSTORE ADD SWAP6 ADD SWAP4 ADD SWAP1 PUSH2 0x332 JUMP JUMPDEST DUP1 MLOAD SWAP1 SWAP2 SWAP1 PUSH1 0x1 PUSH1 0x1 PUSH1 0x40 SHL SUB DUP2 GT PUSH2 0xE8 JUMPI PUSH2 0x3A9 DUP2 PUSH2 0x3A4 PUSH1 0xB SLOAD PUSH2 0x158 JUMP JUMPDEST PUSH2 0x23E JUMP JUMPDEST PUSH1 0x20 DUP1 PUSH1 0x1F DUP4 GT PUSH1 0x1 EQ PUSH2 0x3E0 JUMPI POP DUP2 SWAP1 PUSH2 0x3DB SWAP4 SWAP5 PUSH1 0x0 SWAP3 PUSH2 0x2F3 JUMPI POP POP DUP2 PUSH1 0x1 SHL SWAP2 PUSH1 0x0 NOT SWAP1 PUSH1 0x3 SHL SHR NOT AND OR SWAP1 JUMP JUMPDEST PUSH1 0xB SSTORE JUMP JUMPDEST PUSH1 0xB PUSH1 0x0 MSTORE PUSH1 0x1F NOT DUP4 AND SWAP5 SWAP1 SWAP2 SWAP1 PUSH32 0x175B7A638427703F0DBE7BB9BBF987A2551717B34E79F33B5B1008D1FA01DB9 SWAP3 PUSH1 0x0 SWAP1 JUMPDEST DUP8 DUP3 LT PUSH2 0x44C JUMPI POP POP DUP4 PUSH1 0x1 SWAP6 SWAP7 LT PUSH2 0x433 JUMPI JUMPDEST POP POP POP DUP2 SHL ADD PUSH1 0xB SSTORE JUMP JUMPDEST ADD MLOAD PUSH1 0x0 NOT PUSH1 0xF8 DUP5 PUSH1 0x3 SHL AND SHR NOT AND SWAP1 SSTORE CODESIZE DUP1 DUP1 PUSH2 0x428 JUMP JUMPDEST DUP1 PUSH1 0x1 DUP6 SWAP7 DUP3 SWAP5 SWAP7 DUP7 ADD MLOAD DUP2 SSTORE ADD SWAP6 ADD SWAP4 ADD SWAP1 PUSH2 0x414 JUMP JUMPDEST DUP1 MLOAD SWAP1 PUSH1 0x1 PUSH1 0x1 PUSH1 0x40 SHL SUB DUP3 GT PUSH2 0xE8 JUMPI PUSH2 0x489 DUP3 PUSH2 0x484 PUSH1 0x2 SLOAD PUSH2 0x158 JUMP JUMPDEST PUSH2 0x192 JUMP JUMPDEST PUSH1 0x20 SWAP1 DUP2 PUSH1 0x1 PUSH1 0x1F DUP6 GT EQ PUSH2 0x517 JUMPI POP SWAP2 DUP1 PUSH2 0x4C0 SWAP3 PUSH2 0x4C8 SWAP6 SWAP5 PUSH1 0x0 SWAP3 PUSH2 0x2F3 JUMPI POP POP DUP2 PUSH1 0x1 SHL SWAP2 PUSH1 0x0 NOT SWAP1 PUSH1 0x3 SHL SHR NOT AND OR SWAP1 JUMP JUMPDEST PUSH1 0x2 SSTORE PUSH2 0x294 JUMP JUMPDEST PUSH2 0x4D2 PUSH1 0x1 PUSH1 0x0 SSTORE JUMP JUMPDEST PUSH1 0x1 PUSH1 0x1 PUSH1 0xA0 SHL SUB DUP3 AND ISZERO PUSH2 0x4FE JUMPI PUSH2 0x4ED PUSH2 0x4FC SWAP3 PUSH2 0x5A3 JUMP JUMPDEST PUSH2 0x4F7 PUSH1 0x1 PUSH1 0xA SSTORE JUMP JUMPDEST PUSH2 0x382 JUMP JUMPDEST JUMP JUMPDEST PUSH1 0x40 MLOAD PUSH4 0x1E4FBDF7 PUSH1 0xE0 SHL DUP2 MSTORE PUSH1 0x0 PUSH1 0x4 DUP3 ADD MSTORE PUSH1 0x24 SWAP1 REVERT JUMPDEST PUSH1 0x2 PUSH1 0x0 MSTORE SWAP2 SWAP1 PUSH1 0x1F NOT DUP5 AND PUSH32 0x405787FA12A823E0F2B7631CC41B3BA8828B3321CA811111FA75CD3AA3BB5ACE SWAP4 PUSH1 0x0 SWAP1 JUMPDEST DUP3 DUP3 LT PUSH2 0x58B JUMPI POP POP SWAP2 PUSH1 0x1 SWAP4 SWAP2 DUP6 PUSH2 0x4C8 SWAP8 SWAP7 SWAP5 LT PUSH2 0x572 JUMPI JUMPDEST POP POP POP DUP2 SHL ADD PUSH1 0x2 SSTORE PUSH2 0x294 JUMP JUMPDEST ADD MLOAD PUSH1 0x0 NOT PUSH1 0xF8 DUP5 PUSH1 0x3 SHL AND SHR NOT AND SWAP1 SSTORE CODESIZE DUP1 DUP1 PUSH2 0x564 JUMP JUMPDEST DUP1 PUSH1 0x1 DUP7 SWAP8 DUP3 SWAP5 SWAP8 DUP8 ADD MLOAD DUP2 SSTORE ADD SWAP7 ADD SWAP5 ADD SWAP1 PUSH2 0x549 JUMP JUMPDEST PUSH1 0x9 DUP1 SLOAD PUSH1 0x1 PUSH1 0x1 PUSH1 0xA0 SHL SUB SWAP3 DUP4 AND PUSH1 0x1 PUSH1 0x1 PUSH1 0xA0 SHL SUB NOT DUP3 AND DUP2 OR SWAP1 SWAP3 SSTORE SWAP1 SWAP2 AND PUSH32 0x8BE0079C531659141344CD1FD0A4F28419497F9722A3DAAFE3B4186F6B6457E0 PUSH1 0x0 DUP1 LOG3 JUMP INVALID PUSH1 0x80 PUSH1 0x40 MSTORE PUSH1 0x4 CALLDATASIZE LT ISZERO PUSH2 0x12 JUMPI PUSH1 0x0 DUP1 REVERT JUMPDEST PUSH1 0x0 CALLDATALOAD PUSH1 0xE0 SHR DUP1 PUSH4 0x1FFC9A7 EQ PUSH2 0x222 JUMPI DUP1 PUSH4 0x6FDDE03 EQ PUSH2 0x21D JUMPI DUP1 PUSH4 0x81812FC EQ PUSH2 0x218 JUMPI DUP1 PUSH4 0x95EA7B3 EQ PUSH2 0x213 JUMPI DUP1 PUSH4 0x18160DDD EQ PUSH2 0x20E JUMPI DUP1 PUSH4 0x23B872DD EQ PUSH2 0x209 JUMPI DUP1 PUSH4 0x372D6B27 EQ PUSH2 0x204 JUMPI DUP1 PUSH4 0x40398D67 EQ PUSH2 0x1FF JUMPI DUP1 PUSH4 0x42842E0E EQ PUSH2 0x1FA JUMPI DUP1 PUSH4 0x54FD4D50 EQ PUSH2 0x1F5 JUMPI DUP1 PUSH4 0x558381E7 EQ PUSH2 0x1F0 JUMPI DUP1 PUSH4 0x55F804B3 EQ PUSH2 0x1EB JUMPI DUP1 PUSH4 0x60316801 EQ PUSH2 0x1E6 JUMPI DUP1 PUSH4 0x6352211E EQ PUSH2 0x1E1 JUMPI DUP1 PUSH4 0x6914DB60 EQ PUSH2 0x1DC JUMPI DUP1 PUSH4 0x6C0360EB EQ PUSH2 0x1D7 JUMPI DUP1 PUSH4 0x70A08231 EQ PUSH2 0x1D2 JUMPI DUP1 PUSH4 0x715018A6 EQ PUSH2 0x1CD JUMPI DUP1 PUSH4 0x8DA5CB5B EQ PUSH2 0x1C8 JUMPI DUP1 PUSH4 0x9450B3D6 EQ PUSH2 0x1C3 JUMPI DUP1 PUSH4 0x95D89B41 EQ PUSH2 0x1BE JUMPI DUP1 PUSH4 0xA22CB465 EQ PUSH2 0x1B9 JUMPI DUP1 PUSH4 0xA2309FF8 EQ PUSH2 0x1B4 JUMPI DUP1 PUSH4 0xA2F1C87B EQ PUSH2 0x1AF JUMPI DUP1 PUSH4 0xAA2FE91B EQ PUSH2 0x1AA JUMPI DUP1 PUSH4 0xB04458CA EQ PUSH2 0x187 JUMPI DUP1 PUSH4 0xB88D4FDE EQ PUSH2 0x1A5 JUMPI DUP1 PUSH4 0xC87B56DD EQ PUSH2 0x1A0 JUMPI DUP1 PUSH4 0xE62CE7AC EQ PUSH2 0x19B JUMPI DUP1 PUSH4 0xE985E9C5 EQ PUSH2 0x196 JUMPI DUP1 PUSH4 0xED58BAD8 EQ PUSH2 0x191 JUMPI DUP1 PUSH4 0xF2FDE38B EQ PUSH2 0x18C JUMPI PUSH4 0xFEB44988 EQ PUSH2 0x187 JUMPI PUSH1 0x0 DUP1 REVERT JUMPDEST PUSH2 0x134C JUMP JUMPDEST PUSH2 0x151C JUMP JUMPDEST PUSH2 0x1461 JUMP JUMPDEST PUSH2 0x1404 JUMP JUMPDEST PUSH2 0x13E6 JUMP JUMPDEST PUSH2 0x13C7 JUMP JUMPDEST PUSH2 0x136D JUMP JUMPDEST PUSH2 0x130D JUMP JUMPDEST PUSH2 0x12E5 JUMP JUMPDEST PUSH2 0x12C7 JUMP JUMPDEST PUSH2 0x123E JUMP JUMPDEST PUSH2 0x1167 JUMP JUMPDEST PUSH2 0xF9A JUMP JUMPDEST PUSH2 0xF71 JUMP JUMPDEST PUSH2 0xF13 JUMP JUMPDEST PUSH2 0xEE8 JUMP JUMPDEST PUSH2 0xEB8 JUMP JUMPDEST PUSH2 0xE1E JUMP JUMPDEST PUSH2 0xC60 JUMP JUMPDEST PUSH2 0xB9B JUMP JUMPDEST PUSH2 0x9E8 JUMP JUMPDEST PUSH2 0x8A1 JUMP JUMPDEST PUSH2 0x760 JUMP JUMPDEST PUSH2 0x73D JUMP JUMPDEST PUSH2 0x60E JUMP JUMPDEST PUSH2 0x596 JUMP JUMPDEST PUSH2 0x582 JUMP JUMPDEST PUSH2 0x526 JUMP JUMPDEST PUSH2 0x470 JUMP JUMPDEST PUSH2 0x3F1 JUMP JUMPDEST PUSH2 0x308 JUMP JUMPDEST PUSH2 0x23E JUMP JUMPDEST PUSH1 0x1 PUSH1 0x1 PUSH1 0xE0 SHL SUB NOT DUP2 AND SUB PUSH2 0x239 JUMPI JUMP JUMPDEST PUSH1 0x0 DUP1 REVERT JUMPDEST CALLVALUE PUSH2 0x239 JUMPI PUSH1 0x20 CALLDATASIZE PUSH1 0x3 NOT ADD SLT PUSH2 0x239 JUMPI PUSH1 0x20 PUSH1 0x4 CALLDATALOAD PUSH2 0x25D DUP2 PUSH2 0x227 JUMP JUMPDEST PUSH4 0xFFFFFFFF PUSH1 0xE0 SHL AND PUSH4 0x1FFC9A7 PUSH1 0xE0 SHL DUP2 EQ SWAP1 DUP2 ISZERO PUSH2 0x29B JUMPI JUMPDEST DUP2 ISZERO PUSH2 0x28A JUMPI JUMPDEST POP PUSH1 0x40 MLOAD SWAP1 ISZERO ISZERO DUP2 MSTORE RETURN JUMPDEST PUSH4 0x5B5E139F PUSH1 0xE0 SHL EQ SWAP1 POP CODESIZE PUSH2 0x27F JUMP JUMPDEST PUSH4 0x80AC58CD PUSH1 0xE0 SHL DUP2 EQ SWAP2 POP PUSH2 0x278 JUMP JUMPDEST PUSH1 0x0 JUMPDEST DUP4 DUP2 LT PUSH2 0x2BF JUMPI POP POP PUSH1 0x0 SWAP2 ADD MSTORE JUMP JUMPDEST DUP2 DUP2 ADD MLOAD DUP4 DUP3 ADD MSTORE PUSH1 0x20 ADD PUSH2 0x2AF JUMP JUMPDEST SWAP1 PUSH1 0x20 SWAP2 PUSH2 0x2E8 DUP2 MLOAD DUP1 SWAP3 DUP2 DUP6 MSTORE DUP6 DUP1 DUP7 ADD SWAP2 ADD PUSH2 0x2AC JUMP JUMPDEST PUSH1 0x1F ADD PUSH1 0x1F NOT AND ADD ADD SWAP1 JUMP JUMPDEST SWAP1 PUSH1 0x20 PUSH2 0x305 SWAP3 DUP2 DUP2 MSTORE ADD SWAP1 PUSH2 0x2CF JUMP JUMPDEST SWAP1 JUMP JUMPDEST CALLVALUE PUSH2 0x239 JUMPI PUSH1 0x0 DUP1 PUSH1 0x3 NOT CALLDATASIZE ADD SLT PUSH2 0x3EE JUMPI PUSH1 0x40 MLOAD SWAP1 DUP1 PUSH1 0x2 SLOAD SWAP1 PUSH2 0x32C DUP3 PUSH2 0xC8F JUMP JUMPDEST DUP1 DUP6 MSTORE SWAP2 PUSH1 0x20 SWAP2 PUSH1 0x1 SWAP2 DUP3 DUP2 AND SWAP1 DUP2 ISZERO PUSH2 0x3C1 JUMPI POP PUSH1 0x1 EQ PUSH2 0x369 JUMPI JUMPDEST PUSH2 0x365 DUP7 PUSH2 0x359 DUP2 DUP9 SUB DUP3 PUSH2 0x804 JUMP JUMPDEST PUSH1 0x40 MLOAD SWAP2 DUP3 SWAP2 DUP3 PUSH2 0x2F4 JUMP JUMPDEST SUB SWAP1 RETURN JUMPDEST SWAP4 POP PUSH1 0x2 DUP5 MSTORE PUSH32 0x405787FA12A823E0F2B7631CC41B3BA8828B3321CA811111FA75CD3AA3BB5ACE JUMPDEST DUP4 DUP6 LT PUSH2 0x3AE JUMPI POP POP POP POP DUP2 ADD PUSH1 0x20 ADD PUSH2 0x359 DUP3 PUSH2 0x365 CODESIZE PUSH2 0x349 JUMP JUMPDEST DUP1 SLOAD DUP7 DUP7 ADD DUP5 ADD MSTORE SWAP4 DUP3 ADD SWAP4 DUP2 ADD PUSH2 0x391 JUMP JUMPDEST SWAP1 POP DUP7 SWAP6 POP PUSH2 0x365 SWAP7 SWAP4 POP PUSH1 0x20 SWAP3 POP PUSH2 0x359 SWAP5 SWAP2 POP PUSH1 0xFF NOT AND DUP3 DUP5 ADD MSTORE ISZERO ISZERO PUSH1 0x5 SHL DUP3 ADD ADD SWAP3 SWAP4 CODESIZE PUSH2 0x349 JUMP JUMPDEST DUP1 REVERT JUMPDEST CALLVALUE PUSH2 0x239 JUMPI PUSH1 0x20 CALLDATASIZE PUSH1 0x3 NOT ADD SLT PUSH2 0x239 JUMPI PUSH1 0x4 CALLDATALOAD PUSH2 0x40E DUP2 PUSH2 0x1E96 JUMP JUMPDEST ISZERO PUSH2 0x433 JUMPI PUSH1 0x0 MSTORE PUSH1 0x6 PUSH1 0x20 MSTORE PUSH1 0x20 PUSH1 0x1 DUP1 PUSH1 0xA0 SHL SUB PUSH1 0x40 PUSH1 0x0 KECCAK256 SLOAD AND PUSH1 0x40 MLOAD SWAP1 DUP2 MSTORE RETURN JUMPDEST PUSH4 0x33D1C039 PUSH1 0xE2 SHL PUSH1 0x0 MSTORE PUSH1 0x4 PUSH1 0x0 REVERT JUMPDEST PUSH1 0x4 CALLDATALOAD SWAP1 PUSH1 0x1 PUSH1 0x1 PUSH1 0xA0 SHL SUB DUP3 AND DUP3 SUB PUSH2 0x239 JUMPI JUMP JUMPDEST PUSH1 0x24 CALLDATALOAD SWAP1 PUSH1 0x1 PUSH1 0x1 PUSH1 0xA0 SHL SUB DUP3 AND DUP3 SUB PUSH2 0x239 JUMPI JUMP JUMPDEST PUSH1 0x40 CALLDATASIZE PUSH1 0x3 NOT ADD SLT PUSH2 0x239 JUMPI PUSH2 0x484 PUSH2 0x444 JUMP JUMPDEST PUSH1 0x24 CALLDATALOAD PUSH1 0x1 PUSH1 0x1 PUSH1 0xA0 SHL SUB DUP1 PUSH2 0x499 DUP4 PUSH2 0x1F46 JUMP JUMPDEST AND SWAP1 DUP2 CALLER SUB PUSH2 0x4F4 JUMPI JUMPDEST PUSH1 0x0 DUP4 DUP2 MSTORE PUSH1 0x6 PUSH1 0x20 MSTORE PUSH1 0x40 DUP2 KECCAK256 DUP1 SLOAD PUSH1 0x1 PUSH1 0x1 PUSH1 0xA0 SHL SUB NOT AND PUSH1 0x1 PUSH1 0x1 PUSH1 0xA0 SHL SUB DUP8 AND OR SWAP1 SSTORE SWAP4 AND SWAP1 PUSH32 0x8C5BE1E5EBEC7D5BD14F71427D1E84F3DD0314C0F7B2291E5B200AC8C7C3B925 DUP5 DUP1 LOG4 DUP1 RETURN JUMPDEST PUSH1 0x0 DUP3 DUP2 MSTORE PUSH1 0x7 PUSH1 0x20 SWAP1 DUP2 MSTORE PUSH1 0x40 DUP1 DUP4 KECCAK256 CALLER DUP5 MSTORE SWAP1 SWAP2 MSTORE SWAP1 KECCAK256 SLOAD PUSH1 0xFF AND PUSH2 0x4A3 JUMPI PUSH4 0x67D9DCA1 PUSH1 0xE1 SHL PUSH1 0x0 MSTORE PUSH1 0x4 PUSH1 0x0 REVERT JUMPDEST CALLVALUE PUSH2 0x239 JUMPI PUSH1 0x0 CALLDATASIZE PUSH1 0x3 NOT ADD SLT PUSH2 0x239 JUMPI PUSH1 0x0 SLOAD PUSH1 0x1 SLOAD PUSH1 0x40 MLOAD SWAP2 SUB PUSH1 0x0 NOT ADD DUP2 MSTORE PUSH1 0x20 SWAP1 RETURN JUMPDEST PUSH1 0x60 SWAP1 PUSH1 0x3 NOT ADD SLT PUSH2 0x239 JUMPI PUSH1 0x1 PUSH1 0x1 PUSH1 0xA0 SHL SUB SWAP1 PUSH1 0x4 CALLDATALOAD DUP3 DUP2 AND DUP2 SUB PUSH2 0x239 JUMPI SWAP2 PUSH1 0x24 CALLDATALOAD SWAP1 DUP2 AND DUP2 SUB PUSH2 0x239 JUMPI SWAP1 PUSH1 0x44 CALLDATALOAD SWAP1 JUMP JUMPDEST PUSH2 0x594 PUSH2 0x58E CALLDATASIZE PUSH2 0x54D JUMP JUMPDEST SWAP2 PUSH2 0x15E7 JUMP JUMPDEST STOP JUMPDEST CALLVALUE PUSH2 0x239 JUMPI PUSH1 0x0 CALLDATASIZE PUSH1 0x3 NOT ADD SLT PUSH2 0x239 JUMPI PUSH1 0xF SLOAD PUSH1 0x10 SLOAD SWAP1 DUP2 DUP2 SUB DUP2 DUP2 GT PUSH2 0x5CD JUMPI PUSH1 0x60 SWAP3 PUSH1 0x40 MLOAD SWAP3 DUP4 MSTORE PUSH1 0x20 DUP4 ADD MSTORE PUSH1 0x40 DUP3 ADD MSTORE RETURN JUMPDEST PUSH2 0x1797 JUMP JUMPDEST PUSH1 0x20 SWAP1 PUSH1 0x20 PUSH1 0x40 DUP2 DUP4 ADD SWAP3 DUP3 DUP2 MSTORE DUP6 MLOAD DUP1 SWAP5 MSTORE ADD SWAP4 ADD SWAP2 PUSH1 0x0 JUMPDEST DUP3 DUP2 LT PUSH2 0x5FA JUMPI POP POP POP POP SWAP1 JUMP JUMPDEST DUP4 MLOAD DUP6 MSTORE SWAP4 DUP2 ADD SWAP4 SWAP3 DUP2 ADD SWAP3 PUSH1 0x1 ADD PUSH2 0x5EC JUMP JUMPDEST CALLVALUE PUSH2 0x239 JUMPI PUSH1 0x20 CALLDATASIZE PUSH1 0x3 NOT ADD SLT PUSH2 0x239 JUMPI PUSH2 0x627 PUSH2 0x444 JUMP JUMPDEST PUSH1 0x1 PUSH1 0x1 PUSH1 0xA0 SHL SUB DUP2 AND SWAP1 DUP2 ISZERO PUSH2 0x700 JUMPI PUSH2 0x641 SWAP1 PUSH2 0x1A80 JUMP JUMPDEST PUSH2 0x64A DUP2 PUSH2 0x17D3 JUMP JUMPDEST SWAP1 PUSH1 0x0 PUSH2 0x658 PUSH1 0x0 SLOAD PUSH2 0x17AD JUMP JUMPDEST PUSH1 0x1 SWAP3 SWAP1 DUP4 DUP1 JUMPDEST PUSH2 0x672 JUMPI JUMPDEST PUSH1 0x40 MLOAD DUP1 PUSH2 0x365 DUP9 DUP3 PUSH2 0x5D2 JUMP JUMPDEST PUSH2 0x67B DUP3 PUSH2 0x1814 JUMP JUMPDEST DUP2 LT DUP1 PUSH2 0x6F7 JUMPI JUMPDEST ISZERO PUSH2 0x6F2 JUMPI PUSH2 0x691 DUP2 PUSH2 0x1E96 JUMP JUMPDEST DUP1 PUSH2 0x6CC JUMPI JUMPDEST PUSH2 0x6AB JUMPI JUMPDEST PUSH2 0x6A5 SWAP1 PUSH2 0x1805 JUMP JUMPDEST DUP5 PUSH2 0x65F JUMP JUMPDEST SWAP3 PUSH2 0x6C4 DUP2 DUP6 PUSH2 0x6BE PUSH2 0x6A5 SWAP5 DUP11 PUSH2 0x1830 JUMP JUMPDEST MSTORE PUSH2 0x1805 JUMP JUMPDEST SWAP4 SWAP1 POP PUSH2 0x69C JUMP JUMPDEST POP DUP7 PUSH2 0x6EC PUSH2 0x6E0 PUSH2 0x6E0 PUSH2 0x6E0 DUP6 PUSH2 0x1F46 JUMP JUMPDEST PUSH1 0x1 PUSH1 0x1 PUSH1 0xA0 SHL SUB AND SWAP1 JUMP JUMPDEST EQ PUSH2 0x697 JUMP JUMPDEST PUSH2 0x664 JUMP JUMPDEST POP DUP3 DUP5 LT PUSH2 0x683 JUMP JUMPDEST PUSH1 0x40 MLOAD PUSH3 0x461BCD PUSH1 0xE5 SHL DUP2 MSTORE PUSH1 0x20 PUSH1 0x4 DUP3 ADD MSTORE PUSH1 0x15 PUSH1 0x24 DUP3 ADD MSTORE PUSH21 0x496E76616C6964206F776E65722061646472657373 PUSH1 0x58 SHL PUSH1 0x44 DUP3 ADD MSTORE PUSH1 0x64 SWAP1 REVERT JUMPDEST PUSH2 0x594 PUSH2 0x749 CALLDATASIZE PUSH2 0x54D JUMP JUMPDEST SWAP1 PUSH1 0x40 MLOAD SWAP3 PUSH2 0x757 DUP5 PUSH2 0x7E9 JUMP JUMPDEST PUSH1 0x0 DUP5 MSTORE PUSH2 0x1DC5 JUMP JUMPDEST CALLVALUE PUSH2 0x239 JUMPI PUSH1 0x0 CALLDATASIZE PUSH1 0x3 NOT ADD SLT PUSH2 0x239 JUMPI PUSH1 0x40 MLOAD PUSH1 0x40 DUP2 ADD SWAP1 DUP1 DUP3 LT PUSH1 0x1 PUSH1 0x1 PUSH1 0x40 SHL SUB DUP4 GT OR PUSH2 0x7B8 JUMPI PUSH2 0x365 SWAP2 PUSH1 0x40 MSTORE PUSH1 0x5 DUP2 MSTORE PUSH5 0x312E302E3 PUSH1 0xDC SHL PUSH1 0x20 DUP3 ADD MSTORE PUSH1 0x40 MLOAD SWAP2 DUP3 SWAP2 PUSH1 0x20 DUP4 MSTORE PUSH1 0x20 DUP4 ADD SWAP1 PUSH2 0x2CF JUMP JUMPDEST PUSH4 0x4E487B71 PUSH1 0xE0 SHL PUSH1 0x0 MSTORE PUSH1 0x41 PUSH1 0x4 MSTORE PUSH1 0x24 PUSH1 0x0 REVERT JUMPDEST PUSH1 0xC0 DUP2 ADD SWAP1 DUP2 LT PUSH1 0x1 PUSH1 0x1 PUSH1 0x40 SHL SUB DUP3 GT OR PUSH2 0x7B8 JUMPI PUSH1 0x40 MSTORE JUMP JUMPDEST PUSH1 0x20 DUP2 ADD SWAP1 DUP2 LT PUSH1 0x1 PUSH1 0x1 PUSH1 0x40 SHL SUB DUP3 GT OR PUSH2 0x7B8 JUMPI PUSH1 0x40 MSTORE JUMP JUMPDEST SWAP1 PUSH1 0x1F DUP1 NOT SWAP2 ADD AND DUP2 ADD SWAP1 DUP2 LT PUSH1 0x1 PUSH1 0x1 PUSH1 0x40 SHL SUB DUP3 GT OR PUSH2 0x7B8 JUMPI PUSH1 0x40 MSTORE JUMP JUMPDEST PUSH1 0x40 MLOAD SWAP1 PUSH2 0x832 DUP3 PUSH2 0x7CE JUMP JUMPDEST JUMP JUMPDEST PUSH1 0x1 PUSH1 0x1 PUSH1 0x40 SHL SUB DUP2 GT PUSH2 0x7B8 JUMPI PUSH1 0x1F ADD PUSH1 0x1F NOT AND PUSH1 0x20 ADD SWAP1 JUMP JUMPDEST SWAP3 SWAP2 SWAP3 PUSH2 0x85B DUP3 PUSH2 0x834 JUMP JUMPDEST SWAP2 PUSH2 0x869 PUSH1 0x40 MLOAD SWAP4 DUP5 PUSH2 0x804 JUMP JUMPDEST DUP3 SWAP5 DUP2 DUP5 MSTORE DUP2 DUP4 ADD GT PUSH2 0x239 JUMPI DUP3 DUP2 PUSH1 0x20 SWAP4 DUP5 PUSH1 0x0 SWAP7 ADD CALLDATACOPY ADD ADD MSTORE JUMP JUMPDEST SWAP1 DUP1 PUSH1 0x1F DUP4 ADD SLT ISZERO PUSH2 0x239 JUMPI DUP2 PUSH1 0x20 PUSH2 0x305 SWAP4 CALLDATALOAD SWAP2 ADD PUSH2 0x84F JUMP JUMPDEST CALLVALUE PUSH2 0x239 JUMPI PUSH1 0x40 CALLDATASIZE PUSH1 0x3 NOT ADD SLT PUSH2 0x239 JUMPI PUSH1 0x4 CALLDATALOAD PUSH1 0x24 CALLDATALOAD PUSH1 0x1 PUSH1 0x1 PUSH1 0x40 SHL SUB DUP2 GT PUSH2 0x239 JUMPI PUSH2 0x8D4 SWAP1 CALLDATASIZE SWAP1 PUSH1 0x4 ADD PUSH2 0x886 JUMP JUMPDEST PUSH2 0x8DC PUSH2 0x2063 JUMP JUMPDEST PUSH2 0x8ED PUSH2 0x8E8 DUP4 PUSH2 0x1E96 JUMP JUMPDEST PUSH2 0x186D JUMP JUMPDEST DUP2 PUSH1 0x0 MSTORE PUSH1 0xC PUSH1 0x20 MSTORE PUSH1 0xFF PUSH1 0x4 PUSH1 0x40 PUSH1 0x0 KECCAK256 ADD SLOAD PUSH1 0xA0 SHR AND PUSH2 0x981 JUMPI PUSH2 0x97C PUSH32 0xD0571D484577E1A5E8A246E15DCCFC8D2ACB13E80E0320B06DAE36DE6D79ED71 SWAP2 PUSH2 0x95B PUSH1 0x4 PUSH2 0x947 DUP7 PUSH1 0x0 MSTORE PUSH1 0xC PUSH1 0x20 MSTORE PUSH1 0x40 PUSH1 0x0 KECCAK256 SWAP1 JUMP JUMPDEST ADD DUP1 SLOAD PUSH1 0xFF PUSH1 0xA0 SHL NOT AND PUSH1 0x1 PUSH1 0xA0 SHL OR SWAP1 SSTORE JUMP JUMPDEST PUSH2 0x96E PUSH2 0x969 PUSH1 0x10 SLOAD PUSH2 0x1805 JUMP JUMPDEST PUSH1 0x10 SSTORE JUMP JUMPDEST PUSH1 0x40 MLOAD SWAP2 DUP3 SWAP2 TIMESTAMP SWAP1 DUP4 PUSH2 0x18B0 JUMP JUMPDEST SUB SWAP1 LOG2 STOP JUMPDEST PUSH1 0x40 MLOAD PUSH3 0x461BCD PUSH1 0xE5 SHL DUP2 MSTORE PUSH1 0x20 PUSH1 0x4 DUP3 ADD MSTORE PUSH1 0x15 PUSH1 0x24 DUP3 ADD MSTORE PUSH21 0x151BDAD95B88185B1C9958591E481C995D9BDAD959 PUSH1 0x5A SHL PUSH1 0x44 DUP3 ADD MSTORE PUSH1 0x64 SWAP1 REVERT JUMPDEST PUSH1 0x20 PUSH1 0x3 NOT DUP3 ADD SLT PUSH2 0x239 JUMPI PUSH1 0x4 CALLDATALOAD SWAP1 PUSH1 0x1 PUSH1 0x1 PUSH1 0x40 SHL SUB DUP3 GT PUSH2 0x239 JUMPI PUSH2 0x305 SWAP2 PUSH1 0x4 ADD PUSH2 0x886 JUMP JUMPDEST CALLVALUE PUSH2 0x239 JUMPI PUSH2 0x9F6 CALLDATASIZE PUSH2 0x9BE JUMP JUMPDEST PUSH2 0x9FE PUSH2 0x2063 JUMP JUMPDEST PUSH2 0xA06 PUSH2 0xCC9 JUMP JUMPDEST DUP2 MLOAD SWAP2 PUSH1 0x1 PUSH1 0x1 PUSH1 0x40 SHL SUB DUP4 GT PUSH2 0x7B8 JUMPI PUSH2 0xA2B DUP4 PUSH2 0xA26 PUSH1 0xB SLOAD PUSH2 0xC8F JUMP JUMPDEST PUSH2 0x18CC JUMP JUMPDEST PUSH1 0x20 DUP1 PUSH1 0x1F DUP6 GT PUSH1 0x1 EQ PUSH2 0xAA2 JUMPI POP DUP4 PUSH32 0xBF854AC1B3492EFDC6A78402A969F9B4AA9315253853A9FE2AB02FF8F2D55639 SWAP5 PUSH2 0xA7D SWAP3 PUSH1 0x0 SWAP2 PUSH2 0xA97 JUMPI JUMPDEST POP DUP2 PUSH1 0x1 SHL SWAP2 PUSH1 0x0 NOT SWAP1 PUSH1 0x3 SHL SHR NOT AND OR SWAP1 JUMP JUMPDEST PUSH1 0xB SSTORE JUMPDEST PUSH2 0xA92 PUSH1 0x40 MLOAD SWAP3 DUP4 SWAP3 TIMESTAMP SWAP2 DUP5 PUSH2 0x1A57 JUMP JUMPDEST SUB SWAP1 LOG1 STOP JUMPDEST SWAP1 POP DUP4 ADD MLOAD CODESIZE PUSH2 0xA69 JUMP JUMPDEST PUSH1 0xB PUSH1 0x0 MSTORE SWAP1 PUSH1 0x1F NOT DUP6 AND PUSH1 0x0 DUP1 MLOAD PUSH1 0x20 PUSH2 0x2B09 DUP4 CODECOPY DUP2 MLOAD SWAP2 MSTORE SWAP3 PUSH1 0x0 SWAP1 JUMPDEST DUP3 DUP3 LT PUSH2 0xB1E JUMPI POP POP SWAP2 DUP6 SWAP2 PUSH32 0xBF854AC1B3492EFDC6A78402A969F9B4AA9315253853A9FE2AB02FF8F2D55639 SWAP7 PUSH1 0x1 SWAP5 LT PUSH2 0xB05 JUMPI JUMPDEST POP POP DUP2 SHL ADD PUSH1 0xB SSTORE PUSH2 0xA81 JUMP JUMPDEST DUP5 ADD MLOAD PUSH1 0x0 NOT PUSH1 0xF8 DUP5 PUSH1 0x3 SHL AND SHR NOT AND SWAP1 SSTORE CODESIZE DUP1 PUSH2 0xAF8 JUMP JUMPDEST DUP1 PUSH1 0x1 DUP6 SWAP7 DUP3 SWAP5 SWAP7 DUP10 ADD MLOAD DUP2 SSTORE ADD SWAP6 ADD SWAP4 ADD SWAP1 PUSH2 0xAC1 JUMP JUMPDEST PUSH1 0x20 DUP2 MSTORE PUSH1 0xC0 PUSH1 0xA0 PUSH2 0xB76 PUSH2 0xB56 DUP6 MLOAD DUP5 PUSH1 0x20 DUP8 ADD MSTORE PUSH1 0xE0 DUP7 ADD SWAP1 PUSH2 0x2CF JUMP JUMPDEST PUSH1 0x20 DUP7 ADD MLOAD PUSH1 0x40 DUP7 ADD MSTORE PUSH1 0x40 DUP7 ADD MLOAD PUSH1 0x1F NOT DUP7 DUP4 SUB ADD PUSH1 0x60 DUP8 ADD MSTORE PUSH2 0x2CF JUMP JUMPDEST SWAP4 PUSH1 0x60 DUP2 ADD MLOAD PUSH1 0x80 DUP6 ADD MSTORE PUSH1 0x1 DUP1 DUP4 SHL SUB PUSH1 0x80 DUP3 ADD MLOAD AND DUP3 DUP6 ADD MSTORE ADD MLOAD ISZERO ISZERO SWAP2 ADD MSTORE SWAP1 JUMP JUMPDEST CALLVALUE PUSH2 0x239 JUMPI PUSH1 0x20 CALLDATASIZE PUSH1 0x3 NOT ADD SLT PUSH2 0x239 JUMPI PUSH2 0x365 PUSH1 0xA0 PUSH1 0x4 CALLDATALOAD PUSH1 0x40 SWAP2 DUP3 SWAP2 DUP3 MLOAD PUSH2 0xBC4 DUP2 PUSH2 0x7CE JUMP JUMPDEST PUSH1 0x60 DUP2 MSTORE PUSH1 0x0 SWAP3 DUP2 DUP5 PUSH1 0x20 DUP2 SWAP5 ADD MSTORE PUSH1 0x60 DUP7 DUP3 ADD MSTORE DUP3 PUSH1 0x60 DUP3 ADD MSTORE DUP3 PUSH1 0x80 DUP3 ADD MSTORE ADD MSTORE PUSH2 0xBF3 PUSH2 0x8E8 DUP3 PUSH2 0x1E96 JUMP JUMPDEST DUP2 MSTORE PUSH1 0xC PUSH1 0x20 MSTORE KECCAK256 SWAP1 PUSH1 0xFF PUSH1 0x4 DUP3 MLOAD SWAP4 PUSH2 0xC0C DUP6 PUSH2 0x7CE JUMP JUMPDEST PUSH2 0xC15 DUP2 PUSH2 0xD7B JUMP JUMPDEST DUP6 MSTORE PUSH1 0x1 DUP2 ADD SLOAD PUSH1 0x20 DUP7 ADD MSTORE PUSH2 0xC2D PUSH1 0x2 DUP3 ADD PUSH2 0xD7B JUMP JUMPDEST DUP5 DUP7 ADD MSTORE PUSH1 0x3 DUP2 ADD SLOAD PUSH1 0x60 DUP7 ADD MSTORE ADD SLOAD PUSH1 0x1 DUP1 PUSH1 0xA0 SHL SUB DUP2 AND PUSH1 0x80 DUP6 ADD MSTORE PUSH1 0xA0 SHR AND ISZERO ISZERO PUSH1 0xA0 DUP4 ADD MSTORE MLOAD SWAP2 DUP3 SWAP2 DUP3 PUSH2 0xB36 JUMP JUMPDEST CALLVALUE PUSH2 0x239 JUMPI PUSH1 0x20 CALLDATASIZE PUSH1 0x3 NOT ADD SLT PUSH2 0x239 JUMPI PUSH1 0x20 PUSH1 0x1 PUSH1 0x1 PUSH1 0xA0 SHL SUB PUSH2 0xC86 PUSH1 0x4 CALLDATALOAD PUSH2 0x1F46 JUMP JUMPDEST AND PUSH1 0x40 MLOAD SWAP1 DUP2 MSTORE RETURN JUMPDEST SWAP1 PUSH1 0x1 DUP3 DUP2 SHR SWAP3 AND DUP1 ISZERO PUSH2 0xCBF JUMPI JUMPDEST PUSH1 0x20 DUP4 LT EQ PUSH2 0xCA9 JUMPI JUMP JUMPDEST PUSH4 0x4E487B71 PUSH1 0xE0 SHL PUSH1 0x0 MSTORE PUSH1 0x22 PUSH1 0x4 MSTORE PUSH1 0x24 PUSH1 0x0 REVERT JUMPDEST SWAP2 PUSH1 0x7F AND SWAP2 PUSH2 0xC9E JUMP JUMPDEST PUSH1 0x40 MLOAD SWAP1 PUSH1 0x0 DUP3 PUSH1 0xB SLOAD SWAP2 PUSH2 0xCDD DUP4 PUSH2 0xC8F JUMP JUMPDEST DUP1 DUP4 MSTORE SWAP3 PUSH1 0x20 SWAP1 PUSH1 0x1 SWAP1 DUP2 DUP2 AND SWAP1 DUP2 ISZERO PUSH2 0xD57 JUMPI POP PUSH1 0x1 EQ PUSH2 0xD08 JUMPI JUMPDEST POP POP PUSH2 0x832 SWAP3 POP SUB DUP4 PUSH2 0x804 JUMP JUMPDEST SWAP2 POP SWAP3 PUSH1 0xB PUSH1 0x0 MSTORE PUSH1 0x0 DUP1 MLOAD PUSH1 0x20 PUSH2 0x2B09 DUP4 CODECOPY DUP2 MLOAD SWAP2 MSTORE SWAP4 PUSH1 0x0 SWAP3 JUMPDEST DUP3 DUP5 LT PUSH2 0xD3F JUMPI POP PUSH2 0x832 SWAP5 POP POP POP DUP2 ADD PUSH1 0x20 ADD CODESIZE DUP1 PUSH2 0xCFA JUMP JUMPDEST DUP6 SLOAD DUP9 DUP6 ADD DUP4 ADD MSTORE SWAP5 DUP6 ADD SWAP5 DUP8 SWAP5 POP SWAP3 DUP2 ADD SWAP3 PUSH2 0xD24 JUMP JUMPDEST SWAP2 POP POP PUSH1 0x20 SWAP3 POP PUSH2 0x832 SWAP5 SWAP2 POP PUSH1 0xFF NOT AND DUP3 DUP5 ADD MSTORE ISZERO ISZERO PUSH1 0x5 SHL DUP3 ADD ADD CODESIZE DUP1 PUSH2 0xCFA JUMP JUMPDEST SWAP1 PUSH1 0x40 MLOAD SWAP2 DUP3 PUSH1 0x0 DUP3 SLOAD PUSH2 0xD8E DUP2 PUSH2 0xC8F JUMP JUMPDEST SWAP1 DUP2 DUP5 MSTORE PUSH1 0x20 SWAP5 PUSH1 0x1 SWAP2 PUSH1 0x1 DUP2 AND SWAP1 DUP2 PUSH1 0x0 EQ PUSH2 0xDFC JUMPI POP PUSH1 0x1 EQ PUSH2 0xDBD JUMPI JUMPDEST POP POP POP PUSH2 0x832 SWAP3 POP SUB DUP4 PUSH2 0x804 JUMP JUMPDEST PUSH1 0x0 SWAP1 DUP2 MSTORE DUP6 DUP2 KECCAK256 SWAP6 SWAP4 POP SWAP2 SWAP1 JUMPDEST DUP2 DUP4 LT PUSH2 0xDE4 JUMPI POP POP PUSH2 0x832 SWAP4 POP DUP3 ADD ADD CODESIZE DUP1 DUP1 PUSH2 0xDAE JUMP JUMPDEST DUP6 SLOAD DUP9 DUP5 ADD DUP6 ADD MSTORE SWAP5 DUP6 ADD SWAP5 DUP8 SWAP5 POP SWAP2 DUP4 ADD SWAP2 PUSH2 0xDCB JUMP JUMPDEST SWAP3 POP POP POP PUSH2 0x832 SWAP5 SWAP3 POP PUSH1 0xFF NOT AND DUP3 DUP5 ADD MSTORE ISZERO ISZERO PUSH1 0x5 SHL DUP3 ADD ADD CODESIZE DUP1 DUP1 PUSH2 0xDAE JUMP JUMPDEST CALLVALUE PUSH2 0x239 JUMPI PUSH1 0x20 CALLDATASIZE PUSH1 0x3 NOT ADD SLT PUSH2 0x239 JUMPI PUSH1 0x4 CALLDATALOAD PUSH1 0x0 MSTORE PUSH1 0xC PUSH1 0x20 MSTORE PUSH2 0xE82 PUSH1 0x40 PUSH1 0x0 KECCAK256 PUSH2 0xE4B DUP2 PUSH2 0xD7B JUMP JUMPDEST SWAP1 PUSH1 0xFF PUSH1 0x1 DUP3 ADD SLOAD PUSH2 0xE95 PUSH2 0xE62 PUSH1 0x2 DUP6 ADD PUSH2 0xD7B JUMP JUMPDEST SWAP2 PUSH1 0x4 PUSH1 0x3 DUP7 ADD SLOAD SWAP6 ADD SLOAD SWAP3 PUSH1 0x40 MLOAD SWAP8 DUP9 SWAP8 PUSH1 0xC0 DUP10 MSTORE PUSH1 0xC0 DUP10 ADD SWAP1 PUSH2 0x2CF JUMP JUMPDEST SWAP2 PUSH1 0x20 DUP9 ADD MSTORE DUP7 DUP3 SUB PUSH1 0x40 DUP9 ADD MSTORE PUSH2 0x2CF JUMP JUMPDEST SWAP3 PUSH1 0x60 DUP6 ADD MSTORE PUSH1 0x1 DUP1 PUSH1 0xA0 SHL SUB DUP2 AND PUSH1 0x80 DUP6 ADD MSTORE PUSH1 0xA0 SHR AND ISZERO ISZERO PUSH1 0xA0 DUP4 ADD MSTORE SUB SWAP1 RETURN JUMPDEST CALLVALUE PUSH2 0x239 JUMPI PUSH1 0x0 CALLDATASIZE PUSH1 0x3 NOT ADD SLT PUSH2 0x239 JUMPI PUSH2 0x365 PUSH2 0xED4 PUSH2 0xCC9 JUMP JUMPDEST PUSH1 0x40 MLOAD SWAP2 DUP3 SWAP2 PUSH1 0x20 DUP4 MSTORE PUSH1 0x20 DUP4 ADD SWAP1 PUSH2 0x2CF JUMP JUMPDEST CALLVALUE PUSH2 0x239 JUMPI PUSH1 0x20 CALLDATASIZE PUSH1 0x3 NOT ADD SLT PUSH2 0x239 JUMPI PUSH1 0x20 PUSH2 0xF0B PUSH2 0xF06 PUSH2 0x444 JUMP JUMPDEST PUSH2 0x1A80 JUMP JUMPDEST PUSH1 0x40 MLOAD SWAP1 DUP2 MSTORE RETURN JUMPDEST CALLVALUE PUSH2 0x239 JUMPI PUSH1 0x0 DUP1 PUSH1 0x3 NOT CALLDATASIZE ADD SLT PUSH2 0x3EE JUMPI PUSH2 0xF2D PUSH2 0x2063 JUMP JUMPDEST PUSH1 0x9 DUP1 SLOAD PUSH1 0x1 PUSH1 0x1 PUSH1 0xA0 SHL SUB NOT DUP2 AND SWAP1 SWAP2 SSTORE DUP2 SWAP1 PUSH1 0x1 PUSH1 0x1 PUSH1 0xA0 SHL SUB AND PUSH32 0x8BE0079C531659141344CD1FD0A4F28419497F9722A3DAAFE3B4186F6B6457E0 DUP3 DUP1 LOG3 DUP1 RETURN JUMPDEST CALLVALUE PUSH2 0x239 JUMPI PUSH1 0x0 CALLDATASIZE PUSH1 0x3 NOT ADD SLT PUSH2 0x239 JUMPI PUSH1 0x9 SLOAD PUSH1 0x40 MLOAD PUSH1 0x1 PUSH1 0x1 PUSH1 0xA0 SHL SUB SWAP1 SWAP2 AND DUP2 MSTORE PUSH1 0x20 SWAP1 RETURN JUMPDEST CALLVALUE PUSH2 0x239 JUMPI PUSH1 0x80 CALLDATASIZE PUSH1 0x3 NOT ADD SLT PUSH2 0x239 JUMPI PUSH2 0xFB3 PUSH2 0x444 JUMP JUMPDEST PUSH1 0x1 PUSH1 0x1 PUSH1 0x40 SHL SUB SWAP1 PUSH1 0x24 CALLDATALOAD DUP3 DUP2 GT PUSH2 0x239 JUMPI PUSH2 0xFD4 SWAP1 CALLDATASIZE SWAP1 PUSH1 0x4 ADD PUSH2 0x886 JUMP JUMPDEST SWAP1 PUSH1 0x44 CALLDATALOAD SWAP3 PUSH1 0x64 CALLDATALOAD SWAP1 DUP2 GT PUSH2 0x239 JUMPI PUSH2 0xFF1 SWAP1 CALLDATASIZE SWAP1 PUSH1 0x4 ADD PUSH2 0x886 JUMP JUMPDEST SWAP2 PUSH1 0x2 PUSH1 0xA SLOAD EQ PUSH2 0x1155 JUMPI PUSH32 0x635EC4F27E96D361299E978A3DC7B7A7FD0B1293B1787B48D0B2B52C72B8B8D5 PUSH2 0x111F SWAP4 PUSH2 0x365 SWAP6 PUSH1 0x2 PUSH1 0xA SSTORE PUSH2 0x1058 PUSH2 0x1053 PUSH2 0x104C CALLER PUSH1 0x1 DUP1 PUSH1 0xA0 SHL SUB AND PUSH1 0x0 MSTORE PUSH1 0xE PUSH1 0x20 MSTORE PUSH1 0x40 PUSH1 0x0 KECCAK256 SWAP1 JUMP JUMPDEST SLOAD PUSH1 0xFF AND SWAP1 JUMP JUMPDEST PUSH2 0x1ABA JUMP JUMPDEST PUSH1 0x1 PUSH1 0x1 PUSH1 0xA0 SHL SUB DUP6 AND SWAP4 PUSH2 0x112D SWAP1 PUSH2 0x1072 DUP7 ISZERO ISZERO PUSH2 0x1AFF JUMP JUMPDEST PUSH2 0x107E DUP2 MLOAD ISZERO ISZERO PUSH2 0x1B4B JUMP JUMPDEST PUSH1 0x32 DUP4 LT ISZERO DUP1 PUSH2 0x114A JUMPI JUMPDEST PUSH2 0x1092 SWAP1 PUSH2 0x1B8B JUMP JUMPDEST PUSH2 0x10A5 PUSH2 0x109E DUP3 PUSH2 0x15C1 JUMP JUMPDEST SLOAD ISZERO PUSH2 0x1BD7 JUMP JUMPDEST PUSH1 0x0 SLOAD SWAP8 DUP9 SWAP8 PUSH2 0x10FC PUSH2 0x10B6 PUSH2 0x825 JUMP JUMPDEST DUP5 DUP2 MSTORE PUSH1 0x20 DUP2 ADD DUP8 SWAP1 MSTORE PUSH1 0x40 DUP2 ADD DUP9 SWAP1 MSTORE TIMESTAMP PUSH1 0x60 DUP3 ADD MSTORE PUSH1 0x1 PUSH1 0x1 PUSH1 0xA0 SHL SUB DUP4 AND PUSH1 0x80 DUP3 ADD MSTORE PUSH1 0x0 PUSH1 0xA0 DUP3 ADD MSTORE PUSH2 0x10F7 DUP12 PUSH1 0x0 MSTORE PUSH1 0xC PUSH1 0x20 MSTORE PUSH1 0x40 PUSH1 0x0 KECCAK256 SWAP1 JUMP JUMPDEST PUSH2 0x1C2F JUMP JUMPDEST DUP9 PUSH2 0x1106 DUP5 PUSH2 0x15C1 JUMP JUMPDEST SSTORE PUSH2 0x111A PUSH2 0x1115 PUSH1 0xF SLOAD PUSH2 0x1805 JUMP JUMPDEST PUSH1 0xF SSTORE JUMP JUMPDEST PUSH2 0x208F JUMP JUMPDEST PUSH1 0x40 MLOAD SWAP4 DUP5 SWAP4 TIMESTAMP SWAP3 DUP6 PUSH2 0x1D7A JUMP JUMPDEST SUB SWAP1 LOG3 PUSH2 0x113A PUSH1 0x1 PUSH1 0xA SSTORE JUMP JUMPDEST PUSH1 0x40 MLOAD SWAP1 DUP2 MSTORE SWAP1 DUP2 SWAP1 PUSH1 0x20 DUP3 ADD SWAP1 JUMP JUMPDEST POP PUSH1 0x64 DUP4 GT ISZERO PUSH2 0x1089 JUMP JUMPDEST PUSH1 0x40 MLOAD PUSH4 0x3EE5AEB5 PUSH1 0xE0 SHL DUP2 MSTORE PUSH1 0x4 SWAP1 REVERT JUMPDEST CALLVALUE PUSH2 0x239 JUMPI PUSH1 0x0 DUP1 PUSH1 0x3 NOT CALLDATASIZE ADD SLT PUSH2 0x3EE JUMPI PUSH1 0x40 MLOAD SWAP1 DUP1 PUSH1 0x3 SLOAD SWAP1 PUSH2 0x118B DUP3 PUSH2 0xC8F JUMP JUMPDEST DUP1 DUP6 MSTORE SWAP2 PUSH1 0x20 SWAP2 PUSH1 0x1 SWAP2 DUP3 DUP2 AND SWAP1 DUP2 ISZERO PUSH2 0x3C1 JUMPI POP PUSH1 0x1 EQ PUSH2 0x11B7 JUMPI PUSH2 0x365 DUP7 PUSH2 0x359 DUP2 DUP9 SUB DUP3 PUSH2 0x804 JUMP JUMPDEST SWAP4 POP PUSH1 0x3 DUP5 MSTORE PUSH32 0xC2575A0E9E593C00F959F8C92F12DB2869C3395A3B0502D05E2516446F71F85B JUMPDEST DUP4 DUP6 LT PUSH2 0x11FC JUMPI POP POP POP POP DUP2 ADD PUSH1 0x20 ADD PUSH2 0x359 DUP3 PUSH2 0x365 CODESIZE PUSH2 0x349 JUMP JUMPDEST DUP1 SLOAD DUP7 DUP7 ADD DUP5 ADD MSTORE SWAP4 DUP3 ADD SWAP4 DUP2 ADD PUSH2 0x11DF JUMP JUMPDEST PUSH1 0x40 SWAP1 PUSH1 0x3 NOT ADD SLT PUSH2 0x239 JUMPI PUSH1 0x4 CALLDATALOAD PUSH1 0x1 PUSH1 0x1 PUSH1 0xA0 SHL SUB DUP2 AND DUP2 SUB PUSH2 0x239 JUMPI SWAP1 PUSH1 0x24 CALLDATALOAD DUP1 ISZERO ISZERO DUP2 SUB PUSH2 0x239 JUMPI SWAP1 JUMP JUMPDEST CALLVALUE PUSH2 0x239 JUMPI PUSH2 0x124C CALLDATASIZE PUSH2 0x120F JUMP JUMPDEST SWAP1 CALLER PUSH1 0x0 MSTORE PUSH1 0x7 PUSH1 0x20 MSTORE PUSH2 0x128B DUP3 PUSH2 0x127A DUP4 PUSH1 0x40 PUSH1 0x0 KECCAK256 SWAP1 PUSH1 0x1 DUP1 PUSH1 0xA0 SHL SUB AND PUSH1 0x0 MSTORE PUSH1 0x20 MSTORE PUSH1 0x40 PUSH1 0x0 KECCAK256 SWAP1 JUMP JUMPDEST SWAP1 PUSH1 0xFF DUP1 NOT DUP4 SLOAD AND SWAP2 ISZERO ISZERO AND OR SWAP1 SSTORE JUMP JUMPDEST PUSH1 0x40 MLOAD SWAP2 ISZERO ISZERO DUP3 MSTORE PUSH1 0x1 PUSH1 0x1 PUSH1 0xA0 SHL SUB AND SWAP1 CALLER SWAP1 PUSH32 0x17307EAB39AB6107E8899845AD3D59BD9653F200F220920489CA2B5937696C31 SWAP1 PUSH1 0x20 SWAP1 LOG3 STOP JUMPDEST CALLVALUE PUSH2 0x239 JUMPI PUSH1 0x0 CALLDATASIZE PUSH1 0x3 NOT ADD SLT PUSH2 0x239 JUMPI PUSH1 0x20 PUSH1 0xF SLOAD PUSH1 0x40 MLOAD SWAP1 DUP2 MSTORE RETURN JUMPDEST CALLVALUE PUSH2 0x239 JUMPI PUSH1 0x20 CALLDATASIZE PUSH1 0x3 NOT ADD SLT PUSH2 0x239 JUMPI PUSH1 0x20 PUSH2 0x1303 PUSH1 0x4 CALLDATALOAD PUSH2 0x1D96 JUMP JUMPDEST PUSH1 0x40 MLOAD SWAP1 ISZERO ISZERO DUP2 MSTORE RETURN JUMPDEST CALLVALUE PUSH2 0x239 JUMPI PUSH1 0x20 CALLDATASIZE PUSH1 0x3 NOT ADD SLT PUSH2 0x239 JUMPI PUSH1 0x1 PUSH1 0x1 PUSH1 0xA0 SHL SUB PUSH2 0x132E PUSH2 0x444 JUMP JUMPDEST AND PUSH1 0x0 MSTORE PUSH1 0xE PUSH1 0x20 MSTORE PUSH1 0x20 PUSH1 0xFF PUSH1 0x40 PUSH1 0x0 KECCAK256 SLOAD AND PUSH1 0x40 MLOAD SWAP1 ISZERO ISZERO DUP2 MSTORE RETURN JUMPDEST CALLVALUE PUSH2 0x239 JUMPI PUSH1 0x20 PUSH2 0x1364 PUSH2 0x135F CALLDATASIZE PUSH2 0x9BE JUMP JUMPDEST PUSH2 0x15C1 JUMP JUMPDEST SLOAD PUSH1 0x40 MLOAD SWAP1 DUP2 MSTORE RETURN JUMPDEST PUSH1 0x80 CALLDATASIZE PUSH1 0x3 NOT ADD SLT PUSH2 0x239 JUMPI PUSH2 0x1381 PUSH2 0x444 JUMP JUMPDEST PUSH2 0x1389 PUSH2 0x45A JUMP JUMPDEST PUSH1 0x64 CALLDATALOAD SWAP2 PUSH1 0x1 PUSH1 0x1 PUSH1 0x40 SHL SUB DUP4 GT PUSH2 0x239 JUMPI CALLDATASIZE PUSH1 0x23 DUP5 ADD SLT ISZERO PUSH2 0x239 JUMPI PUSH2 0x13BD PUSH2 0x594 SWAP4 CALLDATASIZE SWAP1 PUSH1 0x24 DUP2 PUSH1 0x4 ADD CALLDATALOAD SWAP2 ADD PUSH2 0x84F JUMP JUMPDEST SWAP2 PUSH1 0x44 CALLDATALOAD SWAP2 PUSH2 0x1DC5 JUMP JUMPDEST CALLVALUE PUSH2 0x239 JUMPI PUSH1 0x20 CALLDATASIZE PUSH1 0x3 NOT ADD SLT PUSH2 0x239 JUMPI PUSH2 0x365 PUSH2 0xED4 PUSH1 0x4 CALLDATALOAD PUSH2 0x1E08 JUMP JUMPDEST CALLVALUE PUSH2 0x239 JUMPI PUSH1 0x0 CALLDATASIZE PUSH1 0x3 NOT ADD SLT PUSH2 0x239 JUMPI PUSH1 0x20 PUSH1 0x10 SLOAD PUSH1 0x40 MLOAD SWAP1 DUP2 MSTORE RETURN JUMPDEST CALLVALUE PUSH2 0x239 JUMPI PUSH1 0x40 CALLDATASIZE PUSH1 0x3 NOT ADD SLT PUSH2 0x239 JUMPI PUSH1 0x20 PUSH1 0xFF PUSH2 0x1455 PUSH2 0x1424 PUSH2 0x444 JUMP JUMPDEST PUSH2 0x142C PUSH2 0x45A JUMP JUMPDEST PUSH1 0x1 PUSH1 0x1 PUSH1 0xA0 SHL SUB SWAP2 DUP3 AND PUSH1 0x0 SWAP1 DUP2 MSTORE PUSH1 0x7 DUP7 MSTORE PUSH1 0x40 DUP1 DUP3 KECCAK256 SWAP3 SWAP1 SWAP4 AND DUP2 MSTORE PUSH1 0x20 SWAP2 SWAP1 SWAP2 MSTORE KECCAK256 SWAP1 JUMP JUMPDEST SLOAD AND PUSH1 0x40 MLOAD SWAP1 ISZERO ISZERO DUP2 MSTORE RETURN JUMPDEST CALLVALUE PUSH2 0x239 JUMPI PUSH2 0x146F CALLDATASIZE PUSH2 0x120F JUMP JUMPDEST SWAP1 PUSH2 0x1478 PUSH2 0x2063 JUMP JUMPDEST PUSH1 0x1 PUSH1 0x1 PUSH1 0xA0 SHL SUB AND SWAP1 DUP2 ISZERO PUSH2 0x14DE JUMPI PUSH1 0x40 PUSH32 0xAA0C2B5EA5C9F3FCC4C06F9E39F6AFDBADC432E7617F393E5F17F31412D3CA5 SWAP2 DUP4 PUSH1 0x0 MSTORE PUSH1 0xE PUSH1 0x20 MSTORE PUSH2 0x14CE DUP2 DUP4 PUSH1 0x0 KECCAK256 SWAP1 PUSH1 0xFF DUP1 NOT DUP4 SLOAD AND SWAP2 ISZERO ISZERO AND OR SWAP1 SSTORE JUMP JUMPDEST DUP2 MLOAD SWAP1 ISZERO ISZERO DUP2 MSTORE TIMESTAMP PUSH1 0x20 DUP3 ADD MSTORE LOG2 STOP JUMPDEST PUSH1 0x40 MLOAD PUSH3 0x461BCD PUSH1 0xE5 SHL DUP2 MSTORE PUSH1 0x20 PUSH1 0x4 DUP3 ADD MSTORE PUSH1 0x16 PUSH1 0x24 DUP3 ADD MSTORE PUSH22 0x496E76616C6964206D696E7465722061646472657373 PUSH1 0x50 SHL PUSH1 0x44 DUP3 ADD MSTORE PUSH1 0x64 SWAP1 REVERT JUMPDEST CALLVALUE PUSH2 0x239 JUMPI PUSH1 0x20 CALLDATASIZE PUSH1 0x3 NOT ADD SLT PUSH2 0x239 JUMPI PUSH2 0x1535 PUSH2 0x444 JUMP JUMPDEST PUSH2 0x153D PUSH2 0x2063 JUMP JUMPDEST PUSH1 0x1 PUSH1 0x1 PUSH1 0xA0 SHL SUB SWAP1 DUP2 AND SWAP1 DUP2 ISZERO PUSH2 0x1591 JUMPI PUSH1 0x9 SLOAD DUP3 PUSH12 0xFFFFFFFFFFFFFFFFFFFFFFFF PUSH1 0xA0 SHL DUP3 AND OR PUSH1 0x9 SSTORE AND PUSH32 0x8BE0079C531659141344CD1FD0A4F28419497F9722A3DAAFE3B4186F6B6457E0 PUSH1 0x0 DUP1 LOG3 STOP JUMPDEST PUSH1 0x40 MLOAD PUSH4 0x1E4FBDF7 PUSH1 0xE0 SHL DUP2 MSTORE PUSH1 0x0 PUSH1 0x4 DUP3 ADD MSTORE PUSH1 0x24 SWAP1 REVERT JUMPDEST SWAP1 PUSH2 0x15BD PUSH1 0x20 SWAP3 DUP3 DUP2 MLOAD SWAP5 DUP6 SWAP3 ADD PUSH2 0x2AC JUMP JUMPDEST ADD SWAP1 JUMP JUMPDEST PUSH1 0x20 PUSH2 0x15DA SWAP2 DUP2 PUSH1 0x40 MLOAD SWAP4 DUP3 DUP6 DUP1 SWAP5 MLOAD SWAP4 DUP5 SWAP3 ADD PUSH2 0x2AC JUMP JUMPDEST DUP2 ADD PUSH1 0xD DUP2 MSTORE SUB ADD SWAP1 KECCAK256 SWAP1 JUMP JUMPDEST SWAP2 SWAP1 SWAP2 PUSH2 0x15F3 DUP3 PUSH2 0x1F46 JUMP JUMPDEST PUSH1 0x1 PUSH1 0x1 PUSH1 0xA0 SHL SUB SWAP2 DUP3 AND SWAP4 SWAP1 DUP3 DUP2 AND DUP6 SWAP1 SUB PUSH2 0x1792 JUMPI PUSH1 0x0 DUP5 DUP2 MSTORE PUSH1 0x6 PUSH1 0x20 MSTORE PUSH1 0x40 SWAP1 KECCAK256 DUP1 SLOAD PUSH2 0x1637 PUSH1 0x1 PUSH1 0x1 PUSH1 0xA0 SHL SUB DUP9 AND CALLER SWAP1 DUP2 EQ SWAP1 DUP4 EQ OR ISZERO SWAP1 JUMP JUMPDEST ISZERO SWAP1 JUMP JUMPDEST PUSH2 0x174B JUMPI JUMPDEST PUSH2 0x1646 DUP7 DUP9 PUSH2 0x1FCE JUMP JUMPDEST PUSH2 0x1741 JUMPI JUMPDEST POP PUSH1 0x1 PUSH1 0x1 PUSH1 0xA0 SHL SUB DUP6 AND PUSH1 0x0 SWAP1 DUP2 MSTORE PUSH1 0x5 PUSH1 0x20 MSTORE PUSH1 0x40 SWAP1 KECCAK256 DUP1 SLOAD PUSH1 0x0 NOT ADD SWAP1 SSTORE PUSH1 0x1 PUSH1 0x1 PUSH1 0xA0 SHL SUB DUP3 AND PUSH1 0x0 SWAP1 DUP2 MSTORE PUSH1 0x5 PUSH1 0x20 MSTORE PUSH1 0x40 SWAP1 KECCAK256 DUP1 SLOAD PUSH1 0x1 ADD SWAP1 SSTORE PUSH1 0x1 PUSH1 0x1 PUSH1 0xA0 SHL SUB DUP3 AND TIMESTAMP PUSH1 0xA0 SHL OR PUSH1 0x1 PUSH1 0xE1 SHL OR PUSH2 0x16B4 DUP6 PUSH1 0x0 MSTORE PUSH1 0x4 PUSH1 0x20 MSTORE PUSH1 0x40 PUSH1 0x0 KECCAK256 SWAP1 JUMP JUMPDEST SSTORE PUSH1 0x1 PUSH1 0xE1 SHL DUP2 AND ISZERO PUSH2 0x16F7 JUMPI JUMPDEST POP AND DUP1 SWAP3 PUSH32 0xDDF252AD1BE2C89B69C2B068FC378DAA952BA7F163C4A11628F55A4DF523B3EF PUSH1 0x0 DUP1 LOG4 ISZERO PUSH2 0x16F2 JUMPI JUMP JUMPDEST PUSH2 0x1F24 JUMP JUMPDEST PUSH1 0x1 DUP5 ADD PUSH2 0x170F DUP2 PUSH1 0x0 MSTORE PUSH1 0x4 PUSH1 0x20 MSTORE PUSH1 0x40 PUSH1 0x0 KECCAK256 SWAP1 JUMP JUMPDEST SLOAD ISZERO PUSH2 0x171C JUMPI JUMPDEST POP PUSH2 0x16C2 JUMP JUMPDEST PUSH1 0x0 SLOAD DUP2 EQ PUSH2 0x1716 JUMPI PUSH2 0x1739 SWAP1 PUSH1 0x0 MSTORE PUSH1 0x4 PUSH1 0x20 MSTORE PUSH1 0x40 PUSH1 0x0 KECCAK256 SWAP1 JUMP JUMPDEST SSTORE CODESIZE DUP1 PUSH2 0x1716 JUMP JUMPDEST PUSH1 0x0 SWAP1 SSTORE CODESIZE PUSH2 0x164B JUMP JUMPDEST PUSH2 0x1788 PUSH2 0x1633 PUSH2 0x104C CALLER PUSH2 0x1771 DUP12 PUSH1 0x1 DUP1 PUSH1 0xA0 SHL SUB AND PUSH1 0x0 MSTORE PUSH1 0x7 PUSH1 0x20 MSTORE PUSH1 0x40 PUSH1 0x0 KECCAK256 SWAP1 JUMP JUMPDEST SWAP1 PUSH1 0x1 DUP1 PUSH1 0xA0 SHL SUB AND PUSH1 0x0 MSTORE PUSH1 0x20 MSTORE PUSH1 0x40 PUSH1 0x0 KECCAK256 SWAP1 JUMP JUMPDEST ISZERO PUSH2 0x163C JUMPI PUSH2 0x1F13 JUMP JUMPDEST PUSH2 0x1F03 JUMP JUMPDEST PUSH4 0x4E487B71 PUSH1 0xE0 SHL PUSH1 0x0 MSTORE PUSH1 0x11 PUSH1 0x4 MSTORE PUSH1 0x24 PUSH1 0x0 REVERT JUMPDEST PUSH1 0x0 NOT DUP2 ADD SWAP2 SWAP1 DUP3 GT PUSH2 0x5CD JUMPI JUMP JUMPDEST PUSH1 0x1 PUSH1 0x1 PUSH1 0x40 SHL SUB DUP2 GT PUSH2 0x7B8 JUMPI PUSH1 0x5 SHL PUSH1 0x20 ADD SWAP1 JUMP JUMPDEST SWAP1 PUSH2 0x17DD DUP3 PUSH2 0x17BC JUMP JUMPDEST PUSH2 0x17EA PUSH1 0x40 MLOAD SWAP2 DUP3 PUSH2 0x804 JUMP JUMPDEST DUP3 DUP2 MSTORE DUP1 SWAP3 PUSH2 0x17FB PUSH1 0x1F NOT SWAP2 PUSH2 0x17BC JUMP JUMPDEST ADD SWAP1 PUSH1 0x20 CALLDATASIZE SWAP2 ADD CALLDATACOPY JUMP JUMPDEST PUSH1 0x0 NOT DUP2 EQ PUSH2 0x5CD JUMPI PUSH1 0x1 ADD SWAP1 JUMP JUMPDEST PUSH1 0x1 ADD SWAP1 DUP2 PUSH1 0x1 GT PUSH2 0x5CD JUMPI JUMP JUMPDEST SWAP1 PUSH1 0x2 DUP3 ADD DUP1 SWAP3 GT PUSH2 0x5CD JUMPI JUMP JUMPDEST DUP1 MLOAD DUP3 LT ISZERO PUSH2 0x1844 JUMPI PUSH1 0x20 SWAP2 PUSH1 0x5 SHL ADD ADD SWAP1 JUMP JUMPDEST PUSH4 0x4E487B71 PUSH1 0xE0 SHL PUSH1 0x0 MSTORE PUSH1 0x32 PUSH1 0x4 MSTORE PUSH1 0x24 PUSH1 0x0 REVERT JUMPDEST PUSH1 0x40 MLOAD SWAP1 PUSH2 0x1867 DUP3 PUSH2 0x7E9 JUMP JUMPDEST PUSH1 0x0 DUP3 MSTORE JUMP JUMPDEST ISZERO PUSH2 0x1874 JUMPI JUMP JUMPDEST PUSH1 0x40 MLOAD PUSH3 0x461BCD PUSH1 0xE5 SHL DUP2 MSTORE PUSH1 0x20 PUSH1 0x4 DUP3 ADD MSTORE PUSH1 0x14 PUSH1 0x24 DUP3 ADD MSTORE PUSH20 0x151BDAD95B88191BD95CC81B9BDD08195E1A5CDD PUSH1 0x62 SHL PUSH1 0x44 DUP3 ADD MSTORE PUSH1 0x64 SWAP1 REVERT JUMPDEST SWAP3 SWAP2 SWAP1 PUSH2 0x18C7 PUSH1 0x20 SWAP2 PUSH1 0x40 DUP7 MSTORE PUSH1 0x40 DUP7 ADD SWAP1 PUSH2 0x2CF JUMP JUMPDEST SWAP4 ADD MSTORE JUMP JUMPDEST PUSH1 0x1F DUP2 GT PUSH2 0x18D8 JUMPI POP POP JUMP JUMPDEST PUSH1 0x0 SWAP1 PUSH1 0xB PUSH1 0x0 MSTORE PUSH1 0x0 DUP1 MLOAD PUSH1 0x20 PUSH2 0x2B09 DUP4 CODECOPY DUP2 MLOAD SWAP2 MSTORE SWAP1 PUSH1 0x20 PUSH1 0x1F DUP6 ADD PUSH1 0x5 SHR DUP4 ADD SWAP5 LT PUSH2 0x1922 JUMPI JUMPDEST PUSH1 0x1F ADD PUSH1 0x5 SHR ADD SWAP2 JUMPDEST DUP3 DUP2 LT PUSH2 0x1917 JUMPI POP POP POP JUMP JUMPDEST DUP2 DUP2 SSTORE PUSH1 0x1 ADD PUSH2 0x190B JUMP JUMPDEST SWAP1 SWAP3 POP DUP3 SWAP1 PUSH2 0x1902 JUMP JUMPDEST SWAP1 PUSH1 0x1F DUP2 GT PUSH2 0x193A JUMPI POP POP POP JUMP JUMPDEST PUSH1 0x0 SWAP2 PUSH1 0x0 MSTORE PUSH1 0x20 PUSH1 0x0 KECCAK256 SWAP1 PUSH1 0x20 PUSH1 0x1F DUP6 ADD PUSH1 0x5 SHR DUP4 ADD SWAP5 LT PUSH2 0x1978 JUMPI JUMPDEST PUSH1 0x1F ADD PUSH1 0x5 SHR ADD SWAP2 JUMPDEST DUP3 DUP2 LT PUSH2 0x196D JUMPI POP POP POP JUMP JUMPDEST DUP2 DUP2 SSTORE PUSH1 0x1 ADD PUSH2 0x1961 JUMP JUMPDEST SWAP1 SWAP3 POP DUP3 SWAP1 PUSH2 0x1958 JUMP JUMPDEST SWAP2 SWAP1 SWAP2 DUP3 MLOAD PUSH1 0x1 PUSH1 0x1 PUSH1 0x40 SHL SUB DUP2 GT PUSH2 0x7B8 JUMPI PUSH2 0x19A9 DUP2 PUSH2 0x19A3 DUP5 SLOAD PUSH2 0xC8F JUMP JUMPDEST DUP5 PUSH2 0x192C JUMP JUMPDEST PUSH1 0x20 DUP1 PUSH1 0x1F DUP4 GT PUSH1 0x1 EQ PUSH2 0x19EC JUMPI POP DUP2 SWAP1 PUSH2 0x19DD SWAP4 SWAP5 SWAP6 PUSH1 0x0 SWAP3 PUSH2 0x19E1 JUMPI JUMPDEST POP POP DUP2 PUSH1 0x1 SHL SWAP2 PUSH1 0x0 NOT SWAP1 PUSH1 0x3 SHL SHR NOT AND OR SWAP1 JUMP JUMPDEST SWAP1 SSTORE JUMP JUMPDEST ADD MLOAD SWAP1 POP CODESIZE DUP1 PUSH2 0x19C8 JUMP JUMPDEST SWAP1 PUSH1 0x1F NOT DUP4 AND SWAP6 PUSH2 0x1A02 DUP6 PUSH1 0x0 MSTORE PUSH1 0x20 PUSH1 0x0 KECCAK256 SWAP1 JUMP JUMPDEST SWAP3 PUSH1 0x0 SWAP1 JUMPDEST DUP9 DUP3 LT PUSH2 0x1A3F JUMPI POP POP DUP4 PUSH1 0x1 SWAP6 SWAP7 SWAP8 LT PUSH2 0x1A26 JUMPI JUMPDEST POP POP POP DUP2 SHL ADD SWAP1 SSTORE JUMP JUMPDEST ADD MLOAD PUSH1 0x0 NOT PUSH1 0xF8 DUP5 PUSH1 0x3 SHL AND SHR NOT AND SWAP1 SSTORE CODESIZE DUP1 DUP1 PUSH2 0x1A1C JUMP JUMPDEST DUP1 PUSH1 0x1 DUP6 SWAP7 DUP3 SWAP5 SWAP7 DUP7 ADD MLOAD DUP2 SSTORE ADD SWAP6 ADD SWAP4 ADD SWAP1 PUSH2 0x1A07 JUMP JUMPDEST SWAP4 SWAP3 SWAP2 PUSH2 0x18C7 SWAP1 PUSH2 0x1A72 PUSH1 0x40 SWAP4 PUSH1 0x60 DUP9 MSTORE PUSH1 0x60 DUP9 ADD SWAP1 PUSH2 0x2CF JUMP JUMPDEST SWAP1 DUP7 DUP3 SUB PUSH1 0x20 DUP9 ADD MSTORE PUSH2 0x2CF JUMP JUMPDEST PUSH1 0x1 PUSH1 0x1 PUSH1 0xA0 SHL SUB AND DUP1 ISZERO PUSH2 0x1AA9 JUMPI PUSH1 0x0 MSTORE PUSH1 0x5 PUSH1 0x20 MSTORE PUSH1 0x1 PUSH1 0x1 PUSH1 0x40 SHL SUB PUSH1 0x40 PUSH1 0x0 KECCAK256 SLOAD AND SWAP1 JUMP JUMPDEST PUSH4 0x23D3AD81 PUSH1 0xE2 SHL PUSH1 0x0 MSTORE PUSH1 0x4 PUSH1 0x0 REVERT JUMPDEST ISZERO PUSH2 0x1AC1 JUMPI JUMP JUMPDEST PUSH1 0x40 MLOAD PUSH3 0x461BCD PUSH1 0xE5 SHL DUP2 MSTORE PUSH1 0x20 PUSH1 0x4 DUP3 ADD MSTORE PUSH1 0x16 PUSH1 0x24 DUP3 ADD MSTORE PUSH22 0x139BDD08185D5D1A1BDC9A5E9959081D1BC81B5A5B9D PUSH1 0x52 SHL PUSH1 0x44 DUP3 ADD MSTORE PUSH1 0x64 SWAP1 REVERT JUMPDEST ISZERO PUSH2 0x1B06 JUMPI JUMP JUMPDEST PUSH1 0x40 MLOAD PUSH3 0x461BCD PUSH1 0xE5 SHL DUP2 MSTORE PUSH1 0x20 PUSH1 0x4 DUP3 ADD MSTORE PUSH1 0x1B PUSH1 0x24 DUP3 ADD MSTORE PUSH32 0x43616E6E6F74206D696E7420746F207A65726F20616464726573730000000000 PUSH1 0x44 DUP3 ADD MSTORE PUSH1 0x64 SWAP1 REVERT JUMPDEST ISZERO PUSH2 0x1B52 JUMPI JUMP JUMPDEST PUSH1 0x40 MLOAD PUSH3 0x461BCD PUSH1 0xE5 SHL DUP2 MSTORE PUSH1 0x20 PUSH1 0x4 DUP3 ADD MSTORE PUSH1 0x11 PUSH1 0x24 DUP3 ADD MSTORE PUSH17 0x92DCECC2D8D2C84092A08CA640D0C2E6D PUSH1 0x7B SHL PUSH1 0x44 DUP3 ADD MSTORE PUSH1 0x64 SWAP1 REVERT JUMPDEST ISZERO PUSH2 0x1B92 JUMPI JUMP JUMPDEST PUSH1 0x40 MLOAD PUSH3 0x461BCD PUSH1 0xE5 SHL DUP2 MSTORE PUSH1 0x20 PUSH1 0x4 DUP3 ADD MSTORE PUSH1 0x18 PUSH1 0x24 DUP3 ADD MSTORE PUSH32 0x496E76616C696420636F6E666964656E63652073636F72650000000000000000 PUSH1 0x44 DUP3 ADD MSTORE PUSH1 0x64 SWAP1 REVERT JUMPDEST ISZERO PUSH2 0x1BDE JUMPI JUMP JUMPDEST PUSH1 0x40 MLOAD PUSH3 0x461BCD PUSH1 0xE5 SHL DUP2 MSTORE PUSH1 0x20 PUSH1 0x4 DUP3 ADD MSTORE PUSH1 0x23 PUSH1 0x24 DUP3 ADD MSTORE PUSH32 0x4E465420616C72656164792065786973747320666F72207468697320636F6E74 PUSH1 0x44 DUP3 ADD MSTORE PUSH3 0x195B9D PUSH1 0xEA SHL PUSH1 0x64 DUP3 ADD MSTORE PUSH1 0x84 SWAP1 REVERT JUMPDEST SWAP2 SWAP1 DUP1 MLOAD SWAP3 DUP4 MLOAD PUSH1 0x1 PUSH1 0x1 PUSH1 0x40 SHL SUB DUP2 GT PUSH2 0x7B8 JUMPI PUSH2 0x1C52 DUP2 PUSH2 0x19A3 DUP5 SLOAD PUSH2 0xC8F JUMP JUMPDEST PUSH1 0x20 DUP1 PUSH1 0x1F DUP4 GT PUSH1 0x1 EQ PUSH2 0x1CFE JUMPI POP PUSH2 0x1CE4 SWAP3 PUSH2 0x1C90 DUP4 PUSH1 0xA0 SWAP5 PUSH1 0x4 SWAP5 PUSH2 0x832 SWAP10 SWAP11 PUSH1 0x0 SWAP3 PUSH2 0x19E1 JUMPI POP POP DUP2 PUSH1 0x1 SHL SWAP2 PUSH1 0x0 NOT SWAP1 PUSH1 0x3 SHL SHR NOT AND OR SWAP1 JUMP JUMPDEST DUP2 SSTORE JUMPDEST PUSH1 0x20 DUP6 ADD MLOAD PUSH1 0x1 DUP3 ADD SSTORE PUSH2 0x1CAE PUSH1 0x40 DUP7 ADD MLOAD PUSH1 0x2 DUP4 ADD PUSH2 0x1982 JUMP JUMPDEST PUSH1 0x60 DUP6 ADD MLOAD PUSH1 0x3 DUP3 ADD SSTORE PUSH1 0x80 DUP6 ADD MLOAD SWAP2 ADD DUP1 SLOAD PUSH1 0x1 PUSH1 0x1 PUSH1 0xA0 SHL SUB NOT AND PUSH1 0x1 PUSH1 0x1 PUSH1 0xA0 SHL SUB SWAP1 SWAP3 AND SWAP2 SWAP1 SWAP2 OR DUP2 SSTORE SWAP3 ADD MLOAD ISZERO ISZERO SWAP1 JUMP JUMPDEST DUP2 SLOAD PUSH1 0xFF PUSH1 0xA0 SHL NOT AND SWAP1 ISZERO ISZERO PUSH1 0xA0 SHL PUSH1 0xFF PUSH1 0xA0 SHL AND OR SWAP1 SSTORE JUMP JUMPDEST SWAP1 PUSH1 0x1F NOT DUP4 AND SWAP7 PUSH2 0x1D14 DUP6 PUSH1 0x0 MSTORE PUSH1 0x20 PUSH1 0x0 KECCAK256 SWAP1 JUMP JUMPDEST SWAP3 PUSH1 0x0 SWAP1 JUMPDEST DUP10 DUP3 LT PUSH2 0x1D62 JUMPI POP POP DUP4 PUSH1 0x4 SWAP4 PUSH2 0x1CE4 SWAP7 SWAP4 PUSH1 0x1 SWAP4 PUSH1 0xA0 SWAP8 PUSH2 0x832 SWAP12 SWAP13 LT PUSH2 0x1D49 JUMPI JUMPDEST POP POP POP DUP2 SHL ADD DUP2 SSTORE PUSH2 0x1C93 JUMP JUMPDEST ADD MLOAD PUSH1 0x0 NOT PUSH1 0xF8 DUP5 PUSH1 0x3 SHL AND SHR NOT AND SWAP1 SSTORE CODESIZE DUP1 DUP1 PUSH2 0x1D3C JUMP JUMPDEST DUP1 PUSH1 0x1 DUP6 SWAP7 DUP3 SWAP5 SWAP7 DUP7 ADD MLOAD DUP2 SSTORE ADD SWAP6 ADD SWAP4 ADD SWAP1 PUSH2 0x1D19 JUMP JUMPDEST SWAP5 SWAP4 SWAP3 SWAP2 PUSH1 0x60 SWAP3 PUSH2 0xE82 PUSH2 0x18C7 SWAP4 PUSH1 0x80 DUP10 MSTORE PUSH1 0x80 DUP10 ADD SWAP1 PUSH2 0x2CF JUMP JUMPDEST PUSH2 0x1D9F DUP2 PUSH2 0x1E96 JUMP JUMPDEST ISZERO PUSH2 0x1DBF JUMPI PUSH1 0x0 MSTORE PUSH1 0xC PUSH1 0x20 MSTORE PUSH1 0xFF PUSH1 0x4 PUSH1 0x40 PUSH1 0x0 KECCAK256 ADD SLOAD PUSH1 0xA0 SHR AND ISZERO SWAP1 JUMP JUMPDEST POP PUSH1 0x0 SWAP1 JUMP JUMPDEST SWAP3 SWAP2 SWAP1 PUSH2 0x1DD3 DUP3 DUP3 DUP7 PUSH2 0x15E7 JUMP JUMPDEST DUP1 EXTCODESIZE PUSH2 0x1DE0 JUMPI JUMPDEST POP POP POP POP JUMP JUMPDEST PUSH2 0x1DE9 SWAP4 PUSH2 0x2199 JUMP JUMPDEST ISZERO PUSH2 0x1DF7 JUMPI CODESIZE DUP1 DUP1 DUP1 PUSH2 0x1DDA JUMP JUMPDEST PUSH4 0x68D2BF6B PUSH1 0xE1 SHL PUSH1 0x0 MSTORE PUSH1 0x4 PUSH1 0x0 REVERT JUMPDEST PUSH2 0x1E14 PUSH2 0x8E8 DUP3 PUSH2 0x1E96 JUMP JUMPDEST DUP1 PUSH1 0x0 MSTORE PUSH1 0xC PUSH1 0x20 MSTORE PUSH1 0x40 PUSH1 0x0 KECCAK256 PUSH1 0xFF PUSH1 0x4 PUSH1 0x40 MLOAD SWAP3 PUSH2 0x1E33 DUP5 PUSH2 0x7CE JUMP JUMPDEST PUSH2 0x1E3C DUP2 PUSH2 0xD7B JUMP JUMPDEST DUP5 MSTORE PUSH1 0x1 DUP2 ADD SLOAD PUSH1 0x20 DUP6 ADD MSTORE PUSH2 0x1E54 PUSH1 0x2 DUP3 ADD PUSH2 0xD7B JUMP JUMPDEST PUSH1 0x40 DUP6 ADD MSTORE PUSH1 0x3 DUP2 ADD SLOAD PUSH1 0x60 DUP6 ADD MSTORE ADD SLOAD PUSH1 0x1 DUP1 PUSH1 0xA0 SHL SUB DUP2 AND PUSH1 0x80 DUP5 ADD MSTORE PUSH1 0xA0 SHR AND ISZERO ISZERO DUP1 PUSH1 0xA0 DUP4 ADD MSTORE PUSH2 0x1E8C JUMPI PUSH2 0x305 SWAP2 PUSH2 0x2494 JUMP JUMPDEST POP PUSH2 0x305 SWAP1 PUSH2 0x22CD JUMP JUMPDEST PUSH1 0x0 SWAP2 SWAP1 PUSH1 0x1 SWAP1 DUP4 DUP2 DUP4 GT ISZERO PUSH2 0x1EAB JUMPI POP POP POP JUMP JUMPDEST PUSH1 0x0 SLOAD DUP3 LT PUSH2 0x1EB9 JUMPI POP POP POP JUMP JUMPDEST DUP3 SWAP4 SWAP5 POP PUSH1 0x0 SWAP3 SWAP2 SWAP3 SWAP4 JUMPDEST PUSH2 0x1ED6 JUMPI JUMPDEST POP POP POP PUSH1 0x1 PUSH1 0xE0 SHL AND ISZERO SWAP1 JUMP JUMPDEST DUP3 DUP2 MSTORE PUSH1 0x4 PUSH1 0x20 MSTORE PUSH1 0x40 DUP2 KECCAK256 SLOAD SWAP4 POP SWAP1 SWAP2 DUP4 PUSH2 0x1EFE JUMPI DUP1 ISZERO PUSH2 0x5CD JUMPI PUSH1 0x0 NOT ADD SWAP2 SWAP1 DUP2 PUSH2 0x1EC4 JUMP JUMPDEST PUSH2 0x1EC9 JUMP JUMPDEST PUSH3 0xA11481 PUSH1 0xE8 SHL PUSH1 0x0 MSTORE PUSH1 0x4 PUSH1 0x0 REVERT JUMPDEST PUSH4 0x2CE44B5F PUSH1 0xE1 SHL PUSH1 0x0 MSTORE PUSH1 0x4 PUSH1 0x0 REVERT JUMPDEST PUSH4 0x3A954ECD PUSH1 0xE2 SHL PUSH1 0x0 MSTORE PUSH1 0x4 PUSH1 0x0 REVERT JUMPDEST PUSH4 0x6F96CDA1 PUSH1 0xE1 SHL PUSH1 0x0 MSTORE PUSH1 0x4 PUSH1 0x0 REVERT JUMPDEST PUSH1 0x1 SWAP1 DUP1 PUSH1 0x1 GT PUSH2 0x1F35 JUMPI PUSH2 0x1F65 DUP2 PUSH1 0x0 MSTORE PUSH1 0x4 PUSH1 0x20 MSTORE PUSH1 0x40 PUSH1 0x0 KECCAK256 SWAP1 JUMP JUMPDEST SLOAD SWAP2 DUP3 ISZERO PUSH2 0x1F82 JUMPI JUMPDEST POP POP PUSH1 0x1 PUSH1 0xE0 SHL DUP2 AND ISZERO PUSH2 0x305 JUMPI DUP1 PUSH2 0x1F35 JUMP JUMPDEST PUSH1 0x0 SLOAD DUP3 LT ISZERO PUSH2 0x1F35 JUMPI SWAP1 DUP2 JUMPDEST ISZERO PUSH2 0x1F6E JUMPI SWAP1 SWAP2 POP PUSH1 0x0 NOT ADD PUSH2 0x1FAF DUP2 PUSH1 0x0 MSTORE PUSH1 0x4 PUSH1 0x20 MSTORE PUSH1 0x40 PUSH1 0x0 KECCAK256 SWAP1 JUMP JUMPDEST SLOAD SWAP2 DUP3 ISZERO PUSH2 0x1FC7 JUMPI POP POP PUSH1 0x1 PUSH1 0xE0 SHL DUP2 AND PUSH2 0x1F35 JUMPI SWAP1 JUMP JUMPDEST SWAP1 DUP2 PUSH2 0x1F8F JUMP JUMPDEST PUSH1 0x1 PUSH1 0x1 PUSH1 0xA0 SHL SUB AND ISZERO PUSH2 0x2060 JUMPI PUSH1 0x0 DUP1 JUMPDEST PUSH1 0x1 DUP2 LT PUSH2 0x1FED JUMPI POP POP POP JUMP JUMPDEST DUP1 DUP4 ADD DUP1 DUP5 GT PUSH2 0x5CD JUMPI DUP3 MSTORE PUSH1 0x20 PUSH1 0xC DUP2 MSTORE PUSH1 0x4 SWAP1 PUSH1 0x40 PUSH1 0xFF DUP4 DUP3 DUP8 KECCAK256 ADD SLOAD PUSH1 0xA0 SHR AND PUSH2 0x201F JUMPI POP POP POP PUSH1 0x1 ADD PUSH2 0x1FE0 JUMP JUMPDEST MLOAD PUSH3 0x461BCD PUSH1 0xE5 SHL DUP2 MSTORE SWAP2 DUP3 ADD MSTORE PUSH1 0x1B PUSH1 0x24 DUP3 ADD MSTORE PUSH32 0x43616E6E6F74207472616E73666572207265766F6B6564204E46540000000000 PUSH1 0x44 DUP3 ADD MSTORE PUSH1 0x64 SWAP2 POP REVERT JUMPDEST POP JUMP JUMPDEST PUSH1 0x9 SLOAD PUSH1 0x1 PUSH1 0x1 PUSH1 0xA0 SHL SUB AND CALLER SUB PUSH2 0x2077 JUMPI JUMP JUMPDEST PUSH1 0x40 MLOAD PUSH4 0x118CDAA7 PUSH1 0xE0 SHL DUP2 MSTORE CALLER PUSH1 0x4 DUP3 ADD MSTORE PUSH1 0x24 SWAP1 REVERT JUMPDEST PUSH1 0x0 DUP1 SLOAD SWAP2 PUSH1 0x1 PUSH1 0x1 PUSH1 0xA0 SHL SUB DUP2 AND TIMESTAMP PUSH1 0xA0 SHL OR PUSH1 0x1 PUSH1 0xE1 SHL OR PUSH2 0x20BD DUP5 PUSH1 0x0 MSTORE PUSH1 0x4 PUSH1 0x20 MSTORE PUSH1 0x40 PUSH1 0x0 KECCAK256 SWAP1 JUMP JUMPDEST SSTORE PUSH1 0x1 PUSH1 0x1 PUSH1 0xA0 SHL SUB AND PUSH1 0x0 DUP2 DUP2 MSTORE PUSH1 0x5 PUSH1 0x20 MSTORE PUSH1 0x40 SWAP1 KECCAK256 DUP1 SLOAD PUSH9 0x10000000000000001 ADD SWAP1 SSTORE DUP1 ISZERO PUSH2 0x2146 JUMPI PUSH1 0x1 DUP4 DUP2 ADD SWAP4 SWAP2 SWAP1 DUP1 DUP1 JUMPDEST PUSH2 0x2101 JUMPI JUMPDEST POP POP POP POP SSTORE JUMP JUMPDEST ISZERO PUSH2 0x2135 JUMPI JUMPDEST DUP4 DUP2 DUP5 DUP5 DUP8 PUSH32 0xDDF252AD1BE2C89B69C2B068FC378DAA952BA7F163C4A11628F55A4DF523B3EF DUP2 DUP1 LOG4 PUSH2 0x20F5 JUMP JUMPDEST DUP1 SWAP3 ADD SWAP2 DUP5 DUP4 SUB PUSH2 0x2107 JUMPI DUP1 PUSH2 0x20FA JUMP JUMPDEST PUSH3 0x2E0763 PUSH1 0xE8 SHL DUP3 MSTORE PUSH1 0x4 DUP3 REVERT JUMPDEST SWAP1 DUP2 PUSH1 0x20 SWAP2 SUB SLT PUSH2 0x239 JUMPI MLOAD PUSH2 0x305 DUP2 PUSH2 0x227 JUMP JUMPDEST RETURNDATASIZE ISZERO PUSH2 0x2194 JUMPI RETURNDATASIZE SWAP1 PUSH2 0x217A DUP3 PUSH2 0x834 JUMP JUMPDEST SWAP2 PUSH2 0x2188 PUSH1 0x40 MLOAD SWAP4 DUP5 PUSH2 0x804 JUMP JUMPDEST DUP3 MSTORE RETURNDATASIZE PUSH1 0x0 PUSH1 0x20 DUP5 ADD RETURNDATACOPY JUMP JUMPDEST PUSH1 0x60 SWAP1 JUMP JUMPDEST SWAP3 PUSH1 0x20 SWAP2 PUSH2 0x21E2 SWAP4 PUSH1 0x0 PUSH1 0x1 DUP1 PUSH1 0xA0 SHL SUB PUSH1 0x40 MLOAD DUP1 SWAP8 DUP2 SWAP7 DUP3 SWAP6 DUP5 PUSH4 0xA85BD01 PUSH1 0xE1 SHL SWAP13 DUP14 DUP7 MSTORE CALLER PUSH1 0x4 DUP8 ADD MSTORE AND PUSH1 0x24 DUP6 ADD MSTORE PUSH1 0x44 DUP5 ADD MSTORE PUSH1 0x80 PUSH1 0x64 DUP5 ADD MSTORE PUSH1 0x84 DUP4 ADD SWAP1 PUSH2 0x2CF JUMP JUMPDEST SUB SWAP4 AND GAS CALL PUSH1 0x0 SWAP2 DUP2 PUSH2 0x221F JUMPI JUMPDEST POP PUSH2 0x2211 JUMPI PUSH2 0x21FD PUSH2 0x2169 JUMP JUMPDEST DUP1 MLOAD ISZERO PUSH2 0x220C JUMPI DUP1 MLOAD SWAP1 PUSH1 0x20 ADD REVERT JUMPDEST PUSH2 0x1DF7 JUMP JUMPDEST PUSH1 0x1 PUSH1 0x1 PUSH1 0xE0 SHL SUB NOT AND EQ SWAP1 JUMP JUMPDEST PUSH2 0x2242 SWAP2 SWAP3 POP PUSH1 0x20 RETURNDATASIZE PUSH1 0x20 GT PUSH2 0x2249 JUMPI JUMPDEST PUSH2 0x223A DUP2 DUP4 PUSH2 0x804 JUMP JUMPDEST DUP2 ADD SWAP1 PUSH2 0x2154 JUMP JUMPDEST SWAP1 CODESIZE PUSH2 0x21F0 JUMP JUMPDEST POP RETURNDATASIZE PUSH2 0x2230 JUMP JUMPDEST PUSH1 0xB SLOAD PUSH1 0x0 SWAP3 SWAP2 PUSH2 0x2260 DUP3 PUSH2 0xC8F JUMP JUMPDEST SWAP2 PUSH1 0x1 SWAP1 DUP2 DUP2 AND SWAP1 DUP2 ISZERO PUSH2 0x22BA JUMPI POP PUSH1 0x1 EQ PUSH2 0x227B JUMPI POP POP POP JUMP JUMPDEST SWAP1 SWAP2 SWAP3 SWAP4 POP PUSH1 0xB PUSH1 0x0 MSTORE PUSH1 0x0 DUP1 MLOAD PUSH1 0x20 PUSH2 0x2B09 DUP4 CODECOPY DUP2 MLOAD SWAP2 MSTORE SWAP1 PUSH1 0x0 SWAP2 JUMPDEST DUP5 DUP4 LT PUSH2 0x22A7 JUMPI POP POP POP ADD SWAP1 JUMP JUMPDEST DUP2 DUP2 PUSH1 0x20 SWAP3 SLOAD DUP6 DUP8 ADD MSTORE ADD SWAP3 ADD SWAP2 PUSH2 0x2299 JUMP JUMPDEST PUSH1 0xFF NOT AND DUP4 MSTORE POP POP DUP2 ISZERO ISZERO SWAP1 SWAP2 MUL ADD SWAP2 POP JUMP JUMPDEST PUSH2 0x305 PUSH1 0x84 PUSH2 0x2452 PUSH2 0x22E1 PUSH2 0x2488 SWAP5 PUSH2 0x285C JUMP JUMPDEST PUSH2 0x2430 PUSH2 0x2422 PUSH2 0x23E4 PUSH2 0x23C9 PUSH2 0x23AF PUSH2 0x23AA PUSH1 0x40 MLOAD SWAP9 DUP10 SWAP8 PUSH32 0x7B226E616D65223A20225265766F6B6564204365727469666963617465202300 PUSH1 0x20 DUP11 ADD MSTORE PUSH2 0x2333 DUP2 MLOAD DUP1 SWAP3 PUSH1 0x20 PUSH1 0x3F DUP14 ADD SWAP2 ADD PUSH2 0x2AC JUMP JUMPDEST PUSH32 0x222C20226465736372697074696F6E223A2022546869732061757468656E7469 PUSH1 0x3F SWAP2 DUP11 ADD SWAP2 DUP3 ADD MSTORE PUSH32 0x6369747920636572746966696361746520686173206265656E207265766F6B65 PUSH1 0x5F DUP3 ADD MSTORE PUSH5 0x321711161 PUSH1 0xDD SHL PUSH1 0x7F DUP3 ADD MSTORE PUSH10 0x1134B6B0B3B2911D1011 PUSH1 0xB1 SHL SWAP2 ADD SWAP1 DUP2 MSTORE PUSH1 0xA ADD SWAP1 JUMP JUMPDEST PUSH2 0x2250 JUMP JUMPDEST PUSH14 0x3932BB37B5B2B21738373391161 PUSH1 0x95 SHL DUP2 MSTORE PUSH1 0xE ADD SWAP1 JUMP JUMPDEST PUSH15 0x2261747472696275746573223A205B PUSH1 0x88 SHL DUP2 MSTORE PUSH1 0xF ADD SWAP1 JUMP JUMPDEST PUSH32 0x7B2274726169745F74797065223A2022537461747573222C202276616C756522 DUP2 MSTORE PUSH12 0x3A20225265766F6B6564227D PUSH1 0xA0 SHL PUSH1 0x20 DUP3 ADD MSTORE PUSH1 0x2C ADD SWAP1 JUMP JUMPDEST PUSH2 0x5D7D PUSH1 0xF0 SHL DUP2 MSTORE PUSH1 0x2 ADD SWAP1 JUMP JUMPDEST SUB SWAP2 PUSH2 0x2444 PUSH1 0x1F NOT SWAP4 DUP5 DUP2 ADD DUP4 MSTORE DUP3 PUSH2 0x804 JUMP JUMPDEST PUSH2 0x244C PUSH2 0x29A0 JUMP JUMPDEST SWAP1 PUSH2 0x2A27 JUMP JUMPDEST PUSH1 0x40 MLOAD PUSH32 0x646174613A6170706C69636174696F6E2F6A736F6E3B6261736536342C000000 PUSH1 0x20 DUP3 ADD MSTORE SWAP4 DUP5 SWAP2 PUSH1 0x3D DUP4 ADD SWAP1 PUSH2 0x15AA JUMP JUMPDEST SUB SWAP1 DUP2 ADD DUP4 MSTORE DUP3 PUSH2 0x804 JUMP JUMPDEST PUSH2 0x249D SWAP1 PUSH2 0x285C JUMP JUMPDEST DUP2 MLOAD SWAP2 PUSH1 0x20 DUP2 ADD MLOAD PUSH2 0x24AE SWAP1 PUSH2 0x285C JUMP JUMPDEST SWAP1 PUSH1 0x40 DUP2 ADD MLOAD PUSH1 0x60 DUP3 ADD MLOAD PUSH2 0x24C2 SWAP1 PUSH2 0x285C JUMP JUMPDEST SWAP2 MLOAD SWAP3 PUSH1 0x40 MLOAD SWAP6 DUP7 SWAP6 PUSH1 0x20 DUP8 ADD PUSH2 0x250A SWAP1 PUSH1 0x24 SWAP1 PUSH32 0x7B226E616D65223A202241757468656E74696369747920436572746966696361 DUP2 MSTORE PUSH4 0x74652023 PUSH1 0xE0 SHL PUSH1 0x20 DUP3 ADD MSTORE ADD SWAP1 JUMP JUMPDEST PUSH2 0x2513 SWAP2 PUSH2 0x15AA JUMP JUMPDEST PUSH32 0x222C20226465736372697074696F6E223A202254686973204E46542063657274 DUP2 MSTORE PUSH32 0x6966696573207468652061757468656E746963697479206F6620646967697461 PUSH1 0x20 DUP3 ADD MSTORE PUSH32 0x6C20636F6E74656E7420766572696669656420627920414920616E616C797369 PUSH1 0x40 DUP3 ADD MSTORE PUSH5 0x399711161 PUSH1 0xDD SHL PUSH1 0x60 DUP3 ADD MSTORE PUSH1 0x65 ADD PUSH10 0x1134B6B0B3B2911D1011 PUSH1 0xB1 SHL DUP2 MSTORE PUSH1 0xA ADD PUSH2 0x25AF SWAP1 PUSH2 0x2250 JUMP JUMPDEST PUSH18 0x31B2B93A34B334B1B0BA329738373391161 PUSH1 0x75 SHL DUP2 MSTORE PUSH1 0x12 ADD PUSH32 0x2265787465726E616C5F75726C223A202268747470733A2F2F67617465776179 DUP2 MSTORE PUSH19 0x2E70696E6174612E636C6F75642F697066732F PUSH1 0x68 SHL PUSH1 0x20 DUP3 ADD MSTORE PUSH1 0x33 ADD PUSH2 0x2615 SWAP2 PUSH2 0x15AA JUMP JUMPDEST PUSH3 0x11161 PUSH1 0xED SHL DUP2 MSTORE PUSH1 0x3 ADD PUSH15 0x2261747472696275746573223A205B PUSH1 0x88 SHL DUP2 MSTORE PUSH1 0xF ADD PUSH32 0x7B2274726169745F74797065223A2022436F6E666964656E63652053636F7265 DUP2 MSTORE PUSH12 0x111610113B30B63AB2911D1 PUSH1 0xA5 SHL PUSH1 0x20 DUP3 ADD MSTORE PUSH1 0x2C ADD PUSH2 0x267D SWAP2 PUSH2 0x15AA JUMP JUMPDEST PUSH3 0x3E961 PUSH1 0xED SHL DUP2 MSTORE PUSH1 0x3 ADD PUSH32 0x7B2274726169745F74797065223A20224149204D6F64656C222C202276616C75 DUP2 MSTORE PUSH5 0x32911D1011 PUSH1 0xD9 SHL PUSH1 0x20 DUP3 ADD MSTORE PUSH1 0x25 ADD PUSH2 0x26C6 SWAP2 PUSH2 0x15AA JUMP JUMPDEST PUSH4 0x113E961 PUSH1 0xE5 SHL DUP2 MSTORE PUSH1 0x4 ADD PUSH32 0x7B2274726169745F74797065223A2022566572696669636174696F6E20446174 DUP2 MSTORE PUSH13 0x32911610113B30B63AB2911D1 PUSH1 0x9D SHL PUSH1 0x20 DUP3 ADD MSTORE PUSH1 0x2D ADD PUSH2 0x2718 SWAP2 PUSH2 0x15AA JUMP JUMPDEST PUSH3 0x3E961 PUSH1 0xED SHL DUP2 MSTORE PUSH1 0x3 ADD PUSH32 0x7B2274726169745F74797065223A2022537461747573222C202276616C756522 DUP2 MSTORE PUSH32 0x3A202256657269666965642041757468656E746963227D2C2000000000000000 PUSH1 0x20 DUP3 ADD MSTORE PUSH1 0x39 ADD PUSH32 0x7B2274726169745F74797065223A2022495046532048617368222C202276616C DUP2 MSTORE PUSH6 0x3AB2911D1011 PUSH1 0xD1 SHL PUSH1 0x20 DUP3 ADD MSTORE PUSH1 0x26 ADD PUSH2 0x27AE SWAP2 PUSH2 0x15AA JUMP JUMPDEST PUSH2 0x227D PUSH1 0xF0 SHL DUP2 MSTORE PUSH1 0x2 ADD PUSH2 0x5D7D PUSH1 0xF0 SHL DUP2 MSTORE PUSH1 0x2 ADD SUB SWAP1 PUSH1 0x1F NOT SWAP2 DUP3 DUP2 ADD DUP3 MSTORE PUSH2 0x27D9 SWAP1 DUP3 PUSH2 0x804 JUMP JUMPDEST PUSH2 0x27E1 PUSH2 0x29A0 JUMP JUMPDEST PUSH2 0x27EA SWAP2 PUSH2 0x2A27 JUMP JUMPDEST PUSH1 0x40 MLOAD PUSH32 0x646174613A6170706C69636174696F6E2F6A736F6E3B6261736536342C000000 PUSH1 0x20 DUP3 ADD MSTORE SWAP2 SWAP1 DUP3 SWAP1 PUSH1 0x3D DUP3 ADD PUSH2 0x2824 SWAP2 PUSH2 0x15AA JUMP JUMPDEST SUB SWAP1 DUP2 ADD DUP3 MSTORE PUSH2 0x305 SWAP1 DUP3 PUSH2 0x804 JUMP JUMPDEST SWAP1 PUSH2 0x283E DUP3 PUSH2 0x834 JUMP JUMPDEST PUSH2 0x284B PUSH1 0x40 MLOAD SWAP2 DUP3 PUSH2 0x804 JUMP JUMPDEST DUP3 DUP2 MSTORE DUP1 SWAP3 PUSH2 0x17FB PUSH1 0x1F NOT SWAP2 PUSH2 0x834 JUMP JUMPDEST DUP1 PUSH1 0x0 SWAP2 PUSH27 0x184F03E93FF9F4DAA797ED6E38ED64BF6A1F010000000000000000 DUP1 DUP3 LT ISZERO PUSH2 0x2992 JUMPI JUMPDEST POP PUSH14 0x4EE2D6D415B85ACEF8100000000 DUP1 DUP4 LT ISZERO PUSH2 0x2983 JUMPI JUMPDEST POP PUSH7 0x2386F26FC10000 DUP1 DUP4 LT ISZERO PUSH2 0x2974 JUMPI JUMPDEST POP PUSH4 0x5F5E100 DUP1 DUP4 LT ISZERO PUSH2 0x2965 JUMPI JUMPDEST POP PUSH2 0x2710 DUP1 DUP4 LT ISZERO PUSH2 0x2956 JUMPI JUMPDEST POP PUSH1 0x64 DUP3 LT ISZERO PUSH2 0x2946 JUMPI JUMPDEST PUSH1 0xA DUP1 SWAP3 LT ISZERO PUSH2 0x293C JUMPI JUMPDEST PUSH1 0x1 SWAP1 DUP2 PUSH1 0x21 PUSH2 0x28F4 PUSH1 0x1 DUP8 ADD PUSH2 0x2834 JUMP JUMPDEST SWAP6 DUP7 ADD ADD SWAP1 JUMPDEST PUSH2 0x2906 JUMPI JUMPDEST POP POP POP POP SWAP1 JUMP JUMPDEST PUSH1 0x0 NOT ADD SWAP1 DUP4 SWAP1 PUSH16 0x181899199A1A9B1B9C1CB0B131B232B3 PUSH1 0x81 SHL DUP3 DUP3 MOD BYTE DUP4 MSTORE8 DIV SWAP2 DUP3 ISZERO PUSH2 0x2937 JUMPI SWAP2 SWAP1 DUP3 PUSH2 0x28FA JUMP JUMPDEST PUSH2 0x28FF JUMP JUMPDEST SWAP2 PUSH1 0x1 ADD SWAP2 PUSH2 0x28E2 JUMP JUMPDEST SWAP2 SWAP1 PUSH1 0x64 PUSH1 0x2 SWAP2 DIV SWAP2 ADD SWAP2 PUSH2 0x28D7 JUMP JUMPDEST PUSH1 0x4 SWAP2 SWAP4 SWAP3 DIV SWAP2 ADD SWAP2 CODESIZE PUSH2 0x28CC JUMP JUMPDEST PUSH1 0x8 SWAP2 SWAP4 SWAP3 DIV SWAP2 ADD SWAP2 CODESIZE PUSH2 0x28BF JUMP JUMPDEST PUSH1 0x10 SWAP2 SWAP4 SWAP3 DIV SWAP2 ADD SWAP2 CODESIZE PUSH2 0x28B0 JUMP JUMPDEST PUSH1 0x20 SWAP2 SWAP4 SWAP3 DIV SWAP2 ADD SWAP2 CODESIZE PUSH2 0x289E JUMP JUMPDEST PUSH1 0x40 SWAP4 POP DUP2 DIV SWAP2 POP CODESIZE PUSH2 0x2885 JUMP JUMPDEST PUSH1 0x40 MLOAD SWAP1 PUSH1 0x60 DUP3 ADD DUP3 DUP2 LT PUSH1 0x1 PUSH1 0x1 PUSH1 0x40 SHL SUB DUP3 GT OR PUSH2 0x7B8 JUMPI PUSH1 0x40 MSTORE PUSH1 0x40 DUP3 MSTORE PUSH32 0x6768696A6B6C6D6E6F707172737475767778797A303132333435363738392B2F PUSH1 0x40 DUP4 PUSH32 0x4142434445464748494A4B4C4D4E4F505152535455565758595A616263646566 PUSH1 0x20 DUP3 ADD MSTORE ADD MSTORE JUMP JUMPDEST PUSH1 0x2 DUP2 SWAP1 SHL SWAP2 SWAP1 PUSH1 0x1 PUSH1 0x1 PUSH1 0xFE SHL SUB DUP2 AND SUB PUSH2 0x5CD JUMPI JUMP JUMPDEST SWAP1 DUP2 MLOAD ISZERO PUSH2 0x2AFE JUMPI PUSH2 0x2A53 PUSH2 0x2A4E PUSH2 0x2A49 PUSH2 0x2A42 DUP6 MLOAD PUSH2 0x1822 JUMP JUMPDEST PUSH1 0x3 SWAP1 DIV SWAP1 JUMP JUMPDEST PUSH2 0x2A0F JUMP JUMPDEST PUSH2 0x2834 JUMP JUMPDEST SWAP2 PUSH1 0x20 DUP4 ADD SWAP2 DUP2 DUP3 MLOAD DUP4 ADD PUSH1 0x20 DUP2 ADD SWAP2 DUP3 MLOAD SWAP4 PUSH1 0x0 DUP5 MSTORE JUMPDEST DUP3 DUP3 LT PUSH2 0x2AAC JUMPI POP POP POP MSTORE MLOAD PUSH1 0x3 SWAP1 MOD PUSH1 0x1 DUP2 EQ PUSH2 0x2A99 JUMPI PUSH1 0x2 EQ PUSH2 0x2A8E JUMPI POP SWAP1 JUMP JUMPDEST PUSH1 0x3D SWAP1 PUSH1 0x0 NOT ADD MSTORE8 SWAP1 JUMP JUMPDEST POP PUSH1 0x3D SWAP1 DUP2 PUSH1 0x0 NOT DUP3 ADD MSTORE8 PUSH1 0x1 NOT ADD MSTORE8 SWAP1 JUMP JUMPDEST SWAP1 SWAP2 SWAP6 PUSH1 0x4 SWAP1 PUSH1 0x3 DUP1 SWAP5 ADD SWAP4 DUP5 MLOAD PUSH1 0x1 SWAP1 PUSH1 0x3F SWAP1 DUP3 DUP3 DUP3 PUSH1 0x12 SHR AND DUP9 ADD ADD MLOAD DUP6 MSTORE8 DUP3 DUP3 DUP3 PUSH1 0xC SHR AND DUP9 ADD ADD MLOAD DUP4 DUP7 ADD MSTORE8 DUP3 DUP3 DUP3 PUSH1 0x6 SHR AND DUP9 ADD ADD MLOAD PUSH1 0x2 DUP7 ADD MSTORE8 AND DUP6 ADD ADD MLOAD SWAP1 DUP3 ADD MSTORE8 ADD SWAP6 SWAP2 SWAP1 PUSH2 0x2A6B JUMP JUMPDEST POP POP PUSH2 0x305 PUSH2 0x185A JUMP INVALID ADD PUSH22 0xB7A638427703F0DBE7BB9BBF987A2551717B34E79F33 0xB5 0xB1 STOP DUP14 0x1F LOG0 SAR 0xB9 LOG2 PUSH5 0x6970667358 0x22 SLT KECCAK256 ADDRESS 0xBF DUP10 DUP14 0xE6 GT PUSH15 0xF59706614863C5C35509E6CC43401E 0xD5 0xD7 PUSH3 0x7E8B37 JUMPI REVERT 0xDB DUP11 PUSH5 0x736F6C6343 STOP ADDMOD NOT STOP CALLER "},"methodIdentifiers":{"approve(address,uint256)":"095ea7b3","authorizedMinters(address)":"aa2fe91b","balanceOf(address)":"70a08231","baseURI()":"6c0360eb","getApproved(uint256)":"081812fc","getStatistics()":"372d6b27","getTokenIdByIPFS(string)":"b04458ca","getTokenMetadata(uint256)":"60316801","getTokensByOwner(address)":"40398d67","ipfsToTokenId(string)":"feb44988","isApprovedForAll(address,address)":"e985e9c5","isValidNFT(uint256)":"a2f1c87b","mintAuthenticityNFT(address,string,uint256,string)":"9450b3d6","name()":"06fdde03","owner()":"8da5cb5b","ownerOf(uint256)":"6352211e","renounceOwnership()":"715018a6","revokeNFT(uint256,string)":"558381e7","safeTransferFrom(address,address,uint256)":"42842e0e","safeTransferFrom(address,address,uint256,bytes)":"b88d4fde","setApprovalForAll(address,bool)":"a22cb465","setAuthorizedMinter(address,bool)":"ed58bad8","setBaseURI(string)":"55f804b3","supportsInterface(bytes4)":"01ffc9a7","symbol()":"95d89b41","tokenMetadata(uint256)":"6914db60","tokenURI(uint256)":"c87b56dd","totalMinted()":"a2309ff8","totalRevoked()":"e62ce7ac","totalSupply()":"18160ddd","transferFrom(address,address,uint256)":"23b872dd","transferOwnership(address)":"f2fde38b","version()":"54fd4d50"}}}}}